:020000040800F2
:1000000090710024E1020008B73900084139000866
:10001000B5390008FB090008F54D00080000000094
:100020000000000000000000000000008D450008F6
:10003000FD09000800000000B93900088F450008DC
:10004000FB020008FB020008FB020008FB0200089C
:10005000FB020008FB020008FB020008FB0200088C
:10006000FB020008FB020008FB020008FB0200087C
:10007000FB020008FB020008FB020008FB0200086C
:10008000FB020008FB020008FB020008FB0200085C
:10009000FB020008FB020008FB020008FB0200084C
:1000A000FB020008FB020008FB020008FB0200083C
:1000B000FB020008FB020008FB020008FB0200082C
:1000C000FB020008FB020008FB020008FB0200081C
:1000D000FB020008FB020008FB020008FB0200080C
:1000E000FB020008FB02000800000000FB02000801
:1000F000FB020008FB020008FB020008FB020008EC
:10010000FB020008C13B0008FB020008FB020008DC
:10011000FB020008FB020008FB020008FB020008CB
:10012000FB020008FB020008FB020008FB020008BB
:10013000FB020008FB020008FB020008FB020008AB
:1001400000000000000000000000000000000000AF
:10015000FB020008FB020008FB020008FB0200088B
:10016000FB020008FB020008FB020008FB0200087B
:10017000FB020008FB020008FB0200080000000070
:10018000FB020008FB020008FB020008FB0200085B
:10019000FB020008FB020008FB020008FB0200084B
:1001A000FB020008FB020008FB0200080000000040
:1001B000FB020008FB020008FB020008FB0200082B
:1001C000FB020008FB020008000000000000000025
:1001D0000000000000000000FB020008000000001A
:1001E000000000000000000000000000000000000F
:1001F0000000000000000000FB020008FB020008F5
:10020000FB020008FB02000800000000FB020008DF
:10021000FB020008FB020008FB020008FB020008CA
:10022000FB02000800000000FB02000800000000C4
:10023000FB020008FB02000800000000FB020008AF
:10024000FB020008FB020008FB020008FB0200089A
:10025000FB020008FB020008FB020008FB0200088A
:10026000FB020008FB020008FB020008FB0200087A
:10027000FB020008FB020008FB020008000000006F
:10028000FB020008FB020008FB020008FB0200085A
:1002900000000000FB020008FB0200080000000054
:1002A00000000000FB020008FB020008FB0200083F
:1002B000FB020008FB020008FB020008FB0200082A
:1002C000FB020008FB020008FB020008DFF80CD06C
:1002D00000F068FA0048004761750008907100243A
:1002E0000648804706480047FEE7FEE7FEE7FEE7D0
:1002F000FEE7FEE7FEE7FEE7FEE7FEE761460008F1
:10030000CD0200082DE9F05F0546002092469B468D
:1003100088460646814640241BE02846414647461B
:10032000224600F077F853465A46C01A914110D33E
:1003300011461846224600F05EF82D1A67EB0108B8
:100340004F4622460120002100F055F817EB000926
:100350004E41201EA4F10104DFDC484631462A4606
:100360004346BDE8F09F10B5431A934209D2831863
:10037000881803E010F8011D03F8011D521EF9D280
:1003800010BD40EA01039B0703D009E008C9121F12
:1003900008C0042AFAD203E011F8013B00F8013B3F
:1003A000521EF9D210BDD2B201E000F8012B491E55
:1003B000FBD270470022F6E710B513460A46044602
:1003C0001946FFF7F0FF204610BD30B50B46014639
:1003D00000202022012409E021FA02F59D4205D3E4
:1003E00003FA02F5491B04FA02F52844151EA2F18E
:1003F0000102F1DC30BD202A04DB203A00FA02F1D0
:10040000002070479140C2F1200320FA03F3194302
:1004100090407047202A04DB203A21FA02F00021A4
:10042000704721FA02F3D040C2F120029140084304
:10043000194670472DE9FE4F804681EA0300C00F40
:100440000C46009021F0004123F00045B8EB02007B
:10045000A94105D24046214690461C460B4602461D
:1004600023F00040104347D0270DC7F30A00C3F321
:100470000A510290401A019040286BDAC3F313002E
:1004800040F4801B0098924620B10023D2EB030A6F
:1004900063EB0B0B01985946C0F140025046FFF741
:1004A000AAFF06460D4650465946019A00F08CF9BF
:1004B00010EB08006141002487EA115284EAE773D7
:1004C0001A4340D0009A62B3019A012A4FEA0752B8
:1004D00015DC001B61EB02014FF0004202EA0752FB
:1004E000CDE90042001C41F5801132462B4600F058
:1004F0008CF903B0BDE8F08F40462146F9E7001BB8
:1005000061EB0201001C41F5801300185B412018CB
:10051000A2F5001747EB030140EAD570B6196D410B
:1005200011E06D084FEA360645EAC0754FEA0752FA
:10053000001B61EB0201001C41F5801149084FEAE4
:1005400030000019514132462B4603B0BDE8F04F50
:1005500000F04CB90098012240000023D0EB0202C9
:1005600063EBE073009821464FEAE074B8EB0000BB
:1005700061EB0401E9E783F000435BE781F00041B0
:1005800058E72DE9FE4F81EA030404F0004421F00E
:10059000004100944FF0000B23F0004350EA0104A7
:1005A0005ED052EA03045BD0C3F30A54C1F30A5588
:1005B0002C44A4F2F3340194A0FB0254C1F31301C0
:1005C00041F48011C3F3130343F4801301FB02448D
:1005D00000FB034E840A970A44EA815447EA835792
:1005E000A4FB076802958D0A05FB07854FEA932C4B
:1005F00004FB0C542705029D4FEA065847EA1637BC
:10060000B5EB08056EEB070C870E920E47EA8117D3
:1006100042EA8312A7FB0201B6EB0B0164EB000474
:100620002B0D43EA0C335E1844EB1C50DA4651465E
:10063000E7FB0201C5F313044FEA0B3343EA1453FB
:100640004FEA0432019C43EA0603A4F10C0402942D
:10065000009CCDE900B400F0D8F803B0BDE8F08FFD
:1006600000200146F9E72DE9F04D81EA030404F08A
:10067000004B21F0004514464FF0000A23F00041E2
:1006800050EA050220D054EA01021DD0C5F30A57F2
:100690000246C5F31303C1F31300C1F30A5640F435
:1006A000801543F48013A7EB0608101BD64608F20A
:1006B000FD3873EB050002D308F1010801E0921840
:1006C0005B41B8F1000F03DA00200146BDE8F08D70
:1006D00000204FF48011064684460EE0171B73EB92
:1006E000050705D3121B63EB050306434CEA010C17
:1006F00049084FEA300092185B4150EA0107EDD1FA
:1007000052EA030012D082EA040083EA050108439A
:1007100005D0101BAB4106D20122002306E00022C7
:100720004FF0004302E06FF0010253101AEB060095
:100730004CEB085110EB0A0041EB0B01BDE8F04D0A
:1007400000F054B8C1F30A52C1F3130140F2FF3371
:1007500041F480119A4202DA00200146704740F2CB
:1007600033439A42A2F2334202DC5242FFF752BEB6
:10077000FFF741BE30B5041E71F1000404DB4FF0F9
:100780000044404264EB0101141E73F1000405DBD8
:100790001C464FF00043524263EB0403994208BFEA
:1007A000904230BD064C074D06E0E06840F0010382
:1007B00094E8070098471034AC42F6D3FFF78AFD5F
:1007C000781C0108981C0108202A06DBCB17203A68
:1007D00041FA02F043EAE07306E041FA02F3D04046
:1007E000C2F12002914008431946704710B5141E0B
:1007F00073F1000408DA401C41F1000192185B41DA
:100800001A4301D120F0010010BD2DE9F04D9246B0
:100810009B4611B1B1FA81F202E0B0FA80F22032C7
:100820009046FFF7E8FD04460F4640EA0A0041EA19
:100830000B0153465A46084313D0114653EA0100B0
:1008400019D0C8F140025046FFF7E4FD05460E46B8
:10085000504659464246FFF7CEFD084305D00120D9
:1008600004E020463946BDE8F08D0020054346EA05
:10087000E0762C4337430A986305E40AA0EB0800AE
:100880000022FD0A44EA47540A3002D500200146FE
:10089000E9E7010510196941DDE9084500196941D9
:1008A000BDE8F04DA2E7000000281CBF6FF001007A
:1008B000704780B54F4802F08FF9002818BF6FF0DD
:1008C000030080BD80B5C0EB40104A4901EB8000B9
:1008D00002F093F9043818BF012080BD70B586B0CE
:1008E00010B16FF001004FE02B4EB06D01AC40F441
:1008F00080302A4DB0652146B06D00F48030019003
:100900000198706E40F004007066706E00F0040094
:1009100001900198706E40F008007066706E00F0F3
:10092000080001900198022002900120039003200A
:1009300004900C2005904FF4F8500190284600F0E8
:1009400013FA0420019005F58060214600F00CFAAE
:1009500030680E2140F4803030600022306820F48E
:1009600080303060312000F04DFB312000F03CFB46
:10097000204803F00BF828B91E484FF4804101F0DD
:100980009DFF18B16FF0030006B070BD1948022139
:1009900001F03AFF0020F7E77C44025800080258B3
:1009A00000281CBF6FF001007047E0B5642003FB16
:1009B00000FC1048CDF800C002F0B6FC002818BFBB
:1009C0006FF0030002B080BD7047000000281CBF1C
:1009D0006FF001007047E0B5642003FB00FC0548A0
:1009E000CDF800C002F080FD002818BF6FF00300B2
:1009F00002B080BD7C4000247047FEE770470022B3
:100A0000AFF3008080B5DFF848E09EF80E30012B90
:100A10001CD89EF80E30844600200EF803009EF885
:100A20000E300EEB8303C3F804C09EF80E307344FF
:100A30001A739EF80E20531C30328EF80E300A7056
:100A400042F63A72A1F80120C87080BD012080BD35
:100A50006C10002470B5ADF5805D82B0134C611C44
:100A60001348FFF7CCFF13480122134905F0A4FEF9
:100A70000028207011D0114807F0CCFC4FF4805CA6
:100A80000D4802ABCDF800C00221002205F084FB26
:100A90000028207003D00A4802E013A000E009A05B
:100AA00007F0B8FC0DF5805D02B070BD2000002499
:100AB000D884000834000024DB970008F79600086B
:100AC0001D95000853442063617264206973206699
:100AD0006F726D617474656420737563636573739D
:100AE00066756C6C790D00000D0A534420436172E9
:100AF000642046415446532073797374656D2069B0
:100B000073206D6F756E74656420737563636573B0
:100B10007366756C6C79210D000000002DE9F043BF
:100B2000ADF5A25D85B038A10DF204402422FFF797
:100B30001AFC3E4807F06EFC0DF22C403C490A229C
:100B400005F060FE3B4F0028387001D03A4841E084
:100B50003AA007F05FFC0DF22C400DF204410DF5B8
:100B60008563242206F043F80028387001D04348FA
:100B700030E0434807F04EFC0DF204444148214662
:100B800006F0ACFF0DF22C46304605F08BFA3E48DD
:100B900007F040FC26490122304605F033FE01AD46
:100BA00038700DF5856324223046294605F01EFF76
:100BB0000028387001D035480CE0354807F02AFC91
:100BC0000020232812D8C1B20130625C695C8A42DD
:100BD000F7D0314807F01EFC0DF22C4005F062FA08
:100BE00001200DF5A25D05B0BDE8F083294807F0AE
:100BF00011FC244801A906F071FF0DF22C4005F00C
:100C000051FA0020EDE700BF53544D3332205344D6
:100C100020436172642046696C6520537973746562
:100C20006D20546573742054657874008B960008A9
:100C300056980008200000245E95000866696C65DF
:100C4000206F70656E6564202F2063726561746526
:100C500064207375636365737366756C6C792C209F
:100C6000726561647920746F207772697465206998
:100C70006E20646174612E2E2E0D0000DB9500083D
:100C8000429700081895000856960008A09500089D
:100C9000CC9600086E97000816960008BCB5694609
:100CA0000C4801AA05F00CFA0198C1694089023983
:100CB000009A41435043CC0AC50A07A007F0AAFB9B
:100CC00014A0214606F00AFF17A0294606F006FFE9
:100CD000BCBD00BFDB9700082D2D2D2D2D2D2D2DFA
:100CE0002D2D2D2D2D2D2D2D2D2D2D676574206451
:100CF000657669636520766F6C756D6520696E66D3
:100D00006F2D2D2D2D2D2D2D2D2D2D2D2D2D2D2DD1
:100D10002D2D0D0053442063617061636974793A2D
:100D20002025644D420D0A0053442072656D6169AF
:100D30006E696E672063617061636974793A20251A
:100D4000644D420D0A000000B0B5044600F0E0F822
:100D50009B49621C0978054618BF0C4400F0D8F87E
:100D6000401BA042FAD3B0BD2DE9FC4F5E4A0A27D2
:100D70005E4C02444FEAB223A04208BF0927082B69
:100D800038BF4FEAB2274FF0000C009701274FF011
:100D9000000E00269EE007FA06F912EA090B00F0A1
:100DA00094804A6802F00308A8F1010ABAF1010F21
:100DB00013D80324856804FA0EF325EA0303CD68EB
:100DC00005FA0EF52B4383604368C2F3001523EA4E
:100DD0000903B5402B43436004E0B8F1030F4FF023
:100DE00003041FD0C36804FA0EF5AB438D6805FAFF
:100DF0000EF52B43B8F1020FC36013D16FF003025D
:100E000002EA560202440CF01C03D2F820800F259F
:100E10009D4028EA05080D6905FA03F343EA080333
:100E200013624A68036804FA0EF5AB4302F0030547
:100E300005FA0EF52B4312F4403F036045D0694A92
:100E400013462B4C12680F2542F002021A601A68F2
:100E500002F00202019226F00302019B0CF00C0347
:100E600052F804809D40009F28EA050507FA03F325
:100E70002B4313514FF0B048D8F800204B6842EA9A
:100E80000B05DF0258BF22EA0B05164A1446C8F8C4
:100E900000509F02126842EA0B0558BF22EA0B0578
:100EA0009F0325604FF00107D4F8802042EA0B052C
:100EB00058BF22EA0B05DB03C4F88050E26F42EA18
:100EC0000B0558BF22EA0B05E56701360EF1020E4D
:100ED0000CF1040C0A6832FA06F47FF45CAFBDE84A
:100EE000FC8F00BF040000580000FEA70024025839
:100EF00008040058426902EA0103914341EA0341B0
:100F000081617047002A08BF0904816170470000B1
:100F100005480068704700BF2948007802490A6800
:100F200010440860704700BF8C41002480B5032046
:100F300000F088F801F074F90F490A68C2F303223F
:100F40000968624B01F00F019A5C595C02F01F02C4
:100F5000D0400A4A01F01F0120FA01F1116019493D
:100F600008600F2000F00CF808B1012080BD00F0EF
:100F70002BF8002080BD00BF184402581400002444
:100F800070B50F4E3178C1B104464FF47A70B0FBA2
:100F9000F1F00C490968B1FBF0F002F081FB0F2C75
:100FA0004FF001050AD848B94FF0FF300022214622
:100FB000002500F027F8746000E00125284670BD88
:100FC000080000241000002481B00648016841F0A8
:100FD00002010160006800F002000090009801B07A
:100FE000704700BFF4440258002808DB00F01F01DE
:100FF000012202FA01F1024A400942F8201070472A
:1010000000E100E080B5154B1B68C3F3022C8CF0A7
:10101000070EBEF1040F28BF4FF0040EBCF103030E
:101020004FF0FF3C38BF00230CFA0EFE21EA0E0100
:1010300099400CFA03F39A431143BDE8804003F052
:10104000DBBE00BF05490A684FF6FF031A4060F394
:101050000A22034810430860704700BF0CED00E00F
:101060000000FA05B0B5104D29684907296805D474
:1010700001F00701081A18BF0120B0BD21F00701D7
:1010800008432860FFF744FF044655F8080C800425
:1010900007D4FFF73DFF001BB0F57A7FF5D901209B
:1010A000B0BD0020B0BD00BF0C48025880B501F0B3
:1010B00077F80549054A0968C1F30211515C01F04E
:1010C0001F01C84080BD00BF20440258388400087A
:1010D00010B53D4CA36AA26AC2F3051CE26A616BBB
:1010E00002F00102C1F3CC01BCF1000F11FB02F1CF
:1010F00000EE101AB8EE400A0CD003F00303022BE6
:101100000CD0012B0DD013B9216889060CD49FEDAA
:10111000311A13E00021C0E9001153E09FED2C1AB1
:101120000CE09FED2A1A09E021682B4AC1F3C101A6
:1011300022FA01F101EE101AB8EE411A02EE10CABD
:101140009FED263AB8EE422A216B6FF35F2181EEC4
:10115000021A02EE101AB8EE422A216BC1F34621A0
:1011600000EE032AB7EE000A03EE101A32EE002A50
:10117000B8EE433A21EE021A33EE002A81EE022A3B
:10118000BCEEC22A80ED002A216BC1F3064102EEBB
:10119000101AB8EE422A32EE002A81EE022ABCEE84
:1011A000C22A80ED012A216BC1F3066102EE101AFA
:1011B000B8EE422A32EE000A81EE000ABCEEC00A06
:1011C00010EE101A816010BD004402580024744AC9
:1011D00020BCBE4B0024744C0090D00300000039AA
:1011E00010B53C4CA36AA26AC2F3053CE26AC2F3A2
:1011F0000012E16BC1F3CC01BCF1000F11FB02F155
:1012000000EE101AB8EE400A0AD003F00303022BD6
:101210000AD063B9216889060CD49FED311A13E016
:101220000021C0E9001153E09FED2C1A0CE09FED66
:101230002A1A09E021682B4AC1F3C10122FA01F1FF
:1012400001EE101AB8EE411A02EE10CA9FED263ACE
:10125000B8EE422AA16B6FF35F2181EE021A02EE13
:10126000101AB8EE422AA16BC1F3462100EE032A00
:10127000B7EE000A03EE101A32EE002AB8EE433A37
:1012800021EE021A33EE002A81EE022ABCEEC22AB7
:1012900080ED002AA16BC1F3064102EE101AB8EEF0
:1012A000422A32EE002A81EE022ABCEEC22A80EDEA
:1012B000012AA16BC1F3066102EE101AB8EE422AB0
:1012C00032EE000A81EE000ABCEEC00A10EE101ADF
:1012D000816010BD004402580024744A20BCBE4BFB
:1012E0000024744C0090D0030000003910B53C4C31
:1012F000A36AA26AC2F3055CE26AC2F30022616CCF
:10130000C1F3CC01BCF1000F11FB02F100EE101A89
:10131000B8EE400A0AD003F00303022B0AD063B9E7
:10132000216889060CD49FED311A13E00021C0E931
:10133000001153E09FED2C1A0CE09FED2A1A09E0F2
:1013400021682B4AC1F3C10122FA01F101EE101A02
:10135000B8EE411A02EE10CA9FED263AB8EE422AC4
:10136000216C6FF35F2181EE021A02EE101AB8EEC3
:10137000422A216CC1F3462100EE032AB7EE000A8F
:1013800003EE101A32EE002AB8EE433A21EE021AAA
:1013900033EE002A81EE022ABCEEC22A80ED002A3A
:1013A000216CC1F3064102EE101AB8EE422A32EE69
:1013B000002A81EE022ABCEEC22A80ED012A216CAD
:1013C000C1F3066102EE101AB8EE422A32EE000AAC
:1013D00081EE000ABCEEC00A10EE101A816010BD4A
:1013E000004402580024744A20BCBE4B0024744CB4
:1013F0000090D00300000039F8B580F400220A43C1
:101400005ED080F480620A4300F06B8080F400625A
:101410000A4300F0738080F480520A4325D080F4A0
:1014200000520A4330D080F480420A4300F07580B5
:1014300080F400420A4300F07F8080F480320A4347
:1014400031D080F48070084340F0E4808049086D1A
:1014500000F00702042A00F2DD808148DFE812F084
:101460005B007C008300DB008B007949086DC0F3D2
:101470000232042A00F2CE807948DFE812F04C00F4
:101480006D007400CC007C007148016DC1F3024115
:10149000052900F2BF80DFE801F003888F96A05B8A
:1014A00000F09EFEB7E06A48C16CC903006840F1D5
:1014B000AF80000140F1AE8001A8FFF791FEA4E0EB
:1014C0006348816D01F44031B1F5003F00F08B803D
:1014D000B1F5803F00F09380002940F09B800068C8
:1014E0003BE05B49886DC0F34252042A00F29280CF
:1014F0005B48DFE802F01031389040005449886DB5
:10150000C0F30262042A00F285805548DFE802F049
:1015100003242B83330008687AE04D48816DC1F3C2
:101520000271052900F27680DFE801F0033F464DA5
:101530005712FFF7BBFD6EE04548016D01F04051C9
:10154000B1F1005F31D0B1F1805F60D0002961D18D
:1015500000684049800343E0086800015AD501A8AB
:10156000FFF73EFE05E00868800053D501A8FFF7AD
:10157000BDFE01984FE0C86C10F040520B6808683F
:1015800002D113F0040322D1B2F1805F02D110F432
:1015900080704DD1086810F400301CBF47F6400041
:1015A000C0F27D10B2F1005F4EE00068000131D55D
:1015B00001A8FFF715FE33E0006880002AD501A8D6
:1015C000FFF794FE2CE00168490723D50068C0F3BB
:1015D000C100224921FA00F01DE000681E49C00543
:1015E00001EAE07017E0C16C11F040510368026835
:1015F00018D113F0040315D0C2F3C100E9E7006865
:10160000800007D501A8FFF771FE039803E000688A
:10161000800102D4002004B080BD01A8FFF758FD6E
:101620000298F8E7B1F1805F04D112F4807201D022
:101630000948F0E7006810F400301CBF47F640008E
:10164000C0F27D10B1F1005F18BF0020E3E700BFDA
:101650000044025840787D0100093D000090D0030D
:101660000080BB002DE9F0470446C078AF4F00076B
:1016700022D5606E4FEA3051032908D8DFE801F027
:1016800002090F17F96941F40031F9610FE00126F1
:1016900013E004F10800022102F090F904E004F1E3
:1016A0002800022102F00AFA064630B9606E396C51
:1016B00021F440110843386400266078BA46C00718
:1016C00001D135462AE0A06D04280BD83546DFE865
:1016D00000F0030C12181800F869354640F4003089
:1016E000F8610EE00125012719E004F1080000214E
:1016F00002F064F904E004F12800002102F0DEF9B0
:101700000546002D2F460AD1DAF84000002520F0CA
:101710000700A16D08435246CAF84000374660787A
:1017200040072FD5D4F8A4004FEA705005280CD8F4
:10173000DFE800F0030E141A1A1ADAF81C005146FA
:1017400040F40030CAF81C000EE0012501261AE022
:1017500004F10800002102F031F904E004F128004E
:10176000002102F0ABF90546002D2E460BD1DAF828
:101770004800002520F46000D4F8A4100843524625
:10178000CAF848003E46607800072FD5D4F8A80074
:101790004FEA306005280CD8DFE800F0030E141A79
:1017A0001A1ADAF81C00514640F40030CAF81C003E
:1017B0000EE0012501271AE004F10800002102F0E3
:1017C000FDF804E004F12800002102F077F9054655
:1017D000002D2F460BD1DAF84800002520F0E060FC
:1017E000D4F8A81008435246CAF848003746E078B3
:1017F000800726D5E06C4FEA301003280BD8DFE8CD
:1018000000F013020D13DAF81C00514640F40030CA
:10181000CAF81C0008E00125012613E004F10800C5
:10182000022102F0CBF80546002D2E460AD1DAF847
:101830003C00002520F03000E16C08435246CAF815
:101840003C003E466078C0062DD5E06D4FEA303052
:1018500004280CD8DFE800F0030E141A1A00DAF896
:101860001C00514640F40030CAF81C000EE001256F
:10187000012719E004F10800002102F09FF804E0BC
:1018800004F12800002102F019F90546002D2F4629
:101890000AD1DAF84000002520F4E040E16D084369
:1018A0005246CAF8400037466078800625D5206E3B
:1018B0004FEA304005280AD8DFE800F012030C1286
:1018C000121204F10800012102F078F807E0012566
:1018D000012613E004F12800012102F0EFF805468B
:1018E000002D2E460AD1DAF84000002520F4E02031
:1018F000216E08435246CAF840003E4660784006D2
:101900002AD5D4F8AC004FEA307005280AD8DFE8B1
:1019100000F015030F15151504F10800012102F060
:101920004DF80AE00125012717E000BF10440258D6
:1019300004F12800012102F0C1F80546002D2F46D0
:101940000BD1DAF84800002520F0E040D4F8AC10C4
:1019500008435246CAF8480037466078000622D548
:10196000E06E98B1B0F1005F0AD0B0F1805F2ED187
:10197000DAF81C00514640F40030CAF81C0005E0BB
:1019800004F10800012102F019F80546002D2E4649
:101990000AD1DAF84000002520F04050E16E0843FB
:1019A0005246CAF840003E46E078C00702D1B04631
:1019B000574624E0A06C574603280BD8DFE800F018
:1019C00014020E14F86940F40030F8610CE00125AF
:1019D0000126E9E701254FF0010810E004F10800B5
:1019E000022101F0EBFF0546002DA84607D1F86B58
:1019F000002520F00300A16C0843B046F863A078EE
:101A0000400601D4474617E0D7F8F00340F4807051
:101A1000C7F8F003FFF77CFA0646D7F8F003C005D5
:101A200007D4FFF775FA801B6428F6D9032503272E
:101A300002E0002D2F4612D02078C00750D0A06FB2
:101A40004FEAF000052835D8DFE800F03D03373DC8
:101A50003D3D04F10800012101F0B0FF32E0DAF869
:101A600060105346D4F8B000414011F4407F0BD0D1
:101A7000196E1A6E21F4407142F480321A661A6EA1
:101A800022F480321A661966B0F5807F40F06682D3
:101A9000FFF73EFA064641F2883903250327DAF8B4
:101AA0006000800700F15782FFF732FA801B48453B
:101AB000F5D9C1E70125012613E004F12800012131
:101AC00001F0FCFF0546002D2E460AD1DAF844004D
:101AD000002520F03800A16F08435246CAF84400A0
:101AE0003E462078800723D5606F05280AD8DFE8B6
:101AF00000F012030C12121204F10800012101F08F
:101B00005DFF07E00125012713E004F12800012112
:101B100001F0D4FF0546002D2F460AD1DAF8440023
:101B2000002520F00700616F08435246CAF84400C0
:101B300037462078400725D5D4F8900005280AD8E4
:101B4000DFE800F012030C12121204F10800012168
:101B500001F034FF07E00125012614E004F128001C
:101B6000012101F0ABFF0546002D2E460BD1DAF81E
:101B70004800002520F00700D4F890100843524692
:101B8000CAF848003E462078800627D5D4F88C0055
:101B90004FEA307005280AD8DFE800F012030C1273
:101BA000121204F10800002101F008FF07E00125EE
:101BB000012714E004F12800022101F07FFF05460F
:101BC000002D2F460BD1DAF84400002520F0E0402C
:101BD000D4F88C1008435246CAF84400374620789F
:101BE000400627D5D4F898004FEAB02005280AD837
:101BF000DFE800F012030C12121204F108000021B9
:101C000001F0DCFE07E00125012614E004F12800C4
:101C1000022101F053FF0546002D2E460BD1DAF8C4
:101C20004800002520F4E050D4F8981008435246AC
:101C3000CAF848003E462078000627D5D4F89C0014
:101C40004FEA703005280AD8DFE800F012030C12C2
:101C5000121204F10800002101F0B0FE07E0012596
:101C6000012714E004F12800022101F027FF0546B6
:101C7000002D2F460BD1DAF84800002520F46040F3
:101C8000D4F89C1008435246CAF8480037462068EA
:101C9000010717D5D4F88010B1F5805F0AD104F19F
:101CA0002800022101F00AFF0028206818BF012740
:101CB000D4F88010DAF84420534622F440521143FD
:101CC000CAF84410C10617D5D4F89410B1F5807F36
:101CD0000AD104F12800022101F0F0FE002820685A
:101CE00018BF0127D4F89410DAF84820534622F49C
:101CF00040721143CAF84810000322D5D4F8A0005E
:101D0000B0F5003F0FD0B0F5803F06D088BB04F19E
:101D10000800002101F052FE04E004F12800022135
:101D200001F0CCFE0546002D2E460BD1DAF8480016
:101D3000002520F44030D4F8A01008435246CAF8D9
:101D400048003E46A07840072AD5D4F88400B0F574
:101D5000401F17D0B0F5001F0ED0B0F5801F40F027
:101D6000F580DAF81C00514640F40030CAF81C0037
:101D700008E001250126E5E704F12800012101F032
:101D80009DFE0546002D2F460BD1DAF844000025B4
:101D900020F44010D4F8841008435246CAF8440096
:101DA0003746A078C00701D13E4622E0206DB0F54D
:101DB000803F08D0D8B9DAF81C00514640F4003012
:101DC000CAF81C0005E004F10800022101F0F6FD4C
:101DD0000546002D2E460CD1DAF83C00002520F4F3
:101DE0008030216D08435246CAF83C00DCE70125EB
:101DF00001262168880001D4606809E004F1280008
:101E0000022101F05BFE002818BF0126D4E9001072
:101E10008A031AD5E26F6FF0010303EB3223022B22
:101E20000BD34FEA322343B1012B40F09280DAF812
:101E30001C3043F40033CAF81C303DB9DAF84430A2
:101E400023F440731A43CAF844203546CA0207D522
:101E5000DAF8402022F00042236F1A43CAF84020EB
:101E60008A0207D5DAF8402022F08072A36E1A4366
:101E7000CAF840204A000CD5DAF8002022F40042CB
:101E8000CAF80020D4F8B420DAF800301A43CAF8AF
:101E90000020B1F1FF3F07DCDAF83C2022F040528D
:101EA000636D1A43CAF83C20090208D5DAF84410D9
:101EB00021F44001D4F888201143CAF84410C10726
:101EC00008D004F10800002101F078FD002818BFB7
:101ED00005466068810708D504F10800012101F07A
:101EE0006DFD002818BF05466068410708D504F15C
:101EF0000800022101F062FD002818BF0546606855
:101F0000010708D504F12800002101F0D7FD0028C1
:101F100018BF05466068C10608D504F128000121F4
:101F200001F0CCFD002818BF05466068800603D488
:101F30004DB10120BDE8F08704F12800022101F035
:101F4000BDFD2843F5D10020BDE8F087012501271C
:101F500027E701257AE75346D4F8B00000F4407132
:101F60001A68B1F5407F22F47C5103D1054A02EA98
:101F70001012114319606FF31F30196E00250843CA
:101F800018663FE5CFFFFF002DE9F843002800F079
:101F9000FE800446804B186800F00F008846884297
:101FA0000BD2186820F00F0040EA0800186018688B
:101FB00000F00F00404540F0EA802068CF4F410715
:101FC0000AD52169BA6902F07002914204D9BA694E
:101FD00022F070021143B96101070AD56169FA69FB
:101FE00002F07002914204D9FA6922F070021143A2
:101FF000F961C1060AD5A169FA6902F4E062914269
:1020000004D9FA6922F4E0621143F96181060AD524
:10201000E1693A6A02F07002914204D93A6A22F008
:1020200070021143396281070AD5E168BA6902F08A
:102030000F02914204D9BA6922F00F021143B9612B
:10204000C10736D0B86920F47061D4E901021143A8
:102050000328B96105D0022807D1396889030DD456
:1020600095E03968890109D491E00128396802D1E5
:10207000C90503D48BE0490740F189803969994645
:1020800021F0070108433861FEF742FF064641F29E
:102090008835386900F038006168B0EBC10F06D0B0
:1020A000FEF736FF801BA842F3D9032070E02068BA
:1020B0004B4681070AD5E168BA6902F00F029142E6
:1020C00004D2BA6922F00F021143B961196801F014
:1020D0000F0141450AD9196821F00F0141EA0801B1
:1020E0001960196801F00F01414550D141070AD527
:1020F0002169BA6902F07002914204D2BA6922F0F1
:1021000070021143B96101070AD56169FA6902F0E9
:102110007002914204D2FA6922F070021143F9610F
:10212000C1060AD5A169FA6902F4E062914204D2BB
:10213000FA6922F4E0621143F96180060AD5E06988
:10214000396A01F07001884204D2396A21F07001C5
:102150000843386200F064F8B969C1F303212F4ADB
:10216000515CBB6903F00F03D25C01F01F0120FA40
:1021700001F102F01F00184A21FA00F01060174A1E
:10218000064800681160BDE8F843FEF7F9BE01207B
:1021900001B0BDE8F08300BF002000520C00002415
:1021A00080B500F03DF80B490A68C2F303220968C4
:1021B0001A4B01F00F019A5C595C02F01F0220FAE1
:1021C00002F201F01F00044922FA00F008600349FE
:1021D0000A6080BD18440258140000241000002436
:1021E00080B5FFF7DDFF0C490C4A0968C1F3021105
:1021F000515C01F01F01C84080BD00BF80B5FFF7F2
:10220000CFFF0549054A0968C1F30221515C01F07D
:102210001F01C84080BD00BF1C440258388400081C
:1022200036490869C0F3C20003280CD0022828D020
:1022300048BB08688006374858BF70470968C1F333
:10224000C101C84070478A6A886AC0F3051CCB6A1E
:10225000486B03F00103C0F3CC00BCF1000F10FB8E
:1022600003F000EE100AB8EE400A0ED002F00302AE
:10227000022A0CD072B9086880060ED49FED241A89
:1022800015E0204870471E487047002070479FEDBA
:102290001F1A0CE09FED1C1A09E008681D4AC0F3E4
:1022A000C10022FA00F001EE100AB8EE411A02EE67
:1022B00010CA9FED193AB8EE422A086B6FF35F20FF
:1022C00081EE021A02EE100AB8EE422A086BC0F341
:1022D000462000EE032AB7EE000A013032EE000A73
:1022E00021EE000A01EE100AB8EE411A80EE010A52
:1022F000BCEEC00A10EE100A704700BF004402583E
:1023000000093D0040787D010024744A20BCBE4B8A
:102310000024744C0090D00300000039F8B5002868
:1023200000F06A8104460078CF4EC00720D12078A3
:10233000800776D5306910F03801B06A3ED0182990
:1023400008BF5FEA807039D0E0680028316857D054
:1023500021F0190108433060FEF7DAFD05463068C8
:10236000400745D4FEF7D4FD401B0228F7D9B0E161
:10237000306900F03801B06A102905D018290AD157
:1023800000F00300022806D130688003CFD56068D2
:102390000028CCD130E16068002800F0B280B0F5B0
:1023A000803F07D0B0F5A02F306840F07F8140F427
:1023B00080203060306840F480307DE13068400734
:1023C000E06802D5002800F01781316821F019017A
:1023D00008433060FEF79CFD05463068400707D48F
:1023E000FEF796FD401B02284FF00300F5D971E17E
:1023F000706820F0FE40216940EA0160706010E0E2
:1024000021F001003060FEF783FD0546306840078B
:1024100007D5FEF77DFD401B02284FF00300F5D9DC
:1024200058E12078C0062FD5306900F03801B06A35
:10243000082905D018290AD100F00300012806D187
:102440003068C00519D5E069802816D0D4E0E0696D
:102450000028306800F0F58040F080003060FEF722
:1024600057FD05463068C00507D4FEF751FD401BF7
:1024700002284FF00300F5D92CE1F06820F07C50E1
:10248000216A40EA0160F0602078000723D5606986
:102490000028706F0ED040F001007067FEF738FD25
:1024A0000546706F800716D4FEF732FD401B0228E8
:1024B000F7D90EE120F001007067FEF729FD05460F
:1024C000706F800707D5FEF723FD401B02284FF0F1
:1024D0000300F5D9FEE0207880063AD5A0690028EF
:1024E000306825D040F480503060FEF711FD05467D
:1024F000306880042DD4FEF70BFD401B0228F7D96D
:10250000E7E0306820F480303060306820F48020CC
:102510003060FEF7FDFC0546306880037FF507AFAD
:10252000FEF7F6FC401B64284FF00300F4D9D1E01D
:1025300020F480503060FEF7EBFC054630688004E4
:1025400007D5FEF7E5FC401B02284FF00300F5D944
:10255000C0E02078400751D4656A002D00F0358135
:10256000306900F03800182840F08080B16A012DF1
:10257000306B41D001F00302A36A9A423CD1C1F30F
:102580000511E26A914237D10146226B6FF35F2158
:10259000013A914230D1C0F34621626B013A914237
:1025A0002AD1C0F30641A26B013A914224D1C0F373
:1025B0000660E16B013988421ED1706BC0F3CC001C
:1025C000A16C814200F00181F06A20F00100F0620C
:1025D000FEF79EFC0546FEF79BFCA842FBD0706B05
:1025E0004FF6F8718843A16C40EAC1007063F06A4D
:1025F00040F00100F062E8E001206BE0D6F8000452
:1026000040F48070C6F80004FEF782FC0546D6F858
:102610000004C00505D4FEF77BFC401B6428F6D9F6
:1026200057E0A068002857D0012806D00528306F51
:1026300040F0CD8040F004003067306F40F0010082
:10264000CBE020F080003060FEF762FC0546306889
:10265000C0057FF519AFFEF75BFC401B02284FF069
:102660000300F4D936E000BF00440258306820F07F
:1026700080703060FEF74CFC022D05460AD13068B0
:10268000800142D5FEF744FC401B02284FF00300B6
:10269000F5D91FE03068800140F19780FEF738FCE3
:1026A000401B02284FF00300F4D913E020F48030DF
:1026B0003060306820F480203060FEF729FC054649
:1026C000306880033FF533AEFEF722FC401B6428E0
:1026D000F6D9032001B0F0BD306F20F00100306763
:1026E000306F20F004003067FEF712FC054641F21F
:1026F0008837306F80077FF52FAFFEF709FC401B4E
:10270000B8424FF00300F4D9E4E7B06A40F2F33185
:102710008843A16A226B0843511E626B4FF47E43CB
:1027200003EB4222E36A6FF35F2192B240EA0310A7
:10273000B0625018A16B4FF4FE0202EB014101F4AC
:10274000FE010844E16B4FF0FE4202EB016101F033
:10275000FE41084430634FF6F871F06A20F0010042
:10276000F062706B8843A16C40EAC1007063F06A4C
:1027700020F00C00216C0843F062F06A20F00200A7
:10278000616C0843F062F06A40F48030F062F06AF5
:1027900040F40030F062F06A40F48020F062F06AA9
:1027A00040F00100F062306840F080703060FEF769
:1027B000AFFB04463068800107D4FEF7A9FB001B7D
:1027C00002284FF00300F5D984E7002082E720F0CB
:1027D00001003067306F20F004003067FEF798FB8F
:1027E000054641F28837306F80073FF5B5AEFEF7FA
:1027F0008FFB401BB8424FF00300F4D96AE77047E3
:10280000704770477047000070B50322022980F8B6
:10281000302004460DD0012915D0F9B9A06DB0F5CE
:10282000807F18BFB0F5007F0AD0A06B012807D0C9
:1028300012E0A06DB0F5807F18BFB0F5007F36D1F3
:102840001D48411C00E01C49204601F0C9FD18B19B
:10285000606B40F0805004E0002504E0606B40F0C5
:10286000006001256063FEF753FB0646204600F03A
:10287000C4F9042809D0FEF74BFB801B0130F5D1C9
:102880004FF00040606303250CE020684FF40071B6
:1028900001F0C8F930B12168CE4A01258A63616B25
:1028A00008436063012084F83000284670BDA06BA7
:1028B0000128C5D0CCE700BF00FFFF802DE9FF4114
:1028C000032280F830200446806B0D4603280BD18C
:1028D0004FF08050616BBF4F08436063606B40B343
:1028E00020688763012596E0002D4CD0B5F5004F98
:1028F000EED0B5F5804F5CD10020CDE90200206814
:10290000002101F0B9FC800156D402A9204601F053
:10291000FFFC0028DED19DF80E00400746D5616C13
:102920002068090401F04FF90028D3D12068022162
:102930005AE04FF480300021FEF75EFDF0B13F49D0
:10294000B0FBF1F36669D4E90112D4F810C09E42DD
:102950005AD2BE46A76DB7F5007F54D0B7F5807F39
:102960002DD1002E354B42D07700B0FBF7F79F42B8
:10297000774649D9334BB0FBF3F645E0606B40F046
:1029800000606063AEE70020CDE90200206800210E
:1029900001F072FC80010FD402A9204601F0B8FCBE
:1029A000002897D19DF80E00C00713D14FF080602A
:1029B00090E74FF000608DE74FF400608AE7002E4B
:1029C0001F4F1AD0B8467700B0FBF7F0404588BFDC
:1029D0001E4618E0616C2068090401F0F4F8002834
:1029E0007FF478AF2068002101F035F972E7984252
:1029F00008D9144BB0FBF3F605E0B84298BF0023AA
:102A00001E4600E00026774620682B46CDE900C62A
:102A100001F036FC002520684FF4007101F002F946
:102A200028B1216801258F63616B08436063012031
:102A300084F83000284604B0BDE8F08180F0FA0246
:102A400040787D0100E1F5057047000080B5D0F8C1
:102A500038C0D0E9173E9A0F0A70C3F38362BCF105
:102A6000010F4A70C3F301628A704FEA1342CA70C1
:102A70004FEA13220A714FEA1E524B714FF00003C6
:102A8000CA80CEF303420A72CEF3C0324A72CEF34A
:102A900080328A72CEF34032CA72CEF300320A73A9
:102AA0004B7337D0BCF1000F40F0878040F6FC72CA
:102AB000436E02EA8E0242EA93720A61426EC2F3E8
:102AC000C2630B75C2F302634B75C2F342538B753D
:102AD000C2F38243CB75C2F3C2330B76D1F810C078
:102AE0000B7E0CF1010C03F0070302330CFA03FC1C
:102AF000C0F848C00B7A03F00F0E012303FA0EFE54
:102B00004FEA5E2303FB0CF3C0E913E34FF40073B9
:102B1000436512E0B0F866200EF03F0342EA03423C
:102B20000A614FF480630A6903EB82224FF4007359
:102B3000C0E91223C0E91423426EC2F380334B76FE
:102B4000C2F3C61302F07F028B76CA76806EC20F84
:102B50000A77C0F341724A77C0F382628A77C0F382
:102B60008352CA77C0F3405281F82020002281F8B6
:102B70002120C0F3004381F82230C0F3C03381F834
:102B80002330C0F3803381F82430C0F3403381F820
:102B90002530C0F3003381F82630C0F3812381F85B
:102BA0002730C0F30123C0B281F82830400881F8F3
:102BB0002900012081F82A0009E001687A4A8A6325
:102BC0000122416B41F08051416380F83020104672
:102BD00080BD00BFFF0FE01F80B500F1380E9EE8FA
:102BE0000C5081E80C50826C0A61C26C4A61026D23
:102BF0008A61426D0020CA6180BD10B5416C0446F7
:102C00000068090401F012F920B1616B08436063A8
:102C1000002010BD2068002101F02EFBC0F34320EE
:102C200010BD00002DE9F04397B0044690F8300045
:102C3000032801D1012543E00D465B4EFEF768F9FC
:102C400080462068002101F017FB800123D4206812
:102C5000402100F0E7FFD0B9616C2068090400F062
:102C6000B2FFA0B94FF0FF301190402012906020C9
:102C7000139002201490002015900120169011A9A5
:102C8000206801F096F9206801F002F9E0B10146F0
:102C9000606B606301E04FF400612068012586638A
:102CA000626B1143616384F830504FF4007100F09F
:102CB000B9FF28B1216801258E63606384F8305024
:102CC000284617B0BDE8F08301AFB1462068416BDC
:102CD00011F4957F416B16D108040BD5002605E051
:102CE000206801F0E8FA47F826000136082EF7D1EF
:102CF00020374E46FEF70CF9A0EB080001304FF0EC
:102D00000041E3D1C9E7090747D4416B890746D49D
:102D1000416B89060CD52021BFE701F0CCFA386061
:102D2000FEF7F6F8A0EB080001303AD0043720682F
:102D3000416BC904F1D4B34981636FF0FF0EDDE943
:102D4000011CCBB2DDE903769A092A70C3F3401265
:102D50000EEA112343EA11616A7069809CFA8CF1D2
:102D60006960390A2F72F2B26972C7F303510EEA31
:102D70001743A972D118A981C6F38521A973C6F397
:102D80000121E9731109297406F00F0169744E4697
:102D90009DF81710A974002587E708217DE7022117
:102DA0007BE74FF0004178E7FF0FE01FF8B50446DE
:102DB0000068E56A15F00806416B18BF11F4004180
:102DC0005ED1416BC90579D4002E416B18BF11F457
:102DD000804140F0C080416B11F03A0F416B00F030
:102DE000E080890703D5616B41F002016163416BAB
:102DF000090703D5616B41F008016163416B8906E6
:102E000003D5616B41F020016163416BC90603D5B5
:102E1000616B41F0100161637A498163C16B21F4F8
:102E20009D71C163C16821F04001C160C16A41F474
:102E30000051C162C16841F08001C16001F042F8F7
:102E40002168002E626B40EA020060634FF400626A
:102E5000C86820F08000C8608A6340F0A58028061A
:102E600040F1A180606B002800F09D80C86B20F0CD
:102E70008050C86300200865012084F8300098E085
:102E8000A06A2028C0F08F80656A00260CE02068C8
:102E900005EB860701F00FFA010A38707970010C12
:102EA000000EB970F8700136082EF0D105F120003F
:102EB000A16A6062A1F12000A062F8BD4FF48071A8
:102EC00081634CF23A12C16B002E21EA0201C16308
:102ED000C16B21F08051C163C16821F04001C16024
:102EE0001ED129065FD5002615F0220F8662C66224
:102EF000066508D000F0E6FF28B1616B0843606307
:102F00002046FFF7A1FD012015F0300F84F83000B6
:102F1000E66202D0204600F0DFFAA80716D142E0B0
:102F200015F0220F08D000F0CDFF28B1616B0843E7
:102F300060632046FFF788FD2068324901228163E3
:102F40000020A90784F83020E06237D02046BDE891
:102F5000F84000F0BBBA206A202824D30027E66995
:102F60006D4614E006EB870001780091427841EA53
:102F700002210091827841EA02410091C07841EA41
:102F8000006000902946206801F0AEF90137082F53
:102F9000E8D106F12000216AE061A1F12000206261
:102FA000F8BDC9000FD4F8BD012084F8300000201E
:102FB000E0622046BDE8F840FFF746BD2046BDE888
:102FC000F84000F089BA4FF080518163006D4007EE
:102FD00005F0200005D450B12046BDE8F840FFF7C9
:102FE00011BC48B12046BDE8F840FFF70ABC2046B6
:102FF000BDE8F840FFF704BC2046BDE8F840FFF705
:10300000FEBB00BF3A0F0018B0B586B050B30446FF
:1030100090F8300020B900202076204600F082F998
:10302000042084F83000204600F03CF8D0B901A913
:103030002046FFF7F7FDA8B99DF814009DF815107C
:10304000A26B012A04D1084304D04FF4007003E0BE
:10305000002001E04FF48070A0652046E168FFF792
:103060002DFC10B1012006B0B0BDFDF751FF0546A3
:103070002046FFF7C2FD04280CD0FDF749FF401B96
:103080000130F5D14FF000406063012084F830003A
:103090000320E8E7002001216063E06284F830103B
:1030A000E1E700002DE9F0438FB081464FF4803016
:1030B00000210027FEF7A0F9D8B3964CB0FBF4F638
:1030C0000546D9F800000021009700220023019650
:1030D00001F0D6F8D9F8000001F0E6F8A54205D3D2
:1030E000B5EB460F08D37000B5FBF0F58A48B0FB8E
:1030F000F5F00130FDF728FE00200490D9F800001B
:1031000000F0C2FD002871D1D9F8000000F0E6FD02
:10311000B0F1004F13D10020C9F83C00D9F80000ED
:1031200000F0B2FD002861D1D9F83C00012809D097
:103130000FE001214FF0006089F830105CE00120C1
:10314000C9F83C00D9F80000002100F03CFD00283F
:103150004AD10021724D4FF6FE76002010E0D9F8DA
:103160000000294600F048FDF0BBD9F8000000211E
:1031700001F082F8049901310491C0F38071C00F0D
:103180000028049809D1B04207D8D9F800000021DE
:1031900000F019FD0028E2D028E004984FF6FF72F5
:1031A000904202D34FF0807020E00020C9F8381020
:1031B000ADF80E00FDF7ACFE0546D9F8000001F0B1
:1031C00057F8F8B1D9F8380003281ED1D9F8000013
:1031D000042101F051F8000DC9F8400004A9484647
:1031E000FFF734FC002871D04FF08050012189F89E
:1031F0003010D9F834201043C9F8340008460FB015
:10320000BDE8F0834FF08060F0E7D9F8000000F0EF
:10321000C8FD0028EAD1D9F800000021DFF8FC80C1
:10322000C047C9F86C000421D9F80000C047C9F8AC
:1032300070000821D9F80000C047C9F874000C21BB
:10324000D9F80000C047D9F838100329C9F8780028
:10325000BCD000200DF10E0641F287370DE0D9F801
:103260000000314600F0FBFD0028BFD1FDF750FE05
:10327000401BB8424AD8BDF80E000028EFD0D9F85C
:1032800038100329A2D081B2C9F844100904D9F832
:10329000000000F09CFD0028A8D1D9F80000002112
:1032A000C047C9F85C000421D9F80000C047C9F83C
:1032B00060000821D9F80000C047C9F864000C215B
:1032C000D9F80000C047C9F868007FE7D9F8441072
:1032D000D9F80000090400F04BFD00287FF486AF08
:1032E000D9F800004FF4007100F09CFC60B1D9F8EF
:1032F0000010E94A8A63D9F8341008430121C9F85B
:10330000340089F8301079E7002177E74FF000406A
:103310006CE700BF00350C00102101007942000865
:10332000000010C1704700002DE9F04F87B09846AB
:1033300015460E460446FDF7EBFD7EB1824694F835
:10334000300001280ED10021616308EB0500226DD9
:1033500090420FD9606B40F0007006E0606B40F067
:10336000006002E0606B40F000506063012007B035
:10337000BDE8F08F032084F830004FF0FF33206861
:103380000227A26BC162012A01934FEA48230293EC
:103390004FF0900303930497059118BF6D020691B7
:1033A00001A900F006FE2068B8F1020FC16841F0E3
:1033B0004001C16004D32946E76200F0A7FC04E0A5
:1033C0000121E162294600F0BAFC58B12168B24AF5
:1033D0008A63616B084360630120002184F8300038
:1033E000E162C4E7DDF84090DDF808B02068416B89
:1033F00011F4957F2ED1BBF1200F406B16D310F442
:10340000004013D000270CE0206806EB870500F091
:1034100052FF010A28706970010C000EA970E87053
:103420000137082FF0D12036ABF1200BFDF770FDEE
:10343000A0EB0A004845D9D3206897498163606BA7
:1034400040F000406063012084F830000020E0621A
:1034500003208CE7C168B8F1020F21F04001C16080
:10346000416B10D311F480710DD0A16B03290AD0E8
:1034700000F028FD01460028206804D0864A8263B7
:10348000606B0843A7E7416B09070CD4416B8907C0
:103490000FD4416B890612D480498163012084F8DE
:1034A0003000002063E77C498163606B40F00800D6
:1034B00091E779498163606B40F002008BE77649C0
:1034C0008163606B40F0200085E700BF0549401A2A
:1034D00018BF0120FDF778BA0249401A18BF012031
:1034E000FDF78ABA7C4000242DE9F04F87B098465A
:1034F00015460E460446FDF70BFD7EB1824694F854
:10350000300001280ED10021616308EB0500226D17
:1035100090420FD9606B40F0007006E0606B40F0A5
:10352000006002E0606B40F000506063012007B073
:10353000BDE8F08F032084F830004FF0FF3320689F
:10354000A26BC162012A01934FEA482302934FF014
:103550009003CDE90331059118BF6D02069101A9D1
:1035600000F027FD2068B8F1020FC16841F040016A
:10357000C16005D32021E162294600F0E8FC04E0A7
:103580001021E162294600F0FBFC58B12168424A53
:103590008A63616B084360630120002184F8300076
:1035A000E162C4E7DDF840906D46DDF808B02068C0
:1035B000416B11F48D7F34D1BBF1200F406B1ED3D2
:1035C00010F480401BD0002714E006EB8700017840
:1035D0000091427841EA02210091827841EA024159
:1035E0000091C07841EA006000902946206800F010
:1035F0007BFE0137082FE8D12036ABF1200BFDF719
:1036000087FCA0EB0A004845D1D32068224981639A
:10361000606B6063012084F830000020E0620320CA
:1036200085E7C168B8F1020F21F04001C160416B2C
:1036300010D311F480710DD0A16B03290AD000F0D2
:1036400041FC01460028206804D0134A8263606B65
:103650000843A0E7416B09070CD4416B89070FD4DD
:10366000416BC90612D40D498163012084F83000F2
:1036700000205CE708498163606B40F008008AE73E
:1036800005498163606B40F0020084E70249816371
:10369000606B40F010007EE7FF0FE01F3A0F00184C
:1036A000411E0020B0EB116F01D001207047044A89
:1036B0005160F021034B1970072190601160704731
:1036C00010E000E023ED00E090F88410012901D122
:1036D000022112E02421C0F88810026813681168E2
:1036E00023F0005321F001011160002141661360B5
:1036F0002022C0F8882080F8841008467047B0B5B2
:10370000044690F88400012801D10220B0BD0120B8
:1037100084F884002420C4F88800206805680268C2
:1037200022F001020260826822F06062114381602F
:10373000204600F0E1FF206805602020C4F88800E2
:10374000002084F88400B0BDB0B5044690F8840031
:10375000012801D10220B0BD012084F8840024207A
:10376000C4F8880020680568026822F0010202603F
:10377000826822F0604211438160204600F0BCFF65
:10378000206805602020C4F88800002084F88400A8
:10379000B0BD10B5B0B10446D0F8880028B90020FB
:1037A00084F88400204600F027F82420C4F888001C
:1037B0002068016821F001010160204601F0B2F8A3
:1037C000012801D1012010BDA06A10B1204600F0EF
:1037D000BDFF2068416821F490414160816821F07B
:1037E0002A018160016841F0010101602046BDE8C5
:1037F000104001F00FB80000B0B586B0044601A833
:103800001421FCF7D7FD20681C49884233D15D485C
:10381000016901AC41F01001194D0161016901F02C
:10382000100100910099016841F0010101600168F7
:1038300001F0010100910099016841F0010101606E
:103840002146006800F00100009000984FF40070DD
:103850000190022002900120039003200490072091
:1038600005902846FDF780FA4FF4806001902846C5
:103870002146FDF779FA06B0B0BD00BF0010014047
:10388000000002582DE9FC410446D0F888002028A9
:103890004DD10E4600294FF001004ED01746002AA8
:1038A0004BD04FF000082120C4F890801D46C4F88A
:1038B0008800FDF72DFBA4F85470A4F85670074655
:1038C000A168B1F5805F1FD12069002814BF304680
:1038D000B046064618E080210095002220463B466F
:1038E00001F018FA28BB002E206802D016F8011B40
:1038F00004E038F8021B00266FF35F218162B4F800
:1039000056000138A4F85600B4F856000028E2D159
:1039100040210095002220463B4601F0FBF900289B
:103920004FF0200118BF0320C4F8881005E00220E2
:1039300003E02020C4F88800032002B0BDE8F08135
:10394000FEE7000070B586B000250E480E4C0595C8
:1039500000220168802641F040010160802100685A
:1039600000F04000009000982046FDF7CBFA0120BF
:103970000196CDE9020501A904952046FDF7F4F969
:1039800006B070BDE04402580018025880B50849DE
:103990000022C0E900124FF48041C0E90221022157
:1039A000C0E90421FFF730FB002818BF012080BDCB
:1039B00000700052FEE7FEE770470000F8B57F4F49
:1039C000BA6A02F00302032A01D1012074E005461D
:1039D000386820F080600C463860FDF799FA06469A
:1039E0003868000105D5FDF793FA801B0228F7D946
:1039F0005FE0B86A4FF47E43696820F47C30AA68BF
:103A0000013903EB42222B686FF35F2192B240EA47
:103A100003301144EA684FF4FE03B86203EB02423C
:103A200002F4FE02881829694FF0FE4202EB0161A0
:103A300001F0FE410844B863002CF86A20F0C00091
:103A4000696940EA0100F862F86A20F02000A9697B
:103A500040EA0100F8624FF6F871F86A20F01000B1
:103A6000F862F86B20EA0100E96940EAC100F863F6
:103A7000F86A40F01000F86205D0012CF86A06D10F
:103A800040F4801005E0F86A40F4002001E040F4C2
:103A90000010F862386840F080603860FDF738FA4E
:103AA00004463868000106D4FDF732FA001B0328EB
:103AB000F7D3032000E0002001B0F0BDF8B53F4F80
:103AC000BA6A02F00302032A01D1012074E005461C
:103AD000386820F080500C463860FDF719FA064629
:103AE0003868800005D5FDF713FA801B0228F7D946
:103AF0005FE0B86A4FF47E43696820F07C70AA6882
:103B0000013903EB42222B686FF35F2192B240EA46
:103B100003501144EA684FF4FE03B86203EB02421B
:103B200002F4FE02881829694FF0FE4202EB01619F
:103B300001F0FE4108443864002CF86A20F440602B
:103B4000696940EA0100F862F86A20F40070A96926
:103B500040EA0100F8624FF6F871F86A20F48070CC
:103B6000F862786C20EA0100E96940EAC1007864F3
:103B7000F86A40F48070F86205D0012CF86A06D12A
:103B800040F4000005E0F86A40F4800001E040F0F5
:103B90008070F862386840F080503860FDF7B8F9FE
:103BA00004463868800006D4FDF7B2F9001B0328EC
:103BB000F7D3032000E0002001B0F0BD004402581C
:103BC0000020FFF7F3B810B586B0019137210291BC
:103BD0004FF480710391002104914FF480510591BD
:103BE00001A9044600F06AFB372141F288322046E1
:103BF00000F0F4F906B010BD10B586B0019129218E
:103C000002914FF480710391002104914FF480518F
:103C1000059101A9044600F051FB204600F094FAFA
:103C200006B010BD10B586B00191102102914FF47D
:103C300080710391002104914FF48051059101A9F5
:103C4000044600F03BFB102141F28832204600F090
:103C5000C5F906B010BD10B586B0019106210291DC
:103C60004FF480710391002104914FF4805105912C
:103C700001A9044600F022FB062141F288322046C9
:103C800000F0ACF906B010BD10B586B00021CDE94A
:103C90000311CDE901114FF48051059101A90446AA
:103CA00000F00CFB0B484FF4FA510068B0FBF1F048
:103CB00041F288314843C043013006D0616B0906A8
:103CC000FAD50548A063002001E04FF0004006B09F
:103CD00010BD00BF10000024C500200010B586B044
:103CE0004FF4D5710191082102914FF48071039135
:103CF000002104914FF48051059101A9044600F080
:103D0000DDFA204600F088FA06B010BD10B586B086
:103D10000191122102914FF48071039100210491CD
:103D20004FF48051059101A9044600F0C7FA122111
:103D300041F28832204600F051F906B010BD10B5AE
:103D400086B00191112102914FF4807103910021FD
:103D500004914FF48051059101A9044600F0AEFA98
:103D6000112141F28832204600F038F906B010BD2A
:103D700010B586B00191072102914FF48071039133
:103D8000002104914FF48051059101A9044600F0EF
:103D900095FA072141F28832204600F01FF906B05B
:103DA00010BD10B586B000210222019102924FF49D
:103DB0004072CDE903214FF48051059101A90446D9
:103DC00000F07CFA204600F099F906B010BD10B55D
:103DD00086B00191092102914FF4407103910021B5
:103DE00004914FF48051059101A9044600F066FA50
:103DF000204600F083F906B010BD10B586B0002152
:103E00003322019102924FF48072CDE903214FF4E5
:103E10008051059101A9044600F050FA332141F286
:103E20008832204600F0DAF806B010BD10B586B032
:103E300001910D2102914FF48071039100210491B1
:103E40004FF48051059101A9044600F037FA0D2185
:103E500041F28832204600F0C1F806B010BDB0B57E
:103E600086B000220323019202934FF48073CDE9C0
:103E700003324FF480520C46059201A9054600F02A
:103E80001DFA03212846224600F080F906B0B0BD95
:103E900010B586B000210D22019102924FF480727C
:103EA000CDE903214FF48051059101A9044600F0AA
:103EB00005FA0D2141F28832204600F08FF806B055
:103EC00010BD000010B586B000210C2201910292B5
:103ED0004FF48072CDE903214FF4805105910446DF
:103EE000C06801A940F08000E060E06820F0400078
:103EF000E060204600F0E2F90C21074A204600F07D
:103F00006DF8E168B0F1007F21F0800108BF00F199
:103F10007E40E16006B010BD00E1F50510B586B049
:103F20000191062102914FF48071039100210491C7
:103F30004FF48051059101A9044600F0BFF9062114
:103F400041F28832204600F049F806B010BD10B5A5
:103F500086B00191192102914FF4807103910021E3
:103F600004914FF48051059101A9044600F0A6F98F
:103F7000192141F28832204600F030F806B010BD19
:103F800010B586B00191182102914FF48071039110
:103F9000002104914FF48051059101A9044600F0DD
:103FA0008DF9182141F28832204600F017F806B04A
:103FB00010BD10B591E80850CC6802464362C0F8C5
:103FC00028C044EA0E000B69184349690843D16AC6
:103FD00021F0FF0101430020D16210BD10B5A34BB9
:103FE0004FF4FA541B68B3FBF4F3424C53430246BC
:103FF000DB4301333FD0506B2042FAD010F4005025
:10400000F7D1506B400739D4506BC00739D104F158
:10401000800090631069C0B2884235D1506936493A
:10402000084233D0002833DB410034D4810034D43B
:10403000C10034D4010135D4410136D4C10137D493
:10404000010238D4410239D481023AD4C1023BD4AE
:1040500041033CD481033DD4C1033ED401043FD489
:10406000410440D4810441D400074FF4000058BFFC
:104070004FF4803010BD4FF0004010BD042090631D
:1040800010BD0120906310BD012010BD002010BDA7
:104090004FF0007010BD402010BD802010BD4FF4C7
:1040A000807010BD4FF4007010BD4FF4806010BDE3
:1040B0004FF4006010BD4FF4805010BD4FF400501D
:1040C00010BD4FF4804010BD4FF4004010BD4FF4C0
:1040D000003010BD4FF4802010BD4FF4002010BD03
:1040E0004FF4801010BD4FF4001010BD4FF480004D
:1040F00010BD00BF4500200008E0FFFD5B494FF404
:10410000FA520968B1FBF2F141F288325143C943D6
:10411000013110D0426B12F0450FF9D012F4005269
:10412000F6D1416B490709D4416BC90708D1394918
:104130008163002106E04FF0004103E0042100E02C
:10414000012181630846704748494FF4FA520968D3
:10415000B1FBF2F141F288325143C943013110D031
:10416000426B12F0450FF9D012F40052F6D1416BB8
:10417000042211F0040104BFC522C0F220028263B0
:1041800001E04FF000410846704700BF80B5374B53
:10419000D3F800C04FF4FA53BCFBF3FC41F2883370
:1041A0000CFB03F36FEA030E1EF1010E20D0D0F8D2
:1041B00034C01CF0450FF7D01CF40053F4D1436B0E
:1041C0005B0718D4436BDB0717D10369DBB28B4263
:1041D00017D110498163406910F4604F13D0410436
:1041E00015D400044FF4805058BF4FF4803080BD88
:1041F0004FF0004103E0042100E001218163084603
:1042000080BD0121FBE7000C10800021F7E74FF48F
:104210000051F4E7C500200014494FF4FA52096830
:10422000B1FBF2F141F288325143C943013113D05D
:10423000426B12F0450FF9D012F40052F6D1416BE7
:1042400049070CD4416BC9070BD1416B490601D515
:1042500040218163002106E04FF0004103E004218A
:1042600000E0012181630846704700BF1000002470
:10427000006800F003007047084440697047000080
:10428000844641EA020000991843019A0843DCF889
:1042900004101043034A114001430020CCF80410DD
:1042A000704700BF002CC0FF0146006840F00302C9
:1042B00000200A607047D0F88000704780B5D1E9CF
:1042C00000EC8B680246C86843EA0C03C2F808E0B9
:1042D00018430969034B0843D16819400143002082
:1042E000D16080BDC0E0FEFF024609680020C2F830
:1042F0008010704710B5944C012020700020FCF70E
:10430000E1FA18B9207800F0FE002070207810BD86
:104310002DE9F04786B00C460546FCF7F9FD064648
:1043200028680821FFF77EFC002855D1696C2868B1
:104330000904FFF748FC00284ED14FF0FF300090F1
:104340000820019030200290022003900020049069
:104350000120059069462868FFF72BFE2868FFF7C3
:104360004CFDC8BB002740F22A5A4FF000094FF01D
:1043700000082968486B10EA0A0F486B14D100F452
:104380000020384308D10846FFF795FF804628688B
:10439000FFF791FF81460127FCF7BAFD801B013032
:1043A0004FF00040E5D117E000070FD4486B8007BD
:1043B0000ED4486B80060DD44548886398FA88F17E
:1043C00099FA89F0C4E90001002005E0082002E024
:1043D000022000E02020886306B0BDE8F08700BF1F
:1043E0002DE9F04796B0E9460F460446402148467D
:1043F000FBF7E0FFFCF78CFDA16D002947D082465A
:10440000B1F5807F4FF0000043D322684021D06295
:1044100010464025FFF706FCD8BB4FF0FF30CDE932
:1044200010056020129002201390002014900120AB
:10443000159010A92068FFF7BCFD20683946FFF7EA
:104440006DFD30BB002740F22A582168486B10EA06
:10445000080F486B20D100040CD509EB4715002646
:1044600005E02068FFF727FF45F826000136082EF3
:10447000F7D10137FCF74CFDA0EB0A000130E4D185
:104480004FF000400121606384F8301001E04FF0EC
:10449000806016B0BDE8F087000710D4486B800735
:1044A00011D4486B800610D4094888634FF08051BE
:1044B0009DF80D0000F0020081EAC060E9E70820E5
:1044C00088630020E5E7022000E020208863E0E721
:1044D0003A0F001810B51C4C012020700020FCF78A
:1044E000FDF910B9FFF706FF2070207810BD00BF5E
:1044F000B0B58AB014480078C0070ED10C46032925
:104500000DD81546DFE804F01D020D1501A90020A5
:104510000024FCF7C9F9079812E0032411E00424F1
:104520000FE001A900200024FCF7BEF908982880BC
:1045300007E001A900200024FCF7B6F90898400A1A
:10454000286020460AB0B0BD1800002410B5002035
:10455000FCF726FA08B1012405E000240020FCF74E
:10456000B1F90028FAD1204610BDFFF7C3BE10B53F
:104570000020FCF72BFA08B1012405E000240020FC
:10458000FCF7A0F90028FAD1204610BD7047FCF7CF
:10459000C3BC000010B5CCB039A8304C4C21FBF79F
:1045A00009FF31A82021FBF705FF02A8B821FBF77E
:1045B00001FF0220FCF756FD00200190206820F446
:1045C00040402060206800F440400190019820683D
:1045D0008004FCD501204FF4803139903A910221BA
:1045E0000A22CDE942114492DC22CDE94520052082
:1045F000CDE9470104204990002439A8CDE94A4477
:10460000FDF78CFE18B1EFF3108072B6FEE73F2085
:1046100031900320CDE932040820349040204FF43B
:104620008061CDE93500CDE9371031A80321FDF7D0
:10463000ABFC18B1EFF3108072B6FEE700204FF428
:10464000803103900291169002A8FDF70BF818B183
:10465000EFF3108072B6FEE74CB010BD1848025858
:104660001E4801681C4A41F470010160106800F0A6
:104670000F00062804D81068072161F303001060BA
:1046800010B517480168174C41F001010160002185
:10469000016103682340036013681B0704D5136896
:1046A000072464F3030313600F4A8161C16101624F
:1046B00082620E4AC2620E4A026341638263C16330
:1046C00002644164026822F480220260016643F2BF
:1046D000D2000849086010BD0020005288ED00E0BB
:1046E000004402587FEDF6EA000202020000FF01DA
:1046F0008002010100400052416ED9B180B50168CD
:104700008A68C2F342628968490FDFF838C01CF832
:104710000130DFF834E01EF801101B01B3FBF1F1AA
:104720001CF802301EF802201B01B3FBF2F2BDE8B8
:10473000804001E001210122A0F86A10A0F8682061
:10474000704700BF048D00080C8D0008816ACA07FD
:1047500008D00268D0F82CC0536823F4003343EA31
:104760000C0353608A0708D50268D0F830C053683C
:1047700023F4803343EA0C0353604A0708D50268E8
:10478000D0F834C0536823F4802343EA0C03536009
:104790000A0708D50268D0F838C0536823F40043EC
:1047A00043EA0C035360CA0608D50268D0F83CC03F
:1047B000936823F4805343EA0C0393608A0608D578
:1047C0000268D0F840C0936823F4005343EA0C0316
:1047D00093604A0612D50268D0F844C05368BCF50D
:1047E000801F23F4801343EA0C03536006D15368FF
:1047F00023F4C00C836C43EA0C035360090658BFD2
:1048000070470168C06C4A6822F400221043486077
:1048100070470000BCB500210446C0F89010FCF7BA
:1048200077FB216805460A68120718D525484FF41A
:1048300000110090002220462B4600F06BFA68B170
:10484000206850E8000F216820F0800041E8000255
:10485000002AF5D12020C4F8880024E021680868E7
:10486000400722D517484FF48001009000222046CF
:104870002B4600F04FFAC0B1206850E8000F2168C5
:1048800020F4907041E80002002AF5D1206850E839
:10489000020F216820F0010041E80202002AF5D150
:1048A0002020C4F88C00032007E02020C4F88800F2
:1048B000C4F88C000020E0662067002184F8841092
:1048C00002B0B0BDFFFFFF01016851E8001F0268A0
:1048D00021F4907142E80013002BF5D110B5104C73
:1048E000026852E8022F0368224043E802210029AF
:1048F000F6D1C16E0129BDE8104009D1016851E827
:10490000001F026821F0100142E80013002BF5D1CE
:104910002021C0F88C100021C1664167704700BF9C
:10492000FEFFFFEFFEB50446006804F10803994D51
:10493000994E0ECB194363690B43E16907680B433A
:104940002F40964D3B430360A842436823F44053F5
:1049500042EA03024260A2691CBF236A1A438368C9
:1049600033408F4E1A438260B042C26A8D4E22F0AD
:104970000F03626A43EA0203C36234D08A4B98424F
:104980003ED08A4B984248D0894B984200F05280E2
:10499000884B984200F05B80874B984200F064801F
:1049A000A84200F06E80854B984200F07680844BE0
:1049B000984200F07E80834B984200F08680824BC4
:1049C000984240F09880736DB446C3F3C206052E3A
:1049D00000F292800123DFE816F090008400860048
:1049E00088008A008C00736DB44603F00706052E1C
:1049F00000F282800023DFE806F0807476787A7C0B
:104A0000736DB44603F00706052E00F2758000238F
:104A1000DFE806F07367696B6D6F736DB44603F082
:104A20000706052E00F268800023DFE806F0665ACC
:104A30005C5E6062736DB44603F00706052E00F2FB
:104A40005B800023DFE806F0594D4F515355736DDD
:104A5000B44603F00706052E00F24E800023DFE87F
:104A600006F04C4042444648736DB44603F00706D6
:104A7000052E00F241800023DFE806F03F33353792
:104A8000393BB36DB44603F00706052E34D8022334
:104A9000DFE806F03327292B2D2F736DB446C3F3BF
:104AA000C206052E28D80123DFE806F0271B1D1FAC
:104AB0002123736DB446C3F3C206052E1CD801230F
:104AC000DFE806F01B0F11131517736DB446C3F31F
:104AD000C206052E10D80123DFE806F00F030507F4
:104AE000090B042309E0082307E0102305E0202335
:104AF00003E0402301E0B4468023A842814810D05F
:104B0000B1F5004F1DD1082B4FF0010127D8DFE888
:104B100003F00591D9D994D9D9D99800FDF760FB54
:104B200093E0402B32D0042B50D0082B52D0102BC6
:104B300058D0202B60D0022B40F0C380FCF7B6FA8F
:104B40004CE0082B4FF0010114D8DFE803F0059882
:104B5000BBBB9BBBBBBB9F00FDF742FB9AE0102B8E
:104B600000F0B980202B72D0402B40F0AB804FF486
:104B700000406CE0102B00F0B980202B00F08C80FE
:104B8000402B40F09F804FF4004085E04FF4004000
:104B900032E000BFF369FFCFFFF4FF11000C0058B3
:104BA000004400400044025800480040004C0040CF
:104BB0000050004000780040007C0040001401409C
:104BC00000180140001C0140001001406846FCF73D
:104BD00007FB02E06846FCF789FB019800286ED0CD
:104BE000626A09E0DCF8000065468006464803D5A5
:104BF0002968C1F3C101C840444931F81210626804
:104C0000B0FBF1F002EB420188424FF0010159D3B1
:104C10001303984256D8010E000210EB520041F1E6
:104C200000010023FBF76EFBA0F54071384A91426A
:104C300043D946E0FDF7E2FA07E06846FCF7D0FA10
:104C400002E06846FCF752FB0198C0B3626A2F4944
:104C500031F81210B0FBF1F061684A0802EB400035
:104C6000B0FBF1F04FF6EF72A0F11001914228D89D
:104C70004FF6F071C0F34202084010441DE0FDF70A
:104C8000BDFA07E06846FCF7ABFA02E06846FCF7BD
:104C90002DFB019898B1626A1C4931F812104FF649
:104CA000EF72B0FBF1F0616800EB5100B0FBF1F086
:104CB000A0F11001914204D880B22168C86000219F
:104CC00000E001214FF00110A0660020C4E91D00A2
:104CD000084603B0F0BDDCF80000654680060A48CF
:104CE000B5D52968C1F3C101C840B0E7DCF80000C0
:104CF000654680060448CFD52968C1F3C101C84084
:104D0000CAE700BF00093D000090D003EC84000812
:104D1000FFFC0F002DE9F843DDF820909846164679
:104D20000F460446006809F10105C1693940C91BF5
:104D3000B1FA81F14909B14225D1002DF5D0FCF736
:104D4000E7F8B9F1000F01464FF003001CD0A1EBCA
:104D50000801494518D8206801684907E5D5C169A7
:104D6000090714D4C1690905DFD54FF40061016258
:104D70002046FFF7A9FD2020C4F89000002084F809
:104D80008400032000E0002001B0BDE8F083082586
:104D900005622046FFF798FD0020C4F8905084F883
:104DA00084000120F0E7000010B5104C10484FF4CB
:104DB000E13120600020C4E901100C21E060C4E969
:104DC000040104F118001421FBF7F4FA2046FEF761
:104DD000E0FC00212046FEF7B7FC00212046FEF74C
:104DE0008EFC2046BDE81040FEF76EBCF840002463
:104DF00000100140FEE7000000F00F02054B1A44CE
:104E0000054BB0F1FF3F4FEA0111C8BFC218117046
:104E1000704700BF14ED00E000E400E02DE9F04F22
:104E200081B001266FF001044FEA510E06EB5107E5
:104E300004EB510800974FEA42090024002500BF07
:104E4000ADB26600AC422BD250F82670EA0050F8A2
:104E50003510043240F8261046F0010140F8357054
:104E600050F821A0875840F8217040F802A0009A1D
:104E7000A118AF1850F831A04FEAC10B50F83720F5
:104E80004FEAC70C40F8312040F837A00BF104017D
:104E90000CF1040750F801A0C259425040F807A095
:104EA00005EB0E0100EB860250F831709668CD00DC
:104EB000D2F80CC097602F1D40F83160A11CC55975
:104EC0008CB2D5601D8844454B4440F807C0B7D923
:104ED00001B0BDE8F08F70B50446807825880E4695
:104EE000A3890128626806D194ED040A3046294658
:104EF00000F0D4FA03E03046294600F03BF9E078B0
:104F0000012807D121883046E289A368BDE87040B6
:104F1000FFF784BF70BD000049F6783C0180C0F601
:104F2000000CC0F804C0FF29827048F20452C3701C
:104F3000C0F600024FF0FF030DDDB1F5807F13D006
:104F4000B1F5805F15D0B1F5806F22D106329FEDAB
:104F5000160A042117E010290FD0402919D17E32FA
:104F60009FED0F0A40210EE01E329FED0E0A102128
:104F700009E09FED090A012105E002F5FF729FEDAE
:104F8000070A4FF4807100238181C181826080ED26
:104F9000040A58B2704700BF000080390000803D0D
:104FA0000000803C0000803B0000803A2DE9F04387
:104FB00081B02DED028B0023B3EB920F90460C468F
:104FC000054669D04FEA9800474200BF95ED010AB7
:104FD00020EE008A95ED000A00EE008AB0EE480A45
:104FE00002F08CFDB4EEC00AF1EE10FA03D7B0EE79
:104FF000480A02F083FD84ED000A95ED030A20EED5
:10500000008A95ED020A00EE008AB0EE480A02F02E
:1050100075FDB4EEC00AF1EE10FA03D7B0EE480AFF
:1050200002F06CFD84ED010A95ED050A20EE008A80
:1050300095ED040A00EE008AB0EE480A02F05EFD2B
:10504000B4EEC00AF1EE10FA03D7B0EE480A02F04F
:1050500055FD84ED020A05F1200995ED070A20EEC1
:10506000008A04F1100695ED060A00EE008AB0EE03
:10507000480A02F043FDB4EEC00AF1EE10FA03D77D
:10508000B0EE480A02F03AFD013784ED030A4D46BE
:1050900034469BD134464D4618F003001DD046429D
:1050A00095ED010A20EE008A271D95ED000A00EE1D
:1050B000008AB0EE480A02F021FDB4EEC00AF1EE1B
:1050C00010FA03D7B0EE480A02F018FD013684ED5D
:1050D000000A05F108053C46E2D1BDEC028B01B0A7
:1050E000BDE8F0839FED201AB5EE002A00EE012AFC
:1050F0009FED1E1ABDEEC20AB5EEC02AF1EE10FAFF
:1051000010EE100AB8BF013800EE100A0020B8EE09
:10511000C00A32EE400A9FED162A20EE010ABCEECC
:10512000C01A11EE101A30EE021AB0EB512F18BF50
:10513000002102EE101A48F6145000FE010AC0F6D3
:105140000000B8EE422A00EB810090ED011A30EE2B
:10515000420AB7EE002A32EE402A20EE010A90ED14
:10516000001A02EE010A704783F9223E0000004453
:10517000000000C42DE9F04F88B08C08059204EBC4
:105180004407019026010094151D079600220494FF
:10519000FF000393A2EB910603EB430204304FEAB6
:1051A000C40E4FEA031A4FEAC30B4FEAC2093A464C
:1051B0002C462F46079B00EB0E0800EB030C8318D0
:1051C00010ED010A90ED001A18ED012A98ED003A51
:1051D0001CED014A9CED005A13ED016A93ED007A33
:1051E00070EE040A013672EE061A71EE052A73EEAD
:1051F000073A32EE462A31EE451A33EE473A30EEA0
:10520000A15A32EEA37A30EE440A72EEE32A71EE2E
:10521000423A17ED014A97ED006A00ED015A70EE2F
:10522000E10A80ED007A70EE031A14ED015A23EEC4
:10523000857A00F1080031EE021A574494ED002AF5
:1052400030EE430A5C4423EE823A01EEC27A22EE4B
:10525000862A01EE853A15ED015AD5ED001A64EE65
:10526000222A4D4400EE842A21EE214A21EE051A1D
:1052700040EEC62A08ED012A00EE054A00EE611A4A
:10528000C8ED002A0CED013A8CED007A03ED014ADD
:1052900083ED001A8ED11429C0F0B480049D00BFA4
:1052A0000398AA0880000292039080B2EE00079053
:1052B0004FF0FF3000EB9500069002EB4200C70074
:1052C000D000041D4FEA021C019A4FF00009002390
:1052D0009046059A02EBC3004FEAC30E90ED000A18
:1052E0000EF10400104490ED001A02EB03104FEA97
:1052F000031E90ED002A0EF10400104490ED003AD8
:1053000003EB430002EBC00EC000043010449EEDDE
:10531000004A424690ED005A4046C84600EB0C0A4F
:1053200090ED006A9AED007A00EB040B76EE470AE6
:1053300000EB070E36EE076A1BED017ADEED001A70
:1053400077EE612AA84437EE217A8845D0ED011A1C
:10535000DBED003ADAED014ADEED015A71EEE46A66
:1053600073EEE57A71EEA41A73EEA53A70EEA74AD1
:1053700070EEE70A71EEE37A76EEE25A76EEA22A52
:1053800076EE476A36EE076A31EEA37A63EE271AA5
:1053900062EE273A80ED006A60EE247A80ED017AB1
:1053A00024EE206A304424EE227A41EE257A60EE23
:1053B000255A42EE261A43EE663A41EE645A05EE4D
:1053C000226A4BED011A05EE607ACBED003ACAED88
:1053D000007ACAED015A8EED006A8EED017A9DD3F6
:1053E000079809F1010903440698814502F1080272
:1053F0007FF66EAF04981328029D4FEA9000049048
:105400003FF64EAF00984042019900BF91ED000A6F
:1054100091ED011A91ED022A91ED033A91ED044AC2
:1054200091ED055A91ED066A91ED077A70EE040A46
:10543000013030EE440A31EE054A31EE451A32EEC3
:10544000065A73EE071A32EE462A33EE473A30EE2A
:10545000856A34EE217A30EEC55A34EE614A81ED28
:10546000006A30EE036A81ED017A31EE427A81ED15
:10547000025A30EE430A81ED034A31EE021A81ED01
:10548000046A81ED057A81ED060A81ED071A01F1C2
:105490002001BBD108B0BDE8F08F00002DE9F04F2E
:1054A00081B02DED048B88B08C08059204EB440785
:1054B000019026010094151D079600220494FF0018
:1054C0000393A2EB910603EB430204304FEAC40EB0
:1054D0004FEA031A4FEAC30B4FEAC2093A462C4679
:1054E0002F4600BF079B00EB0E08034400EB020CA5
:1054F00010ED011A90ED002A13ED013A93ED004AE8
:1055000018ED015A98ED006A1CED017ADCED000AF5
:1055100071EE031A013675EE072A72EE043A76EE42
:10552000204A31EE431A32EE442A36EE604A31EE1A
:10553000A26A73EEA40A35EE475A71EEE21A71EED2
:10554000442A17ED013A97ED007A00ED016A73EEF7
:10555000E43AC0ED000A72EE054A94ED006A62EE8C
:10556000860A00F1080031EE041A574414ED014A8E
:1055700032EE452A5C4422EE845A44EE840A21EE3F
:10558000834A04EEC65A15ED016AD5ED002A61EE94
:10559000871A4D4403EEC74A21EE067A21EE221AFD
:1055A00043EE231A08ED014A02EE627A02EE061A71
:1055B000C8ED001A03ED015AC3ED000A0CED017AA3
:1055C0008CED001A8ED11429C0F0B480049D00BF68
:1055D0000398AA0880000292039080B2EE00079020
:1055E0004FF0FF3000EB9500069002EB4200C70041
:1055F000D000041D4FEA021C019A4FF0000900235D
:105600009046059A02EBC3004FEAC30E90ED001AD4
:105610000EF10400104490ED002A02EB03104FEA53
:10562000031E90ED003A0EF10400104490ED004A84
:1056300003EB430002EBC00EC000043010449EEDAB
:10564000005A424690ED006A4046C84600EB0C0AFC
:1056500090ED007ADAED000A00EB040B77EE601AA9
:1056600000EB070E37EE207A5BED010ADEED002A33
:1056700070EEE23AA84470EEA20A8845D0ED012A05
:10568000DBED004ADAED015ADEED016A72EEE57AF1
:1056900034EEE68A72EEA52A74EEA64A71EEC85A76
:1056A00071EE881A32EEE48A77EEA36A77EEE33A77
:1056B00077EE607A37EE207A23EE089A63EE270AB7
:1056C00072EEA42A80ED007A04EE279A61EE254A54
:1056D00062EE255AC0ED012A65EE217A304426EEAD
:1056E000217A44EE480A42EE664A41EE265A46EED8
:1056F000637A4BED010A05EE237A8BED009ACAED31
:10570000004ACAED015ACEED007A8EED017A9DD3A2
:10571000079809F1010903440698814502F108023E
:105720007FF66EAF04981328029D4FEA9000049014
:105730003FF64EAF00984042019900BF91ED001A2C
:1057400091ED012A91ED023A91ED034A91ED045A4F
:1057500091ED056A91ED067AD1ED070A71EE051A11
:10576000013031EE451A32EE065A32EE462A33EE59
:10577000076A74EE202A33EE473A34EE604A31EE7F
:10578000867A75EE220A31EEC66A35EE625A71EEFD
:10579000441A72EE032A31EE041A32EE432A27EE3F
:1057A000003A20EE804A26EE006A25EE005A81ED8E
:1057B000003A21EE803A81ED014A22EE804A81EDE5
:1057C000026A21EE001A81ED035A22EE002A81EDD1
:1057D000043A81ED054A81ED061A81ED072A01F1AF
:1057E0002001ABD108B0BDEC048B01B0BDE8F08F57
:1057F0009FED1F1A20EE010A9FED1F2ABDEEC01A71
:10580000B5EEC00AF1EE10FA11EE100AB8BF013879
:1058100001EE100A0020B8EEC11A30EE410A9FEDE9
:10582000151A20EE010ABCEEC01A11EE101A30EE65
:10583000021AB0EB512F18BF002102EE101A48F6E1
:10584000145000FE010AC0F60000B8EE422A00EB38
:10585000810090ED011A30EE420AB7EE002A32EED6
:10586000402A20EE010A90ED001A02EE010A70476C
:1058700083F9223E00000044000000C410B5044635
:105880000020E0704FF0FF306063204601F0ACFF75
:1058900008B1042010BDB4F836024AF655218842FA
:1058A00019D194F83800E92805D0EB2811D194F8E3
:1058B0003A0090280DD104F16E0009A1032201F0F5
:1058C00079FF50B104F18A0006A1052201F072FFB0
:1058D00018B1022010BD032010BD002010BD00BF74
:1058E000464154004641543332000000C269023937
:1058F000023A914204D24289006B01FB02007047D8
:10590000002070472DE9F0478946D0F80080002933
:10591000064607D03046494601F076FD02280AD2F5
:1059200001244DE0D8F814501DB1D8F81C00854270
:1059300009D3012507E0044601303FD0D8F81C0008
:105940004D4684423CD3D8F81800A8B34D451BD12E
:10595000C24609F101075AF81C0F874228BF0227E7
:105960003046394601F050FD0446013028D054B38A
:10597000012C25D0D8F81450022D40D3DAF80000BD
:10598000854228BF4D4601E008F11C0A2F46013729
:10599000DAF80000874228BF022701D3022D0BD37B
:1059A0003046394601F030FD0446013008D07CB164
:1059B000012C05D0AF42EAD1002401E04FF0FF34C2
:1059C0002046BDE8F087002F4D463C4601D1DDE77B
:1059D0003C464FF0FF324046214601F020FFB9F12E
:1059E000000F05D020B940464946224601F017FF76
:1059F00038B10124012808BF4FF0FF34E0E74D46DD
:105A0000C4E7D8E906010239C8F81440884202D830
:105A10000138C8F8180098F8040040F0010088F830
:105A20000400CDE7F8B50D46044602F01BF808B1B6
:105A300001201DE020462946FFF758FFA18904F107
:105A40003806054660633046FAF7B4FC002707E0E5
:105A50006078EA190123314600F014FB20B90137C0
:105A600060898742F4D300E06089C01B18BF012021
:105A700001B0F0BD2DE9FE4F00210568044600F09D
:105A80007FFA10B103B0BDE8F08F4FF0FF3604F19C
:105A90002008E6624FF0FF0A4FF00D094FF0FF0BB0
:105AA000A169284601F0A0FE0028EBD1E76938780B
:105AB000002800F09480FA7AE52802F03F01A171F5
:105AC00026D0120715D40F2915D05FEA0A6005D138
:105AD000384601F07DFF834500F0838094F82B0069
