:020000040800F2
:1000000068460024AD020008B346000853440008C7
:10001000B1460008A1090008955D00080000000035
:10002000000000000000000000000000595500081A
:10003000A309000800000000B54600085B55000851
:10004000C7020008C7020008C7020008C70200086C
:10005000C7020008C7020008C7020008C70200085C
:10006000C7020008C7020008C7020008C70200084C
:10007000C7020008C7020008C7020008C70200083C
:10008000C7020008C7020008C7020008C70200082C
:10009000C7020008C7020008C7020008C70200081C
:1000A000C7020008C7020008C7020008C70200080C
:1000B000C7020008C7020008C7020008C7020008FC
:1000C000C7020008C7020008C7020008C7020008EC
:1000D000C7020008895D0008C7020008C7020008BF
:1000E000C7020008C702000800000000C70200089D
:1000F000C7020008C7020008C7020008C7020008BC
:10010000C7020008BD480008C7020008C70200086F
:10011000C7020008C7020008C7020008C70200089B
:10012000C7020008C7020008C7020008C70200088B
:10013000C7020008C7020008C7020008C70200087B
:1001400000000000000000000000000000000000AF
:10015000C7020008C7020008C7020008C70200085B
:10016000C7020008C7020008C7020008C70200084B
:10017000C7020008C7020008C7020008000000000C
:10018000C7020008C7020008C7020008C70200082B
:10019000C7020008C7020008C7020008C70200081B
:1001A000C7020008C7020008C7020008C70200080B
:1001B000C7020008C7020008C7020008C7020008FB
:1001C000C7020008C7020008C7020008C7020008EB
:1001D000C7020008C7020008C7020008C7020008DB
:1001E000C7020008C7020008C7020008C7020008CB
:1001F000C7020008C7020008C7020008C7020008BB
:10020000C7020008C7020008C7020008C7020008AA
:10021000C7020008C7020008C7020008C70200089A
:10022000C7020008C7020008694400080000000077
:10023000C7020008C702000800000000C70200084B
:10024000C7020008C7020008C7020008C70200086A
:10025000C7020008C7020008C7020008C70200085A
:10026000C7020008C7020008C7020008C70200084A
:10027000C7020008C7020008C7020008000000000B
:10028000C7020008C7020008C702000800000000FB
:1002900000000000C7020008DFF80CD000F0AEFA42
:1002A0000048004749720008684600240648804715
:1002B00006480047FEE7FEE7FEE7FEE7FEE7FEE74B
:1002C000FEE7FEE7FEE7FEE7615600089902000838
:1002D0002DE9F05F0546002092469B46884606467B
:1002E000814640241BE0284641464746224600F00E
:1002F00085F853465A46C01A914110D31146184604
:10030000224600F06CF82D1A67EB01084F46224692
:100310000120002100F063F817EB00094E41201E78
:10032000A4F10104DFDC484631462A464346BDE8D5
:10033000F09F10B5431A934209D28318881803E03E
:1003400010F8011D03F8011D521EF9D210BD40EA3C
:1003500001039B0703D009E008C9121F08C0042A43
:10036000FAD203E011F8013B00F8013B521EF9D22A
:1003700010BDD2B201E000F8012B491EFBD270473C
:100380000022F6E710B513460A4604461946FFF761
:10039000F0FF204610BD30B40446962308002146E5
:1003A00004D0B62330BC002200F041B82046002122
:1003B000F8E730B50B46014600202022012409E071
:1003C00021FA02F59D4205D303FA02F5491B04FA0E
:1003D00002F52844151EA2F10102F1DC30BD202AED
:1003E00004DB203A00FA02F1002070479140C2F18C
:1003F000200320FA03F3194390407047202A04DBBE
:10040000203A21FA02F00021704721FA02F3D0408D
:10041000C2F1200291400843194670470029A8BF45
:100420007047401C490008BF20F00100704710B41D
:10043000B0FA80FC00FA0CF050EA010404BF10BCD2
:10044000704749B1CCF1200421FA04F411FA0CF1FF
:1004500018BF012121430843A3EB0C01CB1D4FEA38
:1004600000614FEA102042BF002010BC704700EB33
:10047000C35010440029A4BF10BC7047401C490061
:1004800008BF20F0010010BC70472DE9FE4F8046E8
:1004900081EA0300C00F0C46009021F0004123F0D8
:1004A0000045B8EB0200A94105D2404621469046DE
:1004B0001C460B46024623F00040104347D0270D50
:1004C000C7F30A00C3F30A510290401A0190402872
:1004D0006BDAC3F3130040F4801B0098924620B1FE
:1004E0000023D2EB030A63EB0B0B01985946C0F1D2
:1004F00040025046FFF773FF06460D4650465946E8
:10050000019A00F08DF910EB08006141002487EAA0
:10051000115284EAE7731A4340D0009A62B3019AF9
:10052000012A4FEA075215DC001B61EB02014FF074
:10053000004202EA0752CDE90042001C41F5801159
:1005400032462B4600F08DF903B0BDE8F08F4046EF
:100550002146F9E7001B61EB0201001C41F5801305
:1005600000185B412018A2F5001747EB030140EA91
:10057000D570B6196D4111E06D084FEA360645EAAF
:10058000C0754FEA0752001B61EB0201001C41F5E8
:10059000801149084FEA30000019514132462B467C
:1005A00003B0BDE8F04F00F04DB9009801224000C3
:1005B0000023D0EB020263EBE073009821464FEA80
:1005C000E074B8EB000061EB0401E9E783F000435D
:1005D0005BE781F0004158E72DE9FE4F81EA030413
:1005E00004F0004421F0004100944FF0000B23F090
:1005F000004350EA01045ED052EA03045BD0C3F327
:100600000A54C1F30A552C44A4F2F3340194A0FB1C
:100610000254C1F3130141F48011C3F3130343F4F3
:10062000801301FB024400FB034E840A970A44EA4C
:10063000815447EA8357A4FB076802958D0A05FB9E
:1006400007854FEA932C04FB0C542705029D4FEAC3
:10065000065847EA1637B5EB08056EEB070C870E10
:10066000920E47EA811742EA8312A7FB0201B6EB1A
:100670000B0164EB00042B0D43EA0C335E1844EBD2
:100680001C50DA465146E7FB0201C5F313044FEA5A
:100690000B3343EA14534FEA0432019C43EA060346
:1006A000A4F10C040294009CCDE900B400F0D9F848
:1006B00003B0BDE8F08F00200146F9E72DE9F04DC9
:1006C00081EA030404F0004B21F0004514464FF08A
:1006D000000A23F0004150EA050220D054EA01024A
:1006E0001DD0C5F30A570246C5F31303C1F3130027
:1006F000C1F30A5640F4801543F48013A7EB0608B3
:10070000101BD64608F2FD3873EB050002D308F142
:10071000010801E092185B41B8F1000F03DA0020F4
:100720000146BDE8F08D00204FF480110646844656
:100730000EE0171B73EB050705D3121B63EB0503D4
:1007400006434CEA010C49084FEA300092185B411D
:1007500050EA0107EDD152EA030012D082EA040008
:1007600083EA0501084305D0101BAB4106D20122E4
:10077000002306E000224FF0004302E06FF0010288
:1007800053101AEB06004CEB085110EB0A0041EB3A
:100790000B01BDE8F04D00F055B8C1F30A52C1F3AA
:1007A000130140F2FF3341F480119A4202DA002033
:1007B0000146704740F233439A42A2F2334202DCD0
:1007C0005242FFF71BBEFFF70ABE000030B5041E01
:1007D00071F1000404DB4FF00044404264EB01017E
:1007E000141E73F1000405DB1C464FF00043524217
:1007F00063EB0403994208BF904230BD064C074D9D
:1008000006E0E06840F0010394E8070098471034E0
:10081000AC42F6D3FFF744FD041001082410010890
:10082000202A06DBCB17203A41FA02F043EAE073B4
:1008300006E041FA02F3D040C2F1200291400843A1
:100840001946704710B5141E73F1000408DA401CF5
:1008500041F1000192185B411A4301D120F00100DF
:1008600010BD2DE9F04D92469B4611B1B1FA81F2CF
:1008700002E0B0FA80F220329046FFF7B0FD044665
:100880000F4640EA0A0041EA0B0153465A46084324
:1008900013D0114653EA010019D0C8F14002504666
:1008A000FFF7ACFD05460E46504659464246FFF757
:1008B00096FD084305D0012004E020463946BDE8F6
:1008C000F08D0020054346EAE0762C4337430A9832
:1008D0006305E40AA0EB08000022FD0A44EA47543D
:1008E0000A3002D500200146E9E7010510196941E7
:1008F000DDE9084500196941BDE8F04DA2E70000B7
:10090000704902460846114602F0DCBD80B56D48CC
:1009100002F0E9FD043818BF012080BD80B500F069
:1009200013F8012804D1674802F0E4FF10B180BD3C
:10093000022080BD63484FF4804102F035FC00285E
:1009400018BF012080BD00BF81B001208DF80300D9
:100950009DF8030001B0704780B513460A46014672
:10096000584803F0BFF9002818BF012080BD00BF20
:1009700001480121016070479800002480B51346AA
:100980000A4601464F4803F017FA002818BF012015
:1009900080BD00BF0148012101607047D0020024E2
:1009A000FEE77047B0B5ADF50A7D32480122324905
:1009B00006F0BEFA314D0028287020D001460D28DF
:1009C0000ED14FF400742C480AAB00940021002291
:1009D00005F0AEFF0028287004D0014628A018E0DA
:1009E00046A016E0244C00200122214606F0A0FA81
:1009F000287001221F48214606F09AFA28701D48E7
:100A000001221D4906F094FA002828700FD00146F3
:100A100027A006F089FD3E4807F022FA012080F069
:100A200001013C4A404211700DF50A7DB0BD2548D8
:100A300001A902F047FD18B123A007F011FAEAE777
:100A4000DDE90501A1FB0001FFF7A5FC00EE100A9E
:100A500024A09FED231A20EE010A20EE010A20EEC9
:100A6000010AB7EEC00A53EC102B06F05DFD002022
:100A7000D5E700BF9C00002465000024640000242A
:100A80004465736372697074696F6E204661696C46
:100A9000656420746F20666F726D61742074686580
:100AA00020534420636172642E2E2E25640A0000B8
:100AB000665F6D6F756E7428293A72657453443D94
:100AC00025640A005033002448414C5F53445F477B
:100AD000657443617264496E666F282900000000E6
:100AE0000000803A5344206361726420766F6C7515
:100AF0006D653A252E326647420A00004D6F756ECD
:100B000074206661696C7572653D25640A00000099
:100B1000B18F0008E0020024EFF3108072B6FEE708
:100B2000002200F001B8000080B5DFF848E09EF830
:100B30000930002B01D0012080BD9EF80930844689
:100B400000200EF803009EF809300EEB8303C3F873
:100B500004C09EF8093073441A729EF80920531C91
:100B600030328EF809300A7042F63A72A1F801204C
:100B7000C87080BDD402002410B50B68024604681A
:100B8000002BD1E907E0D1F824C00ED024F4F843BB
:100B900040EA0E00184340EA0C00106047F6FF736D
:100BA00052F8040F98434B6809E047F6FF7324EAB4
:100BB000030340EA0E0018434B6840EA0C00184358
:100BC000D1E9023418430B6920434C691843896901
:100BD000204301430020116010BD0246406943F6E6
:100BE000FE73984340EA410100205161704710B5FF
:100BF000044600696FF315000B68D1F808E06FF048
:100C00001F0C4A6818430CEB4E1CC968104340EA9D
:100C10000C0040EA41210020216110BDB0B504461E
:100C20001F4D54F808CF002ACB681E4A05EB033E3F
:100C30004B6902EB035210D01B4B42EA0E0203EA4F
:100C40000C031A43826050F80C2F04460B6802F024
:100C50007042013B43EA020C08E00CF070400B6864
:100C600042EA0E02013B104340EA030C0B690F4DB0
:100C70006FF0FF0205EB03438D68886902EB0522E4
:100C800049686FF00F0505EB011141EA0C011143B2
:100C90000138194341EA006100202160B0BD00BF66
:100CA00000F0FFFF0000F0FFFF0F0FFF0000FFFF4D
:100CB000F8B5044600F054FB002C00F0AA8005466D
:100CC00094F83500022840F0A6802768AC4EB74261
:100CD00038463CD0AB488742384638D0AA4887428D
:100CE000384634D0A9488742384630D0A848874291
:100CF00038462CD0A7488742384628D0A648874295
:100D0000384624D0A5488742384620D0A448874298
:100D100038461CD0A3488742384618D0A24887429C
:100D2000384614D0A1488742384610D0A0488742A0
:100D300038460CD09F488742384608D09E488742A4
:100D4000384604D09D48874240F0E9809B480168BE
:100D500021F01E0207F1140102606FF080000A68A2
:100D6000B74200EA020008603CD0F44887421CBF4A
:100D7000F348874236D0F34887421CBFF248874287
:100D800030D0F24887421CBFF14887422AD0F14850
:100D900087421CBFF048874224D0F04887421CBFDE
:100DA000EF4887421ED0EF4887421CBFEE4887427B
:100DB00018D0EE4887421CBFEE48874212D0EC485C
:100DC00087421CBFEC4887420CD0EC4887421CBFCE
:100DD000EB48874206D0EB4887421CBFEA4887426F
:100DE00040F0B680206E016821F48071016038689F
:100DF00020F0010038603868C00710D000F0B0FA69
:100E0000401B0628F7D320206065032084F83500B6
:100E100003E0012081E08020606501207AE0206805
:100E2000B0421CBFC54988421DD0C54988421CBF7D
:100E3000C449884217D0C44988421CBFC34988426C
:100E400011D0C34988421CBFC24988420BD0C24955
:100E500088421CBFC149884205D0C14988421CBF95
:100E6000C04988425FD1A16DE26D3F2302F01F02AD
:100E700003FA02F28A60B0423BD0B04988421CBFFC
:100E8000AF49884235D0AF4988421CBFAE4988423D
:100E90002FD0AE4988421CBFAD49884229D0AD4908
:100EA00088421CBFAC49884223D0AC4988421CBF51
:100EB000AB4988421DD0AB4988421CBFAA49884231
:100EC00017D0AA4988421CBFAA49884211D0A84914
:100ED00088421CBFA84988420BD0A84988421CBF41
:100EE000A749884205D0A74988421CBFA649884225
:100EF0003BD1E06ED4E9191200284A6006D001689F
:100F000021F480710160D4E91C014160012084F862
:100F100035000020002184F8341001B0F0BD6FF0DE
:100F20000E0039461BE7904988429CD0914988427F
:100F300099D08E49884296D08D498842A16D93D030
:100F4000E26D012302F01F0203FA02F24A6092E707
:100F50008E4887423FF446AF8D4887423FF442AF08
:100F60008C4887423FF43EAF41E788498842C0D071
:100F700087498842BDD087498842BAD0C6E700BFBA
:100F80001000024028000240400002405800024089
:100F90007000024088000240A0000240B8000240F9
:100FA0001004024028040240400402405804024059
:100FB0007004024088040240A0040240B8040240C9
:100FC00010B5002844D090F8351002293ED10168B0
:100FD000594A914223D0594B99421CBF584B9942D0
:100FE0001DD0584B99421CBF574B994217D0574BB5
:100FF00099421CBF564B994211D0564B99421CBF87
:10100000554B99420BD0554B99421CBF544B9942BA
:1010100005D0544B99421CBF534B99423CD10423F9
:10102000914280F835300BD0444881421CBF44487F
:10103000814205D0434881421CBF434881420AD1C6
:10104000086820F001000860002102E0802141656D
:101050000121084610BD3D488142F1D03C48814203
:10106000EED03C488142EBD03B488142E8D03B483F
:1010700081421CBF3A488142E2D03A4881421CBFBB
:1010800039488142DCD039488142D9D03848814240
:10109000D6D038488142D3E7344B9942BFD0344B45
:1010A0009942BCD0334B9942B9D00A6822F00E0263
:1010B0000A60314A91420A6822F001020A600BD0AC
:1010C0002E4A91421CBF2E4A914205D02D4A914290
:1010D0001CBF2D4A914225D1D0E916C2D0E9183E55
:1010E000196802F01F0221F480710124196004FACA
:1010F00002F1CCF80410816ECEF80410C16E31B14B
:101100000A6822F480720A60D0E91C124A60012148
:1011100080F835100021026D002A80F8341098D034
:10112000904791E7194A9142D6D0194A9142D3D0BB
:10113000184A9142D0D0EAE710000240280002404D
:101140004000024058000240700002408800024007
:10115000A0000240B80002401004024028040240EF
:1011600040040240580402407004024088040240D7
:10117000B8040240A0040240085402581C5402580B
:101180003054025844540258585402586C5402586F
:101190009454025880540258B0B5044600F0E0F868
:1011A0009C49621C0978054618BF0C4400F0D8F829
:1011B000401BA042FAD3B0BD2DE9FC4F5F4A0A277D
:1011C0005F4C02444FEAB223A04208BF0927092B13
:1011D00038BF4FEAB2274FF0000C009701274FF0BD
:1011E000000E00269EE007FA06F912EA090B00F04D
:1011F00094804A6802F00308A8F1010ABAF1010FCD
:1012000013D80324856804FA0EF325EA0303CD6896
:1012100005FA0EF52B4383604368C2F3001523EAF9
:101220000903B5402B43436004E0B8F1030F4FF0CE
:1012300003041FD0C36804FA0EF5AB438D6805FAAA
:101240000EF52B43B8F1020FC36013D16FF0030208
:1012500002EA560202440CF01C03D2F820800F254B
:101260009D4028EA05080D6905FA03F343EA0803DF
:1012700013624A68036804FA0EF5AB4302F00305F3
:1012800005FA0EF52B4312F4403F036045D0294A7E
:1012900013462C4C12680F2542F002021A601A689D
:1012A00002F00202019226F00302019B0CF00C03F3
:1012B00052F804809D40009F28EA050507FA03F3D1
:1012C0002B4313514FF0B048D8F800204B6842EA46
:1012D0000B05DF0258BF22EA0B05174A1446C8F86F
:1012E00000509F02126842EA0B0558BF22EA0B0524
:1012F0009F0325604FF00107D4F8802042EA0B05D8
:1013000058BF22EA0B05DB03C4F88050E26F42EAC3
:101310000B0558BF22EA0B05E56701360EF1020EF8
:101320000CF1040C0A6832FA06F47FF45CAFBDE8F5
:10133000FC8F00BFF4440258040000580000FEA7D0
:101340000024025808040058002A08BF09048161DB
:101350007047000001480068000C70470010005CF6
:1013600005480068704700BF2A48007802490A68AB
:1013700010440860704700BF6036002480B5032029
:1013800000F0F2F901F02AFB0F490A68C2F30322C8
:1013900009680E4B01F00F019A5C595C02F01F02C4
:1013A000D0400B4A01F01F0120FA01F1116092496F
:1013B00008600F2000F00EF808B1012080BD00F099
:1013C00095F9002080BD00BF18440258847E0008B3
:1013D0001400002470B50F4E3178C1B104464FF4AB
:1013E0007A70B0FBF1F084490968B1FBF0F002F0CB
:1013F0004BFD0F2C4FF001050AD848B94FF0FF30D4
:1014000000222146002500F08FF9746000E00125DC
:10141000284670BD08000024002806D090F83C3013
:10142000012B05D14FF0020C27E04FF0010C24E016
:101430004FF0010C80F83CC090F83D30012B19D1E1
:10144000D0F800C0DCF810305B000AD4CCF83010C3
:101450000029CCF83420DCF8101005D041F0004110
:1014600004E04FF0010C05E021F00041CCF8101031
:101470004FF0000C002180F83C10604670470000DF
:10148000BCB500210191044600684FF0A4435A49BD
:1014900000F5F8620D68C2F38411012202FA01F12D
:1014A0001A6811426DD00168C90729D0C16889073F
:1014B00026D5C16821F00201C16081680A06A36EC9
:1014C0004FF0020258BF01221A438B05A26603D5D2
:1014D000A26E42F00402A266CA0503D5A26E42F0D3
:1014E0000802A2664A0503D5A26E42F01002A26667
:1014F000090503D5A16E41F02001A16601214160DB
:101500000168C90644BFC1685FEA81613AD40168D5
:10151000090744BFC1685FEAC1613CD4016849075B
:1015200044BFC1685FEA01713ED40168890744BFC6
:10153000C1685FEA417140D4A06E10B34FF41650F9
:10154000B5FBF0F1042084F83D002068C26822F069
:101550000102C260019A01328A42019202D8C26835
:10156000D207F7D1002184F83C10C068C0074FF0C3
:10157000030008BF012084F83D00616D09B12046D9
:101580008847BCBD10214160A16C0029BFD0204616
:1015900088472068BBE708214160E16C0029BDD085
:1015A000204688472068B9E704214160216D002961
:1015B000BBD0204688472068B7E7C16821F03E01CC
:1015C000C16094F83D10042907D1002084F83C0044
:1015D000012084F83D00A16DD0E702214160002088
:1015E00084F83C00012084F83D00616C0029A3D000
:1015F00020468847A0E700BF10000024B0B504468D
:10160000FFF7AEFE002C51D00546002084F83C00C8
:10161000022084F83D002068C16821F00101C1600A
:1016200005E0FFF79DFE401B052841D82068C168F2
:10163000C907F6D1D4E903231A43D4E901C5C2602E
:10164000BCF1804FD4E9052342EA0302E36942EA90
:101650000302236A42EA0302636AE16A42EA03027E
:10166000236B41EA0201A26A41EA03011E4B03EB2C
:10167000824241EA050141EA0201016103D10169A7
:1016800041F04041016100214161626BB2F1FF3FD5
:1016900004DC4169524241F48021416191B201620E
:1016A000A26BB2F1FF3F07DD12040CE00120B0BDD8
:1016B00001200322402113E04169002341F400216D
:1016C0004161A3EB0242016A11435FFA8CF20162AD
:1016D00000218262012241620020C4E91711616683
:1016E000A16684F83D20B0BD0000FCFF81B0064833
:1016F000016841F002010160006800F00200009002
:10170000009801B0704700BFF4440258002808DB7D
:1017100000F01F01012202FA01F1024A400942F8D9
:101720002010704700E100E080B5154B1B68C3F343
:10173000022C8CF0070EBEF1040F28BF4FF0040EF0
:10174000BCF103034FF0FF3C38BF00230CFA0EFE40
:1017500021EA0E0199400CFA03F39A431143BDE8C4
:10176000804004F019BB00BF05490A684FF6FF032B
:101770001A4060F30A22034810430860704700BF14
:101780000CED00E00000FA05B0B5104D29684907DE
:10179000296805D401F00701081A18BF0120B0BD5F
:1017A00021F0070108432860FFF7DAFD044655F8E9
:1017B000080C800407D4FFF7D3FD001BB0F57A7F37
:1017C000F5D90120B0BD0020B0BD00BF0C480258C3
:1017D00080B501F0C3F80549054A0968C1F3021153
:1017E000515C01F01F01C84080BD00BF2044025879
:1017F000847E000810B53D4CA36AA26AC2F3051CA2
:10180000E26A616B02F00102C1F3CC01BCF1000F8E
:1018100011FB02F100EE101AB8EE400A0CD003F0F2
:101820000303022B0CD0012B0DD013B921688906BC
:101830000CD49FED311A13E00021C0E9001153E0F0
:101840009FED2C1A0CE09FED2A1A09E021682B4A23
:10185000C1F3C10122FA01F101EE101AB8EE411AEA
:1018600002EE10CA9FED263AB8EE422A216B6FF3C2
:101870005F2181EE021A02EE101AB8EE422A216BA5
:10188000C1F3462100EE032AB7EE000A03EE101A58
:1018900032EE002AB8EE433A21EE021A33EE002A65
:1018A00081EE022ABCEEC22A80ED002A216BC1F330
:1018B000064102EE101AB8EE422A32EE002A81EEFC
:1018C000022ABCEEC22A80ED012A216BC1F3066117
:1018D00002EE101AB8EE422A32EE000A81EE000A39
:1018E000BCEEC00A10EE101A816010BD0044025810
:1018F0000024744A20BCBE4B0024744C0090D003DA
:101900000000003910B53C4CA36AA26AC2F3053C42
:10191000E26AC2F30012E16BC1F3CC01BCF1000F2B
:1019200011FB02F100EE101AB8EE400A0AD003F0E3
:101930000303022B0AD063B9216889060CD49FEDFA
:10194000311A13E00021C0E9001153E09FED2C1A79
:101950000CE09FED2A1A09E021682B4AC1F3C1016E
:1019600022FA01F101EE101AB8EE411A02EE10CA85
:101970009FED263AB8EE422AA16B6FF35F2181EE0C
:10198000021A02EE101AB8EE422AA16BC1F34621E8
:1019900000EE032AB7EE000A03EE101A32EE002A18
:1019A000B8EE433A21EE021A33EE002A81EE022A03
:1019B000BCEEC22A80ED002AA16BC1F3064102EE03
:1019C000101AB8EE422A32EE002A81EE022ABCEE4C
:1019D000C22A80ED012AA16BC1F3066102EE101A42
:1019E000B8EE422A32EE000A81EE000ABCEEC00ACE
:1019F00010EE101A816010BD004402580024744A91
:101A000020BCBE4B0024744C0090D0030000003971
:101A100010B53C4CA36AA26AC2F3055CE26AC2F349
:101A20000022616CC1F3CC01BCF1000F11FB02F18B
:101A300000EE101AB8EE400A0AD003F00303022B9E
:101A40000AD063B9216889060CD49FED311A13E0DE
:101A50000021C0E9001153E09FED2C1A0CE09FED2E
:101A60002A1A09E021682B4AC1F3C10122FA01F1C7
:101A700001EE101AB8EE411A02EE10CA9FED263A96
:101A8000B8EE422A216C6FF35F2181EE021A02EE5A
:101A9000101AB8EE422A216CC1F3462100EE032A47
:101AA000B7EE000A03EE101A32EE002AB8EE433AFF
:101AB00021EE021A33EE002A81EE022ABCEEC22A7F
:101AC00080ED002A216CC1F3064102EE101AB8EE37
:101AD000422A32EE002A81EE022ABCEEC22A80EDB2
:101AE000012A216CC1F3066102EE101AB8EE422AF7
:101AF00032EE000A81EE000ABCEEC00A10EE101AA7
:101B0000816010BD004402580024744A20BCBE4BC2
:101B10000024744C0090D00300000039F8B580F424
:101B200000220A4300F07F8080F400720A4332D022
:101B300080F480620A4300F0878080F400620A43E8
:101B400038D080F480520A4300F08B8080F4005239
:101B50000A4300F0948080F480420A4337D080F436
:101B600000420A4342D080F480320A434ED080F4CF
:101B70008070084340F0DF808749086D00F007025D
:101B8000042A00F2D8808848DFE812F07700870046
:101B90008E00D60096008049086DC0F38212042A98
:101BA00000F2C9808048DFE812F0680078007F000A
:101BB000C70087007849886DC0F30262042A00F2EA
:101BC000BA807948DFE802F0596970B87800724845
:101BD000816DC1F30271052900F2AD80DFE801F0EB
:101BE00003869198A28DFFF7F3FDA5E06A48016D89
:101BF00001F04051B1F1005F00F07880B1F1805FF9
:101C000000F09680002940F0968076E06248C16C32
:101C1000C903006840F18D80000140F18C8001A86B
:101C2000FFF770FEA1E05C48816D01F44031B1F531
:101C3000003F00F08880B1F5803F00F090800029DF
:101C400040F07980006829E05349886DC0F3425222
:101C5000042A00F270805448DFE802F00F1F266E5D
:101C60002E004D49086DC0F30232042A63D84E4855
:101C7000DFE802F003131A622200086859E04648C0
:101C8000016DC1F30241052955D8DFE801F0032FAA
:101C90003A414B3600F082FE4EE0086800014AD51A
:101CA00001A8FFF72FFE05E00868800043D501A8D2
:101CB000FFF7AEFE01983FE0C86C10F040520B6891
:101CC000086802D113F0040326D1B2F1805F02D17B
:101CD00010F4807051D1086810F400301CBF47F632
:101CE0004000C0F27D10B2F1005F52E000680001D8
:101CF00021D501A8FFF706FE23E0006827498003ED
:101D000013E00068800016D501A8FFF781FE18E0F7
:101D1000016849070FD50068C0F3C100214921FAC5
:101D200000F009E000681E49C00501EAE07003E028
:101D30000068800102D4002004B080BD01A8FFF734
:101D400059FD0298F8E7C16C11F040510368026830
:101D50000DD113F004030AD0C2F3C100DEE700681E
:101D60008000E8D501A8FFF753FE0398E4E7B1F13E
:101D7000805F04D112F4807201D00948DCE700686A
:101D800010F400301CBF47F64000C0F27D10B1F1E6
:101D9000005F18BF0020CFE70044025840787D0163
:101DA00000093D000090D0030080BB002DE9F04702
:101DB0000446C078B04F000722D5A06E4FEA3051DC
:101DC000032908D8DFE801F002090F17F96941F487
:101DD0000031F9610FE0012613E004F1080002214F
:101DE00002F06AFC04E004F12800022102F0E4FCA5
:101DF000064630B9A06E396C21F4401108433864AE
:101E000000266078BA46C00701D135462AE0A06DA9
:101E100004280BD83546DFE800F0030C1218180030
:101E2000F869354640F40030F8610EE001250127DD
:101E300019E004F10800002102F03EFC04E004F186
:101E40002800002102F0B8FC0546002D2F460AD1DB
:101E5000DAF84000002520F00700A16D0843524643
:101E6000CAF840003746607880072DD5E06D4FEA0C
:101E7000B01004280CD8DFE800F0030E141A1A0082
:101E8000DAF81C00514640F40030CAF81C000EE09D
:101E90000125012619E004F10800002102F00CFCE4
:101EA00004E004F12800002102F086FC0546002D24
:101EB0002E460AD1DAF84000002520F4E070E16DEA
:101EC00008435246CAF840003E466078400702D4B4
:101ED000B04657462CE0D4F8A80057464FEA705059
:101EE000042809D8DFE800F0030C12181800F8697C
:101EF00040F40030F8610FE001254FF0010817E0D1
:101F000004F10800002102F0D7FB04E004F12800EE
:101F1000002102F051FC0546002DA84608D1B86CFE
:101F2000002520F46000D4F8A8100843B046B86437
:101F3000607800072CD5D4F8AC004FEA3060042854
:101F400009D8DFE800F0030B11171700F86940F417
:101F50000030F8610EE0012501271AE004F10800C5
:101F6000002102F0A9FB04E004F12800002102F0A6
:101F700023FC0546002D2F460BD1DAF8480000253A
:101F800020F0E060D4F8AC1008435246CAF848008C
:101F90004746E078800726D5E06C4FEA30100328EA
:101FA0000BD8DFE800F013020D13DAF81C005146DD
:101FB00040F40030CAF81C0008E00125012613E0B7
:101FC00004F10800022102F077FB0546002D2E46A1
:101FD0000AD1DAF83C00002520F03000E16C08431B
:101FE0005246CAF83C003E466078C0062DD5206EA9
:101FF0004FEA303004280CD8DFE800F0030E141A42
:102000001A00DAF81C00514640F40030CAF81C00EF
:102010000EE00125012719E004F10800002102F07B
:102020004BFB04E004F12800002102F0C5FB05464B
:10203000002D2F460AD1DAF84000002520F4E040B8
:10204000216E08435246CAF8400037466078800641
:1020500027D5606E4FEA304005280AD8DFE800F047
:1020600014030E14141404F10800012102F024FBDF
:1020700009E00125012615E01044025804F128006A
:10208000012102F099FB0546002D2E460AD1DAF80F
:102090004000002520F4E020616E08435246CAF853
:1020A00040003E466078400627D5D4F8B0004FEA9D
:1020B000307005280AD8DFE800F012030C12121263
:1020C00004F10800012102F0F7FA07E001250127D9
:1020D00014E004F12800012102F06EFB0546002DFA
:1020E0002F460BD1DAF84800002520F0E040D4F864
:1020F000B01008435246CAF84800374660780006D8
:1021000022D5206F98B1B0F1005F0AD0B0F1805FA6
:102110002ED1DAF81C00514640F40030CAF81C00F9
:1021200005E004F10800012102F0C6FA0546002D81
:102130002E460AD1DAF84000002520F04050216FE9
:1021400008435246CAF840003E46E078C00702D134
:10215000B046574624E0A06C574603280BD8DFE86A
:1021600000F014020E14F86940F40030F8610CE03D
:1021700001250126E9E701254FF0010810E004F1EF
:102180000800022102F098FA0546002DA84607D162
:10219000F86B002520F00300A16C0843B046F863FB
:1021A000A078400601D4474617E0D7F8F00340F482
:1021B0008070C7F8F003FFF7D3F80646D7F8F003AE
:1021C000C00507D4FFF7CCF8801B6428F6D9032597
:1021D000032702E0002D2F4612D02078C00750D0F0
:1021E000E06F4FEAF000052835D8DFE800F03D0346
:1021F000373D3D3D04F10800012102F05DFA32E077
:10220000DAF860105346D4F8B400414011F4407F2E
:102210000BD0196E1A6E21F4407142F480321A66A6
:102220001A6E22F480321A661966B0F5807F40F08B
:102230007282FFF795F8064641F288390325032795
:10224000DAF86000800700F16382FFF789F8801BED
:102250004845F5D9C1E70125012613E004F128001E
:10226000012102F0A9FA0546002D2E460AD1DAF81E
:102270004400002520F03800E16F08435246CAF8B8
:1022800044003E462078800723D5A06F05280AD851
:10229000DFE800F012030C12121204F10800012111
:1022A00002F00AFA07E00125012713E004F12800F3
:1022B000012102F081FA0546002D2F460AD1DAF8F5
:1022C0004400002520F00700A16F08435246CAF8D9
:1022D000440037462078400725D5D4F894000528D7
:1022E0000AD8DFE800F012030C12121204F1080001
:1022F000012102F0E1F907E00125012614E004F1D3
:102300002800012102F058FA0546002D2E460BD177
:10231000DAF84800002520F00700D4F894100843AC
:102320005246CAF848003E462078800627D5D4F8A1
:1023300090004FEA307005280AD8DFE800F0120359
:102340000C12121204F10800002102F0B5F907E0A6
:102350000125012714E004F12800022102F02CFAE3
:102360000546002D2F460BD1DAF84400002520F059
:10237000E040D4F8901008435246CAF8440037466B
:102380002078400627D5D4F89C004FEAB0200528D5
:102390000AD8DFE800F012030C12121204F1080050
:1023A000002102F089F907E00125012614E004F17B
:1023B0002800022102F000FA0546002D2E460BD11E
:1023C000DAF84800002520F4E050D4F89C100843C7
:1023D0005246CAF848003E462078000627D5D4F871
:1023E000A0004FEA703005280AD8DFE800F0120399
:1023F0000C12121204F10800002102F05DF907E04E
:102400000125012714E004F12800022102F0D4F98B
:102410000546002D2F460BD1DAF84800002520F4A0
:102420006040D4F8A01008435246CAF84800374626
:102430002068010717D5D4F88410B1F5805F0AD160
:1024400004F12800022102F0B7F90028206818BF23
:102450000127D4F88410DAF84420534622F440527D
:102460001143CAF84410C10617D5D4F89810B1F535
:10247000807F0AD104F12800022102F09DF9002892
:10248000206818BF0127D4F89810DAF8482053467E
:1024900022F440721143CAF84810000322D5D4F840
:1024A000A400B0F5003F0FD0B0F5803F06D088BB48
:1024B00004F10800002102F0FFF804E004F1280014
:1024C000022102F079F90546002D2E460BD1DAF8EB
:1024D0004800002520F44030D4F8A41008435246A8
:1024E000CAF848003E46A07840072AD5D4F88800AC
:1024F000B0F5401F17D0B0F5001F0ED0B0F5801F0B
:1025000040F00181DAF81C00514640F40030CAF86E
:102510001C0008E001250126E5E704F1280001215F
:1025200002F04AF90546002D2F460BD1DAF8440097
:10253000002520F44010D4F8881008435246CAF809
:1025400044003746A078C00701D13E4622E0206D06
:10255000B0F5803F08D0D8B9DAF81C00514640F4F5
:102560000030CAF81C0005E004F10800022102F066
:10257000A3F80546002D2E460CD1DAF83C000025C4
:1025800020F48030216D08435246CAF83C00DCE755
:10259000012501262168880001D4606809E004F162
:1025A0002800022102F008F9002818BF0126D4E90A
:1025B00000108A031BD5D4F880206FF0010303EBD1
:1025C0003223022B0BD34FEA322343B1012B40F0CD
:1025D0009D80DAF81C3043F40033CAF81C303DB952
:1025E000DAF8443023F440731A43CAF844203546DD
:1025F000CA0207D5DAF8402022F00042636F1A437E
:10260000CAF84020CA0008D5DAF8002022F4804237
:10261000D4F8B8301A43CAF800208A0207D5DAF88D
:10262000402022F08072E36E1A43CAF840204A002C
:102630000CD5DAF8002022F40042CAF80020D4F8C1
:10264000BC20DAF800301A43CAF80020B1F1FF3F8D
:1026500007DCDAF83C2022F04052636D1A43CAF8D6
:102660003C20090208D5DAF8441021F44001D4F8DE
:102670008C201143CAF84410C10708D004F10800A7
:10268000002102F019F8002818BF0546606881078C
:1026900008D504F10800012102F00EF8002818BF47
:1026A00005466068410708D504F10800022102F0E0
:1026B00003F8002818BF05466068010708D504F133
:1026C0002800002102F078F8002818BF054660684D
:1026D000C10608D504F12800012102F06DF8002898
:1026E00018BF05466068800603D44DB10120BDE8DF
:1026F000F08704F12800022102F05EF82843F5D1AA
:102700000020BDE8F087012501271BE701256FE7C1
:102710005346D4F8B40000F440711A68B1F5407F14
:1027200022F47C5103D1064A02EA101211431960C7
:102730006FF31F30196E00250843186633E500BF9C
:10274000CFFFFF002DE9F843002800F0FE8004468B
:10275000804B186800F00F00884688420BD218683A
:1027600020F00F0040EA08001860186800F00F0021
:10277000404540F0EA802068CF4F41070AD52169E3
:10278000BA6902F07002914204D9BA6922F070026B
:102790001143B96101070AD56169FA6902F0700253
:1027A000914204D9FA6922F070021143F961C1061D
:1027B0000AD5A169FA6902F4E062914204D9FA6982
:1027C00022F4E0621143F96181060AD5E1693A6AAF
:1027D00002F07002914204D93A6A22F07002114369
:1027E000396281070AD5E168BA6902F00F029142A5
:1027F00004D9BA6922F00F021143B961C10736D07A
:10280000B86920F47061D4E9010211430328B96169
:1028100005D0022807D1396889030DD495E03968BD
:10282000890109D491E00128396802D1C90503D48E
:102830008BE0490740F189803969994621F0070109
:1028400008433861FEF78CFD064641F28835386949
:1028500000F038006168B0EBC10F06D0FEF780FDD4
:10286000801BA842F3D9032070E020684B46810703
:102870000AD5E168BA6902F00F02914204D2BA693E
:1028800022F00F021143B961196801F00F014145AF
:102890000AD9196821F00F0141EA08011960196885
:1028A00001F00F01414550D141070AD52169BA69AC
:1028B00002F07002914204D2BA6922F07002114310
:1028C000B96101070AD56169FA6902F070029142A3
:1028D00004D2FA6922F070021143F961C1060AD5E7
:1028E000A169FA6902F4E062914204D2FA6922F421
:1028F000E0621143F96180060AD5E069396A01F0A6
:102900007001884204D2396A21F0700108433862AC
:1029100000F064F8B969C1F303212F4A515CBB6927
:1029200003F00F03D25C01F01F0120FA01F102F065
:102930001F00184A21FA00F01060174A0648006884
:102940001160BDE8F843FEF745BD012001B0BDE8C8
:10295000F08300BF002000520C00002480B500F07E
:102960003DF80B490A68C2F3032209681A4B01F0CB
:102970000F019A5C595C02F01F0220FA02F201F08A
:102980001F00044922FA00F0086003490A6080BD74
:1029900018440258140000241000002480B5FFF7EA
:1029A000DDFF0C490C4A0968C1F30211515C01F0CA
:1029B0001F01C84080BD00BF80B5FFF7CFFF0549AC
:1029C000054A0968C1F30221515C01F01F01C840AA
:1029D00080BD00BF1C440258847E00083649086947
:1029E000C0F3C20003280CD0022828D048BB0868D6
:1029F0008006374858BF70470968C1F3C101C84015
:102A000070478A6A886AC0F3051CCB6A486B03F07A
:102A10000103C0F3CC00BCF1000F10FB03F000EE8B
:102A2000100AB8EE400A0ED002F00302022A0CD0BF
:102A300072B9086880060ED49FED241A15E020486C
:102A400070471E487047002070479FED1F1A0CE02A
:102A50009FED1C1A09E008681D4AC0F3C10022FA64
:102A600000F001EE100AB8EE411A02EE10CA9FED16
:102A7000193AB8EE422A086B6FF35F2081EE021A12
:102A800002EE100AB8EE422A086BC0F3462000EEB0
:102A9000032AB7EE000A013032EE000A21EE000AE6
:102AA00001EE100AB8EE411A80EE010ABCEEC00A2F
:102AB00010EE100A704700BF0044025800093D00A4
:102AC00040787D010024744A20BCBE4B0024744C25
:102AD0000090D00300000039F8B5002800F0B48160
:102AE00004460078D74EC00721D12078800740F1F6
:102AF000B180306910F03801B06A3CD0182908BFA5
:102B00005FEA807037D0E068002831685CD021F03F
:102B1000190108433060FEF723FC05463068400782
:102B200043D4FEF71DFC401B0228F7D9A0E1306911
:102B300000F03801B06A102905D018290AD100F038
:102B40000300022806D130688003CED560680028D3
:102B5000CBD179E16068002847D0B0F5803F06D03E
:102B6000B0F5A02F30685ED140F48020306030682E
:102B700040F480305DE030684007E06802D500280E
:102B800000F06281316821F0190108433060FEF7DE
:102B9000E7FB05463068400707D4FEF7E1FB401B22
:102BA00002284FF00300F5D963E1FEF7D3FB41F2B1
:102BB0000301884230D820697168402821F47C31B3
:102BC00045D141F4003044E021F001003060FEF7CF
:102BD000C7FB0546306840073CD5FEF7C1FB401BEC
:102BE00002284FF00300F5D943E1306820F480302B
:102BF0003060306820F480203060FEF7B1FB05467D
:102C0000306880037FF571AFFEF7AAFB401B642894
:102C10004FF00300F4D92CE1706820F0FE402169E8
:102C200040EA016015E020F480303060306820F424
:102C300080203060FEF794FB0546306880033FF546
:102C400054AFFEF78DFB401B6428F6D910E141EA32
:102C5000003070602078C00653D5306900F038012C
:102C6000B06A082905D018290BD100F0030001280B
:102C700007D13068C00519D5E069802840F0E480AC
:102C800014E0E0690028306827D040F08000306010
:102C9000FEF766FB05463068C00507D4FEF760FB0B
:102CA000401B02284FF00300F5D9E2E0FEF752FB8B
:102CB00041F20301884208D8206A7168202821F077
:102CC000F8411BD141F080401AE0F06820F07C50C0
:102CD000216A40EA0160F06013E020F0800030607B
:102CE000FEF73EFB05463068C0050AD5FEF738FB07
:102CF000401B02284FF00300F5D9BAE041EA80609A
:102D000070602078000723D560690028706F0ED0AE
:102D100040F001007067FEF723FB0546706F8007E7
:102D200016D4FEF71DFB401B0228F7D9A0E020F0C7
:102D300001007067FEF714FB0546706F800707D52A
:102D4000FEF70EFB401B02284FF00300F5D990E080
:102D50002078800623D5A069002830680ED040F482
:102D600080503060FEF7FCFA05463068800416D4C7
:102D7000FEF7F6FA401B0228F7D979E020F48050DC
:102D80003060FEF7EDFA05463068800407D5FEF79F
:102D9000E7FA401B02284FF00300F5D969E02078DC
:102DA000400753D4656A002D00F00D81306900F0B2
:102DB000380018286ED1B16A012D306B44D001F073
:102DC0000302A36A9A423FD1C1F30511E26A91421C
:102DD0003AD10146226B6FF35F21013A914233D120
:102DE000C0F34621626B013A91422DD1C0F30641F6
:102DF000A26B013A914227D1C0F30660E16B013921
:102E0000884221D1706BC0F3CC00A16C814200F0EC
:102E1000DA80F06A20F00100F062FEF7A1FA0546C0
:102E2000FEF79EFAA842FBD0706B4FF6F87188430C
:102E3000A16C40EAC1007063F06A40F00100F062EA
:102E4000C1E000BF00440258012012E0D6F800049F
:102E500040F48070C6F80004FEF782FA0546D6F802
:102E60000004C00507D4FEF77BFA401B6428F6D99E
:102E7000032001B0F0BDA06860B3012806D005288A
:102E8000306F40F0A28040F004003067306F40F0B7
:102E90000100A0E0306820F080703060FEF760FA3A
:102EA000022D05460AD1306880012CD5FEF758FA6C
:102EB000401B02284FF00300F5D9DAE730688001A3
:102EC00040F18180FEF74CFA401B02284FF00300CE
:102ED000F4D9CEE7306F20F001003067306F20F07A
:102EE00004003067FEF73CFA054641F28837306F40
:102EF00080077FF557AFFEF733FA401BB8424FF01B
:102F00000300F4D9B5E7B06A40F2F3318843A16A0F
:102F1000226B0843511E626B4FF47E4303EB422247
:102F2000E36A6FF35F2192B240EA0310B062501877
:102F3000A16B4FF4FE0202EB014101F4FE010844D3
:102F4000E16B4FF0FE4202EB016101F0FE410844EB
:102F500030634FF6F871F06A20F00100F062706B98
:102F60008843A16C40EAC1007063F06A20F00C0055
:102F7000216C0843F062F06A20F00200616C0843A3
:102F8000F062F06A40F48030F062F06A40F40030A1
:102F9000F062F06A40F48020F062F06A40F00100D4
:102FA000F062306840F080703060FEF7D9F9044676
:102FB0003068800107D4FEF7D3F9001B02284FF0D8
:102FC0000300F5D955E7002053E720F001003067F2
:102FD000306F20F004003067FEF7C2F9054641F279
:102FE0008837306F80073FF5DDAEFEF7B9F9401B3B
:102FF000B8424FF00300F4D93BE770477047704781
:103000007047000008B3B0B5044690F82C000D4698
:1030100028B9002084F82D00204600F01BF802207B
:1030200084F82C00211D2068FDF7A6FDD4E90002DC
:103030002946FDF7F3FD0648016841F000410160B3
:10304000012084F82C000020B0BD0120704700BF93
:10305000004000522DE9F047B8B033A81421FDF725
:103060008FF93248017800295DD1012502AC057045
:1030700004F10800B821FDF783F94FF080704FF09C
:10308000000802902046CDF80C801495FEF78EFEC5
:1030900008B1FDF741FD2648016833AD41F4805188
:1030A000244C254E01604FF0020900684FF0030ADE
:1030B00000F4805001900C27019829464FF63F00FC
:1030C000339004F50060CDE93498CDF8D8A0379757
:1030D000B0472C20CDE9330904F580502946CDE9CD
:1030E000358A3797B04748F23710CDE9330904F5F0
:1030F00040602946CDE9358A3797B0474FF683704F
:10310000CDE9330904F580602946CDE9358A379742
:10311000B0474CF20370CDE9330920462946CDE98A
:10312000358A3797B04738B0BDE8F087740000247F
:10313000D4440258000C0258B9110008B0B5054635
:1031400090F82C00022801D102240DE095F82C0003
:103150000124012808D1022085F82C002868FDF7F9
:103160003CFD85F82C4000242046B0BDB0B5044697
:1031700090F82C000D46052803D002280ED0012817
:103180000BD1022084F82C0029462068FDF72FFD82
:103190002868022803D1052002E00120B0BD0120EB
:1031A00084F82C000020B0BD2DE9FF41032280F8F7
:1031B00030200446806B0D4603280BD14FF0805021
:1031C000616BBF4F08436063606B40B320688763E7
:1031D000012596E0002D4CD0B5F5004FEED0B5F5A9
:1031E000804F5CD10020CDE902002068002101F071
:1031F000ADFE800156D402A9204601F0E9FF002867
:10320000DED19DF80E00400746D5616C20680904A8
:1032100001F05AFB0028D3D1206802215AE04FF474
:1032200080300021FEF77AFCF0B13F49B0FBF1F3AA
:103230006669D4E90112D4F810C09E425AD2BE4643
:10324000A76DB7F5007F54D0B7F5807F2DD1002E44
:10325000354B42D07700B0FBF7F79F42774649D90C
:10326000334BB0FBF3F645E0606B40F00060606309
:10327000AEE70020CDE902002068002101F066FEE3
:1032800080010FD402A9204601F0A2FF002897D1A7
:103290009DF80E00C00713D14FF0806090E74FF00B
:1032A00000608DE74FF400608AE7002E1F4F1AD0B0
:1032B000B8467700B0FBF7F0404588BF1E4618E0DF
:1032C000616C2068090401F0FFFA00287FF478AFF0
:1032D0002068002101F040FB72E7984208D9144BA6
:1032E000B0FBF3F605E0B84298BF00231E4600E0AD
:1032F0000026774620682B46CDE900C601F02AFE5D
:10330000002520684FF4007101F00DFB28B1216801
:1033100001258F63616B08436063012084F83000EE
:10332000284604B0BDE8F08180F0FA0240787D01C3
:1033300000E1F5057047000080B5D0F838C0D0E94D
:10334000173E9A0F0A70C3F38362BCF1010F4A70F3
:10335000C3F301628A704FEA1342CA704FEA132224
:103360000A714FEA1E524B714FF00003CA80CEF330
:1033700003420A72CEF3C0324A72CEF380328A72AE
:10338000CEF34032CA72CEF300320A734B7337D099
:10339000BCF1000F40F0878040F6FC72436E02EAF9
:1033A0008E0242EA93720A61426EC2F3C2630B75E7
:1033B000C2F302634B75C2F342538B75C2F382436F
:1033C000CB75C2F3C2330B76D1F810C00B7E0CF173
:1033D000010C03F0070302330CFA03FCC0F848C0E9
:1033E0000B7A03F00F0E012303FA0EFE4FEA5E2361
:1033F00003FB0CF3C0E913E34FF40073436512E0E1
:10340000B0F866200EF03F0342EA03420A614FF42F
:1034100080630A6903EB82224FF40073C0E9122330
:10342000C0E91423426EC2F380334B76C2F3C61355
:1034300002F07F028B76CA76806EC20F0A77C0F3E5
:1034400041724A77C0F382628A77C0F38352CA77A7
:10345000C0F3405281F82020002281F82120C0F3DF
:10346000004381F82230C0F3C03381F82330C0F329
:10347000803381F82430C0F3403381F82530C0F325
:10348000003381F82630C0F3812381F82730C0F360
:103490000123C0B281F82830400881F829000120BA
:1034A00081F82A0009E001687A4A8A630122416BA7
:1034B00041F08051416380F83020104680BD00BF4C
:1034C000FF0FE01F80B500F1380E9EE80C5081E838
:1034D0000C50826C0A61C26C4A61026D8A61426D55
:1034E0000020CA6180BD10B5416C04460068090423
:1034F00001F01EFB20B1616B08436063002010BD2A
:103500002068002101F022FDC0F3432010BD00001F
:103510002DE9F04397B0044690F83000032801D11C
:10352000012543E00D465B4EFDF71AFF80462068FB
:10353000002101F00BFD800123D42068402101F01F
:10354000F2F9D0B9616C2068090401F0BDF9A0B9A5
:103550004FF0FF3011904020129060201390022015
:103560001490002015900120169011A9206801F0F8
:1035700089FB206801F00EFBE0B10146606B6063DF
:1035800001E04FF40061206801258663626B1143FE
:10359000616384F830504FF4007101F0C4F928B130
:1035A000216801258E63606384F83050284617B087
:1035B000BDE8F08301AFB1462068416B11F4957FFF
:1035C000416B16D108040BD5002605E0206801F0F8
:1035D000DCFC47F826000136082EF7D120374E468E
:1035E000FDF7BEFEA0EB080001304FF00041E3D133
:1035F000C9E7090747D4416B890746D4416B89065F
:103600000CD52021BFE701F0C0FC3860FDF7A8FE13
:10361000A0EB080001303AD004372068416BC904A0
:10362000F1D4B34981636FF0FF0EDDE9011CCBB229
:10363000DDE903769A092A70C3F340120EEA1123DA
:1036400043EA11616A7069809CFA8CF16960390AF9
:103650002F72F2B26972C7F303510EEA1743A972CF
:10366000D118A981C6F38521A973C6F30121E97395
:103670001109297406F00F0169744E469DF8171060
:10368000A974002587E708217DE702217BE74FF039
:10369000004178E7FF0FE01FF8B504460068E56ACF
:1036A00015F00806416B18BF11F400415ED1416B63
:1036B000C90579D4002E416B18BF11F4804140F048
:1036C000C080416B11F03A0F416B00F0E080890738
:1036D00003D5616B41F002016163416B090703D5BA
:1036E000616B41F008016163416B890603D5616B31
:1036F00041F020016163416BC90603D5616B41F064
:10370000100161637A498163C16B21F49D71C163CA
:10371000C16821F04001C160C16A41F40051C16239
:10372000C16841F08001C16001F04EFA2168002EAD
:10373000626B40EA020060634FF40062C86820F0E8
:103740008000C8608A6340F0A580280640F1A1800F
:10375000606B002800F09D80C86B20F08050C8632B
:1037600000200865012084F8300098E0A06A202835
:10377000C0F08F80656A00260CE0206805EB8607A4
:1037800001F003FC010A38707970010C000EB97069
:10379000F8700136082EF0D105F12000A16A6062B0
:1037A000A1F12000A062F8BD4FF4807181634CF25A
:1037B0003A12C16B002E21EA0201C163C16B21F0F4
:1037C0008051C163C16821F04001C1601ED129064A
:1037D0005FD5002615F0220F8662C662066508D006
:1037E00001F0F2F928B1616B084360632046FFF7EE
:1037F000A1FD012015F0300F84F83000E66202D000
:10380000204600F0D7FAA80716D142E015F0220FA3
:1038100008D001F0D9F928B1616B084360632046F4
:10382000FFF788FD20683249012281630020A90743
:1038300084F83020E06237D02046BDE8F84000F040
:10384000B7BA206A202824D30027E6696D4614E021
:1038500006EB870001780091427841EA022100914D
:10386000827841EA02410091C07841EA006000900C
:103870002946206801F0A2FB0137082FE8D106F1A4
:103880002000216AE061A1F120002062F8BDC9009A
:103890000FD4F8BD012084F830000020E0622046FB
:1038A000BDE8F840FFF746BD2046BDE8F84000F00F
:1038B00081BA4FF080518163006D400705F0200010
:1038C00005D450B12046BDE8F840FFF799BB48B198
:1038D0002046BDE8F840FFF792BB2046BDE8F8401F
:1038E000FFF78CBB2046BDE8F840FFF786BB00BF62
:1038F0003A0F0018B0B586B050B3044690F83000C7
:1039000020B900202076204600F082F9042084F8B7
:103910003000204600F03CF8D0B901A92046FFF75E
:10392000F7FDA8B99DF814009DF81510A26B012AA7
:1039300004D1084304D04FF4007003E0002001E0FC
:103940004FF48070A0652046E168FFF72DFC10B1B0
:10395000012006B0B0BDFDF703FD05462046FFF788
:10396000C2FD04280CD0FDF7FBFC401B0130F5D153
:103970004FF000406063012084F830000320E8E746
:10398000002001216063E06284F83010E1E700006C
:103990002DE9F0438FB081464FF48030002100279D
:1039A000FEF7BCF8D8B3964CB0FBF4F60546D9F850
:1039B00000000021009700220023019601F0CAFABE
:1039C000D9F8000001F0DAFAA54205D3B5EB460FAD
:1039D00008D37000B5FBF0F58A48B0FBF5F0013074
:1039E000FDF7DAFB00200490D9F8000000F0CEFFCC
:1039F000002871D1D9F8000000F0F2FFB0F1004FBB
:103A000013D10020C9F83C00D9F8000000F0BEFF37
:103A1000002861D1D9F83C00012809D00FE001212C
:103A20004FF0006089F830105CE00120C9F83C00DC
:103A3000D9F80000002100F047FF00284AD10021FA
:103A4000724D4FF6FE76002010E0D9F800002946AE
:103A500000F053FFF0BBD9F80000002101F076FA26
:103A6000049901310491C0F38071C00F00280498BB
:103A700009D1B04207D8D9F80000002100F024FF96
:103A80000028E2D028E004984FF6FF72904202D35B
:103A90004FF0807020E00020C9F83810ADF80E001B
:103AA000FDF75EFC0546D9F8000001F04BFAF8B1CD
:103AB000D9F8380003281ED1D9F80000042101F0FC
:103AC00045FA000DC9F8400004A94846FFF734FC48
:103AD000002871D04FF08050012189F83010D9F8BA
:103AE00034201043C9F8340008460FB0BDE8F08315
:103AF0004FF08060F0E7D9F8000000F0D4FF002814
:103B0000EAD1D9F800000021DFF8FC80C047C9F8ED
:103B10006C000421D9F80000C047C9F870000821E2
:103B2000D9F80000C047C9F874000C21D9F800008A
:103B3000C047D9F838100329C9F87800BCD0002054
:103B40000DF10E0641F287370DE0D9F8000031463D
:103B500001F007F80028BFD1FDF702FC401BB84276
:103B60004AD8BDF80E000028EFD0D9F83810032944
:103B7000A2D081B2C9F844100904D9F8000000F0BD
:103B8000A8FF0028A8D1D9F800000021C047C9F833
:103B90005C000421D9F80000C047C9F86000082182
:103BA000D9F80000C047C9F864000C21D9F800001A
:103BB000C047C9F868007FE7D9F84410D9F8000079
:103BC000090400F057FF00287FF486AFD9F8000001
:103BD0004FF4007100F0A7FE60B1D9F80010A94AB7
:103BE0008A63D9F8341008430121C9F8340089F8F0
:103BF000301079E7002177E74FF000406CE700BF15
:103C000000350C00102101004D4F0008000010C1CC
:103C10002DE9F043B7B0044632A81421FCF7B0FBFD
:103C200002A8C021FCF7ACFB20682B4988424FD189
:103C300000204FF4803103900291169002A8FEF705
:103C4000B5F808B1FCF768FF2448016832AC41F4CC
:103C50008031234D01604FF0020801684FF00109E7
:103C600001F480310191032601990C27C16841F0CC
:103C70000401C160C16801F0040101910199C168AA
:103C800041F00801C1602146C06800F008000190C1
:103C900001984FF4F85032902846CDF8CC80CDF8FA
:103CA000D09035963697FDF787FA042032A981E83F
:103CB000010305F580602146CDE93567FDF77CFA03
:103CC000312000210022FDF72FFD3120FDF71EFDE0
:103CD00037B0BDE8F08300BF00700052D4440258F2
:103CE00000080258F0B587B00029044610D094F8B7
:103CF0003000012812D10E46002161631546981844
:103D0000226D1F4690420BD9606B40F0007002E0BC
:103D1000606B40F000606063012046E0022044E0F8
:103D2000032084F830004FF0FF332068A26BC1629B
:103D3000012A01934FEA4723C4E9096302934FF034
:103D4000900303934FF002030493059118BF6D0293
:103D5000069101A900F096FF2068022FC16841F08A
:103D60004001C1604FF001018665016505D38221E4
:103D7000E162294600F04CFE04E08121E16229461F
:103D800000F05FFE002821680AD03E4A8A63616B1A
:103D9000084360630120002184F83000E16204E000
:103DA000C86B40F49570C863002007B0F0BD00BF39
:103DB000FCF7DEBDFCF7EEBD2DE9F04186B0002931
:103DC000044610D094F83000012812D10E4600218C
:103DD000616315469818226D1F4690420BD9606B9F
:103DE00040F0007002E0606B40F000606063012012
:103DF00044E0022042E0032084F830004FF0FF331B
:103E000020684FF09008A26BC162012A00934FEA2C
:103E10004723C4E907630193CDE90281049118BFE8
:103E20006D020591694600F02DFF2068022FC168E0
:103E300041F04001C1604FF001018665016505D385
:103E4000A021E162294600F0EBFE04E02946C4F817
:103E50002C8000F0FEFE002821680AD0094A8A63FF
:103E6000616B084360630120002184F83000E16247
:103E700004E0C86B40F48D70C863002006B0BDE854
:103E8000F08100BFFF0FE01F411E0020B0EB116F5B
:103E900001D001207047044A5160F021034B197092
:103EA000072190601160704710E000E023ED00E012
:103EB00090F88410012901D1022112E02421C0F8D8
:103EC000881002681368116823F0005321F0010183
:103ED00011600021416613602022C0F8882080F81C
:103EE00084100846704770477047B0B5044690F894
:103EF0008400012801D10220B0BD012084F8840093
:103F00002420C4F8880020680568026822F00102B5
:103F10000260826822F0606211438160204601F0F5
:103F2000F9FB206805602020C4F88800002084F890
:103F30008400B0BDB0B5044690F88400012801D1DA
:103F40000220B0BD012084F884002420C4F8880039
:103F500020680568026822F001020260826822F08F
:103F6000604211438160204601F0D4FB2068056067
:103F70002020C4F88800002084F88400B0BD704779
:103F80007047704770B504460068C26940F60F0577
:103F9000034601682A4253F808CF4AD0BC4D0CEAC8
:103FA000050EBC4D0D4015EB0E054CD0D50718BFC6
:103FB00011F4807507D001250562D4F8905045F0C2
:103FC0000105C4F8905095070CF0010508D53DB1E6
:103FD00002260662D4F8906046F00406C4F89060A9
:103FE000560708D53DB104250562D4F8905045F038
:103FF0000205C4F8905015070CD501F020055EEAC3
:10400000050607D008260662D4F8906046F0080638
:10401000C4F89060160567D511F0806664D04FF43F
:1040200000660662254655F8900F40F02000286093
:104030005CE0930607D501F020030CF080555B1976
:1040400001D0616FE9E001EA0203E56EDE063CD5CE
:10405000012D3AD1102101628168490600F1848066
:10406000B4F85C10B4F85E20B4F85E30002B00F0B9
:10407000E480891A0A0401D1DFE0206850E8000FCB
:10408000226820F4907042E80003002BF5D18348A9
:10409000226852E8022F2368024043E80226002EDD
:1040A000F6D12020C4F88C000020E066606720680C
:1040B00050E8000F226820F0100042E80003002BB7
:1040C000F5D189B20220206799E0D60240F19C80A8
:1040D0001CF4800600F098804FF4801101622046A5
:1040E000BDE87040FFF74CBF04F190052868002838
:1040F00000F0A38090060CD501F020000CF0805158
:10410000401806D0616F21B120468847206800F131
:1041100008032868196800F0280001F040014018E1
:1041200000F08580204601F0E5FB206881684906A3
:1041300001D477E0206850E8020F216820F04000A9
:1041400041E80202002AF5D1D4F88000002869D0A5
:1041500051490165FCF734FF00286ED0D4F8800087
:10416000016DBDE870400847D4F8802011684B68A5
:104170009DB2002D61D0B4F85C108D425DD2A4F8E0
:104180005E30D269B2F5807F01D132E0206850E81C
:10419000000F216820F4807041E80002002AF5D168
:1041A000206850E8020F216820F0010041E8020277
:1041B000002AF5D1206850E8020F216820F0400065
:1041C00041E80202002AF5D12020C4F88C0000202A
:1041D000E066206850E8000F216820F0100041E8F8
:1041E0000002002AF5D1D4F88000FCF761FDB4F894
:1041F0005C1002202067B4F85E00081A81B22046E5
:10420000BDE87040FFF76FBE160617D501F08006B7
:104210000CF40005761911D0A16F71B12046BDE8EC
:10422000704008472046BDE87040FFF7AABE204610
:10423000FFF7A7FE0020C4F8900070BD5B060AD40B
:1042400010021BD511F0804018D02046BDE8704008
:10425000FFF795BE206850E8000F216820F040006D
:1042600041E80002002AF5D12020C4F8880000208F
:10427000A0672046BDE8704000F0EAB8D001DCD568
:10428000B1F1FF3FD9DC2046BDE87040FFF72CBEFE
:104290000100001020010004E5580008FEFFFFEFB8
:1042A00010B5E0B10446D0F8880028B9002084F8A1
:1042B0008400204600F028F82420C4F888002068F4
:1042C000A16A0268002922F00102026002D02046A1
:1042D00001F04AFA204601F03BFB012801D1012000
:1042E00010BD2068416821F490414160816821F04F
:1042F0002A018160016841F0010101602046BDE8AA
:10430000104001F095BA000010B5B8B0044633A8CB
:104310001421FCF735F802A8C021FCF731F8206819
:10432000E249884232D101200024029002A803947D
:104330002194FDF73BFD08B1FCF7EEFB98480169BD
:1043400041F010010161016901F010010191019931
:10435000016841F00101016033A9006800F001002B
:10436000019001984FF4C06033900220CDE93404ED
:104370000720369437900648FCF71EFF25200021C1
:104380000022FDF7D1F92520FDF7C0F938B010BDA6
:10439000000002582DE9FC410446D0F8880020288E
:1043A0004DD10E4600294FF001004ED01746002A8D
:1043B0004BD04FF000082120C4F890801D46C4F86F
:1043C0008800FCF7CDFFA4F85470A4F85670074697
:1043D000A168B1F5805F1FD12069002814BF304665
:1043E000B046064618E080210095002220463B4654
:1043F00001F07CFC28BB002E206802D016F8011BBF
:1044000004E038F8021B00266FF35F218162B4F8E4
:1044100056000138A4F85600B4F856000028E2D13E
:1044200040210095002220463B4601F05FFC002819
:104430004FF0200118BF0320C4F8881005E00220C7
:1044400003E02020C4F88800032002B0BDE8F0811A
:104450007047FEE7002853484FF080010CBF01224F
:104460000022FCF771BF00BF6D48FDF709B800BF1F
:1044700010B5034C611C0348FCF752FB207010BDC3
:1044800064000024947E000880B588B0164817495F
:10449000012240F8101F0021082341608260102291
:1044A000C360402302614FF4C072C0E905324FF48B
:1044B0000062C0E907124FF480514FF40052C0E986
:1044C000091202210722019104230292CDE903324D
:1044D0000622CDE90521079101A9FEF793FD08B158
:1044E000FCF71AFB08B080BD2000002440410052B8
:1044F000B0B586B000202B4C0590294800220168F9
:10450000802541F020010160016801F02001009147
:104510000099016841F080010160016801F08001AB
:1045200000910099016841F040010160016801F0CB
:10453000400100910099016841F01001016001689B
:1045400001F0100100910099016841F0080101603B
:10455000016801F0080100910099016841F004012F
:104560000160016801F0040100910099016841F0C7
:10457000010101608021006800F0010000900098B6
:104580002046FCF7E1FE01200195CDE90200032061
:10459000049001A92046FCF70FFE06B0B0BD00BF95
:1045A000E0440258001C0258E0B51C4801681D2276
:1045B00041F0010101601B490823006800F001007F
:1045C00001900198164801600021C0E901210222F2
:1045D000C1600161C0E905234FF00072C161012390
:1045E0000162C0E90923C0E90B11C0E90D11FDF713
:1045F00005F808B1FCF790FA002109480022FCF701
:104600000BFF08B1FCF788FA7A2000210022FDF7A1
:104610008BF87A20BDE88C40FDF778B8D444025876
:10462000E432002440000052A64806490022C0E9B6
:1046300000124FF48041C0E902210821C0E90421A1
:10464000704700BF0070005210B5174C17484FF468
:10465000E13120600020C4E901100C21E060C4E9D0
:10466000040104F118001421FBF78AFE2046FFF72D
:1046700017FE08B1FCF750FA0B480021FFF75AFC6F
:1046800008B1FCF749FA08480021FFF72EFC08B1F1
:10469000FCF742FA0448FFF70BFC18B1BDE81040E4
:1046A000FCF73ABA10BD00BFCC3300240010014023
:1046B000FEE7FEE770470000F8B57F4FBA6A02F0E8
:1046C0000302032A01D1012074E00546386820F076
:1046D00080600C463860FCF743FE064638680001EF
:1046E00005D5FCF73DFE801B0228F7D95FE0B86ACC
:1046F0004FF47E43696820F47C30AA68013903EBEB
:1047000042222B686FF35F2192B240EA03301144DA
:10471000EA684FF4FE03B86203EB024202F4FE02C1
:10472000881829694FF0FE4202EB016101F0FE4159
:104730000844B863002CF86A20F0C000696940EAB8
:104740000100F862F86A20F02000A96940EA01003F
:10475000F8624FF6F871F86A20F01000F862F86B12
:1047600020EA0100E96940EAC100F863F86A40F014
:104770001000F86205D0012CF86A06D140F48010D0
:1047800005E0F86A40F4002001E040F40010F8620F
:10479000386840F080603860FCF7E2FD0446386815
:1047A000000106D4FCF7DCFD001B0328F7D303202F
:1047B00000E0002001B0F0BDF8B53F4FBA6A02F04A
:1047C0000302032A01D1012074E00546386820F075
:1047D00080500C463860FCF7C3FD06463868800000
:1047E00005D5FCF7BDFD801B0228F7D95FE0B86A4C
:1047F0004FF47E43696820F07C70AA68013903EBAE
:1048000042222B686FF35F2192B240EA03501144B9
:10481000EA684FF4FE03B86203EB024202F4FE02C0
:10482000881829694FF0FE4202EB016101F0FE4158
:1048300008443864002CF86A20F44060696940EA52
:104840000100F862F86A20F40070A96940EA0100EA
:10485000F8624FF6F871F86A20F48070F862786CAC
:1048600020EA0100E96940EAC1007864F86A40F48E
:104870008070F86205D0012CF86A06D140F400007F
:1048800005E0F86A40F4800001E040F08070F862D2
:10489000386840F080503860FCF762FD04463868A4
:1048A000800006D4FCF75CFD001B0328F7D303202F
:1048B00000E0002001B0F0BD004402580148FEF7BE
:1048C000EBBE00BF5033002410B586B001913721F4
:1048D00002914FF480710391002104914FF48051B3
:1048E000059101A9044600F053FB372141F28832BB
:1048F000204600F0DDF906B010BD10B586B001917C
:10490000292102914FF480710391002104914FF409
:104910008051059101A9044600F03AFB204600F0C1
:104920007DFA06B010BD10B586B00191102102913C
:104930004FF480710391002104914FF4805105914F
:1049400001A9044600F024FB102141F288322046E0
:1049500000F0AEF906B010BD10B586B00191062189
:1049600002914FF480710391002104914FF4805122
:10497000059101A9044600F00BFB062141F28832A3
:10498000204600F095F906B010BD000010B586B0C5
:104990000021CDE90311CDE901114FF480510591BA
:1049A00001A9044600F0F4FA0B484FF4FA510068EC
:1049B000B0FBF1F041F288314843C043013006D0EA
:1049C000616B0906FAD50548A063002001E04FF0AD
:1049D000004006B010BD00BF10000024C50020003C
:1049E00010B586B04FF4D5710191082102914FF4B2
:1049F00080710391002104914FF48051059101A928
:104A0000044600F0C5FA204600F070FA06B010BD6A
:104A100010B586B00191122102914FF4807103917B
:104A2000002104914FF48051059101A9044600F042
:104A3000AFFA122141F28832204600F039F906B06F
:104A400010BD10B586B00191112102914FF4807113
:104A50000391002104914FF48051059101A904466E
:104A600000F096FA112141F28832204600F020F938
:104A700006B010BD10B586B00191072102914FF428
:104A800080710391002104914FF48051059101A997
:104A9000044600F07DFA072141F28832204600F0FA
:104AA00007F906B010BD10B586B0002102220191B1
:104AB00002924FF44072CDE903214FF480510591E9
:104AC00001A9044600F064FA204600F081F906B01E
:104AD00010BD10B586B00191092102914FF44071CB
:104AE0000391002104914FF48051059101A90446DE
:104AF00000F04EFA204600F06BF906B010BD10B57C
:104B000086B000213322019102924FF48072CDE9E8
:104B100003214FF48051059101A9044600F038FAB1
:104B2000332141F28832204600F0C2F806B010BDB1
:104B300010B586B001910D2102914FF4807103915F
:104B4000002104914FF48051059101A9044600F021
:104B50001FFA0D2141F28832204600F0A9F806B074
:104B600010BDB0B586B000220323019202934FF42A
:104B70008073CDE903324FF480520C46059201A9AF
:104B8000054600F005FA03212846224600F068F9A0
:104B900006B0B0BD10B586B000210D220191029281
:104BA0004FF48072CDE903214FF48051059101A9A2
:104BB000044600F0EDF90D2141F28832204600F064
:104BC00077F806B010BD000010B586B000210C22A9
:104BD000019102924FF48072CDE903214FF480518C
:104BE00005910446C06801A940F08000E060E068DB
:104BF00020F04000E060204600F0CAF90C21074A8E
:104C0000204600F055F8E168B0F1007F21F0800106
:104C100008BF00F17E40E16006B010BD00E1F5057F
:104C200010B586B00191192102914FF48071039162
:104C3000002104914FF48051059101A9044600F030
:104C4000A7F9192141F28832204600F031F806B068
:104C500010BD10B586B00191182102914FF48071FA
:104C60000391002104914FF48051059101A904465C
:104C700000F08EF9182141F28832204600F018F831
:104C800006B010BD10B591E80850CC6802464362EA
:104C9000C0F828C044EA0E000B691843496908436C
:104CA000D16A21F0FF0101430020D16210BD000054
:104CB00010B5A34B4FF4FA541B68B3FBF4F3424C0A
:104CC00053430246DB4301333FD0506B2042FAD0BE
:104CD00010F40050F7D1506B400739D4506BC00727
:104CE00039D104F1800090631069C0B2884235D197
:104CF00050693649084233D0002833DB410034D4B0
:104D0000810034D4C10034D4010135D4410136D4FA
:104D1000C10137D4010238D4410239D481023AD4D6
:104D2000C1023BD441033CD481033DD4C1033ED4F2
:104D300001043FD4410440D4810441D400074FF41E
:104D4000000058BF4FF4803010BD4FF0004010BD40
:104D50000420906310BD0120906310BD012010BDA0
:104D6000002010BD4FF0007010BD402010BD80200D
:104D700010BD4FF4807010BD4FF4007010BD4FF4A3
:104D8000806010BD4FF4006010BD4FF4805010BD26
:104D90004FF4005010BD4FF4804010BD4FF4004060
:104DA00010BD4FF4003010BD4FF4802010BD4FF403
:104DB000002010BD4FF4801010BD4FF4001010BD46
:104DC0004FF4800010BD00BF4500200008E0FFFD4B
:104DD0005B494FF4FA520968B1FBF2F141F28832B3
:104DE0005143C943013110D0426B12F0450FF9D045
:104DF00012F40052F6D1416B490709D4416BC9073F
:104E000008D139498163002106E04FF0004103E0F9
:104E1000042100E0012181630846704748494FF4AE
:104E2000FA520968B1FBF2F141F288325143C943A9
:104E3000013110D0426B12F0450FF9D012F400523C
:104E4000F6D1416B042211F0040104BFC522C0F267
:104E50002002826301E04FF000410846704700BF26
:104E600080B5374BD3F800C04FF4FA53BCFBF3FCCA
:104E700041F288330CFB03F36FEA030E1EF1010EBF
:104E800020D0D0F834C01CF0450FF7D01CF40053EC
:104E9000F4D1436B5B0718D4436BDB0717D103696D
:104EA000DBB28B4217D110498163406910F4604F27
:104EB00013D0410415D400044FF4805058BF4FF470
:104EC000803080BD4FF0004103E0042100E001216B
:104ED0008163084680BD0121FBE7000C10800021A2
:104EE000F7E74FF40051F4E7C500200014494FF4F0
:104EF000FA520968B1FBF2F141F288325143C943D9
:104F0000013113D0426B12F0450FF9D012F4005268
:104F1000F6D1416B49070CD4416BC9070BD1416BEA
:104F2000490601D540218163002106E04FF0004190
:104F300003E0042100E0012181630846704700BFBF
:104F400010000024006800F0030070470844406926
:104F500070470000844641EA020000991843019A14
:104F60000843DCF804101043034A114001430020B9
:104F7000CCF80410704700BF002CC0FF0146006849
:104F800040F0030200200A607047D0F880007047AC
:104F900080B5D1E900EC8B680246C86843EA0C038F
:104FA000C2F808E018430969034B0843D168194067
:104FB00001430020D16080BDC0E0FEFF02460968C9
:104FC0000020C2F880107047024901F1100000F083
:104FD00003B800BF200000242DE9F8430027DFF8C4
:104FE00074904FF00108009710264FF480520C4641
:104FF000C1E90086C1F808800546CF60C847052092
:1050000000F0B2F8022084E841014FF48052E760DA
:1050100028462146C847032020600820C4E90160D3
:105020004FF48052E76028462146C84740F23120BD
:105030000090042000994FF4805284E84101E1601F
:1050400028462146C84740F2F9212846FEF776F85F
:10505000BDE8F8836D31000810B524480021002414
:1050600002F062FA4FF0404002E020F8024B0134B7
:10507000B0F1424FF9D11D484FF0807102F054FA5F
:1050800000204FF040410022B0EB126F07D131F801
:10509000023B94B20132A342F6D02DA021E0134886
:1050A0000021002402F040FA4FF0404001E0245477
:1050B0000134B4F1007FFAD10C484FF0007102F0D6
:1050C00033FA00204FF040410022B0EB526F0BD179
:1050D000535CD4B20132A342F7D005A002F0C0FE67
:1050E0000FA002F0BDFE012010BD00BF798F0008A7
:1050F000382062697420646174612077696474681F
:10510000207265616420616E642077726974652025
:1051100074657374206661696C656421210D0000FB
:10512000706C6561736520636865636B2074686586
:1051300020636F6E6E656374696F6E206F66204EBC
:10514000424C3020616E64204E424C310D00000014
:10515000534452414D2074657374206661696C65D7
:105160006421210D0000000082B001900020009019
:1051700005490198484301E00098013800900098E3
:105180000028F9D102B07047400D030010B55E4C05
:1051900001202070FBF7BAFB18B9207800F0FE0060
:1051A0002070207810BD00BFB0B5FCF7D9F80446D8
:1051B00047F22F55FCF7D4F8001BA84205D8FBF79F
:1051C000A5FB0028F6D10020B0BD4FF0FF30B0BDE8
:1051D0002DE9F04786B00C460546FCF7C1F80646B7
:1051E00028680821FFF79FFB002855D1696C2868C3
:1051F0000904FFF769FB00284ED14FF0FF30009003
:10520000082001903020029002200390002004909A
:105210000120059069462868FFF734FD2868FFF7EC
:105220006EFCC8BB002740F22A5A4FF000094FF02D
:1052300000082968486B10EA0A0F486B14D100F483
:105240000020384308D10846FFF79FFE80462868B3
:10525000FFF79BFE81460127FCF782F8801B013097
:105260004FF00040E5D117E000070FD4486B8007EE
:105270000ED4486B80060DD40948886398FA88F1EB
:1052800099FA89F0C4E90001002005E0082002E055
:10529000022000E02020886306B0BDE8F08700BF50
:1052A0003A0F001880B5FBF739FB18B9FFF76EFF0E
:1052B000154908701448007880BD00BF10B58AB049
:1052C00011480078C0070CD1084603290BD81446B2
:1052D000DFE800F018020B1101A8FBF711FB07989B
:1052E0000EE003200EE004200CE001A8FBF708FB11
:1052F0000898208005E001A8FBF702FB0898400A07
:10530000206000200AB010BD180000242DE9F84FDD
:105310001C4693468946FFF747FF002849DB5FEAB2
:10532000897000943FD04FF0000A8A4F404E47F2F8
:105330003058874D2EE0012238465946FBF70CFBCA
:1053400058BB0BF1010BFCF70BF80446306820B991
:10535000FCF706F8001B4045F8D330680028009C95
:105360004FF0000019D03060BFF34F8FC1192030CB
:105370002960B0F5007FF9D1BFF34F8FBFF36F8F76
:105380004FF4007248463946FAF7D3FF09F5007921
:105390000AF1010AA245CED300208AEA040108439B
:1053A00018BF012006E0484659462246FBF7D4FACA
:1053B00018B1012001B0BDE8F08F1D4C0020206025
:1053C000FBF7CEFF064647F23055206820B9FBF7C1
:1053D000C7FF801BA842F8D320680028E9D000202E
:1053E0002060FBF7BDFF064647F22F54FBF7B8FFDE
:1053F000801BA042DDD8FBF789FA0028F6D129F0FE
:105400001F00009AA9EB000101EB422101290CDBEE
:10541000BFF34F8F4E4A20391060002900F1200061
:10542000F9DCBFF34F8FBFF36F8F0020C2E700BFDF
:1054300098000024FFF7AABE2DE9F84F434F002043
:105440009846386092460E46FFF7AEFE002858DBBD
:10545000B0073CD0BFF34F8F00213E4A3C488B1829
:1054600020310360B1F5007FF9D1BFF34F8FBFF357
:105470006F8F47F2305BDFF8DC9000251EE00020E4
:1054800038604FF4007248463146FAF752FF012265
:1054900048465146FBF772FA98B906F500760AF1CC
:1054A000010AFBF75DFF0446386820B9FBF758FF97
:1054B000001B5845F8D3386810B101354545DED397
:1054C000002085EA0801084318BF01201AE026F0F1
:1054D0001F00311A01EB482101290CDBBFF34F8F6C
:1054E0001B4A2039D060002900F12000F9DCBFF30D
:1054F0004F8FBFF36F8F304651464246FBF73EFA5F
:1055000018B1012001B0BDE8F08FFBF729FF044678
:1055100047F23055386820B9FBF722FF001BA8423C
:10552000F8D338680028ECD000203860FBF718FF6B
:10553000044647F22F55FBF713FF001BA842E0D8A3
:10554000FBF7E4F90028F6D10020DBE7D0020024C5
:105550005CEF00E0603400247047FBF705BF0000FB
:10556000B0B59CB009A83B4C3B4D4C21FAF708FF65
:1055700001A82021FAF704FF0220FCF705F900201A
:105580000090286820F001002860286800F00100E1
:105590000090206840F440402060206800F44040C3
:1055A0000090009820688004FCD52C48215841F0D8
:1055B00002012150205800F00200009000980020C5
:1055C0000090206840F440402060206800F4404093
:1055D0000090286840F001002860286800F0010071
:1055E0000090009820688004FCD5012009904FF4B9
:1055F00080300A9002200521CDE912001491C021CB
:10560000CDE915100421CDE91710082400251994BF
:1056100009A8CDE91A55FDF75FFA18B1EFF310802C
:1056200072B6FEE73F2001900320CDE9020540203D
:1056300004944FF48061CDE90500CDE9071001A87D
:105640000421FDF77FF818B1EFF3108072B6FEE782
:105650001CB0B0BD184802582C040058DCFCFFFFF9
:1056600023480168214A41F470010160106800F08C
:105670000F00062804D81068072161F303001060AA
:1056800010B51C4801681C4C41F00101016000216B
:10569000016103682340036013681B0704D5136886
:1056A000072464F303031360144A8161C16101623A
:1056B0008262134AC262134A026341638263C16316
:1056C00002644164026822F48022026001660E488E
:1056D0000068B1EB507FBDE8104002D101200B49BA
:1056E000086043F2D2000A49086070470020005267
:1056F00088ED00E0004402587FEDF6EA0002020265
:105700000000FF01800201010010005C08810051CF
:1057100000400052416ED9B180B501688A68C2F379
:1057200042628968490FDFF838C01CF80130DFF8A1
:1057300034E01EF801101B01B3FBF1F11CF802303C
:105740001EF802201B01B3FBF2F2BDE8804001E02D
:1057500001210122A0F86A10A0F86820704700BF5C
:10576000C0860008C8860008816A0A0708D5026852
:10577000D0F838C0536823F4004343EA0C03536065
:10578000CA0708D00268D0F82CC0536823F400334D
:1057900043EA0C0353608A0708D50268D0F830C08A
:1057A000536823F4803343EA0C0353604A0708D557
:1057B0000268D0F834C0536823F4802343EA0C0312
:1057C0005360CA0608D50268D0F83CC0936823F439
:1057D000805343EA0C0393608A0608D50268D0F828
:1057E00040C0936823F4005343EA0C0393604A06D5
:1057F00012D50268D0F844C05368BCF5801F23F46A
:10580000801343EA0C03536006D1536823F4C00CA1
:10581000836C43EA0C035360090658BF7047016864
:10582000C06C4A6822F400221043486070470000B0
:10583000BCB500210446C0F89010FBF791FD21682B
:1058400005460A68120718D525484FF40011009044
:10585000002220462B4600F049FA68B1206850E843
:10586000000F216820F0800041E80002002AF5D1F5
:105870002020C4F8880024E021680868400722D569
:1058800017484FF480010090002220462B4600F07C
:105890002DFAC0B1206850E8000F216820F4907004
:1058A00041E80002002AF5D1206850E8020F216883
:1058B00020F0010041E80202002AF5D12020C4F8BE
:1058C0008C00032007E02020C4F88800C4F88C0076
:1058D0000020E0662067002184F8841002B0B0BD8B
:1058E000FFFFFF01806B0021A0F85E10A0F85610AA
:1058F000FEF747BB016851E8001F026821F4907170
:1059000042E80013002BF5D110B5104C026852E8A4
:10591000022F0368224043E802210029F6D1C16E1C
:105920000129BDE8104009D1016851E8001F026853
:1059300021F0100142E80013002BF5D12021C0F81E
:105940008C100021C1664167704700BFFEFFFFEF6A
:10595000FEB50446006804F108038D4D8B4E0ECB56
:10596000194363690B43E16907680B432F409D4D61
:105970003B430360A842436823F4405342EA0302D6
:105980004260A2691CBF236A1A4383683340964E63
:105990001A438260B042C26A944E22F00F03626AD8
:1059A00043EA0203C36228D0914B984232D0914B14
:1059B00098423CD0904B984246D0904B984200F091
:1059C00050808F4B984200F05880A84200F06180D0
:1059D0008C4B984200F069808B4B984240F07B8062
:1059E000736DB446C3F3C206052E00F27580012321
:1059F000DFE806F07367696B6D6F736DB44603F093
:105A00000706052E00F268800023DFE806F0665ADC
:105A10005C5E6062736DB44603F00706052E00F20B
:105A20005B800023DFE806F0594D4F515355736DED
:105A3000B44603F00706052E00F24E800023DFE88F
:105A400006F04C4042444648736DB44603F00706E6
:105A5000052E00F241800023DFE806F03F333537A2
:105A6000393B736DB44603F00706052E34D8002386
:105A7000DFE806F03327292B2D2F736DB44603F092
:105A80000706052E28D80023DFE806F0271B1D1F78
:105A90002123B36DB44603F00706052E1CD802235C
:105AA000DFE806F01B0F11131517736DB446C3F32F
:105AB000C206052E10D80123DFE806F00F03050704
:105AC000090B042309E0082307E0102305E0202345
:105AD00003E0402301E0B4468023A8427F4810D071
