:020000040800F2
:10000000884B0024AD020008E7570008F1540008AF
:10001000E5570008B1090008956F000800000000CE
:100020000000000000000000000000005165000812
:10003000590D000800000000E9570008536500084A
:10004000C7020008C7020008C7020008C70200086C
:10005000C7020008C7020008C7020008C70200085C
:10006000C7020008C7020008C7020008B509000857
:10007000C1090008C7020008C7020008C70200083B
:10008000C7020008C7020008C7020008C70200082C
:10009000C7020008C7020008C7020008C70200081C
:1000A000C7020008C7020008C7020008C70200080C
:1000B000C7020008C7020008C7020008C7020008FC
:1000C000C7020008C7020008C7020008C7020008EC
:1000D000C7020008896F0008C7020008C7020008AD
:1000E000C7020008C702000800000000C70200089D
:1000F000C7020008C7020008C7020008C7020008BC
:10010000C7020008F1590008C7020008C70200082A
:10011000C7020008C7020008C7020008C70200089B
:10012000C7020008C7020008C7020008C70200088B
:10013000C7020008C7020008C7020008C70200087B
:1001400000000000000000000000000000000000AF
:10015000C7020008C7020008C7020008C70200085B
:10016000C7020008C7020008C7020008C70200084B
:10017000C7020008C7020008C7020008000000000C
:10018000C7020008C7020008C7020008C70200082B
:10019000C7020008C7020008C7020008C70200081B
:1001A000C7020008C7020008C7020008C70200080B
:1001B000C7020008C7020008C7020008C7020008FB
:1001C000C7020008C7020008C7020008C7020008EB
:1001D000C7020008C7020008C7020008C7020008DB
:1001E000C7020008C7020008C7020008C7020008CB
:1001F000C7020008C7020008C7020008C7020008BB
:10020000C7020008C7020008C7020008C7020008AA
:10021000C7020008C7020008C7020008C70200089A
:10022000C7020008C702000865550008000000006A
:10023000C7020008C702000800000000C70200084B
:10024000C7020008C7020008C7020008C70200086A
:10025000C7020008C7020008C7020008C70200085A
:10026000C7020008C7020008C7020008C70200084A
:10027000C7020008C7020008C7020008000000000B
:10028000C7020008C7020008C702000800000000FB
:1002900000000000C7020008DFF80CD000F0B4FA3C
:1002A0000048004789840008884B0024064880479E
:1002B00006480047FEE7FEE7FEE7FEE7FEE7FEE74B
:1002C000FEE7FEE7FEE7FEE7596600089902000830
:1002D0002DE9F05F0546002092469B46884606467B
:1002E000814640241BE0284641464746224600F00E
:1002F0008CF853465A46C01A914110D311461846FD
:10030000224600F073F82D1A67EB01084F4622468B
:100310000120002100F06AF817EB00094E41201E71
:10032000A4F10104DFDC484631462A464346BDE8D5
:10033000F09F10B5431A934209D28318881803E03E
:1003400010F8011D03F8011D521EF9D210BD40EA3C
:1003500001039B0703D009E008C9121F08C0042A43
:10036000FAD203E011F8013B00F8013B521EF9D22A
:1003700010BDD2B201E000F8012B491EFBD270473C
:100380000022F6E710B513460A4604461946FFF761
:10039000F0FF204610BD421C10F8011B0029FBD1C4
:1003A000801A704730B4044696230800214604D0D2
:1003B000B62330BC002200F041B820460021F8E707
:1003C00030B50B46014600202022012409E021FA25
:1003D00002F59D4205D303FA02F5491B04FA02F522
:1003E0002844151EA2F10102F1DC30BD202A04DBF5
:1003F000203A00FA02F1002070479140C2F1200338
:1004000020FA03F3194390407047202A04DB203A76
:1004100021FA02F00021704721FA02F3D040C2F124
:10042000200291400843194670470029A8BF704731
:10043000401C490008BF20F00100704710B4B0FA1A
:1004400080FC00FA0CF050EA010404BF10BC7047B5
:1004500049B1CCF1200421FA04F411FA0CF118BFCF
:10046000012121430843A3EB0C01CB1D4FEA00619E
:100470004FEA102042BF002010BC704700EBC35071
:1004800010440029A4BF10BC7047401C490008BF9D
:1004900020F0010010BC70472DE9FE4F804681EA34
:1004A0000300C00F0C46009021F0004123F00045EE
:1004B000B8EB0200A94105D24046214690461C46B1
:1004C0000B46024623F00040104347D0270DC7F3E8
:1004D0000A00C3F30A510290401A019040286BDAD7
:1004E000C3F3130040F4801B0098924620B1002310
:1004F000D2EB030A63EB0B0B01985946C0F14002A3
:100500005046FFF773FF06460D4650465946019A7E
:1005100000F08CF910EB08006141002487EA1152C9
:1005200084EAE7731A4340D0009A62B3019A012A21
:100530004FEA075215DC001B61EB02014FF000424D
:1005400002EA0752CDE90042001C41F58011324613
:100550002B4600F08CF903B0BDE8F08F40462146F1
:10056000F9E7001B61EB0201001C41F58013001844
:100570005B412018A2F5001747EB030140EAD57054
:10058000B6196D4111E06D084FEA360645EAC075AF
:100590004FEA0752001B61EB0201001C41F580117C
:1005A00049084FEA30000019514132462B4603B04A
:1005B000BDE8F04F00F04CB9009801224000002344
:1005C000D0EB020263EBE073009821464FEAE0743F
:1005D000B8EB000061EB0401E9E783F000435BE75F
:1005E00081F0004158E72DE9FE4F81EA030404F051
:1005F000004421F0004100944FF0000B23F0004331
:1006000050EA01045ED052EA03045BD0C3F30A54FB
:10061000C1F30A552C44A4F2F3340194A0FB025414
:10062000C1F3130141F48011C3F3130343F48013A6
:1006300001FB024400FB034E840A970A44EA8154FA
:1006400047EA8357A4FB076802958D0A05FB0785D7
:100650004FEA932C04FB0C542705029D4FEA0658E1
:1006600047EA1637B5EB08056EEB070C870E920EBE
:1006700047EA811742EA8312A7FB0201B6EB0B019E
:1006800064EB00042B0D43EA0C335E1844EB1C5062
:10069000DA465146E7FB0201C5F313044FEA0B3378
:1006A00043EA14534FEA0432019C43EA0603A4F1DF
:1006B0000C040294009CCDE900B400F0D8F803B01B
:1006C000BDE8F08F00200146F9E72DE9F04D81EA01
:1006D000030404F0004B21F0004514464FF0000ADB
:1006E00023F0004150EA050220D054EA01021DD057
:1006F000C5F30A570246C5F31303C1F31300C1F350
:100700000A5640F4801543F48013A7EB0608101B2B
:10071000D64608F2FD3873EB050002D308F1010854
:1007200001E092185B41B8F1000F03DA00200146A6
:10073000BDE8F08D00204FF48011064684460EE09F
:10074000171B73EB050705D3121B63EB0503064369
:100750004CEA010C49084FEA300092185B4150EA1C
:100760000107EDD152EA030012D082EA040083EAC5
:100770000501084305D0101BAB4106D2012200231E
:1007800006E000224FF0004302E06FF00102531038
:100790001AEB06004CEB085110EB0A0041EB0B0181
:1007A000BDE8F04D00F054B8C1F30A52C1F3130193
:1007B00040F2FF3341F480119A4202DA00200146F0
:1007C000704740F233439A42A2F2334202DC524273
:1007D000FFF71BBEFFF70ABE30B5041E71F100041F
:1007E00004DB4FF00044404264EB0101141E73F13E
:1007F000000405DB1C464FF00043524263EB040348
:10080000994208BF904230BD064C074D06E0E068B3
:1008100040F0010394E8070098471034AC42F6D347
:10082000FFF73EFD2C2401084C240108202A06DB9A
:10083000CB17203A41FA02F043EAE07306E041FAAE
:1008400002F3D040C2F1200291400843194670479C
:1008500010B5141E73F1000408DA401C41F10001C8
:1008600092185B411A4301D120F0010010BD2DE91F
:10087000F04D92469B4611B1B1FA81F202E0B0FA16
:1008800080F220329046FFF7B1FD04460F4640EA61
:100890000A0041EA0B0153465A46084313D0114659
:1008A00053EA010019D0C8F140025046FFF7ADFDF0
:1008B00005460E46504659464246FFF797FD084307
:1008C00005D0012004E020463946BDE8F08D002027
:1008D000054346EAE0762C4337430A986305E40A69
:1008E000A0EB08000022FD0A44EA47540A3002D572
:1008F00000200146E9E7010510196941DDE90845D5
:1009000000196941BDE8F04DA2E700002449024604
:100910000846114603F05EBD80B5214803F06BFD2B
:10092000043818BF012080BD80B500F013F80128FD
:1009300004D11B4803F066FF10B180BD022080BDCA
:1009400017484FF4804103F0B7FB002818BF01207F
:1009500080BD00BF81B001208DF803009DF8030029
:1009600001B0704780B513460A4601460C4804F0B2
:100970003FF9002818BF012080BD00BF01480121B8
:10098000016070477C02002480B513460A46014688
:10099000034804F097F9002818BF012080BD00BF6C
:1009A000283800240148012101607047B80600245E
:1009B000FEE70000014800F0CBBD00BFCC360024AC
:1009C000014800F0C5BD00BF443700240168CA4A91
:1009D000914223D0C94A91421CBFC94A91421DD0BD
:1009E000C84A91421CBFC84A914217D0C74A914297
:1009F0001CBFC74A914211D0C64A91421CBFC64A89
:100A000091420BD0C54A91421CBFC54A914205D0C4
:100A1000C44A91421CBFC44A91421AD180B56FF0BA
:100A20000F02DFF848C052FA81F21823B2FBF3F349
:100A300040F2FF3E21EA0E015F2A03F007031CF893
:100A40000330C36588BF0431BDE880408165084636
:100A50007047B64A9142E1D0B64A9142DED0B44ADC
:100A60009142DBD021F0FF01F0E700BF909A00082F
:100A70000268B1498A421F491CBFB04B9A4205D057
:100A8000AF4B9A421CBFAF4B9A4213D1D3B2A3F1E2
:100A900008021423B2FBF3F301F1800201EB83019E
:100AA00003F01F0301664FF0010C0CFA03F1C0E9DB
:100AB00019217047A44B9A42E8D0A64B9A42E5D040
:100AC000A24B9A42E2D0A1F55B7CD3B26245DED064
:100AD000A3F110011823B1FBF3F1084B03F1AA0CA9
:100AE0009A420B4688BF0833624528BF0B4602492D
:100AF000D2E700BF00580258000802400F0402402D
:100B000001790139072988BF704702688A4B9A42E8
:100B10001CBF8A4B9A4205D0894B9A421CBF894B15
:100B20009A420BD18A000E4B4FF0010C1A4440330D
:100B3000C2660CFA01F1C0E91C317047824B9A423F
:100B4000F0D0844B9A42EDD0804B9A42EAD0804B51
:100B50009A424FEA8102E6D0004BE5E700090240E5
:100B600000590258F0B5D0F800C0634CA445D0F845
:100B700058E03BD0614DAC451CBF614DAC4535D014
:100B8000604DAC451CBF604DAC452FD05F4DAC45B2
:100B90001CBF5F4DAC4529D05E4DAC451CBF5E4DC2
:100BA000AC4523D05D4DAC451CBF5D4DAC451DD063
:100BB0005C4DAC451CBF5C4DAC4517D05B4DAC45A6
:100BC0001CBF5B4DAC4511D05A4DAC451CBF5A4DB6
:100BD000AC450BD0594DAC451CBF594DAC4505D06B
:100BE000584DAC451CBF584DAC456DD1C66ED0E9D3
:100BF0001957002E6F6002D0D0E91C566E60A445D4
:100C000029D03E4CA4451CBF3D4CA44523D03D4CAF
:100C1000A4451CBF3C4CA4451DD03C4CA4451CBF66
:100C20003B4CA44517D03B4CA4451CBF3A4CA445B3
:100C300011D03A4CA4451CBF394CA4450BD0394CBB
:100C4000A4451CBF384CA44505D0384CA4451CBF56
:100C5000374CA4451CD1C46D3F2504F01F048068A7
:100C600005FA04F4CEF80840DCF8007027F4802779
:100C7000CCF800704028CCF8043004D1CCF808201F
:100C8000CCF80C10F0BDCCF80810CCF80C20F0BD5E
:100C90002F4CA4451CBF284CA4450BD0274CA44581
:100CA0001CBF274CA44505D0264CA4451CBF264C90
:100CB000A44516D1C46D012504F01F04806805FA0F
:100CC00004F4CEF80440D5E7204DAC453FF48EAF98
:100CD0001F4DAC453FF48AAF1E4DAC453FF486AF87
:100CE000D5E71A4CA445E5D01A4CA445E2D0114CE6
:100CF000A445B0D0CBE700BF10000240280002405E
:100D0000400002405800024070000240880002404B
:100D1000A0000240B8000240100402402804024033
:100D2000400402405804024070040240880402401B
:100D3000A0040240B8040240085402581C5402584F
:100D40003054025844540258585402586C540258B3
:100D5000945402588054025870470000B0B5ADF565
:100D6000856D32480122324907F0F2F9314D0028F1
:100D7000287020D001460D280ED14FF480642C48F5
:100D80000AAB00940021002206F0D2FE0028287051
:100D900004D0014628A018E046A016E0244C00200C
:100DA0000122214607F0D4F9287001221F4821466C
:100DB00007F0CEF928701D4801221D4907F0C8F937
:100DC000002828700FD0014627A007F075FD3E4887
:100DD00008F02EFA012080F001013C4A40421170D7
:100DE0000DF5856DB0BD254801A903F0F3FA18B1E2
:100DF00023A008F01DFAEAE7DDE90501A1FB0001E7
:100E0000FFF7D0FA00EE100A24A09FED231A20EE7F
:100E1000010A20EE010A20EE010AB7EEC00A53ECE7
:100E2000102B07F049FD0020D5E700BF8002002409
:100E300041000024400000244465736372697074AB
:100E4000696F6E204661696C656420746F20666FFF
:100E5000726D61742074686520534420636172640C
:100E60002E2E2E25640A0000665F6D6F756E742845
:100E7000293A72657453443D25640A0028380024D9
:100E800048414C5F53445F47657443617264496EE7
:100E9000666F2829000000000000803A5344206358
:100EA00061726420766F6C756D653A252E326647E7
:100EB000420A00004D6F756E74206661696C757230
:100EC000653D25640A000000A5A30008C8060024AB
:100ED000EFF3108072B6FEE7002200F001B80000C8
:100EE00080B5DFF848E09EF80930002B01D00120E2
:100EF00080BD9EF80930844600200EF803009EF85D
:100F000009300EEB8303C3F804C09EF80930734424
:100F10001A729EF80920531C30328EF809300A707C
:100F200042F63A72A1F80120C87080BDBC060024C8
:100F300010B50B6802460468002BD1E907E0D1F830
:100F400024C00ED024F4F84340EA0E00184340EACF
:100F50000C00106047F6FF7352F8040F98434B687B
:100F600009E047F6FF7324EA030340EA0E00184342
:100F70004B6840EA0C001843D1E9023418430B696E
:100F800020434C69184389692043014300201160C4
:100F900010BD0246406943F6FE73984340EA4101A2
:100FA00000205161704710B5044600696FF31500C9
:100FB0000B68D1F808E06FF01F0C4A6818430CEB7F
:100FC0004E1CC968104340EA0C0040EA4121002051
:100FD000216110BDB0B504461F4D54F808CF002A5A
:100FE000CB681E4A05EB033E4B6902EB035210D05F
:100FF0001B4B42EA0E0203EA0C031A43826050F8CC
:101000000C2F04460B6802F07042013B43EA020CCD
:1010100008E00CF070400B6842EA0E02013B1043FE
:1010200040EA030C0B690F4D6FF0FF0205EB034321
:101030008D68886902EB052249686FF00F0505EBA2
:10104000011141EA0C0111430138194341EA0061E1
:1010500000202160B0BD00BF00F0FFFF0000F0FFE6
:10106000FF0F0FFF0000FFFFF8B5044601F0FEF888
:10107000002C00F0AA80054694F83500022840F0C4
:10108000A6802768AC4EB74238463CD0AB48874272
:10109000384638D0AA488742384634D0A9488742D3
:1010A000384630D0A848874238462CD0A7488742D7
:1010B000384628D0A6488742384624D0A5488742DB
:1010C000384620D0A448874238461CD0A3488742DF
:1010D000384618D0A2488742384614D0A1488742E3
:1010E000384610D0A048874238460CD09F488742E7
:1010F000384608D09E488742384604D09D488742EB
:1011000040F0E9809B48016821F01E0207F11401BC
:1011100002606FF080000A68B74200EA02000860CF
:101120003CD0F44887421CBFF348874236D0F3488E
:1011300087421CBFF248874230D0F24887421CBF2A
:10114000F14887422AD0F14887421CBFF0488742C5
:1011500024D0F04887421CBFEF4887421ED0EF489A
:1011600087421CBFEE48874218D0EE4887421CBF1A
:10117000EE48874212D0EC4887421CBFEC488742B9
:101180000CD0EC4887421CBFEB48874206D0EB48A6
:1011900087421CBFEA48874240F0B680206E016853
:1011A00021F480710160386820F0010038603868EF
:1011B000C00710D001F05AF8401B0628F7D32020B2
:1011C0006065032084F8350003E0012081E0802081
:1011D000606501207AE02068B0421CBFC5498842A2
:1011E0001DD0C54988421CBFC449884217D0C44994
:1011F00088421CBFC349884211D0C34988421CBFE2
:10120000C24988420BD0C24988421CBFC1498842AA
:1012100005D0C14988421CBFC04988425FD1A16D39
:10122000E26D3F2302F01F0203FA02F28A60B0422D
:101230003BD0B04988421CBFAF49884235D0AF4946
:1012400088421CBFAE4988422FD0AE4988421CBF9D
:10125000AD49884229D0AD4988421CBFAC4988427B
:1012600023D0AC4988421CBFAB4988421DD0AB4952
:1012700088421CBFAA49884217D0AA4988421CBF8D
:10128000AA49884211D0A84988421CBFA84988426F
:101290000BD0A84988421CBFA749884205D0A7495E
:1012A00088421CBFA64988423BD1E06ED4E919129E
:1012B00000284A6006D0016821F480710160D4E9F9
:1012C0001C014160012084F835000020002184F8D1
:1012D000341001B0F0BD6FF00E0039461BE79049A5
:1012E00088429CD09149884299D08E49884296D0B4
:1012F0008D498842A16D93D0E26D012302F01F0257
:1013000003FA02F24A6092E78E4887423FF446AF02
:101310008D4887423FF442AF8C4887423FF43EAF4E
:1013200041E788498842C0D087498842BDD0874973
:101330008842BAD0C6E700BF100002402800024031
:101340004000024058000240700002408800024005
:10135000A0000240B80002401004024028040240ED
:1013600040040240580402407004024088040240D5
:10137000A0040240B804024010B5002844D090F800
:10138000351002293ED10168594A914223D0594B68
:1013900099421CBF584B99421DD0584B99421CBFD3
:1013A000574B994217D0574B99421CBF564B994205
:1013B00011D0564B99421CBF554B99420BD0554BFF
:1013C00099421CBF544B994205D0544B99421CBFC3
:1013D000534B99423CD10423914280F835300BD0D5
:1013E000444881421CBF4448814205D04348814261
:1013F0001CBF434881420AD1086820F00100086000
:10140000002102E0802141650121084610BD3D48D0
:101410008142F1D03C488142EED03C488142EBD041
:101420003B488142E8D03B4881421CBF3A48814258
:10143000E2D03A4881421CBF39488142DCD0394869
:101440008142D9D038488142D6D038488142D3E74A
:10145000344B9942BFD0344B9942BCD0334B994264
:10146000B9D00A6822F00E020A60314A91420A6835
:1014700022F001020A600BD02E4A91421CBF2E4A74
:10148000914205D02D4A91421CBF2D4A914225D14F
:10149000D0E916C2D0E9183E196802F01F0221F403
:1014A00080710124196004FA02F1CCF80410816EF5
:1014B000CEF80410C16E31B10A6822F480720A605D
:1014C000D0E91C124A60012180F835100021026D1C
:1014D000002A80F8341098D0904791E7194A914239
:1014E000D6D0194A9142D3D0184A9142D0D0EAE7D7
:1014F0001000024028000240400002405800024014
:101500007000024088000240A0000240B800024083
:1015100010040240280402404004024058040240E3
:101520007004024088040240B8040240A004024053
:10153000085402581C54025830540258445402585B
:10154000585402586C54025894540258805402580B
:101550002DE9FC410021C64F01910446DFF8A41F8C
:101560000068A56DB842D1F800802E6829682AD09D
:10157000C04A90421CBFC04A904224D0BF4A904209
:101580001CBFBF4A90421ED0BE4A90421CBFBE4AFA
:10159000904218D0BD4A90421CBFBD4A904212D022
:1015A000BC4A90421CBFBC4A90420CD0BB4A9042FD
:1015B0001CBFBB4A904206D0BA4A90421CBFBA4AEE
:1015C000904240F0A181E16D082201F01F018A40A4
:1015D000324236D0BC46B8424FF0040324D0A54F67
:1015E000B8421CBFA44FB8421ED0A44FB8421CBF83
:1015F000A34FB84218D0A34FB8421CBFA24FB84265
:1016000012D0A24FB8421CBFA14FB8420CD0A14F7C
:10161000B8421CBFA04FB84206D0A04FB8421CBF72
:101620009F4FB84240F0988107681F42674608D034
:10163000036823F004030360AA60626D42F00102B4
:10164000626501228A4032422ED0B84224D0894BB2
:1016500098421CBF884B98421ED0884B98421CBFB2
:10166000874B984218D0874B98421CBF864B9842B4
:1016700012D0864B98421CBF854B98420CD0854BAC
:1016800098421CBF844B984206D0844B98421CBFA2
:10169000834B984240F06D8143691B0604D5AA60D4
:1016A000626D42F00202626504228A4032422ED00C
:1016B000B84224D06F4B98421CBF6F4B98421ED04B
:1016C0006E4B98421CBF6E4B984218D06D4B98429F
:1016D0001CBF6D4B984212D06C4B98421CBF6C4B98
:1016E00098420CD06B4B98421CBF6B4B984206D073
:1016F0006A4B98421CBF6A4B984240F0488103688D
:101700009B0704D5AA60626D42F004026265102254
:1017100002FA01F131423FD0B8424FF0080224D022
:10172000D24B98421CBFD24B98421ED0D14B98420C
:101730001CBFD14B984218D0D04B98421CBFD04B05
:10174000984212D0CF4B98421CBFCF4B98420CD03E
:10175000CE4B98421CBFCE4B984206D0CD4B984200
:101760001CBFCD4B984240F020810368134213D038
:10177000A96001684903016806D4C90506D4016857
:1017800021F00801016001E0080301D4216C00E0B0
:10179000A16C09B120468847E06D00F01F012020B0
:1017A00000FA01F2324200F0858020681023B8422E
:1017B00024D0AE4EB0421CBFAD4EB0421ED0AD4E96
:1017C000B0421CBFAC4EB04218D0AC4EB0421CBFB1
:1017D000AB4EB04212D0AB4EB0421CBFAA4EB0428C
:1017E0000CD0AA4EB0421CBFA94EB04206D0A94EA2
:1017F000B0421CBFA84EB04240F0E48007681F42D0
:1018000058D0AA6094F83520042A02681BD122F02F
:1018100016020260426922F080024261226C0AB91B
:10182000A26C1AB1026822F0080202603F208840D0
:10183000A860012084F835000020216D002984F87B
:1018400034005DD15EE0510301680CD4C9052DD48C
:10185000016821F010010160012084F835000020AA
:1018600084F8340022E0080320D4616C1FE000BF3C
:101870001000024028000240400002405800024090
:101880007000024088000240A0000240B800024000
:101890001004024028040240400402405804024060
:1018A0007004024088040240A0040240E16B09B1C8
:1018B00020468847606D28B3606DC0071ED04FF486
:1018C0001650B8FBF0F0042184F8351021680A683E
:1018D00022F001020A60019A01328242019202D88A
:1018E0000A68D207F7D10868C0074FF0030008BFA5
:1018F000012084F83500002084F83400E16C09B13F
:1019000020468847BDE8FC81664A90421CBF664A73
:1019100090420CD0654A90421CBF654A904206D066
:10192000644A90421CBF644A904240F09180026831
:10193000E36D570703F01F0351D504279F4017EAB3
:1019400001064CD011046F6060D4910662D4016826
:1019500021F0040101605DE0504FB8423FF464AEF5
:101960004F4FB8423FF460AE544FB84218BF0823FF
:101970005AE64A4B98423FF48FAE494B98423FF4A7
:101980008BAE4E4B98423FF487AE02688CE6434BD9
:1019900098423FF4B4AE424B98423FF4B0AE474B4E
:1019A00098423FF4ACAE0268B1E63C4B98423FF43B
:1019B000DCAE3B4B98423FF4D8AE404B984218BF48
:1019C0000422D2E6354EB0423FF418AF344EB04256
:1019D0003FF414AF394EB04218BF02230EE7970709
:1019E0001AD502279F4017EA010615D011046F602F
:1019F00028D491062AD4016821F00A01016001204F
:101A000084F83500002084F834001FE0D00301D4AE
:101A1000A16C74E7216C72E712077FF573AF08229F
:101A20009A4011403FF46EAF0168012221F00E018F
:101A3000016002FA03F068600020626584F83520D6
:101A4000E16CFBE6D00301D4616C58E7E16B56E72B
:101A5000F04A90423FF46BAFEF4A90423FF467AFD9
:101A6000EE4988423FF4AFAD4CE700BF280002408A
:101A700040000240580002407000024088000240CE
:101A8000A0000240B80002401004024028040240B6
:101A9000400402405804024070040240880402409E
:101AA000A004024094540258085402581C5402588E
:101AB000305402584454025858540258B804024052
:101AC000F8B5044600F0D2FB002C7BD00546206818
:101AD000C14FB8422AD0C14988421CBFC049884280
:101AE00024D0C04988421CBFBF4988421ED0BF498C
:101AF00088421CBFBE49884218D0BE4988421CBFDC
:101B0000BD49884212D0BD4988421CBFBC498842A9
:101B10000CD0BC4988421CBFBB49884206D0BB4997
:101B200088421CBFBA49884240F0F280022184F802
:101B30003510002184F83410016821F001010160A2
:101B400005E000F093FB401B052836D820680168AB
:101B5000C907F6D10168B24A1140D4E90223114302
:101B60002269194363691143A2691943E36941EA90
:101B70000205616A2B43256A042943EA050303D160
:101B8000D4E90B562B433343A64D2E68B6F1005FC4
:101B90001CD36568292D19D32F2D15D3A5F13F0628
:101BA000042E11D3472D11D3492D0DD3A5F14F0686
:101BB000032E98BF43F4801308E0202060650320C3
:101BC00084F835000120A1E043F480130360042968
:101BD000436923F0070341EA030127D1D4E90A53FB
:101BE000002B41EA050121D0B2F5005F06D08AB989
:101BF000022D12D0012D07D07DB117E0032D15D88D
:101C0000DFE805F00E0B0E02A3F1C072B2FA82F209
:101C1000520904E0032D03D308D1C3F300622AB1B3
:101C200040206065012084F835006FE04161204666
:101C3000FEF7CCFEE16D3F2201F01F0102FA01F137
:101C400081602068B8423BD0644988421CBF644927
:101C5000884235D0634988421CBF634988422FD0EF
:101C6000624988421CBF6249884229D06149884242
:101C70001CBF6149884223D0604988421CBF60492B
:101C800088421DD05F4988421CBF5F49884217D0F7
:101C90005E4988421CBFF949884211D0F849884200
:101CA0001CBFF84988420BD0F74988421CBFF7494E
:101CB000884205D0F64988421CBFF64988427ED149
:101CC0002046FEF7D5FEA068802802D10020606083
:101CD00000E06068C2B2216E0138D4E919370728E4
:101CE0000A605F6009D82046FEF70AFF04F16C0223
:101CF00007CA002303604A6003E00020C4E91B0018
:101D0000606700200121606584F8351001B0F0BDE6
:101D1000E24988421CBFDB4988420BD0DA4988423D
:101D20001CBFDA49884205D0D94988421CBFD9492D
:101D3000884238D1022184F83510002184F834100B
:101D40000168A2686FF31011A2F18003B3FA83F364
:101D50005B099B03402AE26808BF102341EAD201D5
:101D600022691943636941EAD201A26941EAD301B8
:101D7000E36941EAD201226A41EAD30141EA121140
:101D800040F808191421C0B2B0FBF1F08000E06502
:101D90002046FEF71BFEE16D012201F01F0102FA51
:101DA00001F141604DE7BC498842C3D0BC4988423B
:101DB000C0D0B34988423FF4B9AE4020FEE6B649F0
:101DC00088423FF47DAFB54988423FF479AFB449CA
:101DD00088423FF475AF94E71000024028000240AB
:101DE000400002405800024070000240880002405B
:101DF000A0000240B8000240100402402804024043
:101E0000400402405804024070040240880402402A
:101E1000A00402406C54025880540258B804024096
:101E20003F8010FE0010005CB0B5002800F0E78095
:101E3000054690F83400012801D10220B0BD0120F0
:101E400085F8340095F83500012840F0D280022052
:101E500085F83500002068652868046824F00104CE
:101E600004602846FEF77EFE2868764988420246CE
:101E70003CD0754A9042024638D0744A904202469D
:101E800034D0734A9042024630D0724A90420246A1
:101E90002CD0714A9042024628D0704A90420246A5
:101EA00024D06F4A9042024620D06E4A90420246A9
:101EB0001CD06D4A9042024618D06C4A90420246AD
:101EC00014D06B4A9042024610D06A4A90420246B1
:101ED0000CD0694A9042024608D0684A90420246B5
:101EE00004D0674A904240F08C80654A12680B2308
:101EF00063F3440202602A6C1AB1026842F00802DD
:101F0000026088423BD0504A90421CBF4F4A9042E8
:101F100035D04F4A90421CBF4E4A90422FD04E4A75
:101F200090421CBF4D4A904229D04D4A90421CBF5E
:101F30004C4A904223D04C4A90421CBF4B4A90429C
:101F40001DD04B4A90421CBF4A4A904217D04A4A81
:101F500090421CBF494A904211D0494A90421CBF4E
:101F6000484A90420BD0484A90421CBF474A904290
:101F700005D0474A90421CBF464A904257D12A6E2C
:101F80001368DB0303D5136843F480731360EA6EB0
:101F90001AB1136843F480731360884223D02A492E
:101FA00088421CBF294988421DD0294988421CBF4C
:101FB0002849884217D0284988421CBF27498842AF
:101FC00011D0274988421CBF264988420BD0264998
:101FD00088421CBF2549884205D0254988421CBF3C
:101FE000244988421AD1016841F0010101600020B2
:101FF000B0BD4FF400606865002085F83400012012
:10200000B0BD0268052363F3430202602A6C002A14
:102010003FF477AF026842F0040271E71649884244
:10202000E1D017498842DED014498842DBE71A4ADA
:102030009042A4D0194A9042A1D0194A90429ED011
:10204000D1E700BF100002402800024040000240DB
:10205000580002407000024088000240A000024088
:10206000B80002401004024028040240400402402C
:10207000580402407004024088040240A004024058
:10208000B8040240085402581C54025830540258F4
:1020900044540258585402586C54025894540258EC
:1020A00080540258B0B5044600F0E0F89C49621C28
:1020B0000978054618BF0C4400F0D8F8401BA04230
:1020C000FAD3B0BD2DE9FC4F5F4A0A275F4C0244AA
:1020D0004FEAB223A04208BF0927092B38BF4FEAB5
:1020E000B2274FF0000C009701274FF0000E00269A
:1020F0009EE007FA06F912EA090B00F094804A689C
:1021000002F00308A8F1010ABAF1010F13D8032461
:10211000856804FA0EF325EA0303CD6805FA0EF587
:102120002B4383604368C2F3001523EA0903B540DB
:102130002B43436004E0B8F1030F4FF003041FD0BA
:10214000C36804FA0EF5AB438D6805FA0EF52B4310
:10215000B8F1020FC36013D16FF0030202EA560216
:1021600002440CF01C03D2F820800F259D4028EA81
:1021700005080D6905FA03F343EA080313624A6888
:10218000036804FA0EF5AB4302F0030505FA0EF5F9
:102190002B4312F4403F036045D0294A13462C4C90
:1021A00012680F2542F002021A601A6802F0020259
:1021B000019226F00302019B0CF00C0352F80480FC
:1021C0009D40009F28EA050507FA03F32B431351AE
:1021D0004FF0B048D8F800204B6842EA0B05DF0208
:1021E00058BF22EA0B05174A1446C8F800509F0250
:1021F000126842EA0B0558BF22EA0B059F032560CF
:102200004FF00107D4F8802042EA0B0558BF22EABC
:102210000B05DB03C4F88050E26F42EA0B0558BFA0
:1022200022EA0B05E56701360EF1020E0CF1040CF3
:102230000A6832FA06F47FF45CAFBDE8FC8F00BF99
:10224000F4440258040000580000FEA7002402587D
:1022500008040058002A08BF090481617047000083
:1022600001480068000C70470010005C05480068D9
:10227000704700BF2A48007802490A681044086085
:10228000704700BF803B002480B5032000F0F2F9C6
:1022900001F02AFB0F490A68C2F3032209680E4BBA
:1022A00001F00F019A5C595C02F01F02D0400B4A0A
:1022B00001F01F0120FA01F111609249086000202D
:1022C00000F00EF808B1012080BD00F095F9002063
:1022D00080BD00BF18440258549200081400002426
:1022E00070B50F4E3178C1B104464FF47A70B0FB2F
:1022F000F1F084490968B1FBF0F002F04BFD0F2CBE
:102300004FF001050AD848B94FF0FF3000222146AE
:10231000002500F08FF9746000E00125284670BDAB
:1023200008000024002806D090F83C30012B05D18D
:102330004FF0020C27E04FF0010C24E04FF0010CAD
:1023400080F83CC090F83D30012B19D1D0F800C086
:10235000DCF810305B000AD4CCF830100029CCF83F
:102360003420DCF8101005D041F0004104E04FF0BB
:10237000010C05E021F00041CCF810104FF0000CEA
:10238000002180F83C10604670470000BCB5002179
:102390000191044600684FF0A4435A4900F5F862E1
:1023A0000D68C2F38411012202FA01F11A68114288
:1023B0006DD00168C90729D0C168890726D5C168D1
:1023C00021F00201C16081680A06A36E4FF002028B
:1023D00058BF01221A438B05A26603D5A26E42F0B4
:1023E0000402A266CA0503D5A26E42F00802A266E4
:1023F0004A0503D5A26E42F01002A266090503D574
:10240000A16E41F02001A166012141600168C90669
:1024100044BFC1685FEA81613AD40168090744BFDB
:10242000C1685FEAC1613CD40168490744BFC16823
:102430005FEA01713ED40168890744BFC1685FEA61
:10244000417140D4A06E10B34FF41650B5FBF0F1BB
:10245000042084F83D002068C26822F00102C260B6
:10246000019A01328A42019202D8C268D207F7D19A
:10247000002184F83C10C068C0074FF0030008BF7B
:10248000012084F83D00616D09B120468847BCBD3C
:1024900010214160A16C0029BFD0204688472068E8
:1024A000BBE708214160E16C0029BDD02046884788
:1024B0002068B9E704214160216D0029BBD0204686
:1024C00088472068B7E7C16821F03E01C16094F8F1
:1024D0003D10042907D1002084F83C00012084F835
:1024E0003D00A16DD0E702214160002084F83C004E
:1024F000012084F83D00616C0029A3D02046884764
:10250000A0E700BF10000024B0B50446FFF7AEFE00
:10251000002C51D00546002084F83C00022084F8AD
:102520003D002068C16821F00101C16005E0FFF7AE
:102530009DFE401B052841D82068C168C907F6D117
:10254000D4E903231A43D4E901C5C260BCF1804F2A
:10255000D4E9052342EA0302E36942EA0302236A5B
:1025600042EA0302636AE16A42EA0302236B41EA38
:102570000201A26A41EA03011E4B03EB824241EAD7
:10258000050141EA0201016103D1016941F04041C5
:10259000016100214161626BB2F1FF3F04DC4169DE
:1025A000524241F48021416191B20162A26BB2F1C9
:1025B000FF3F07DD12040CE00120B0BD0120032223
:1025C000402113E04169002341F400214161A3EB64
:1025D0000242016A11435FFA8CF2016200218262B9
:1025E000012241620020C4E917116166A16684F8E6
:1025F0003D20B0BD0000FCFF81B00648016841F0FD
:1026000002010160006800F002000090009801B033
:10261000704700BFF4440258002808DB00F01F0197
:10262000012202FA01F1024A400942F820107047E3
:1026300000E100E080B5154B1B68C3F3022C8CF061
:10264000070EBEF1040F28BF4FF0040EBCF10303C8
:102650004FF0FF3C38BF00230CFA0EFE21EA0E01BA
:1026600099400CFA03F39A431143BDE8804004F00B
:1026700093BC00BF05490A684FF6FF031A4060F398
:102680000A22034810430860704700BF0CED00E0C9
:102690000000FA05B0B5104D29684907296805D42E
:1026A00001F00701081A18BF0120B0BD21F0070191
:1026B00008432860FFF7DAFD044655F8080C80044B
:1026C00007D4FFF7D3FD001BB0F57A7FF5D90120C1
:1026D000B0BD0020B0BD00BF0C48025880B501F06D
:1026E000C3F80549054A0968C1F30211515C01F0BC
:1026F0001F01C84080BD00BF20440258549200080A
:1027000010B53D4CA36AA26AC2F3051CE26A616B74
:1027100002F00102C1F3CC01BCF1000F11FB02F188
:1027200000EE101AB8EE400A0CD003F00303022B9F
:102730000CD0012B0DD013B9216889060CD49FED64
:10274000311A13E00021C0E9001153E09FED2C1A6B
:102750000CE09FED2A1A09E021682B4AC1F3C10160
:1027600022FA01F101EE101AB8EE411A02EE10CA77
:102770009FED263AB8EE422A216B6FF35F2181EE7E
:10278000021A02EE101AB8EE422A216BC1F346215A
:1027900000EE032AB7EE000A03EE101A32EE002A0A
:1027A000B8EE433A21EE021A33EE002A81EE022AF5
:1027B000BCEEC22A80ED002A216BC1F3064102EE75
:1027C000101AB8EE422A32EE002A81EE022ABCEE3E
:1027D000C22A80ED012A216BC1F3066102EE101AB4
:1027E000B8EE422A32EE000A81EE000ABCEEC00AC0
:1027F00010EE101A816010BD004402580024744A83
:1028000020BCBE4B0024744C0090D0030000003963
:1028100010B53C4CA36AA26AC2F3053CE26AC2F35B
:102820000012E16BC1F3CC01BCF1000F11FB02F10E
:1028300000EE101AB8EE400A0AD003F00303022B90
:102840000AD063B9216889060CD49FED311A13E0D0
:102850000021C0E9001153E09FED2C1A0CE09FED20
:102860002A1A09E021682B4AC1F3C10122FA01F1B9
:1028700001EE101AB8EE411A02EE10CA9FED263A88
:10288000B8EE422AA16B6FF35F2181EE021A02EECD
:10289000101AB8EE422AA16BC1F3462100EE032ABA
:1028A000B7EE000A03EE101A32EE002AB8EE433AF1
:1028B00021EE021A33EE002A81EE022ABCEEC22A71
:1028C00080ED002AA16BC1F3064102EE101AB8EEAA
:1028D000422A32EE002A81EE022ABCEEC22A80EDA4
:1028E000012AA16BC1F3066102EE101AB8EE422A6A
:1028F00032EE000A81EE000ABCEEC00A10EE101A99
:10290000816010BD004402580024744A20BCBE4BB4
:102910000024744C0090D0030000003910B53C4CEA
:10292000A36AA26AC2F3055CE26AC2F30022616C88
:10293000C1F3CC01BCF1000F11FB02F100EE101A43
:10294000B8EE400A0AD003F00303022B0AD063B9A1
:10295000216889060CD49FED311A13E00021C0E9EB
:10296000001153E09FED2C1A0CE09FED2A1A09E0AC
:1029700021682B4AC1F3C10122FA01F101EE101ABC
:10298000B8EE411A02EE10CA9FED263AB8EE422A7E
:10299000216C6FF35F2181EE021A02EE101AB8EE7D
:1029A000422A216CC1F3462100EE032AB7EE000A49
:1029B00003EE101A32EE002AB8EE433A21EE021A64
:1029C00033EE002A81EE022ABCEEC22A80ED002AF4
:1029D000216CC1F3064102EE101AB8EE422A32EE23
:1029E000002A81EE022ABCEEC22A80ED012A216C67
:1029F000C1F3066102EE101AB8EE422A32EE000A66
:102A000081EE000ABCEEC00A10EE101A816010BD03
:102A1000004402580024744A20BCBE4B0024744C6D
:102A20000090D00300000039F8B580F400220A437A
:102A300000F07F8080F400720A4332D080F480621C
:102A40000A4300F0878080F400620A4338D080F4A3
:102A500080520A4300F08B8080F400520A4300F059
:102A6000948080F480420A4337D080F400420A43C5
:102A700042D080F480320A434ED080F48070084304
:102A800040F0DF808749086D00F00702042A00F259
:102A9000D8808848DFE812F0770087008E00D600E3
:102AA00096008049086DC0F38212042A00F2C980A2
:102AB0008048DFE812F0680078007F00C7008700D8
:102AC0007849886DC0F30262042A00F2BA8079481E
:102AD000DFE802F0596970B878007248816DC1F37F
:102AE0000271052900F2AD80DFE801F003869198BC
:102AF000A28DFFF7F3FDA5E06A48016D01F040519A
:102B0000B1F1005F00F07880B1F1805F00F0968055
:102B1000002940F0968076E06248C16CC9030068E5
:102B200040F18D80000140F18C8001A8FFF770FE1C
:102B3000A1E05C48816D01F44031B1F5003F00F047
:102B40008880B1F5803F00F09080002940F07980C6
:102B5000006829E05349886DC0F34252042A00F20C
:102B600070805448DFE802F00F1F266E2E004D499A
:102B7000086DC0F30232042A63D84E48DFE802F041
:102B800003131A622200086859E04648016DC1F338
:102B90000241052955D8DFE801F0032F3A414B36B1
:102BA00000F082FE4EE0086800014AD501A8FFF758
:102BB0002FFE05E00868800043D501A8FFF7AEFEB0
:102BC00001983FE0C86C10F040520B68086802D1D1
:102BD00013F0040326D1B2F1805F02D110F48070AB
:102BE00051D1086810F400301CBF47F64000C0F215
:102BF0007D10B2F1005F52E00068000121D501A80C
:102C0000FFF706FE23E000682749800313E0006811
:102C1000800016D501A8FFF781FE18E0016849077A
:102C20000FD50068C0F3C100214921FA00F009E086
:102C300000681E49C00501EAE07003E000688001F9
:102C400002D4002004B080BD01A8FFF759FD02980E
:102C5000F8E7C16C11F04051036802680DD113F020
:102C600004030AD0C2F3C100DEE700688000E8D5A3
:102C700001A8FFF753FE0398E4E7B1F1805F04D1A8
:102C800012F4807201D00948DCE7006810F40030CB
:102C90001CBF47F64000C0F27D10B1F1005F18BFC5
:102CA0000020CFE70044025840787D0100093D0034
:102CB0000090D0030080BB002DE9F0470446C078A7
:102CC000B04F000722D5A06E4FEA3051032908D833
:102CD000DFE801F002090F17F96941F40031F961E9
:102CE0000FE0012613E004F10800022102F07EFD4E
:102CF00004E004F12800022102F0F8FD064630B994
:102D0000A06E396C21F440110843386400266078C5
:102D1000BA46C00701D135462AE0A06D04280BD879
:102D20003546DFE800F0030C12181800F869354644
:102D300040F40030F8610EE00125012719E004F1AC
:102D40000800002102F052FD04E004F128000021F7
:102D500002F0CCFD0546002D2F460AD1DAF84000DE
:102D6000002520F00700A16D08435246CAF8400034
:102D70003746607880072DD5E06D4FEAB010042803
:102D80000CD8DFE800F0030E141A1A00DAF81C0061
:102D9000514640F40030CAF81C000EE0012501261F
:102DA00019E004F10800002102F020FD04E004F124
:102DB0002800002102F09AFD0546002D2E460AD17A
:102DC000DAF84000002520F4E070E16D0843524637
:102DD000CAF840003E466078400702D4B0465746E5
:102DE0002CE0D4F8A80057464FEA7050042809D8C0
:102DF000DFE800F0030C12181800F86940F4003006
:102E0000F8610FE001254FF0010817E004F1080018
:102E1000002102F0EBFC04E004F12800002102F0A4
:102E200065FD0546002DA84608D1B86C002520F4A4
:102E30006000D4F8A8100843B046B8646078000772
:102E40002CD5D4F8AC004FEA3060042809D8DFE86C
:102E500000F0030B11171700F86940F40030F86117
:102E60000EE0012501271AE004F10800002102F01C
:102E7000BDFC04E004F12800002102F037FD054606
:102E8000002D2F460BD1DAF84800002520F0E06035
:102E9000D4F8AC1008435246CAF848004746E078D8
:102EA000800726D5E06C4FEA301003280BD8DFE806
:102EB00000F013020D13DAF81C00514640F4003004
:102EC000CAF81C0008E00125012613E004F10800FF
:102ED000022102F08BFC0546002D2E460AD1DAF8BD
:102EE0003C00002520F03000E16C08435246CAF84F
:102EF0003C003E466078C0062DD5206E4FEA30304B
:102F000004280CD8DFE800F0030E141A1A00DAF8CF
:102F10001C00514640F40030CAF81C000EE00125A8
:102F2000012719E004F10800002102F05FFC04E031
:102F300004F12800002102F0D9FC0546002D2F469F
:102F40000AD1DAF84000002520F4E040216E084361
:102F50005246CAF8400037466078800627D5606E32
:102F60004FEA304005280AD8DFE800F014030E14B9
:102F7000141404F10800012102F038FC09E00125D5
:102F8000012615E01044025804F12800012102F046
:102F9000ADFC0546002D2E460AD1DAF8400000258A
:102FA00020F4E020616E08435246CAF840003E46D5
:102FB0006078400627D5D4F8B0004FEA3070052875
:102FC0000AD8DFE800F012030C12121204F1080014
:102FD000012102F00BFC07E00125012714E004F1B8
:102FE0002800012102F082FC0546002D2F460BD15E
:102FF000DAF84800002520F0E040D4F8B01008438B
:103000005246CAF8480037466078000622D5206F3D
:1030100098B1B0F1005F0AD0B0F1805F2ED1DAF83C
:103020001C00514640F40030CAF81C0005E004F1D1
:103030000800012102F0DAFB0546002D2E460AD1D8
:10304000DAF84000002520F04050216F0843524636
:10305000CAF840003E46E078C00702D1B046574665
:1030600024E0A06C574603280BD8DFE800F01402D8
:103070000E14F86940F40030F8610CE001250126D7
:10308000E9E701254FF0010810E004F108000221F2
:1030900002F0ACFB0546002DA84607D1F86B0025D1
:1030A00020F00300A16C0843B046F863A078400606
:1030B00001D4474617E0D7F8F00340F48070C7F812
:1030C000F003FFF7D3F80646D7F8F003C00507D49E
:1030D000FFF7CCF8801B6428F6D90325032702E00C
:1030E000002D2F4612D02078C00750D0E06F4FEA55
:1030F000F000052835D8DFE800F03D03373D3D3DC1
:1031000004F10800012102F071FB32E0DAF86010EE
:103110005346D4F8B400414011F4407F0BD0196EEF
:103120001A6E21F4407142F480321A661A6E22F44B
:1031300080321A661966B0F5807F40F07282FFF720
:1031400095F8064641F2883903250327DAF860002E
:10315000800700F16382FFF789F8801B4845F5D9A5
:10316000C1E70125012613E004F12800012102F046
:10317000BDFB0546002D2E460AD1DAF84400002595
:1031800020F03800E16F08435246CAF844003E463A
:103190002078800723D5A06F05280AD8DFE800F043
:1031A00012030C12121204F10800012102F01EFB9E
:1031B00007E00125012713E004F12800012102F0B6
:1031C00095FB0546002D2F460AD1DAF8440000256C
:1031D00020F00700A16F08435246CAF84400374662
:1031E0002078400725D5D4F8940005280AD8DFE8D0
:1031F00000F012030C12121204F10800012102F077
:10320000F5FA07E00125012614E004F12800012168
:1032100002F06CFB0546002D2E460BD1DAF8480073
:10322000002520F00700D4F8941008435246CAF84D
:1032300048003E462078800627D5D4F890004FEA13
:10324000307005280AD8DFE800F012030C121212C1
:1032500004F10800002102F0C9FA07E00125012766
:1032600014E004F12800022102F040FB0546002D85
:103270002F460BD1DAF84400002520F0E040D4F8C6
:10328000901008435246CAF844003746207840065A
:1032900027D5D4F89C004FEAB02005280AD8DFE8EB
:1032A00000F012030C12121204F10800002102F0C7
:1032B0009DFA07E00125012614E004F1280002210F
:1032C00002F014FB0546002D2E460BD1DAF848001B
:1032D000002520F4E050D4F89C1008435246CAF868
:1032E00048003E462078000627D5D4F8A0004FEAD3
:1032F000703005280AD8DFE800F012030C12121211
:1033000004F10800002102F071FA07E0012501270D
:1033100014E004F12800022102F0E8FA0546002D2D
:103320002F460BD1DAF84800002520F46040D4F88D
:10333000A01008435246CAF84800374620680107E3
:1033400017D5D4F88410B1F5805F0AD104F12800B4
:10335000022102F0CBFA0028206818BF0127D4F818
:103360008410DAF84420534622F440521143CAF83C
:103370004410C10617D5D4F89810B1F5807F0AD152
:1033800004F12800022102F0B1FA0028206818BFD9
:103390000127D4F89810DAF84820534622F44072F6
:1033A0001143CAF84810000322D5D4F8A400B0F5A0
:1033B000003F0FD0B0F5803F06D088BB04F1080075
:1033C000002102F013FA04E004F12800022102F0C7
:1033D0008DFA0546002D2E460BD1DAF8480000255F
:1033E00020F44030D4F8A41008435246CAF84800EC
:1033F0003E46A07840072AD5D4F88800B0F5401F93
:1034000017D0B0F5001F0ED0B0F5801F40F001813D
:10341000DAF81C00514640F40030CAF81C0008E0FD
:1034200001250126E5E704F12800012102F05EFAFA
:103430000546002D2F460BD1DAF84400002520F474
:103440004010D4F8881008435246CAF84400374662
:10345000A078C00701D13E4622E0206DB0F5803F44
:1034600008D0D8B9DAF81C00514640F40030CAF848
:103470001C0005E004F10800022102F0B7F905463E
:10348000002D2E460CD1DAF83C00002520F48030C7
:10349000216D08435246CAF83C00DCE701250126AD
:1034A0002168880001D4606809E004F12800022145
:1034B00002F01CFA002818BF0126D4E900108A0384
:1034C0001BD5D4F880206FF0010303EB3223022BCD
:1034D0000BD34FEA322343B1012B40F09D80DAF841
:1034E0001C3043F40033CAF81C303DB9DAF84430DC
:1034F00023F440731A43CAF844203546CA0207D55C
:10350000DAF8402022F00042636F1A43CAF84020E4
:10351000CA0008D5DAF8002022F48042D4F8B83086
:103520001A43CAF800208A0207D5DAF8402022F0B0
:103530008072E36E1A43CAF840204A000CD5DAF8CC
:10354000002022F40042CAF80020D4F8BC20DAF8A7
:1035500000301A43CAF80020B1F1FF3F07DCDAF867
:103560003C2022F04052636D1A43CAF83C20090205
:1035700008D5DAF8441021F44001D4F88C20114326
:10358000CAF84410C10708D004F10800002102F075
:103590002DF9002818BF05466068810708D504F199
:1035A0000800012102F022F9002818BF05466068D2
:1035B000410708D504F10800022102F017F900289C
:1035C00018BF05466068010708D504F128000021EE
:1035D00002F08CF9002818BF05466068C10608D5BE
:1035E00004F12800012102F081F9002818BF0546E6
:1035F0006068800603D44DB10120BDE8F08704F176
:103600002800022102F072F92843F5D10020BDE81C
:10361000F087012501271BE701256FE75346D4F802
:10362000B40000F440711A68B1F5407F22F47C5177
:1036300003D1064A02EA1012114319606FF31F30DA
:10364000196E00250843186633E500BFCFFFFF0061
:103650002DE9F843002800F0FE800446804B1868EE
:1036600000F00F00884688420BD2186820F00F0047
:1036700040EA08001860186800F00F00404540F06C
:10368000EA802068CF4F41070AD52169BA6902F064
:103690007002914204D9BA6922F070021143B961F3
:1036A00001070AD56169FA6902F07002914204D9F2
:1036B000FA6922F070021143F961C1060AD5A169C5
:1036C000FA6902F4E062914204D9FA6922F4E062F4
:1036D0001143F96181060AD5E1693A6A02F0700284
:1036E000914204D93A6A22F070021143396281078B
:1036F0000AD5E168BA6902F00F02914204D9BA69A9
:1037000022F00F021143B961C10736D0B86920F425
:103710007061D4E9010211430328B96105D0022880
:1037200007D1396889030DD495E03968890109D436
:1037300091E00128396802D1C90503D48BE049071B
:1037400040F189803969994621F0070108433861C1
:10375000FEF78CFD064641F28835386900F03800E6
:103760006168B0EBC10F06D0FEF780FD801BA84258
:10377000F3D9032070E020684B4681070AD5E16841
:10378000BA6902F00F02914204D2BA6922F00F0224
:103790001143B961196801F00F0141450AD919684F
:1037A00021F00F0141EA08011960196801F00F01C9
:1037B000414550D141070AD52169BA6902F070022A
:1037C000914204D2BA6922F070021143B961010733
:1037D0000AD56169FA6902F07002914204D2FA696D
:1037E00022F070021143F961C1060AD5A169FA6994
:1037F00002F4E062914204D2FA6922F4E0621143D9
:10380000F96180060AD5E069396A01F070018842E1
:1038100004D2396A21F070010843386200F064F87C
:10382000B969C1F303212F4A515CBB6903F00F034F
:10383000D25C01F01F0120FA01F102F01F00184ACA
:1038400021FA00F01060174A064800681160BDE8D0
:10385000F843FEF745BD012001B0BDE8F08300BF8D
:10386000002000520C00002480B500F03DF80B4908
:103870000A68C2F3032209681A4B01F00F019A5C2F
:10388000595C02F01F0220FA02F201F01F00044905
:1038900022FA00F0086003490A6080BD184402580B
:1038A000140000241000002480B5FFF7DDFF0C4950
:1038B0000C4A0968C1F30211515C01F01F01C840B4
:1038C00080BD00BF80B5FFF7CFFF0549054A0968F5
:1038D000C1F30221515C01F01F01C84080BD00BF4F
:1038E0001C4402585492000836490869C0F3C200CB
:1038F00003280CD0022828D048BB08688006374827
:1039000058BF70470968C1F3C101C84070478A6A4F
:10391000886AC0F3051CCB6A486B03F00103C0F34F
:10392000CC00BCF1000F10FB03F000EE100AB8EE63
:10393000400A0ED002F00302022A0CD072B90868C5
:1039400080060ED49FED241A15E0204870471E48CB
:103950007047002070479FED1F1A0CE09FED1C1A66
:1039600009E008681D4AC0F3C10022FA00F001EE28
:10397000100AB8EE411A02EE10CA9FED193AB8EEDD
:10398000422A086B6FF35F2081EE021A02EE100AE2
:10399000B8EE422A086BC0F3462000EE032AB7EEC9
:1039A000000A013032EE000A21EE000A01EE100A90
:1039B000B8EE411A80EE010ABCEEC00A10EE100A01
:1039C000704700BF0044025800093D0040787D0167
:1039D0000024744A20BCBE4B0024744C0090D003D9
:1039E00000000039F8B5002800F0B48104460078E2
:1039F000D74EC00721D12078800740F1B1803069CF
:103A000010F03801B06A3CD0182908BF5FEA807016
:103A100037D0E068002831685CD021F019010843F4
:103A20003060FEF723FC05463068400743D4FEF7BC
:103A30001DFC401B0228F7D9A0E1306900F03801D5
:103A4000B06A102905D018290AD100F00300022815
:103A500006D130688003CED560680028CBD179E1EB
:103A60006068002847D0B0F5803F06D0B0F5A02FA1
:103A700030685ED140F480203060306840F480309F
:103A80005DE030684007E06802D5002800F0628100
:103A9000316821F0190108433060FEF7E7FB054665
:103AA0003068400707D4FEF7E1FB401B02284FF0C7
:103AB0000300F5D963E1FEF7D3FB41F2030188422D
:103AC00030D820697168402821F47C3145D141F417
:103AD000003044E021F001003060FEF7C7FB0546EE
:103AE000306840073CD5FEF7C1FB401B02284FF071
:103AF0000300F5D943E1306820F48030306030684D
:103B000020F480203060FEF7B1FB0546306880036A
:103B10007FF571AFFEF7AAFB401B64284FF003004E
:103B2000F4D92CE1706820F0FE40216940EA016080
:103B300015E020F480303060306820F48020306060
:103B4000FEF794FB0546306880033FF554AFFEF75F
:103B50008DFB401B6428F6D910E141EA003070600B
:103B60002078C00653D5306900F03801B06A0829C2
:103B700005D018290BD100F00300012807D13068C7
:103B8000C00519D5E069802840F0E48014E0E069C0
:103B90000028306827D040F080003060FEF766FBD8
:103BA00005463068C00507D4FEF760FB401B0228BD
:103BB0004FF00300F5D9E2E0FEF752FB41F20301BA
:103BC000884208D8206A7168202821F0F8411BD16A
:103BD00041F080401AE0F06820F07C50216A40EA11
:103BE0000160F06013E020F080003060FEF73EFBE3
:103BF00005463068C0050AD5FEF738FB401B022891
:103C00004FF00300F5D9BAE041EA80607060207897
:103C1000000723D560690028706F0ED040F00100C6
:103C20007067FEF723FB0546706F800716D4FEF71A
:103C30001DFB401B0228F7D9A0E020F001007067AF
:103C4000FEF714FB0546706F800707D5FEF70EFBE5
:103C5000401B02284FF00300F5D990E02078800641
:103C600023D5A069002830680ED040F48050306021
:103C7000FEF7FCFA05463068800416D4FEF7F6FA23
:103C8000401B0228F7D979E020F480503060FEF71D
:103C9000EDFA05463068800407D5FEF7E7FA401BC9
:103CA00002284FF00300F5D969E02078400753D48B
:103CB000656A002D00F00D81306900F03800182889
:103CC0006ED1B16A012D306B44D001F00302A36ABA
:103CD0009A423FD1C1F30511E26A91423AD10146BD
:103CE000226B6FF35F21013A914233D1C0F3462139
:103CF000626B013A91422DD1C0F30641A26B013AA9
:103D0000914227D1C0F30660E16B0139884221D18D
:103D1000706BC0F3CC00A16C814200F0DA80F06AD5
:103D200020F00100F062FEF7A1FA0546FEF79EFAC8
:103D3000A842FBD0706B4FF6F8718843A16C40EA43
:103D4000C1007063F06A40F00100F062C1E000BFA2
:103D500000440258012012E0D6F8000440F48070BC
:103D6000C6F80004FEF782FA0546D6F80004C0053E
:103D700007D4FEF77BFA401B6428F6D9032001B074
:103D8000F0BDA06860B3012806D00528306F40F070
:103D9000A28040F004003067306F40F00100A0E0E6
:103DA000306820F080703060FEF760FA022D054622
:103DB0000AD1306880012CD5FEF758FA401B022842
:103DC0004FF00300F5D9DAE73068800140F18180D7
:103DD000FEF74CFA401B02284FF00300F4D9CEE75F
:103DE000306F20F001003067306F20F00400306742
:103DF000FEF73CFA054641F28837306F80077FF5C1
:103E000057AFFEF733FA401BB8424FF00300F4D926
:103E1000B5E7B06A40F2F3318843A16A226B0843E8
:103E2000511E626B4FF47E4303EB4222E36A6FF351
:103E30005F2192B240EA0310B0625018A16B4FF4B8
:103E4000FE0202EB014101F4FE010844E16B4FF078
:103E5000FE4202EB016101F0FE41084430634FF67F
:103E6000F871F06A20F00100F062706B8843A16C79
:103E700040EAC1007063F06A20F00C00216C084336
:103E8000F062F06A20F00200616C0843F062F06AB0
:103E900040F48030F062F06A40F40030F062F06A82
:103EA00040F48020F062F06A40F00100F062306877
:103EB00040F080703060FEF7D9F904463068800128
:103EC00007D4FEF7D3F9001B02284FF00300F5D901
:103ED00055E7002053E720F001003067306F20F0F5
:103EE00004003067FEF7C2F9054641F28837306FAB
:103EF00080073FF5DDAEFEF7B9F9401BB8424FF041
:103F00000300F4D93BE770477047704770470000E3
:103F100008B3B0B5044690F82C000D4628B900202F
:103F200084F82D00204600F01BF8022084F82C00B5
:103F3000211D2068FCF7FCFFD4E900022946FDF7AB
:103F400049F80648016841F000410160012084F809
:103F50002C000020B0BD0120704700BF004000527F
:103F60002DE9F047B8B033A81421FCF709FA33481B
:103F7000017800295ED1012102AC017004F1080032
:103F8000B821FCF7FDF94FF080704FF00008029067
:103F90002046CDF80C80CDF85080FEF78DFE08B19C
:103FA000FCF796FF2648016833AD41F48051254C5B
:103FB000254E01604FF0020900684FF0030A00F43B
:103FC000805001900C27019829464FF63F0033900E
:103FD00004F50060CDE93498CDF8D8A03797B04704
:103FE0002C20CDE9330904F580502946CDE9358AE6
:103FF0003797B04748F23710CDE9330904F54060F0
:104000002946CDE9358A3797B0474FF68370CDE919
:10401000330904F580602946CDE9358A3797B047E2
:104020004CF20370CDE9330920462946CDE9358AA3
:104030003797B04738B0BDE8F08700BF580000247C
:10404000D4440258000C0258C5200008B0B50546FB
:1040500090F82C00022801D102240DE095F82C00E4
:104060000124012808D1022085F82C002868FCF7DB
:1040700090FF85F82C4000242046B0BDB0B5044622
:1040800090F82C000D46052803D002280ED00128F8
:104090000BD1022084F82C0029462068FCF783FF0E
:1040A0002868022803D1052002E00120B0BD0120CC
:1040B00084F82C000020B0BD2DE9FF41032280F8D8
:1040C00030200446806B0D4603280BD14FF0805002
:1040D000616BBF4F08436063606B40B320688763C8
:1040E000012596E0002D4CD0B5F5004FEED0B5F58A
:1040F000804F5CD10020CDE902002068002101F052
:10410000BFFF800156D402A9204602F05DF80028C6
:10411000DED19DF80E00400746D5616C2068090489
:1041200001F06CFC0028D3D1206802215AE04FF442
:1041300080300021FEF778FCF0B13F49B0FBF1F38D
:104140006669D4E90112D4F810C09E425AD2BE4624
:10415000A76DB7F5007F54D0B7F5807F2DD1002E25
:10416000354B42D07700B0FBF7F79F42774649D9ED
:10417000334BB0FBF3F645E0606B40F000606063EA
:10418000AEE70020CDE902002068002101F078FFB1
:1041900080010FD402A9204602F016F8002897D11A
:1041A0009DF80E00C00713D14FF0806090E74FF0EC
:1041B00000608DE74FF400608AE7002E1F4F1AD091
:1041C000B8467700B0FBF7F0404588BF1E4618E0C0
:1041D000616C2068090401F011FC00287FF478AFBD
:1041E0002068002101F052FC72E7984208D9144B74
:1041F000B0FBF3F605E0B84298BF00231E4600E08E
:104200000026774620682B46CDE900C601F03CFF2A
:10421000002520684FF4007101F01FFC28B12168CF
:1042200001258F63616B08436063012084F83000CF
:10423000284604B0BDE8F08180F0FA0240787D01A4
:1042400000E1F5057047000080B5D0F838C0D0E92E
:10425000173E9A0F0A70C3F38362BCF1010F4A70D4
:10426000C3F301628A704FEA1342CA704FEA132205
:104270000A714FEA1E524B714FF00003CA80CEF311
:1042800003420A72CEF3C0324A72CEF380328A728F
:10429000CEF34032CA72CEF300320A734B7337D07A
:1042A000BCF1000F40F0878040F6FC72436E02EADA
:1042B0008E0242EA93720A61426EC2F3C2630B75C8
:1042C000C2F302634B75C2F342538B75C2F3824350
:1042D000CB75C2F3C2330B76D1F810C00B7E0CF154
:1042E000010C03F0070302330CFA03FCC0F848C0CA
:1042F0000B7A03F00F0E012303FA0EFE4FEA5E2342
:1043000003FB0CF3C0E913E34FF40073436512E0C1
:10431000B0F866200EF03F0342EA03420A614FF410
:1043200080630A6903EB82224FF40073C0E9122311
:10433000C0E91423426EC2F380334B76C2F3C61336
:1043400002F07F028B76CA76806EC20F0A77C0F3C6
:1043500041724A77C0F382628A77C0F38352CA7788
:10436000C0F3405281F82020002281F82120C0F3C0
:10437000004381F82230C0F3C03381F82330C0F30A
:10438000803381F82430C0F3403381F82530C0F306
:10439000003381F82630C0F3812381F82730C0F341
:1043A0000123C0B281F82830400881F8290001209B
:1043B00081F82A0009E001687A4A8A630122416B88
:1043C00041F08051416380F83020104680BD00BF2D
:1043D000FF0FE01F80B500F1380E9EE80C5081E819
:1043E0000C50826C0A61C26C4A61026D8A61426D36
:1043F0000020CA6180BD10B5416C04460068090404
:1044000001F030FC20B1616B08436063002010BDF7
:104410002068002101F034FEC0F3432010BD0000ED
:104420002DE9F04397B0044690F83000032801D1FD
:10443000012543E00D465B4EFDF718FF80462068DE
:10444000002101F01DFE800123D42068402101F0ED
:1044500004FBD0B9616C2068090401F0CFFAA0B95F
:104460004FF0FF30119040201290602013900220F6
:104470001490002015900120169011A9206801F0D9
:104480009BFC206801F020FCE0B10146606B60639A
:1044900001E04FF40061206801258663626B1143DF
:1044A000616384F830504FF4007101F0D6FA28B1FE
:1044B000216801258E63606384F83050284617B068
:1044C000BDE8F08301AFB1462068416B11F4957FE0
:1044D000416B16D108040BD5002605E0206801F0D9
:1044E000EEFD47F826000136082EF7D120374E465C
:1044F000FDF7BCFEA0EB080001304FF00041E3D116
:10450000C9E7090747D4416B890746D4416B89063F
:104510000CD52021BFE701F0D2FD3860FDF7A6FEE3
:10452000A0EB080001303AD004372068416BC90481
:10453000F1D4B34981636FF0FF0EDDE9011CCBB20A
:10454000DDE903769A092A70C3F340120EEA1123BB
:1045500043EA11616A7069809CFA8CF16960390ADA
:104560002F72F2B26972C7F303510EEA1743A972B0
:10457000D118A981C6F38521A973C6F30121E97376
:104580001109297406F00F0169744E469DF8171041
:10459000A974002587E708217DE702217BE74FF01A
:1045A000004178E7FF0FE01FF8B504460068E56AB0
:1045B00015F00806416B18BF11F400415ED1416B44
:1045C000C90579D4002E416B18BF11F4804140F029
:1045D000C080416B11F03A0F416B00F0E080890719
:1045E00003D5616B41F002016163416B090703D59B
:1045F000616B41F008016163416B890603D5616B12
:1046000041F020016163416BC90603D5616B41F044
:10461000100161637A498163C16B21F49D71C163AB
:10462000C16821F04001C160C16A41F40051C1621A
:10463000C16841F08001C16001F060FB2168002E7B
:10464000626B40EA020060634FF40062C86820F0C9
:104650008000C8608A6340F0A580280640F1A180F0
:10466000606B002800F09D80C86B20F08050C8630C
:1046700000200865012084F8300098E0A06A202816
:10468000C0F08F80656A00260CE0206805EB860785
:1046900001F015FD010A38707970010C000EB97037
:1046A000F8700136082EF0D105F12000A16A606291
:1046B000A1F12000A062F8BD4FF4807181634CF23B
:1046C0003A12C16B002E21EA0201C163C16B21F0D5
:1046D0008051C163C16821F04001C1601ED129062B
:1046E0005FD5002615F0220F8662C662066508D0E7
:1046F00001F004FB28B1616B084360632046FFF7BB
:10470000A1FD012015F0300F84F83000E66202D0E0
:10471000204600F0D5FAA80716D142E015F0220F86
:1047200008D001F0EBFA28B1616B084360632046C2
:10473000FFF788FD20683249012281630020A90724
:1047400084F83020E06237D02046BDE8F84000F021
:10475000B5BA206A202824D30027E6696D4614E004
:1047600006EB870001780091427841EA022100912E
:10477000827841EA02410091C07841EA00600090ED
:104780002946206801F0B4FC0137082FE8D106F172
:104790002000216AE061A1F120002062F8BDC9007B
:1047A0000FD4F8BD012084F830000020E0622046DC
:1047B000BDE8F840FFF746BD2046BDE8F84000F0F0
:1047C0007FBA4FF080518163006D400705F02000F3
:1047D00005D450B12046BDE8F840FFF797BB48B17B
:1047E0002046BDE8F840FFF790BB2046BDE8F84002
:1047F000FFF78ABB2046BDE8F840FFF784BB00BF47
:104800003A0F0018B0B586B050B3044690F83000A7
:1048100020B900202076204600F082F9042084F898
:104820003000204600F03CF8D0B901A92046FFF73F
:10483000F7FDA8B99DF814009DF81510A26B012A88
:1048400004D1084304D04FF4007003E0002001E0DD
:104850004FF48070A0652046E168FFF72DFC10B191
:10486000012006B0B0BDFDF701FD05462046FFF76B
:10487000C2FD04280CD0FDF7F9FC401B0130F5D136
:104880004FF000406063012084F830000320E8E727
:10489000002001216063E06284F83010E1E700004D
:1048A0002DE9F0438FB081464FF48030002100277E
:1048B000FEF7BAF8D8B3964CB0FBF4F60546D9F833
:1048C00000000021009700220023019601F0DCFB8C
:1048D000D9F8000001F0ECFBA54205D3B5EB460F7B
:1048E00008D37000B5FBF0F58A48B0FBF5F0013055
:1048F000FDF7D8FB00200490D9F8000001F0E0F8A3
:10490000002871D1D9F8000001F004F9B0F1004F8E
:1049100013D10020C9F83C00D9F8000001F0D0F80C
:10492000002861D1D9F83C00012809D00FE001210D
:104930004FF0006089F830105CE00120C9F83C00BD
:10494000D9F80000002101F059F800284AD10021CF
:10495000724D4FF6FE76002010E0D9F8000029468F
:1049600001F065F8F0BBD9F80000002101F088FBE8
:10497000049901310491C0F38071C00F002804989C
:1049800009D1B04207D8D9F80000002101F036F86B
:104990000028E2D028E004984FF6FF72904202D33C
:1049A0004FF0807020E00020C9F83810ADF80E00FC
:1049B000FDF75CFC0546D9F8000001F05DFBF8B19D
:1049C000D9F8380003281ED1D9F80000042101F0DD
:1049D00057FB000DC9F8400004A94846FFF734FC16
:1049E000002871D04FF08050012189F83010D9F89B
:1049F00034201043C9F8340008460FB0BDE8F083F6
:104A00004FF08060F0E7D9F8000001F0E6F80028E8
:104A1000EAD1D9F800000021DFF8FC80C047C9F8CE
:104A20006C000421D9F80000C047C9F870000821C3
:104A3000D9F80000C047C9F874000C21D9F800006B
:104A4000C047D9F838100329C9F87800BCD0002035
:104A50000DF10E0641F287370DE0D9F8000031461E
:104A600001F019F90028BFD1FDF700FC401BB84246
:104A70004AD8BDF80E000028EFD0D9F83810032925
:104A8000A2D081B2C9F844100904D9F8000001F09D
:104A9000BAF80028A8D1D9F800000021C047C9F809
:104AA0005C000421D9F80000C047C9F86000082163
:104AB000D9F80000C047C9F864000C21D9F80000FB
:104AC000C047C9F868007FE7D9F84410D9F800005A
:104AD000090401F069F800287FF486AFD9F80000D6
:104AE0004FF4007100F0B9FF60B1D9F80010A84A86
:104AF0008A63D9F8341008430121C9F8340089F8D1
:104B0000301079E7002177E74FF000406CE700BFF5
:104B100000350C001021010081600008000010C168
:104B20002DE9F043B7B0044632A81421FBF728FC66
:104B300002A8C021FBF724FC20682A4988424ED1F4
:104B40004FF480304FF00008029002A8CDF80C809E
:104B5000CDF85880FEF7B0F808B1FCF7B9F9224853
:104B6000016832AC41F48031204D01604FF0020900
:104B70000168032601F4803101910C270199C16875
:104B800041F00401C160C16801F004010191019983
:104B9000C16841F00801C1602146C06800F008000A
:104BA000019001984FF4F85032902846CDE933989F
:104BB00035963697FDF786FA0420CDE9320905F5DA
:104BC00080602146CDE934863697FDF77BFA3120A7
:104BD00000210022FDF72EFD3120FDF71DFD37B02D
:104BE000BDE8F08300700052D44402580008025817
:104BF000F0B587B00029044610D094F830000128A1
:104C000012D10E460021616315469818226D1F4689
:104C100090420BD9606B40F0007002E0606B40F096
:104C200000606063012046E0022044E0032084F835
:104C300030004FF0FF332068A26BC162012A01935C
:104C40004FEA4723C4E9096302934FF090030393AB
:104C50004FF002030493059118BF6D02069101A95C
:104C600001F0AAF82068022FC16841F04001C1603C
:104C70004FF001018665016505D38221E162294675
:104C800000F060FF04E08121E162294600F073FF3B
:104C9000002821680AD03E4A8A63616B084360633A
:104CA0000120002184F83000E16204E0C86B40F488
:104CB0009570C863002007B0F0BD00BFFBF75EBE73
:104CC000FBF770BE2DE9F04186B00029044610D0F4
:104CD00094F83000012812D10E4600216163154678
:104CE0009818226D1F4690420BD9606B40F00070FF
:104CF00002E0606B40F000606063012044E002204D
:104D000042E0032084F830004FF0FF3320684FF07A
:104D10009008A26BC162012A00934FEA4723C4E9BD
:104D200007630193CDE90281049118BF6D020591DB
:104D3000694601F041F82068022FC16841F0400146
:104D4000C1604FF001018665016505D3A021E162D4
:104D5000294600F0FFFF04E02946C4F82C8001F04A
:104D600012F8002821680AD0094A8A63616B084357
:104D700060630120002184F83000E16204E0C86B28
:104D800040F48D70C863002006B0BDE8F08100BF1C
:104D9000FF0FE01F411E0020B0EB116F01D001207A
:104DA0007047044A5160F021034B1970072190604D
:104DB0001160704710E000E023ED00E090F88410EF
:104DC000012901D1022112E02421C0F888100268D3
:104DD0001368116823F0005321F0010111600021D4
:104DE000416613602022C0F8882080F884100846AD
:104DF000704710B50446D0F88C00202806D1002951
:104E00004FF0010018BF002A02D110BD022010BDD2
:104E10000120E06600202067204602F019F80028F3
:104E2000F3D1E06E01280FD120681021016200E06B
:104E3000206850E8000F216840F0100041E80002AF
:104E4000002AF5D1002010BD012010BD094988427B
:104E500018BF704710B5084C4FF40071204600F0A1
:104E600071FB04484FF400722146FFF7C2FFBDE812
:104E700010407047D83800247C0000247047B0B53B
:104E8000044690F88400012801D10220B0BD012021
:104E900084F884002420C4F888002068056802682B
:104EA00022F001020260826822F060621143816098
:104EB000204601F02BFC206805602020C4F8880003
:104EC000002084F88400B0BDB0B5044690F884009A
:104ED000012801D10220B0BD012084F884002420E3
:104EE000C4F8880020680568026822F001020260A8
:104EF000826822F0604211438160204601F006FC86
:104F0000206805602020C4F88800002084F8840010
:104F1000B0BD70477047704770B504460068C269FD
:104F200040F60F05034601682A4253F808CF4AD0DD
:104F3000BC4D0CEA050EBC4D0D4015EB0E054CD0DA
:104F4000D50718BF11F4807507D001250562D4F884
:104F5000905045F00105C4F8905095070CF00105FC
:104F600008D53DB102260662D4F8906046F00406EA
:104F7000C4F89060560708D53DB104250562D4F801
:104F8000905045F00205C4F8905015070CD501F07B
:104F900020055EEA050607D008260662D4F8906070
:104FA00046F00806C4F89060160567D511F08066D3
:104FB00064D04FF400660662254655F8900F40F025
:104FC000200028605CE0930607D501F020030CF078
:104FD00080555B1901D0616FE9E001EA0203E56EDB
:104FE000DE063CD5012D3AD11021016281684906C7
:104FF00000F18480B4F85C10B4F85E20B4F85E3040
:10500000002B00F0E480891A0A0401D1DFE0206857
:1050100050E8000F226820F4907042E80003002B53
:10502000F5D18348226852E8022F2368024043E802
:105030000226002EF6D12020C4F88C000020E06665
:105040006067206850E8000F226820F0100042E8F6
:105050000003002BF5D189B20220206799E0D60227
:1050600040F19C801CF4800600F098804FF4801181
:1050700001622046BDE87040FFF74CBF04F1900587
:105080002868002800F0A38090060CD501F02000CD
:105090000CF08051401806D0616F21B1204688473E
:1050A000206800F108032868196800F0280001F062
:1050B0004001401800F08580204601F0B5FC2068D2
:1050C0008168490601D477E0206850E8020F216822
:1050D00020F0400041E80202002AF5D1D4F8800017
:1050E000002869D051490165FCF746F900286ED0C7
:1050F000D4F88000016DBDE870400847D4F88020E6
:1051000011684B689DB2002D61D0B4F85C108D42DF
:105110005DD2A4F85E30D269B2F5807F01D132E071
:10512000206850E8000F216820F4807041E80002F8
:10513000002AF5D1206850E8020F216820F0010014
:1051400041E80202002AF5D1206850E8020F2168E8
:1051500020F0400041E80202002AF5D12020C4F8E6
:105160008C000020E066206850E8000F216820F0E5
:10517000100041E80002002AF5D1D4F88000FBF7C6
:1051800073FFB4F85C1002202067B4F85E00081AC0
:1051900081B22046BDE87040FFF758BE160617D50D
:1051A00001F080060CF40005761911D0A16F71B1E1
:1051B0002046BDE8704008472046BDE87040FFF734
:1051C000AABE2046FFF7A7FE0020C4F8900070BDDD
:1051D0005B060AD410021BD511F0804018D020467F
:1051E000BDE87040FFF795BE206850E8000F2168C9
:1051F00020F0400041E80002002AF5D12020C4F848
:1052000088000020A0672046BDE8704000F06EB91D
:10521000D001DCD5B1F1FF3FD9DC2046BDE87040BC
:10522000FFF72CBE0100001020010004DD6800081B
:10523000FEFFFFEF10B5E0B10446D0F8880028B9B2
:10524000002084F88400204600F028F82420C4F8C8
:1052500088002068A16A0268002922F00102026029
:1052600002D0204601F07CFA204601F023FC012800
:1052700001D1012010BD2068416821F490414160B6
:10528000816821F02A018160016841F0010101601B
:105290002046BDE8104001F0C7BA00002DE9F041FA
:1052A000B8B0044633A81421FBF76AF802A8C0215D
:1052B000FBF766F820683549884263D10120002653
:1052C000029002A803962196FDF7F6FC08B1FBF7C1
:1052D000FFFD304801692E4F41F010010161016965
:1052E00001F0100101910199016841F00101016093
:1052F00033A9006800F00100019001984FF4C060EC
:1053000033900220CDE934060720369637902248A4
:10531000FCF7D8FE214D2920B846C5E900704FF4AE
:105320008067AE6005F114001421C5E90367FBF73F
:1053300027F82846FCF7C4FB08B1FBF7C9FDC4F801
:10534000805008F11800AC632A21154D28604020D8
:105350006960002105F1080283C205F114001421DF
:10536000FBF70EF82846FCF7ABFB08B1FBF7B0FDE6
:105370002520E5670521AC630022FDF75BF92520B8
:10538000FDF74AF938B0BDE8F08100BF00100140D8
:1053900010000240E044025800000258CC360024BD
:1053A00044370024704770472DE9FC410446D0F88B
:1053B000880020284DD10E4600294FF001004ED024
:1053C0001746002A4BD04FF000082120C4F89080E7
:1053D0001D46C4F88800FCF749FFA4F85470A4F8EF
:1053E00056700746A168B1F5805F1FD1206900287B
:1053F00014BF3046B046064618E0802100950022D2
:1054000020463B4601F072FD28BB002E206802D0EA
:1054100016F8011B04E038F8021B00266FF35F2129
:105420008162B4F856000138A4F85600B4F856006A
:105430000028E2D140210095002220463B4601F0A1
:1054400055FD00284FF0200118BF0320C4F8881034
:1054500005E0022003E02020C4F88800032002B009
:10546000BDE8F081B0B50446D0F88800202825D1E9
:1054700011B3134602B3002521652120A4F854304E
:10548000A4F85630C4F89050C4F88800E06FB8B162
:10549000DFF84CC0DFF84CE0134AC0E90FCEC2641D
:1054A000226828320565FCF7BFFC48B11020C4F81B
:1054B00090002020C4F888000120B0BD0220B0BDBB
:1054C00020684021016200E0206850E8020F216856
:1054D00040F0800041E80202002AF5D10020B0BD72
:1054E000E3690008216A0008ED680008704770470A
:1054F000FEE70000002878484FF080010CBF012231
:105500000022FCF7A7BE00BF83B010B5ADF5017D4A
:105510000DF5037C01ACACE80E0083AB02460093B2
:105520004FF40071204603F0D7F92046FAF733FF15
:1055300081B2204600F006F80DF5017DBDE810406F
:1055400003B07047A54A0B46014610461A46FFF7BE
:1055500089BF00BFA1484FF400720149FFF749BC61
:105560007C0000247B48FCF711BF00BFE0B50E486B
:105570000168002241F0010101600521006800F08E
:105580000100019001980B20FDF754F80B20FDF766
:1055900043F80C2005210022FDF74CF80C20BDE853
:1055A0008C40FDF739B800BFD844025810B5034C01
:1055B000611C0348FBF790FC207010BD40000024E4
:1055C0006492000880B588B0154816490022016031
:1055D00001214FF0080C426010238160C0F80CC01C
:1055E0004FF0400E03614FF4C073C0E905E34FF480
:1055F0000063C261C0E908320191092102910621CC
:105600008262CDE9031C0321CDE90511079101A9AF
:10561000FEF77EFC08B1FBF75BFC08B080BD00BF65
:10562000A43800244041005270B586B000252948B6
:10563000294C059500220168802641F02001016077
:10564000016801F0200100910099016841F080019A
:105650000160016801F0800100910099016841F04A
:1056600040010160016801F040010091009901686A
:1056700041F010010160016801F0100100910099F2
:10568000016841F008010160016801F00801009122
:105690000099016841F004010160016801F0040112
:1056A00000910099016841F00101016080210068CA
:1056B00000F00100009000982046FCF7CBFD01208F
:1056C0000196CDE9020501A904952046FCF7FAFCF4
:1056D00006B070BDE0440258001C0258E0B51C48FA
:1056E00001681D2241F0010101601B490823006887
:1056F00000F0010001900198164801600021C0E906
:1057000001210222C1600161C0E905234FF000724E
:10571000C16101230162C0E90923C0E90B11C0E99D
:105720000D11FCF7F1FE08B1FBF7D2FB002109488F
:105730000022FCF7F7FD08B1FBF7CAFB7A20002135
:105740000022FCF777FF7A20BDE88C40FCF764BFAD
:10575000D4440258BC37002440000052A6480649F1
:105760000022C0E900124FF48041C0E90221022169
:10577000C0E90421704700BF0070005210B5174CFB
:1057800017484FF4E13120600020C4E901100C21DA
:10579000E060C4E9040104F118001421FAF7F0FDF7
:1057A0002046FFF747FD08B1FBF792FB0B480021AD
:1057B000FFF78AFB08B1FBF78BFB08480021FFF7D6
:1057C0005EFB08B1FBF784FB0448FFF7F7FA18B15A
:1057D000BDE81040FBF77CBB10BD00BFD8380024EB
:1057E00000100140FEE7FEE770470000F8B57F4F6C
:1057F000BA6A02F00302032A01D1012074E00546CF
:10580000386820F080600C463860FCF72FFD0646B3
:105810003868000105D5FCF729FD801B0228F7D95F
:105820005FE0B86A4FF47E43696820F47C30AA6870
:10583000013903EB42222B686FF35F2192B240EAF9
:1058400003301144EA684FF4FE03B86203EB0242EE
:1058500002F4FE02881829694FF0FE4202EB016152
:1058600001F0FE410844B863002CF86A20F0C00043
:10587000696940EA0100F862F86A20F02000A9692D
:1058800040EA0100F8624FF6F871F86A20F0100063
:10589000F862F86B20EA0100E96940EAC100F863A8
:1058A000F86A40F01000F86205D0012CF86A06D1C1
:1058B00040F4801005E0F86A40F4002001E040F474
:1058C0000010F862386840F080603860FCF7CEFC69
:1058D00004463868000106D4FCF7C8FC001B032806
:1058E000F7D3032000E0002001B0F0BDF8B53F4F32
:1058F000BA6A02F00302032A01D1012074E00546CE
:10590000386820F080500C463860FCF7AFFC064643
:105910003868800005D5FCF7A9FC801B0228F7D960
:105920005FE0B86A4FF47E43696820F07C70AA6833
:10593000013903EB42222B686FF35F2192B240EAF8
:1059400003501144EA684FF4FE03B86203EB0242CD
:1059500002F4FE02881829694FF0FE4202EB016151
:1059600001F0FE4108443864002CF86A20F44060DD
:10597000696940EA0100F862F86A20F40070A969D8
:1059800040EA0100F8624FF6F871F86A20F480707E
:10599000F862786C20EA0100E96940EAC1007864A5
:1059A000F86A40F48070F86205D0012CF86A06D1DC
:1059B00040F4000005E0F86A40F4800001E040F0A7
:1059C0008070F862386840F080503860FCF74EFC18
:1059D00004463868800006D4FCF748FC001B032806
:1059E000F7D3032000E0002001B0F0BD00440258CE
:1059F0000148FEF7D9BD00BF2838002410B586B095
:105A00000191372102914FF480710391002104919B
:105A10004FF48051059101A9044600F053FB372152
:105A200041F28832204600F0DDF906B010BD10B515
:105A300086B00191292102914FF4807103910021D8
:105A400004914FF48051059101A9044600F03AFBFE
:105A5000204600F07DFA06B010BD10B586B0019169
:105A6000102102914FF480710391002104914FF4B1
:105A70008051059101A9044600F024FB102141F258
:105A80008832204600F0AEF906B010BD10B586B0E1
:105A90000191062102914FF480710391002104913C
:105AA0004FF48051059101A9044600F00BFB06213B
:105AB00041F28832204600F095F906B010BD000092
:105AC00010B586B00021CDE90311CDE901114FF4E5
:105AD0008051059101A9044600F0F4FA0B484FF4F7
