:020000040800F2
:10000000D0AB0124E102000845580008B3570008AE
:100010004158000877140008AD780008000000007F
:10002000000000000000000000000000216D00083A
:100030007B1400080000000049580008236D0008E8
:10004000FB020008FB020008FB020008FB0200089C
:10005000FB020008FB020008FB020008FB0200088C
:10006000FB020008FB020008FB020008FB0200087C
:10007000FB020008FB020008FB020008FB0200086C
:10008000FB020008FB020008FB020008FB0200085C
:10009000FB020008FB020008FB020008FB0200084C
:1000A000FB020008FB020008FB020008FB0200083C
:1000B000FB020008FB020008FB020008FB0200082C
:1000C000FB020008FB020008FB020008FB0200081C
:1000D000FB020008FB020008FB020008FB0200080C
:1000E000FB020008FB02000800000000FB02000801
:1000F000FB020008FB020008FB020008FB020008EC
:10010000FB020008155B0008FB020008FB02000868
:10011000FB020008FB020008FB020008FB020008CB
:10012000FB020008FB020008FB020008FB020008BB
:10013000FB020008FB020008FB020008FB020008AB
:1001400000000000000000000000000000000000AF
:10015000FB020008FB020008FB020008FB0200088B
:10016000FB020008FB020008FB020008FB0200087B
:10017000FB020008FB020008FB0200080000000070
:10018000FB020008FB020008FB020008FB0200085B
:10019000FB020008FB020008FB020008FB0200084B
:1001A000FB020008FB020008FB0200080000000040
:1001B000FB020008FB020008FB020008FB0200082B
:1001C000FB020008FB020008000000000000000025
:1001D0000000000000000000FB020008000000001A
:1001E000000000000000000000000000000000000F
:1001F0000000000000000000FB020008FB020008F5
:10020000FB020008FB02000800000000FB020008DF
:10021000FB020008FB020008FB020008FB020008CA
:10022000FB02000800000000FB02000800000000C4
:10023000FB020008FB02000800000000FB020008AF
:10024000FB020008FB020008FB020008FB0200089A
:10025000FB020008FB020008FB020008FB0200088A
:10026000FB020008FB020008FB020008FB0200087A
:10027000FB020008FB020008FB020008000000006F
:10028000FB020008FB020008FB020008FB0200085A
:1002900000000000FB020008FB0200080000000054
:1002A00000000000FB020008FB020008FB0200083F
:1002B000FB020008FB020008FB020008FB0200082A
:1002C000FB020008FB020008FB020008DFF80CD06C
:1002D00000F068FA0048004715B60008D0AB0124CA
:1002E0000648804706480047FEE7FEE7FEE7FEE7D0
:1002F000FEE7FEE7FEE7FEE7FEE7FEE7056E000825
:10030000CD0200082DE9F05F0546002092469B468D
:1003100088460646814640241BE02846414647461B
:10032000224600F077F853465A46C01A914110D33E
:1003300011461846224600F05EF82D1A67EB0108B8
:100340004F4622460120002100F055F817EB000926
:100350004E41201EA4F10104DFDC484631462A4606
:100360004346BDE8F09F10B5431A934209D2831863
:10037000881803E010F8011D03F8011D521EF9D280
:1003800010BD40EA01039B0703D009E008C9121F12
:1003900008C0042AFAD203E011F8013B00F8013B3F
:1003A000521EF9D210BDD2B201E000F8012B491E55
:1003B000FBD270470022F6E710B513460A46044602
:1003C0001946FFF7F0FF204610BD30B50B46014639
:1003D00000202022012409E021FA02F59D4205D3E4
:1003E00003FA02F5491B04FA02F52844151EA2F18E
:1003F0000102F1DC30BD202A04DB203A00FA02F1D0
:10040000002070479140C2F1200320FA03F3194302
:1004100090407047202A04DB203A21FA02F00021A4
:10042000704721FA02F3D040C2F120029140084304
:10043000194670472DE9FE4F804681EA0300C00F40
:100440000C46009021F0004123F00045B8EB02007B
:10045000A94105D24046214690461C460B4602461D
:1004600023F00040104347D0270DC7F30A00C3F321
:100470000A510290401A019040286BDAC3F313002E
:1004800040F4801B0098924620B10023D2EB030A6F
:1004900063EB0B0B01985946C0F140025046FFF741
:1004A000AAFF06460D4650465946019A00F08CF9BF
:1004B00010EB08006141002487EA115284EAE773D7
:1004C0001A4340D0009A62B3019A012A4FEA0752B8
:1004D00015DC001B61EB02014FF0004202EA0752FB
:1004E000CDE90042001C41F5801132462B4600F058
:1004F0008CF903B0BDE8F08F40462146F9E7001BB8
:1005000061EB0201001C41F5801300185B412018CB
:10051000A2F5001747EB030140EAD570B6196D410B
:1005200011E06D084FEA360645EAC0754FEA0752FA
:10053000001B61EB0201001C41F5801149084FEAE4
:1005400030000019514132462B4603B0BDE8F04F50
:1005500000F04CB90098012240000023D0EB0202C9
:1005600063EBE073009821464FEAE074B8EB0000BB
:1005700061EB0401E9E783F000435BE781F00041B0
:1005800058E72DE9FE4F81EA030404F0004421F00E
:10059000004100944FF0000B23F0004350EA0104A7
:1005A0005ED052EA03045BD0C3F30A54C1F30A5588
:1005B0002C44A4F2F3340194A0FB0254C1F31301C0
:1005C00041F48011C3F3130343F4801301FB02448D
:1005D00000FB034E840A970A44EA815447EA835792
:1005E000A4FB076802958D0A05FB07854FEA932C4B
:1005F00004FB0C542705029D4FEA065847EA1637BC
:10060000B5EB08056EEB070C870E920E47EA8117D3
:1006100042EA8312A7FB0201B6EB0B0164EB000474
:100620002B0D43EA0C335E1844EB1C50DA4651465E
:10063000E7FB0201C5F313044FEA0B3343EA1453FB
:100640004FEA0432019C43EA0603A4F10C0402942D
:10065000009CCDE900B400F0D8F803B0BDE8F08FFD
:1006600000200146F9E72DE9F04D81EA030404F08A
:10067000004B21F0004514464FF0000A23F00041E2
:1006800050EA050220D054EA01021DD0C5F30A57F2
:100690000246C5F31303C1F31300C1F30A5640F435
:1006A000801543F48013A7EB0608101BD64608F20A
:1006B000FD3873EB050002D308F1010801E0921840
:1006C0005B41B8F1000F03DA00200146BDE8F08D70
:1006D00000204FF48011064684460EE0171B73EB92
:1006E000050705D3121B63EB050306434CEA010C17
:1006F00049084FEA300092185B4150EA0107EDD1FA
:1007000052EA030012D082EA040083EA050108439A
:1007100005D0101BAB4106D20122002306E00022C7
:100720004FF0004302E06FF0010253101AEB060095
:100730004CEB085110EB0A0041EB0B01BDE8F04D0A
:1007400000F054B8C1F30A52C1F3130140F2FF3371
:1007500041F480119A4202DA00200146704740F2CB
:1007600033439A42A2F2334202DC5242FFF752BEB6
:10077000FFF741BE30B5041E71F1000404DB4FF0F9
:100780000044404264EB0101141E73F1000405DBD8
:100790001C464FF00043524263EB0403994208BFEA
:1007A000904230BD064C074D06E0E06840F0010382
:1007B00094E8070098471034AC42F6D3FFF78AFD5F
:1007C00084560108A4560108202A06DBCB17203ADC
:1007D00041FA02F043EAE07306E041FA02F3D04046
:1007E000C2F12002914008431946704710B5141E0B
:1007F00073F1000408DA401C41F1000192185B41DA
:100800001A4301D120F0010010BD2DE9F04D9246B0
:100810009B4611B1B1FA81F202E0B0FA80F22032C7
:100820009046FFF7E8FD04460F4640EA0A0041EA19
:100830000B0153465A46084313D0114653EA0100B0
:1008400019D0C8F140025046FFF7E4FD05460E46B8
:10085000504659464246FFF7CEFD084305D00120D9
:1008600004E020463946BDE8F08D0020054346EA05
:10087000E0762C4337430A986305E40AA0EB0800AE
:100880000022FD0A44EA47540A3002D500200146FE
:10089000E9E7010510196941DDE9084500196941D9
:1008A000BDE8F04DA2E700002DE9F04F81B0012630
:1008B0006FF001044FEA510E06EB510704EB5108AB
:1008C00000974FEA42090024002500BFADB2660040
:1008D000AC422BD250F82670EA0050F835100432A2
:1008E00040F8261046F0010140F8357050F821A07C
:1008F000875840F8217040F802A0009AA118AF185C
:1009000050F831A04FEAC10B50F837204FEAC70C1E
:1009100040F8312040F837A00BF104010CF1040736
:1009200050F801A0C259425040F807A005EB0E0153
:1009300000EB860250F831709668CD00D2F80CC0FA
:1009400097602F1D40F83160A11CC5598CB2D5604D
:100950001D8844454B4440F807C0B7D901B0BDE8F5
:10096000F08F70B50446807825880E46A38901284B
:10097000626806D194ED040A3046294600F0D4FAA4
:1009800003E03046294600F03BF9E078012807D122
:1009900021883046E289A368BDE87040FFF784BF34
:1009A00070BD00004DF2846C0180C0F6000CC0F8F0
:1009B00004C0FF2982704CF28062C370C0F600024E
:1009C0004FF0FF030DDDB1F5807F13D0B1F5805FEF
:1009D00015D0B1F5806F22D106329FED160A0421A1
:1009E00017E010290FD0402919D17E329FED0F0A50
:1009F00040210EE01E329FED0E0A102109E09FED0E
:100A0000090A012105E002F5FF729FED070A4FF484
:100A1000807100238181C181826080ED040A58B217
:100A2000704700BF000080390000803D0000803C1E
:100A30000000803B0000803A2DE9F04381B02DEDAD
:100A4000028B0023B3EB920F90460C46054669D00B
:100A50004FEA9800474200BF95ED010A20EE008A58
:100A600095ED000A00EE008AB0EE480A06F04CFF51
:100A7000B4EEC00AF1EE10FA03D7B0EE480A06F061
:100A800043FF84ED000A95ED030A20EE008A95ED00
:100A9000020A00EE008AB0EE480A06F035FFB4EE16
:100AA000C00AF1EE10FA03D7B0EE480A06F02CFFA8
:100AB00084ED010A95ED050A20EE008A95ED040A01
:100AC00000EE008AB0EE480A06F01EFFB4EEC00A3F
:100AD000F1EE10FA03D7B0EE480A06F015FF84EDE8
:100AE000020A05F1200995ED070A20EE008A04F1BB
:100AF000100695ED060A00EE008AB0EE480A06F0F0
:100B000003FFB4EEC00AF1EE10FA03D7B0EE480AC4
:100B100006F0FAFE013784ED030A4D4634469BD1B8
:100B200034464D4618F003001DD0464295ED010AAB
:100B300020EE008A271D95ED000A00EE008AB0EE37
:100B4000480A06F0E1FEB4EEC00AF1EE10FA03D74F
:100B5000B0EE480A06F0D8FE013684ED000A05F131
:100B600008053C46E2D1BDEC028B01B0BDE8F08344
:100B70009FED201AB5EE002A00EE012A9FED1E1A05
:100B8000BDEEC20AB5EEC02AF1EE10FA10EE100A60
:100B9000B8BF013800EE100A0020B8EEC00A32EEED
:100BA000400A9FED162A20EE010ABCEEC01A11EE93
:100BB000101A30EE021AB0EB512F18BF002102EECE
:100BC000101A4CF6806000FE010AC0F60000B8EE74
:100BD000422A00EB810090ED011A30EE420AB7EE96
:100BE000002A32EE402A20EE010A90ED001A02EEB1
:100BF000010A704783F9223E00000044000000C44F
:100C00002DE9F04F88B08C08059204EB4407019061
:100C100026010094151D079600220494FF000393FB
:100C2000A2EB910603EB430204304FEAC40E4FEAF5
:100C3000031A4FEAC30B4FEAC2093A462C462F4625
:100C4000079B00EB0E0800EB030C831810ED010A64
:100C500090ED001A18ED012A98ED003A1CED014ABA
:100C60009CED005A13ED016A93ED007A70EE040AD0
:100C7000013672EE061A71EE052A73EE073A32EE6D
:100C8000462A31EE451A33EE473A30EEA15A32EE9B
:100C9000A37A30EE440A72EEE32A71EE423A17ED7F
:100CA000014A97ED006A00ED015A70EEE10A80ED0D
:100CB000007A70EE031A14ED015A23EE857A00F1E2
:100CC000080031EE021A574494ED002A30EE430A30
:100CD0005C4423EE823A01EEC27A22EE862A01EECD
:100CE000853A15ED015AD5ED001A64EE222A4D44DD
:100CF00000EE842A21EE214A21EE051A40EEC62A92
:100D000008ED012A00EE054A00EE611AC8ED002A3E
:100D10000CED013A8CED007A03ED014A83ED001AE7
:100D20008ED11429C0F0B480049D00BF0398AA0896
:100D300080000292039080B2EE0007904FF0FF30E7
:100D400000EB9500069002EB4200C700D000041DA6
:100D50004FEA021C019A4FF0000900239046059AC1
:100D600002EBC3004FEAC30E90ED000A0EF104003F
:100D7000104490ED001A02EB03104FEA031E90EDB1
:100D8000002A0EF10400104490ED003A03EB4300FA
:100D900002EBC00EC000043010449EED004A4246F3
:100DA00090ED005A4046C84600EB0C0A90ED006AF0
:100DB0009AED007A00EB040B76EE470A00EB070E83
:100DC00036EE076A1BED017ADEED001A77EE612A36
:100DD000A84437EE217A8845D0ED011ADBED003AC0
:100DE000DAED014ADEED015A71EEE46A73EEE57A5E
:100DF00071EEA41A73EEA53A70EEA74A70EEE70AF8
:100E000071EEE37A76EEE25A76EEA22A76EE476A41
:100E100036EE076A31EEA37A63EE271A62EE273ABE
:100E200080ED006A60EE247A80ED017A24EE206A7B
:100E3000304424EE227A41EE257A60EE255A42EEC5
:100E4000261A43EE663A41EE645A05EE226A4BEDED
:100E5000011A05EE607ACBED003ACAED007ACAEDD0
:100E6000015A8EED006A8EED017A9DD3079809F143
:100E7000010903440698814502F108027FF66EAF2E
:100E800004981328029D4FEA900004903FF64EAF5D
:100E900000984042019900BF91ED000A91ED011ABE
:100EA00091ED022A91ED033A91ED044A91ED055A34
:100EB00091ED066A91ED077A70EE040A013030EE8A
:100EC000440A31EE054A31EE451A32EE065A73EE07
:100ED000071A32EE462A33EE473A30EE856A34EE90
:100EE000217A30EEC55A34EE614A81ED006A30EE67
:100EF000036A81ED017A31EE427A81ED025A30EED9
:100F0000430A81ED034A31EE021A81ED046A81ED54
:100F1000057A81ED060A81ED071A01F12001BBD1A6
:100F200008B0BDE8F08F00002DE9F04F81B02DED45
:100F3000048B88B08C08059204EB440701902601CD
:100F40000094151D079600220494FF000393A2EB62
:100F5000910603EB430204304FEAC40E4FEA031A32
:100F60004FEAC30B4FEAC2093A462C462F4600BF50
:100F7000079B00EB0E08034400EB020C10ED011A76
:100F800090ED002A13ED013A93ED004A18ED015A55
:100F900098ED006A1CED017ADCED000A71EE031A8F
:100FA000013675EE072A72EE043A76EE204A31EEEB
:100FB000431A32EE442A36EE604A31EEA26A73EEEC
:100FC000A40A35EE475A71EEE21A71EE442A17ED83
:100FD000013A97ED007A00ED016A73EEE43AC0ED54
:100FE000000A72EE054A94ED006A62EE860A00F18C
:100FF000080031EE041A574414ED014A32EE452A36
:101000005C4422EE845A44EE840A21EE834A04EEC4
:10101000C65A15ED016AD5ED002A61EE871A4D44D6
:1010200003EEC74A21EE067A21EE221A43EE231A76
:1010300008ED014A02EE627A02EE061AC8ED001AC5
:1010400003ED015AC3ED000A0CED017A8CED001A94
:101050008ED11429C0F0B480049D00BF0398AA0863
:1010600080000292039080B2EE0007904FF0FF30B4
:1010700000EB9500069002EB4200C700D000041D73
:101080004FEA021C019A4FF0000900239046059A8E
:1010900002EBC3004FEAC30E90ED001A0EF10400FC
:1010A000104490ED002A02EB03104FEA031E90ED6E
:1010B000003A0EF10400104490ED004A03EB4300A7
:1010C00002EBC00EC000043010449EED005A4246B0
:1010D00090ED006A4046C84600EB0C0A90ED007A9D
:1010E000DAED000A00EB040B77EE601A00EB070E56
:1010F00037EE207A5BED010ADEED002A70EEE23A6F
:10110000A84470EEA20A8845D0ED012ADBED004A22
:10111000DAED015ADEED016A72EEE57A34EEE68A26
:1011200072EEA52A74EEA64A71EEC85A71EE881ABC
:1011300032EEE48A77EEA36A77EEE33A77EE607AEE
:1011400037EE207A23EE089A63EE270A72EEA42A7D
:1011500080ED007A04EE279A61EE254A62EE255A68
:10116000C0ED012A65EE217A304426EE217A44EE64
:10117000480A42EE664A41EE265A46EE637A4BED45
:10118000010A05EE237A8BED009ACAED004ACAEDFA
:10119000015ACEED007A8EED017A9DD3079809F1C0
:1011A000010903440698814502F108027FF66EAFFB
:1011B00004981328029D4FEA900004903FF64EAF2A
:1011C00000984042019900BF91ED001A91ED012A6B
:1011D00091ED023A91ED034A91ED045A91ED056AC1
:1011E00091ED067AD1ED070A71EE051A013031EE64
:1011F000451A32EE065A32EE462A33EE076A74EE8C
:10120000202A33EE473A34EE604A31EE867A75EEA4
:10121000220A31EEC66A35EE625A71EE441A72EE57
:10122000032A31EE041A32EE432A27EE003A20EE6A
:10123000804A26EE006A25EE005A81ED003A21EE42
:10124000803A81ED014A22EE804A81ED026A21EE68
:10125000001A81ED035A22EE002A81ED043A81ED55
:10126000054A81ED061A81ED072A01F12001ABD173
:1012700008B0BDEC048B01B0BDE8F08F9FED1F1AE4
:1012800020EE010A9FED1F2ABDEEC01AB5EEC00A7E
:10129000F1EE10FA11EE100AB8BF013801EE100A93
:1012A0000020B8EEC11A30EE410A9FED151A20EE6B
:1012B000010ABCEEC01A11EE101A30EE021AB0EBA1
:1012C000512F18BF002102EE101A4CF6806000FE6C
:1012D000010AC0F60000B8EE422A00EB810090ED52
:1012E000011A30EE420AB7EE002A32EE402A20EE12
:1012F000010A90ED001A02EE010A704783F9223EBE
:1013000000000044000000C470B504460D460026ED
:101310000CB1B61E0AE0C4EB4411054A02EB810091
:10132000294603F0C3FB08B16FF00306304670BDD9
:10133000407B012410B50446C4EB4411054A02EB7E
:10134000810003F0C6FB042801D0012010BD00205D
:10135000FCE70000407B012470B5044600250CB179
:10136000AD1E2FE0204600F031F8012802D06FF0CA
:10137000060527E0C4EB4411134A02EB810005F097
:1013800085F9FDB9C4EB44110F4A02EB810004F06A
:101390003DFA10B16FF0030514E0C4EB44110A4AA2
:1013A00002EB81004FF4804103F0DAF910B16FF0E5
:1013B000030507E0C4EB4411034A02EB810002215C
:1013C00003F042F9284670BD407B012401466FF0CE
:1013D000050209B19010704701221046FBE700009A
:1013E0002DE9F84304460E4617461D464FF0000807
:1013F000642005FB00F914B16FF001080EE0C4EBA6
:101400004411084A02EB81002B463A463146CDF89A
:10141000009003F0E3FD08B16FF003084046BDE81B
:10142000F8830000407B0124704700002DE9F84359
:1014300004460E4617461D464FF00008642005FB83
:1014400000F914B16FF001080EE0C4EB4411084A32
:1014500002EB81002B463A463146CDF8009003F06E
:10146000F5FE08B16FF003084046BDE8F8830000C0
:10147000407B0124704700BFFEE7704772B600BF93
:10148000FEE730B504460D4600222946204600F00E
:1014900001F830BDF0B50346012500241148807BDA
:1014A00002281CDA00200F4EB67B0E4FB855384686
:1014B000867B001D40F82630001F867B0C3082554D
:1014C0003E46B07B461CBE73044604F130000870F3
:1014D0003A2048702F2088700020C87000252846C8
:1014E000F0BD0000BC7B012410B5ADF5825D16494E
:1014F0001648FFF7C6FF012215A1164809F040F96A
:10150000154908700846007818B914A006F0D0F9FB
:1015100017E01F4806F0CCF94FF4805010AB0022C2
:10152000022100900AA008F0BDFD0B490870084692
:10153000007818B917A006F0BBF902E01E4806F0C3
:10154000B7F90DF5825D10BD0100002410C500083B
:10155000303A0000E88D0024000000240D0A5344B6
:10156000204361726420464154465320737973745A
:10157000656D206973206D6F756E74656420737579
:10158000636365737366756C6C79210D0A000000E6
:1015900034C6000853442063617264206973206676
:1015A0006F726D61747465642073756363657373C2
:1015B00066756C6C790D0A0024C5000870B5ADF530
:1015C000A45D00240025242247A10DF58660FEF7C6
:1015D000CAFE4E4806F06CF90A224DA10DF58B604B
:1015E00009F0F8F84F49087008460078002828D11B
:1015F0004DA006F05DF90DF2544324220DF58661ED
:10160000181D09F01EFB474908700846007840B9CC
:1016100055A006F04DF90DF586615FA006F048F97A
:101620000AE05FA006F044F90DF58B6008F0AAFC13
:1016300001200DF5A45D70BD0DF58B6008F0A2FCD6
:1016400008E0664806F034F90DF58B6008F09AFC66
:101650000120EEE762A006F02BF9242501222CA13F
:101660000DF58B6009F0B6F82E4908700DF2544361
:101670002A460CA9181D09F0ADF92A490870084638
:101680000078002820D164A006F012F9002411E0AF
:101690000DF58660005D0CA9095D884208D0694897
:1016A00006F006F90DF58B6008F06CFC0120C0E730
:1016B000601CC4B2AC42EBDB63A006F0F9F80CA9E5
:1016C00035A006F0F5F808E06CA006F0F1F80DF58D
:1016D0008B6008F057FC0120ABE70DF58B6008F03C
:1016E00051FC0020A5E7000053544D3332205344F1
:1016F00020436172642046696C6520537973746578
:101700006D2054657374205465787400F0C500082A
:10171000303A466174467320546573742E7478743D
:10172000000000000000002466696C65206F706591
:101730006E6564202F206372656174656420737523
:10174000636365737366756C6C792C207265616474
:101750007920746F20777269746520696E206461E6
:1017600074612E2E2E0D0A0066696C6520777269F1
:1017700074696E67207375636365656465642C20A6
:1017800074686520646174612077726F7465206984
:101790006E3A0D0A0000000025730D0A00000000DB
:1017A00066696C652077726974696E672066616925
:1017B0006C65642C20706C6561736520636865637B
:1017C0006B2053442063617264206F7220726566DF
:1017D0006F726D6174206974210D0A0068C500087C
:1017E0002D2D2D2D2D2D2D2D2D2D2D2D2D46617495
:1017F00046732066696C652072656164696E672056
:10180000746573742D2D2D2D2D2D2D2D2D2D2D2DFC
:101810002D2D2D0D0A00000066696C652072656132
:1018200064696E67207375636365656465642C2005
:10183000766572696679696E6720646174612E2EBF
:101840002E0D0A00ACC500086461746120766572D3
:10185000696669636174696F6E207375636365653A
:101860006465642C2074686520646174612072650D
:101870006164206F75743A0D0A00000066696C653A
:101880002072656164696E67206661696C65642CAD
:1018900020706C6561736520636865636B205344D9
:1018A0002063617264206F72207265666F726D6171
:1018B00074206974210D0A002DE9FC4100240025E3
:1018C00001AA69460EA008F06EFB0198C069801E4F
:1018D0000199498900FB01F701984089009900FBB3
:1018E00001F6FC0AF50A07A005F0E2FF214615A063
:1018F00005F0DEFF294618A005F0DAFFBDE8FC81FF
:10190000303A00002D2D2D2D2D2D2D2D2D2D2D2D51
:101910002D2D2D2D2D2D2D67657420646576696321
:101920006520766F6C756D6520696E666F2D2D2D47
:101930002D2D2D2D2D2D2D2D2D2D2D2D2D2D0D0A1A
:101940000000000053442063617061636974793A58
:101950002025644D420D0A0053442072656D616973
:101960006E696E672063617061636974793A2025DE
:10197000644D420D0A00000070B5044600F018F9ED
:1019800006462546681C10B104480078054400BF8F
:1019900000F00EF9801BA842FAD370BDC88D002458
:1019A000F8B502460B4600216D4DD2E001278F406D
:1019B0001E6806EA0704002C72D01E7906F00306A2
:1019C000012E04D01E7906F00306022E13D1906872
:1019D0004F000326BE40B0434F00DE68BE40304398
:1019E0009060506801268E40B0431E79C6F3001601
:1019F0008E40304350601E7906F00306032E09D056
:101A0000D0684F000326BE40B0434F009E68BE40E2
:101A10003043D0601E7906F00306022E13D1CF08A2
:101A200002F1200656F827004E07F70E0F26BE409B
:101A3000B0434F07FF0E1E69BE403043CF0802F18E
:101A4000200646F8270010684F000326BE40B0432A
:101A50001E7906F003064F00BE40304310605E68FA
:101A600006F44036002E73D000BF3E4E366846F076
:101A700002063C4F3E603E46366806F0020600967F
:101A800000BF00BF384E8F0856F827008E07370F6B
:101A90000F26BE40B043354EB24202D1002629E0A7
:101AA00056E0334EB24201D1012623E0314EB2421C
:101AB00001D102261EE0304EB24201D1032619E0C8
:101AC0002E4EB24201D1042614E02D4EB24201D175
:101AD00005260FE02B4EB24201D106260AE02A4E1F
:101AE000B24201D1072605E0284EB24201D10926B3
:101AF00000E00A268F073F0FBE4030431A4E8F0882
:101B000046F827004FF0B0463068A0435E6806F400
:101B1000801606B120434FF0B04630607068A04395
:101B20005E6806F4001606B120434FF0B0467060C0
:101B30006868A0435E6806F4003606B1204368601A
:101B40002868A0435E6806F4803606B1204328600A
:101B5000491C1E68CE40002E7FF428AFF8BD00005F
:101B600080000058F444025808040058000002584D
:101B70000004025800080258000C025800100258D5
:101B80000014025800180258001C02580024025881
:101B900010B5426921EA020302EA010443EA044360
:101BA000836110BD0AB1816101E00B04836170475C
:101BB0000148006870470000C08D00240348006899
:101BC000034909780844014908607047C08D002422
:101BD000C88D002410B5032000F0BCF802F06CF8AA
:101BE00010490968C1F303210F4A515C01F01F013C
:101BF00020FA01F40B48006800F00F001146085C61
:101C000000F01F0024FA00F008490860084804604A
:101C10000F2000F00FF808B1012010BD00F036F8D9
:101C20000020FAE718440258A8C00008D08D00240C
:101C3000CC8D002470B504461148007808B9012005
:101C400070BD0F4800784FF47A71B1FBF0F00D4988
:101C50000968B1FBF0F5284603F01AFC08B1012031
:101C6000EEE7102C07D200222146501E00F034F877
:101C70000548046001E00120E2E70020E0E7000001
:101C8000C88D0024CC8D0024C48D002408B500BF6D
:101C90000648006840F002000449086008460068F1
:101CA00000F00200009000BF00BF08BDF4440258DD
:101CB0000146084600280DDB00BF00BF00F01F03EF
:101CC00001229A4043099B0003F1E023C3F800215D
:101CD00000BF00BF00BF70472DE9F05F80460D4692
:101CE000164605F0F5FD074639462A46334601F00B
:101CF0000700C0F1070ABAF1040F02D94FF0040A35
:101D000001E0C0F1070AD14600F1040ABAF1070F59
:101D100002D24FF0000A01E0A0F1030AD4464FF0CE
:101D2000010A0AFA09FAAAF1010A0AEA020A0AFAF7
:101D30000CFA4FF0010B0BFA0CFBABF1010B0BEAA9
:101D4000030B4AEA0B042146404605F0C9FDBDE8F5
:101D5000F09F000000BF00F00702064B19684FF625
:101D6000FF031940044B0B4343EA0221014B196066
:101D700000BF70470CED00E00000FA0570B50446A6
:101D800015480068C0F3800048B91348006800F0A7
:101D90000700A04201D0012070BD0020FCE70E48E2
:101DA000006820F0070020430B490860FFF700FFA0
:101DB000054607E0FFF7FCFE401BB0F57A7F01D92E
:101DC0000120E9E7044808380068C0F340300028E3
:101DD000F0D00020E0E700000C48025810B501F0F8
:101DE00021FF05490968C1F30211044A515C01F061
:101DF0001F01C84010BD000020440258A8C00008C0
:101E000070B50146844D2D6805F00303824D2D68A1
:101E1000C5F30510804D2D1D2D6805F001047E4D84
:101E20000C352D68C5F3CC0515FB04F501EE105AF1
:101E3000B8EE411AF0EE410A00286FD023B1012B11
:101E40004ED0022B6BD16BE0734D283D2D68C5F34E
:101E500040153DB3704D283D2D68C5F3C1066F4D4B
:101E600025FA06F201EE102AF8EE411A01EE100AE8
:101E7000B8EE411A81EE812A9FED691AC0EE811AEF
:101E8000654D08352D68C5F3080501EE105AB8EE0A
:101E9000411A31EE811AF7EE001A31EE211A22EEC4
:101EA000010A1CE001EE100AB8EE411ADFED5D1ADE
:101EB00081EE812A9FED5A1AC0EE811A564D0835DF
:101EC0002D68C5F3080501EE105AB8EE411A31EE3F
:101ED000811AF7EE001A31EE211A22EE010A5BE0B8
:101EE00001EE100AB8EE411ADFED4F1A81EE812A99
:101EF0009FED4B1AC0EE811A474D08352D68C5F38A
:101F0000080501EE105AB8EE411A31EE811AF7EECB
:101F1000001A31EE211A22EE010A3DE077E01DE0C1
:101F200001EE100AB8EE411A9FED402AC2EE011AE6
:101F30009FED3B1A80EE812A374D08352D68C5F399
:101F4000080501EE105AB8EE411A32EE011AB7EE4A
:101F5000002A31EE021A21EE810A1DE001EE100A7C
:101F6000B8EE411ADFED2F1A81EE812A9FED2C1A6F
:101F7000C0EE811A284D08352D68C5F3080501EE1D
:101F8000105AB8EE411A31EE811AF7EE001A31EE0E
:101F9000211A22EE010A00BF00BF1F4D08352D682F
:101FA000C5F3462501EE105AB8EE411AF7EE001AB5
:101FB00031EE211AC0EE011ABCEEE11A81ED001AD1
:101FC000154D08352D68C5F3064501EE105AB8EEDB
:101FD000411AF7EE001A31EE211AC0EE011ABCEEDA
:101FE000E11A81ED011A0C4D08352D68C5F306651F
:101FF00001EE105AB8EE411AF7EE001A31EE211A2E
:10200000C0EE011ABCEEE11A81ED021A03E00025D0
:102010000D604D608D6070BD284402580090D00363
:10202000000000460024744C0024744A20BCBE4BBF
:1020300070B50146844D2D6805F00303824D2D686F
:10204000C5F30530804D2D1D2D68C5F300147E4D60
:1020500014352D68C5F3CC0515FB04F501EE105AB7
:10206000B8EE411AF0EE410A00286FD023B1012BDF
:102070004ED0022B6BD16BE0734D283D2D68C5F31C
:1020800040153DB3704D283D2D68C5F3C1066F4D19
:1020900025FA06F201EE102AF8EE411A01EE100AB6
:1020A000B8EE411A81EE812A9FED691AC0EE811ABD
:1020B000654D10352D68C5F3080501EE105AB8EED0
:1020C000411A31EE811AF7EE001A31EE211A22EE92
:1020D000010A1CE001EE100AB8EE411ADFED5D1AAC
:1020E00081EE812A9FED5A1AC0EE811A564D1035A5
:1020F0002D68C5F3080501EE105AB8EE411A31EE0D
:10210000811AF7EE001A31EE211A22EE010A5BE085
:1021100001EE100AB8EE411ADFED4F1A81EE812A66
:102120009FED4B1AC0EE811A474D10352D68C5F34F
:10213000080501EE105AB8EE411A31EE811AF7EE99
:10214000001A31EE211A22EE010A3DE077E01DE08F
:1021500001EE100AB8EE411A9FED402AC2EE011AB4
:102160009FED3B1A80EE812A374D10352D68C5F35F
:10217000080501EE105AB8EE411A32EE011AB7EE18
:10218000002A31EE021A21EE810A1DE001EE100A4A
:10219000B8EE411ADFED301A81EE812A9FED2C1A3C
:1021A000C0EE811A284D10352D68C5F3080501EEE3
:1021B000105AB8EE411A31EE811AF7EE001A31EEDC
:1021C000211A22EE010A00BF00BF1F4D10352D68F5
:1021D000C5F3462501EE105AB8EE411AF7EE001A83
:1021E00031EE211AC0EE011ABCEEE11A81ED001A9F
:1021F000154D10352D68C5F3064501EE105AB8EEA1
:10220000411AF7EE001A31EE211AC0EE011ABCEEA7
:10221000E11A81ED011A0C4D10352D68C5F30665E4
:1022200001EE105AB8EE411AF7EE001A31EE211AFB
:10223000C0EE011ABCEEE11A81ED021A03E000259E
:102240000D604D608D6070BD284402580090D00331
:10225000000000460024744C0024744A20BCBE4B8D
:1022600070B50146844D2D6805F00303824D2D683D
:10227000C5F30550804D2D1D2D68C5F300247E4DFE
:102280001C352D68C5F3CC0515FB04F501EE105A7D
:10229000B8EE411AF0EE410A00286FD023B1012BAD
:1022A0004ED0022B6BD16BE0734D283D2D68C5F3EA
:1022B00040153DB3704D283D2D68C5F3C1066F4DE7
:1022C00025FA06F201EE102AF8EE411A01EE100A84
:1022D000B8EE411A81EE812A9FED691AC0EE811A8B
:1022E000654D18352D68C5F3080501EE105AB8EE96
:1022F000411A31EE811AF7EE001A31EE211A22EE60
:10230000010A1CE001EE100AB8EE411ADFED5D1A79
:1023100081EE812A9FED5A1AC0EE811A564D18356A
:102320002D68C5F3080501EE105AB8EE411A31EEDA
:10233000811AF7EE001A31EE211A22EE010A5BE053
:1023400001EE100AB8EE411ADFED4F1A81EE812A34
:102350009FED4B1AC0EE811A474D18352D68C5F315
:10236000080501EE105AB8EE411A31EE811AF7EE67
:10237000001A31EE211A22EE010A3DE077E01DE05D
:1023800001EE100AB8EE411A9FED402AC2EE011A82
:102390009FED3B1A80EE812A374D18352D68C5F325
:1023A000080501EE105AB8EE411A32EE011AB7EEE6
:1023B000002A31EE021A21EE810A1DE001EE100A18
:1023C000B8EE411ADFED301A81EE812A9FED2C1A0A
:1023D000C0EE811A284D18352D68C5F3080501EEA9
:1023E000105AB8EE411A31EE811AF7EE001A31EEAA
:1023F000211A22EE010A00BF00BF1F4D18352D68BB
:10240000C5F3462501EE105AB8EE411AF7EE001A50
:1024100031EE211AC0EE011ABCEEE11A81ED001A6C
:10242000154D18352D68C5F3064501EE105AB8EE66
:10243000411AF7EE001A31EE211AC0EE011ABCEE75
:10244000E11A81ED011A0C4D18352D68C5F30665AA
:1024500001EE105AB8EE411AF7EE001A31EE211AC9
:10246000C0EE011ABCEEE11A81ED021A03E000256C
:102470000D604D608D6070BD284402580090D003FF
:10248000000000460024744C0024744A20BCBE4B5B
:102490002DE9F04389B006460F464FF4807186EA75
:1024A0000100384370D1F748006800F00709B9F11E
:1024B000050F65D2DFE809F0031221623000F14810
:1024C0005038006800F00070B0F1007F04D106A819
:1024D000FFF796FC079C00E0002453E0E9485038E1
:1024E000006800F00060B0F1006F04D103A8FFF7AE
:1024F0009FFD039C00E0002444E0E248503800685F
:1025000000F00050B0F1005F04D16846FFF7A8FE6C
:10251000009C00E0002435E0DA48001F006800F06D
:102520004055D8485038006800F00400042809D10C
:1025300045B9D44850380068C0F3C101D24820FAE8
:1025400001F41AE0CF485038006800F48070B0F50C
:10255000807F04D1B5F1805F01D1CC4C0DE0C9483A
:102560005038006800F40030B0F5003F04D1B5F1F8
:10257000005F01D1C64C00E0002403E0C54C01E03F
:10258000002400BF4BE3FFE74FF4806186EA0100BF
:1025900038437BD1BB480830006800F46009B9F5C6
:1025A000800F2CD006DCB9F1000F0AD0B9F5001F5E
:1025B00069D115E0B9F5C00F63D0B9F5000F62D14C
:1025C0002CE0B0485038006800F00070B0F1007F97
:1025D00004D106A8FFF714FC079C00E0002454E097
:1025E000A8485038006800F00060B0F1006F04D1D6
:1025F00003A8FFF71DFD039C00E0002445E0A1486F
:102600005038006800F00050B0F1005F04D1684617
:10261000FFF726FE009C00E0002436E09948001FEA
:10262000006800F0405597485038006800F00400FA
:10263000042809D145B9934850380068C0F3C10156
:10264000914820FA01F41BE08E485038006800F4ED
:102650008070B0F5807F04D1B5F1805F01D18B4CE3
:102660000EE088485038006800F40030B0F5003FB4
:1026700005D1B5F1005F02D1854C01E006E00024F0
:1026800003E0844C01E0002400BFC8E24FF4006185
:1026900086EA010038437BD17A480830006800F0B0
:1026A000E069B9F1007F2CD006DCB9F1000F0AD047
:1026B000B9F1807F69D115E0B9F1407F63D0B9F1FC
:1026C000806F62D12CE06F485038006800F00070D5
:1026D000B0F1007F04D106A8FFF792FB079C00E051
:1026E000002454E067485038006800F00060B0F102
:1026F000006F04D103A8FFF79BFC039C00E00024BB
:1027000045E060485038006800F00050B0F1005FCC
:1027100004D16846FFF7A4FD009C00E0002436E0E9
:102720005848001F006800F040555648503800686F
:1027300000F00400042809D145B952485038006817
:10274000C0F3C101504820FA01F41BE04D48503855
:10275000006800F48070B0F5807F04D1B5F1805F2F
:1027600001D14A4C0EE047485038006800F4003070
:10277000B0F5003F05D1B5F1005F02D1444C01E056
:1027800006E0002403E0434C01E0002400BF46E2E1
:102790004FF4805186EA0100384372D1394800680D
:1027A00000F4E048B8F5005F2CD006DCB8F1000F6B
:1027B0000AD0B8F5805F75D115E0B8F5405F6FD0ED
:1027C000B8F5804F6ED12CE02E485038006800F0EC
:1027D0000070B0F1007F04D106A8FFF711FB079C41
:1027E00000E0002460E027485038006800F00060F6
:1027F000B0F1006F04D103A8FFF71AFC039C00E0BE
:10280000002451E01F485038006800F00050B0F13B
:10281000005F04D16846FFF723FD009C00E0002420
:1028200042E01848001F006800F040551548503835
:10283000006800F00400042809D145B91148503857
:102840000068C0F3C101104820FA01F427E00D48E8
:102850005038006800F48070B0F5807F04D1B5F185
:10286000805F01D1094C1AE006485038006800F436
:102870000030B0F5003F11D1B5F1005F0ED1044C2E
:102880000DE012E0504402580090D00300093D00D2
:1028900040787D010080BB0004E001E0002403E0FB
:1028A000E14C01E0002400BFB9E14FF4005186EA99
:1028B0000100384367D1DD48006800F4E028B8F52E
:1028C000403F33D009DCB8F1000F0DD0B8F5803FA0
:1028D0000ED0B8F5003F53D119E0B8F5802F37D0AE
:1028E000B8F5A02F4CD13FE001F0C2F9044649E011
:1028F000CE485038006800F00060B0F1006F04D19D
:1029000003A8FFF795FB049C00E000243AE0C748C9
:102910005038006800F00050B0F1005F04D1684604
:10292000FFF79EFC019C00E000242BE0BF485038DC
:10293000006800F00400042808D1BC485038006842
:10294000C0F3C101BA4820FA01F400E0002419E004
:10295000B6485038006800F48070B0F5807F01D12F
:10296000B44C00E000240DE0B0485038006800F49A
:102970000030B0F5003F01D1AF4C00E0002401E091
:10298000002400BF4BE14FF4002186EA01003843E8
:1029900061D1A6480830006800F44038B8F1000F53
:1029A00006D0B8F5803F12D0B8F5003F50D11DE0F9
:1029B0009E485038006800F00060B0F1006F04D10C
:1029C00003A8FFF735FB039C00E0002442E0974892
:1029D0005038006800F00050B0F1005F04D1684644
:1029E000FFF73EFC029C00E0002433E08F48001F0C
:1029F000006800F040558D485038006800F0040031
:102A0000042809D145B9894850380068C0F3C1018C
:102A1000874820FA01F41AE084485038006800F42E
:102A20008070B0F5807F04D1B5F1805F01D1814C19
:102A30000DE07E485038006800F40030B0F5003FEB
:102A400004D1B5F1005F01D17B4C00E0002401E02E
:102A5000002400BFE3E04FF4803186EA01003843F0
:102A60002CD17248001F006800F48038B8F1000FC4
:102A700003D0B8F5803F1ED10EE06C485038006896
:102A800000F00070B0F1007F04D106A8FFF7B8F99C
:102A9000079C00E0002410E064485038006800F013
:102AA0000060B0F1006F04D103A8FFF7C1FA059CE4
:102AB00000E0002401E0002400BFB0E04FF48041BA
:102AC00086EA0100384368D158480830006800F0B1
:102AD000E048B8F1405F33D009DCB8F1000F0DD009
:102AE000B8F1805F0ED0B8F1005F53D119E0B8F1B2
:102AF000804F37D0B8F1A04F4CD13FE0FFF76EF9CF
:102B0000044649E049485038006800F00060B0F1E0
:102B1000006F04D103A8FFF78BFA049C00E00024A7
:102B20003AE042485038006800F00050B0F1005FD1
:102B300004D16846FFF794FB019C00E000242BE0E1
:102B40003A485038006800F00400042808D137489B
:102B500050380068C0F3C101354820FA01F400E0A4
:102B6000002419E031485038006800F48070B0F556
:102B7000807F01D12F4C00E000240DE02B4850381D
:102B8000006800F40030B0F5003F01D12A4C00E0AD
:102B9000002401E0002400BF41E04FF4004186EA38
:102BA000010038433AD12148006800F04058B8F19C
:102BB000000F06D0B8F1805F0FD0B8F1005F2AD1C6
:102BC0001AE01A485038006800F40030B0F5003FB1
:102BD00001D1194C00E000241FE01448503800686F
:102BE00000F00070B0F1007F04D106A8FFF708F9EB
:102BF000079C00E0002410E00C485038006800F00A
:102C00000060B0F1006F04D103A8FFF711FA049C33
:102C100000E0002401E0002400BF00E00024204682
:102C200009B0BDE8F08300000080BB0050440258AA
:102C30000090D00300093D0040787D012DE9F0416E
:102C400004460025A8464FF00062D4E90010114068
:102C50000020134659404040014331D1606E48B1D5
:102C6000B0F5801F0DD0B0F5001F11D0B0F5401F9A
:102C700016D114E0FE48006840F40030FC490860BA
:102C800010E0022104F1080002F0E0FD054609E031
:102C9000022104F1280002F08BFE054602E001E06B
:102CA000012500BF00BF55B9F1482430006820F469
:102CB0004010616E0843EE492431086000E0A846E8
:102CC0004FF48072D4E9001011400020134659409F
:102CD000404001432ED1A06D05281BD2DFE800F053
:102CE000030A11181900E248006840F40030E04976
:102CF000086011E0002104F1080002F0A7FD05467C
:102D00000AE0002104F1280002F052FE054603E02B
:102D100002E001E0012500BF00BF55B9D4482430CE
:102D2000006820F00700A16D0843D14924310860F4
:102D300000E0A8464FF48062D4E900101140002062
:102D400013465940404001433DD1D4F8A400B0F5AA
:102D5000C00F24D007DC68B1B0F5001F11D0B0F56A
:102D6000800F1FD114E0B0F5000F19D0B0F5200F7F
:102D700018D116E0BE48006840F40030BC49086035
:102D800012E0002104F1080002F060FD05460BE0AE
:102D9000002104F1280002F00BFE054604E003E0E8
:102DA00002E001E0012500BF00BF5DB9B0482C3052
:102DB000006820F46000D4F8A4100843AC492C311A
:102DC000086000E0A8464FF40062D4E9000110401A
:102DD000002113465840494008433DD1D4F8A8008B
:102DE000B0F1407F24D007DC68B1B0F1807F11D012
:102DF000B0F1007F1FD114E0B0F1806F19D0B0F1B5
:102E0000A06F18D116E09A48006840F40030984945
:102E1000086012E0002104F1080002F017FD0546E9
:102E20000BE0002104F1280002F0C2FD054604E099
:102E300003E002E001E0012500BF00BF5DB98C485E
:102E40002C30006820F0E060D4F8A81008438849CE
:102E50002C31086000E0A8464FF00073D4E9001060
:102E60001940002059404040014328D1E06CA8B1EE
:102E7000102804D0202809D0302810D10DE07C483B
:102E8000006840F400307A4908600AE0022104F149
:102E9000080002F0DBFC054603E002E001E001254A
:102EA00000BF00BF55B972482030006820F03000E4
:102EB000E16C08436E492031086000E0A8464FF4F9
:102EC0008053D4E90010194000205940404001438C
:102ED00037D1E06DB0F5005F1AD004DC50B1B0F529
:102EE000805F1ED10DE0B0F5405F18D0B0F5804F87
:102EF00017D115E05E48006840F400305C49086076
:102F000011E0002104F1080002F0A0FC05460AE0EF
:102F1000002104F1280002F04BFD054603E002E029
:102F200001E0012500BF00BF55B9514824300068B9
:102F300020F4E040E16D08434D492431086000E091
:102F4000A8464FF40053D4E900101940002059401E
:102F50004040014335D1206EB0F5403F1ED007DC24
:102F600068B1B0F5803F0BD0B0F5003F19D10EE04D
:102F7000B0F5802F13D0B0F5A02F12D110E012E0E1
:102F8000012104F1080002F061FC05460BE001217B
:102F900004F1280002F00CFD054604E003E002E025
:102FA00001E0012500BF00BF55B931482430006859
:102FB00020F4E020216E08432D492431086000E010
:102FC000A8464FF48042D4E9000110400021134686
:102FD00058404940084337D1D4F8AC00B0F1405FC5
:102FE0001ED007DC68B1B0F1805F0BD0B0F1005F9C
:102FF00019D10EE0B0F1804F13D0B0F1A04F12D133
:1030000010E012E0012104F1080002F01FFC054667
:103010000BE0012104F1280002F0CAFC054604E09F
:1030200003E002E001E0012500BF00BF5DB91048E8
:103030002C30006820F0E040D4F8AC1008430C4974
:103040002C31086000E0A8464FF40043D4E90001A9
:10305000184000215840494008432AD1E06EB8B1D9
:10306000B0F1805F06D0B0F1005F12D109E000003E
:103070002C440258F948006840F40030F7490860D1
:1030800009E0012104F1080002F0E0FB054602E03E
:1030900001E0012500BF00BF55B9F04824300068A9
:1030A00020F04050E16E0843EC492431086000E014
:1030B000A8464FF08073D4E9001019400020594011
:1030C0004040014328D1A06CA8B1012804D00228B7
:1030D00009D0032810D10DE0E048006840F400302A
:1030E000DE4908600AE0022104F1080002F0AEFBAC
:1030F000054603E002E001E0012500BF00BF55B92D
:10310000D6482030006820F00300A16C0843D34962
:103110002031086000E0A8464FF48003D4E9001095
:10312000194000205940404001437DD1CC480068FF
:1031300040F48070CA490860FEF73AFD064606E092
:10314000FEF736FD801B642801D9032505E0C4483D
:10315000006800F480700028F2D000BF85BBBF4833
:103160004430006800F44070B4F8B01001F44071CD
:10317000884213D0B9484430006820F44077B748FB
:103180004430006840F48030B44944310860084657
:10319000006820F48030086008460760D4F8B0006A
:1031A000B0F5807F15D1FEF703FD064609E0FEF776
:1031B000FFFC801B41F28831884202D9032507E0D9
:1031C00038E0A64844300068C0F340000028EED044
:1031D00000BF55BB00BFB4F8B00000F44070B0F5BC
:1031E000407F0ED19D481C38006820F47C519D4AD8
:1031F000D4F8B000104041EA101098491C3908601A
:1032000007E096481C38006820F47C5093491C392C
:103210000860924844300068B4F8B010C1F30B0164
:1032200008438E49443101E005E001E0086002E016
:10323000A84600E0A8460122D4E900011040002180
:10324000134658404940084330D1A06F18281AD07F
:1032500005DC48B1082808D0102817D10CE0202838
:1032600012D0282812D110E012E0012104F1080048
:1032700002F0ECFA05460BE0012104F1280002F00F
:1032800097FB054604E003E002E001E0012500BFF2
:1032900000BF55B971482830006820F03800A16F90
:1032A00008436E492831086000E0A8460223D4E9AB
:1032B00000101940002059404040014329D1606F5F
:1032C000062816D2DFE800F003040B12131412E0F4
:1032D000012104F1080002F0B9FA05460BE00121D2
:1032E00004F1280002F064FB054604E003E002E07C
:1032F00001E0012500BF00BF55B9584828300068DB
:1033000020F00700616F084354492831086000E04D
:10331000A8460422D4E90010114000201346594069
:10332000404001432BD1D4F89000062816D2DFE8A4
:1033300000F003040B12131412E0012104F1080041
:1033400002F084FA05460BE0012104F1280002F0A6
:103350002FFB054604E003E002E001E0012500BF89
:1033600000BF5DB93D482C30006820F00700D4F85C
:103370009010084339492C31086000E0A84620230A
:10338000D4E900011840002158404940084337D192
:10339000D4F88C00B0F1405F1ED007DC68B1B0F10A
:1033A000805F0BD0B0F1005F19D10EE0B0F1804F1B
:1033B00013D0B0F1A04F12D110E012E0002104F1BF
:1033C000080002F043FA05460BE0022104F1280050
:1033D00002F0EEFA054604E003E002E001E0012518
:1033E00000BF00BF5DB91D482830006820F0E040F4
:1033F000D4F88C10084319492831086000E0A84629
:103400004023D4E9001019400020594040400143B6
:103410003CD1D4F89800B0F5406F25D007DC68B1F6
:10342000B0F5806F0BD0B0F5006F20D10EE0B0F595
:10343000805F1AD0B0F5A05F19D117E019E0002124
:1034400004F1080002F002FA054612E0022104F13C
:10345000280002F0ADFA05460BE000002C440258AB
:1034600000480258FFFCFF0F03E002E001E00125E5
:1034700000BF00BF4DB9FE48006820F4E050D4F80A
:1034800098100843FA49086000E0A8468023D4E970
:1034900000101940002059404040014335D1D4F874
:1034A0009C00B0F5C04F1ED007DC68B1B0F5005FDE
:1034B0000BD0B0F5804F19D10EE0B0F5004F13D00E
:1034C000B0F5204F12D110E012E0002104F1080005
:1034D00002F0BCF905460BE0022104F1280002F0DD
:1034E00067FA054604E003E002E001E0012500BFC1
:1034F00000BF4DB9DE48006820F46040D4F89C104D
:103500000843DB49086000E0A8460823D4E900012D
:103510001840002158404940084317D1D4F8800092
:10352000B0F5805F07D1022104F1280002F040FAD3
:1035300008B14FF00108CE48001F006820F4405049
:10354000D4F880100843CA49091F08601023D4E941
:1035500000011840002158404940084315D1D4F8D3
:103560009400B0F5807F07D1022104F1280002F019
:103570001FFA08B14FF00108BD48006820F4407000
:10358000D4F894100843BA4908604FF40023D4E9F2
:1035900000011840002158404940084327D1D4F881
:1035A000A00030B1B0F5803F0AD0B0F5003F0FD198
:1035B0000DE0002104F1080002F048F9054609E099
:1035C000022104F1280002F0F3F9054602E001E0CF
:1035D000012500BF00BF4DB9A548006820F4403068
:1035E000D4F8A0100843A249086000E0A8464FF4B0
:1035F0008023D4E900011840002158404940084385
:103600002DD1D4F88400B0F5801F06D0B0F5001F8E
:103610000CD0B0F5401F11D10FE095482C38006850
:1036200040F4003092492C39086009E0012104F18E
:10363000280002F0BDF9054602E001E0012500BFC7
:1036400000BF5DB98A48001F006820F44010D4F81C
:10365000841008438649091F086000E0A8464FF41B
:103660008032D4E9000110400021134658404940FF
:10367000084325D1206D18B1B0F5803F10D108E086
:103680007B482C38006840F4003079492C390860B8
:1036900008E0022104F1080002F0D8F8054601E034
:1036A000012500BF00BF55B971480C38006820F4EF
:1036B0008030216D08436E490C39086000E0A8464F
:1036C0004FF00053D4E90010194000205940404009
:1036D000014307D1022104F1280002F069F908B181
:1036E0004FF001084FF40032D4E9000110400021EE
:1036F000134658404940084327D1E06FA0B1B0F5C8
:10370000807F06D0B0F5007F0CD0B0F5407F0CD1A3
:1037100009E057482C38006840F4003054492C39EF
:10372000086004E003E002E001E0012500BF00BF03
:1037300055B94F48001F006820F44070E16F0843FE
:103740004B49091F086000E0A8464FF48012D4E9F5
:10375000001011400020134659404040014309D158
:1037600043480838006820F00040216F0843404972
:10377000083908604FF40013D4E900011840002113
:1037800058404940084309D139480838006820F0BA
:103790008070A16E08433649083908604FF08043B5
:1037A000D4E900101940002059404040014311D194
:1037B00000BF2F484838006820F400402C494839A1
:1037C000086008460068D4F8B4100843284948390E
:1037D000086000BF4FF00042D4E900011040002112
:1037E000134658404940084309D121480C38006825
:1037F00020F04050616D08431D490C3908604FF4BA
:103800000002D4E900101140002013465940404006
:1038100001430AD11648001F006820F44000D4F884
:10382000881008431249091F0860012200216068BE
:10383000104049405040014306D104F1080002F015
:1038400005F8054605B1A84602220021606810402F
:1038500049405040014307D1012104F1080001F023
:10386000F5FF054605B1A84604230020616801E084
:10387000584402581940042240405140084307D19F
:10388000022104F1080001F0E1FF054605B1A84658
:103890000823002061681940082240405140084335
:1038A00007D1002104F1280002F082F8054605B195
:1038B000A846102300206168194010224040514062
:1038C000084307D1012104F1280002F071F80546F0
:1038D00005B1A846202200216068104049405040B0
:1038E000014307D1022104F1280002F061F80546E6
:1038F00005B1A846B8F1000F02D10020BDE8F08163
:103900000120FBE72DE9F04104460D4614B90120E2
:10391000BDE8F081BD48006800F00F00A8420ED25B
:10392000BA48006820F00F002843B84908600846EC
:10393000006800F00F00A84201D00120E8E72078DD
:1039400000F0040004280ED1B1492069096801F093
:103950007001884207D9AE48006820F070002169E4
:103960000843AB490860207800F00800082811D10E
:10397000A749091D6069096801F07001884209D9E9
:10398000A348001D006820F0700061690843A04949
:10399000091D0860207800F01000102811D19C4902
:1039A000091DA069096801F4E061884209D99848B5
:1039B000001D006820F4E060A16908439449091DD6
:1039C0000860207800F02000202811D190490831AB
:1039D000E069096801F07001884209D98C48083013
:1039E000006820F07000E1690843894908310860E7
:1039F000207800F0020002280ED18549E0680968AD
:103A000001F00F01884207D98148006820F00F00BB
:103A1000E16808437E490860207800F00100002832
:103A200050D07B48006820F47060A1680843784952
:103A300008606068022807D1754818380068C0F32C
:103A40004040F8B9012063E76068032807D1704857
:103A500018380068C0F34060A0B9012058E76068DA
:103A6000012807D16A4818380068C0F3002048B917
:103A700001204DE7664818380068C0F3800008B997
:103A8000012045E762480838006820F007006168B7
:103A900008435F4908390860FEF78AF8064608E0DF
:103AA000FEF786F8801B41F28831884201D9032055
:103AB0002EE757480838006800F038006168B0EB1E
:103AC000C10FEDD1207800F0020002280ED150493C
:103AD000E068096801F00F01884207D24C4800688D
:103AE00020F00F00E1680843494908604748006832
:103AF00000F00F00A8420ED94448006820F00F00E3
:103B00002843424908600846006800F00F00A842B8
:103B100001D00120FCE6207800F0040004280ED13A
:103B20003B492069096801F07001884207D2384892
:103B3000006820F07000216908433549086020784A
:103B400000F00800082811D13149091D6069096891
:103B500001F07001884209D22D48001D006820F054
:103B60007000616908432A49091D0860207800F047
:103B70001000102811D12649091DA069096801F417
:103B8000E061884209D22248001D006820F4E0600C
:103B9000A16908431E49091D0860207800F0200033
:103BA000202811D11A490831E069096801F0700133
:103BB000884209D216480830006820F07000E16998
:103BC000084313490831086000F076F81049096885
:103BD000C1F303210F4A515C01F01F0120FA01F7E4
:103BE0000B48006800F00F001146085C00F01F0051
:103BF00027FA00F00849086008480760084800688C
:103C0000FEF718F88046404682E600000020005289
:103C100018440258A8C00008D08D0024CC8D002480
:103C2000C48D002410B500F047F80D490968C1F3B0
:103C300003210C4A515C01F01F0120FA01F40848ED
:103C4000006800F00F001146085C00F01F0024FA25
:103C500000F005490860054804600846006810BD8A
:103C600018440258A8C00008D08D0024CC8D002430
:103C700000B5FFF7D7FF05490968C1F30211044AEF
:103C8000515C01F01F01C84000BD00001C440258F7
:103C9000A8C0000800B5FFF7C5FF05490968C1F3D2
:103CA0000221044A515C01F01F01C84000BD000020
:103CB0001C440258A8C00008F0B5824E366806F0D1
:103CC000380636B1082E15D0102E15D0182E7DD1FD
:103CD00014E07C4E103E3668C6F3401646B1794E6D
:103CE000103E3668C6F3C107774E26FA07F000E0AB
:103CF0007548E5E07548E3E07548E1E0714E183637
:103D0000366806F003046F4E18363668C6F30511A0
:103D10006C4E1C36366806F001056A4E243636684D
:103D2000C6F3CC0616FB05F601EE106AB8EE410AA2
:103D3000002971D024B1012C50D0022C6DD16DE03E
:103D4000604E103E3668C6F340163EB35D4E103EE0
:103D50003668C6F3C1075C4E26FA07F301EE103A47
:103D6000F8EE411A01EE101AB8EE411A81EE812ADE
:103D70009FED581AC0EE011A524E20363668C6F32F
:103D8000080601EE106AB8EE411A31EE811AF7EE1C
:103D9000001A31EE211A62EE010A1EE001EE101A3D
:103DA000B8EE411ADFED4C1A81EE812A9FED491AD7
:103DB000C0EE011A434E20363668C6F3080601EEFF
:103DC000106AB8EE411A31EE811A00E076E0F7EEA3
:103DD000001A31EE211A62EE010A5BE001EE101AC0
:103DE000B8EE411A9FED3D2AC2EE011A9FED391A35
:103DF00080EE012A334E20363668C6F3080601EEFF
:103E0000106AB8EE411A32EE011AB7EE002A31EE0E
:103E1000021A61EE810A3DE04EE01DE001EE101A4B
:103E2000B8EE411ADFED2E1A81EE812A9FED291A94
:103E3000C0EE011A234E20363668C6F3080601EE9E
:103E4000106AB8EE411A31EE811AF7EE001A31EE1F
:103E5000211A62EE010A1DE001EE101AB8EE411AB5
:103E60009FED1E2AC2EE011A9FED1A1A80EE012A5A
:103E7000144E20363668C6F3080601EE106AB8EE16
:103E8000411A32EE011AB7EE002A31EE021A61EE43
:103E9000810A00BF00BF0B4E20363668C6F34626A7
:103EA000721C01EE102AB8EE411AC0EE811ABCEE67
:103EB000E11A11EE100A00E0002001E0034800BF03
:103EC00000BFF0BD104402580090D00300093D002F
:103ED00040787D01000000460024744C0024744AA0
:103EE00020BCBE4B2DE9F047044614B90120BDE8C3
:103EF000F087207800F00100002870D0F9480068B1
:103F000000F03808F7481830D0F80090B8F1100FDA
:103F100006D0B8F1180F0FD109F0030002280BD119
:103F2000F04810380068C0F3404000286AD060684C
:103F3000002867D10120DAE700BF6068B0F5803F54
:103F400008D1E8481038006840F48030E54910395D
:103F500008602EE0606868B9E2481038006820F414
:103F60008030E049103908600846006820F480205D
:103F700008601EE06068B0F5A02F0DD1D948103858
:103F8000006840F48020D74910390860084600686E
:103F900040F4803008600CE0D2481038006820F40B
:103FA0008030D049103908600846006820F480202D
:103FB000086000BF606898B1FDF7FAFD054606E0AD
:103FC000FDF7F6FD401B642801D903208FE7C548A3
:103FD00010380068C0F340400028F1D012E012E031
:103FE000FDF7E6FD054606E0FDF7E2FD401B64280F
:103FF00001D903207BE7BB4810380068C0F340407C
:104000000028F1D100BF207800F00200022879D109
:10401000B448006800F03808B2481830D0F8009072
:10402000B8F1000F05D0B8F1180F35D109F0030031
:1040300088BBAC4810380068C0F3800018B1E06855
:1040400008B9012053E7A7481038006820F019008C
:10405000E1680843A34910390860FDF7A9FD05464A
:1040600006E0FDF7A5FD401B022801D903203EE72D
:104070009C4810380068C0F380000028F1D09948AF
:104080000C38006820F0FE40217C40EA0160954930
:104090000C39086045E0FFE7E06838B39148103814
:1040A000006820F01900E16808438E491039086063
:1040B000FDF77EFD054606E0FDF77AFD401B022870
:1040C00001D9032013E7874810380068C0F3800047
:1040D0000028F1D083480C38006820F0FE40217C95
:1040E00040EA01607F490C3908601AE07D481038C9
:1040F000006820F001007B4910390860FDF758FD89
:10410000054607E00EE0FDF753FD401B022801D9EC
:104110000320ECE6734810380068C0F380000028E4
:10412000F1D100BF207800F0100010286FD16D4849
:10413000006800F038086B481830D0F80090B8F1EB
:10414000080F06D0B8F1180F1CD109F003000128A0
:1041500018D1644810380068C0F3002020B1E0692D
:10416000802801D00120C2E600BF5E48001F006821
:1041700020F07C5094F8201040EA01605949091F52
:10418000086043E0E06938B356481038006840F0F2
:104190008000544910390860FDF70AFD054606E025
:1041A000FDF706FD401B022801D903209FE64D487C
:1041B00010380068C0F300200028F1D000BF494843
:1041C000001F006820F07C5094F8201040EA016045
:1041D0004449091F086019E042481038006820F07F
:1041E0008000404910390860FDF7E2FC054606E012
:1041F000FDF7DEFC401B022801D9032077E6394891
:1042000010380068C0F300200028F1D100BF2078EA
:1042100000F00800082836D16069D0B13148643018
:10422000006840F001002F4964310860FDF7C0FCD0
:10423000054606E0FDF7BCFC401B022801D903201F
:1042400055E6284864300068C0F340000028F1D0EB
:1042500019E024486430006820F0010021496431ED
:104260000860FDF7A5FC054606E0FDF7A1FC401B34
:10427000022801D903203AE61A4864300068C0F3E6
:1042800040000028F1D1207800F02000202838D10B
:10429000A069D0B113481038006840F4805011492B
:1042A00010390860FDF784FC054606E0FDF780FC48
:1042B000401B022801D9032019E60A48103800687B
:1042C000C0F340300028F1D01BE0064810380068E9
:1042D00020F48050034910390860FDF769FC054659
:1042E00009E0000010440258FDF762FC401B022860
:1042F00001D90320FBE5D0480068C0F34030002816
:10430000F2D1207800F0040004287DD1CB48006869
:1043100040F48070C9490860FDF74AFC054606E094
:10432000FDF746FC401B642801D90320DFE5C348A4
:10433000006800F480700028F2D000BFA068012857
:1043400008D1BD487030006840F00100BA497031B2
:1043500008602DE0A06868B9B7487030006820F0A8
:104360000100B549703108600846006820F004007B
:1043700008601DE0A06805280DD1AF4870300068C6
:1043800040F00400AC49703108600846006840F015
:10439000010008600CE0A8487030006820F00100BF
:1043A000A549703108600846006820F004000860E4
:1043B00000BFA068A0B1FDF7FBFB054608E0FDF7D4
:1043C000F7FB401B41F28831884201D903208EE57A
:1043D000994870300068C0F340000028EFD013E027
:1043E000FDF7E6FB054608E0FDF7E2FB401B41F266
:1043F0008831884201D9032079E58F487030006800
:10440000C0F340000028EFD1606A00287DD08A48C0
:104410001030006800F03800182877D0606A022851
:1044200075D18548006820F0807083490860FDF7E9
:10443000BFFB054606E0FDF7BBFB401B022801D988
:10444000032054E57C480068C0F340600028F2D1A6
:1044500000BFD4E90A1041EA001077492831096801
:1044600040F2F33291430843734928310860208EAB
:10447000401EC0F30800616B491E4FF47E4202EA01
:1044800041210843218F491ED20102EA014108431C
:104490003C21095D491E120202EA01610843664996
:1044A0003031086000BF081F006820F00100091FBC
:1044B00008606148343000684FF6F8718843A16C99
:1044C00040EAC1005C49343108605B482C30006828
:1044D00020F00C00216C084357492C310860084635
:1044E000006820F00200616C084353492C310860D9
:1044F0000846006840F4803008600846006840F4D0
:10450000003008600846006802E092E038E01FE0F2
:1045100040F4802008600846006840F00100086010
:104520004548006840F0807043490860FDF740FB53
:10453000054606E0FDF73CFB401B022801D903209D
:10454000D5E43D480068C0F340600028F2D070E038
:104550003948006820F0807037490860FDF728FB73
:10456000054606E0FDF724FB401B022801D9032085
:10457000BDE431480068C0F340600028F2D158E043
:104580002D48283007682C4830300668606A0128BA
:1045900021D007F00301A06A81421CD1C7F30511A5
:1045A000E06A884217D1C6F30801206B401E8142A1
:1045B00011D1606B401EC6F3462188420BD1A06B1F
:1045C000401EC6F30641884205D1E06B401EC6F38B
:1045D0000661884201D0012089E417483430006820
:1045E000C0F3CC07A06CB84223D013482C3000682D
:1045F00020F0010010492C310860FDF7D9FA05467A
:1046000000BFFDF7D5FA401BFBD00B4834300068E3
:104610004FF6F8718843A16C40EAC1000649343175
:10462000086005482C30006840F0010002492C3138
:10463000086000205BE40000004402580048025873
:1046400070477047704770472DE9F04104460F46A8
:104650004FF00008032084F8300037B1012F39D023
:10466000022F19D0032F42D142E0A06DB0F5007F98
:1046700006D0A06DB0F5807F02D0A06B01280AD1D2
:104680003549204602F0A2F928B1606B40F0805015
:1046900060634FF0010832E0A06DB0F5007F06D0F6
:1046A000A06DB0F5807F02D0A06B01280BD12A4904
:1046B000204602F08BF960B1606B40F0805060637F
:1046C0004FF0010805E0606B40F0805060634FF0F0
:1046D000010814E02049491E204602F077F928B16C
:1046E000606B40F0805060634FF0010807E000BF4E
:1046F000606B40F0006060634FF0010800BF00BFD6
:10470000FDF756FA06460DE0FDF752FA801B401CF5
:1047100040B94FF000406063012084F8300003206E
:10472000BDE8F081204600F0D4F90428ECD14FF424
:104730000071206801F02AFA05463DB1074821685A
:104740008863606B284360634FF00108012084F8A0
:1047500030004046E4E7000001FFFF80FF0FE01F4C
:104760002DE9F04188B004460F464FF000080320C1
:1047700084F83000A06B032820D0B7F5004F04D197
:10478000606B40F0805060631CE0B7F5804F07D14C
:10479000204602F0E5F90646606B3043606311E0A5
:1047A0003FB9204602F0A8F90646606B30436063CB
:1047B00008E0606B40F00060606303E0606B40F015
:1047C00080506063606B28B14248216888634FF075
:1047D000010869E04FF480300021FDF759FE0546DD
:1047E000002D5BD060680390A06804900597206955
:1047F00006903948B5FBF0F16069814202D86069E2
:10480000079041E0A06DB0F5007F02D1606907908C
:104810003AE0A06DB0F5807F1BD1606950B92E4899
:10482000854204D94000B5FBF0F007902CE06069A8
:10483000079029E060694000B5FBF0F02649884206
:1048400004D94800B5FBF0F007901DE060690790BF
:104850001AE0606950B92148854204D94000B5FB8F
:10486000F0F0079010E0606907900DE0606940008B
:10487000B5FBF0F01949884204D94800B5FBF0F0C7
:10488000079001E060690790DDE90601CDE90001CC
:10489000206803A90EC901F07DFD05E0606B40F0C2
:1048A000006060634FF001084FF40071206801F070
:1048B0006DF906463EB1074821688863606B304356
:1048C00060634FF00108012084F83000404608B0D2
:1048D000BDE8F081FF0FE01F80F0FA0240787D0113
:1048E0007047000010B50246D06D800F0870D06D83
:1048F000C0F383604870D06DC0F301608870D06DE4
:10490000000CC870B2F85C00000A087192F85C00F4
:104910004871106E000DC880106EC0F3034008721D
:104920006020805AC0F3C03048726020805AC0F3C3
:10493000803088726020805AC0F34030C872602096
:10494000805AC0F30030087300204873906B002831
:1049500036D16020805A8005030D506E43EA907076
:104960000861506EC0F3C2600875506EC0F30260FB
:104970004875506EC0F342508875506EC0F3824047
:10498000C875506EC0F3C23008760869401C906448
:104990000B7E906C03F007039B1C01249C4060433A
:1049A0009064087A00F00F0301209840D064D2E9A7
:1049B00012035B0A584310654FF40073536521E0FE
:1049C000906B012813D16020805C8006830A506EB2
:1049D00043EA104008610869401C83029364936CA9
:1049E00013654FF40073D364D36C53650AE02E480B
:1049F00013689863506B40F080505063012082F838
:104A0000300010BD6420805AC0F3803001F8190FC7
:104A10006420805AC0F3C61048706420805C00F0A7
:104A20007F008870906EC00FC870906EC0F34170A8
:104A30000871906EC0F382604871906EC0F383502D
:104A40008871906EC0F34050C87100200872906E5B
:104A5000C0F3004048726820805AC0F3C0308872AA
:104A60006820805AC0F38030C8726820805AC0F332
:104A7000403008736820805AC0F3003048736820C3
:104A8000805AC0F3812088736820805AC0F30120C7
:104A9000C8736820805CC0F3460008740120487425
:104AA00019390020ADE70000FF0FE01F0246906BB0
:104AB0000860D06B4860106C8860506CC860906C67
:104AC0000861D06C4861106D8861506DC86100202C
:104AD0007047F8B50446002000906946204601F072
:104AE0005DFF054615B1606B284360630098C0F315
:104AF00043263046F8BD0000F0B591B005460C469F
:104B0000002795F83000032802D1012011B0F0BD34
:104B100001A9284601F0A8FE064656B12F4829688B
:104B20008863686B30436863012085F83000012793
:104B300043E00198C0F3811020700198C0F3401049
:104B40006070019800F47F00000A019940EA11604A
:104B5000608002980006029901F47F4140EA01203A
:104B6000029901F47F0140EA1120029940EA1160A4
:104B70006060039820720398000A60720398C0F383
:104B80000350A0720498C0B2039901F07F4140EA3B
:104B90001140A0810498C0F38520A0730498C0F34D
:104BA0000120E0730498C0F303102074049800F00F
:104BB0000F0060740598000EA0744FF4007128680F
:104BC00000F0E4FF06463EB10448296888636E633E
:104BD000012085F830000127384697E7FF0FE01FD6
:104BE00070B50446E56A2068406BC0F3C03030B150
:104BF00005F0080018B1204601F014FE26E12068F7
:104C0000406BC0F30020002876D04FF480702168FC
:104C100088632068C06B4CF23A1188432168C863EE
:104C20002068C06B20F080502168C8632068C0688D
:104C300020F040002168C86005F0080030B305F09E
:104C4000020010B905F0200050B1206801F006F90B
:104C500006462EB1606B304360632046FFF740FE8E
:104C60007B4821688863012084F830000020E062DE
:104C700005F0010010B905F0020018B1204600F05F
:104C8000C9FAE3E0204600F0D3FADFE005F0800047
:104C90000028B3D00020216888622168C86221689A
:104CA000086505F0020010B905F0200050B1206839
:104CB00001F0D4F806462EB1606B304360632046A5
:104CC000FFF70EFE012084F830000020E06205F0BE
:104CD000100010B905F0200010B1204600F0A8FA2D
:104CE00005F0010018B905F00200002886D0204622
:104CF00000F090FAAAE0FFE72068406BC0F3803034
:104D000030B105F0080018B1204601F05DFF9DE0CC
:104D10002068406B00F03A0008B1012000E000205C
:104D2000002870D02068406BC0F3400018B1606B61
:104D300040F0020060632068406BC0F3C00018B10F
:104D4000606B40F0080060632068406BC0F3401067
:104D500018B1606B40F0200060632068406BC0F3C6
:104D6000001018B1606B40F0100060633848216893
:104D700088632068C06B20F49D702168C863206838
:104D8000C06820F040002168C8602068C06A40F414
:104D900000502168C8622068C06840F08000216827
:104DA000C860206801F05AF8616B084360632068AE
:104DB000C06820F080002168C8604FF4006021685E
:104DC000886305F0080040B1012084F8300000201D
:104DD000E0622046FFF784FD38E005F0800030B344
:104DE000606B20B32068C06B20F080502168C863DE
:104DF000002021680865012084F830002046FFF774
:104E00006FFD23E0FFE72068406BC0F3007070B1D6
:104E10004FF08050216888632068006D00F0040026
:104E200050B905F0200018B12046FFF70CFC0DE04A
:104E30002046FFF706FC09E005F0200018B12046E7
:104E4000FFF700FC02E02046FFF7FAFB70BD000010
:104E50003A0F0018F0B585B0044614B9012005B02A
:104E6000F0BD94F8300020B900202076204600F0F4
:104E7000B3F8042084F83000204600F045F808B16B
:104E80000120ECE769462046FFF736FE08B1012015
:104E9000E5E79DF810609DF81170A06B012805D121
:104EA00006B91FB14FF40071A16507E0A06B01289E
:104EB00002D10102A16501E00021A1652046E1685F
:104EC000FFF74EFC08B10120C9E7FCF771FE05466B
:104ED0000CE0FCF76DFE401B401C38B94FF0004061
:104EE0006063012084F830000320B8E72046FFF714
:104EF000F0FD0428EDD100206063E062012084F819
:104F000030000020ABE70000F0B587B00446002079
:104F100002900390049005904FF480300021FDF73B
:104F2000B7FA06463EB9012084F83000C006606337
:104F3000012007B0F0BD2548B6FBF0F00690DDE992
:104F40000501CDE90001206802A90EC901F022FA8D
:104F5000206801F039FA069818B106984000B6FBAF
:104F6000F0F636B11A48B0FBF6F0471C3846FCF7AD
:104F700003FD204601F0F0FB05463DB1012084F819
:104F80003000606B284360630120D2E7204601F0C7
:104F9000F7FA05463DB1012084F83000606B2843E4
:104FA00060630120C5E74FF40071206800F0EEFD5A
:104FB00005464DB1074821688863606B28436063EC
:104FC000012084F83000B4E70020B2E700350C007F
:104FD00010210100FF0FE01F704700002DE9FF4F77
:104FE00089B0044689469846FCF7E2FD0290DDF858
:104FF0002CB04D46B9F1000F07D1606B40F0006056
:10500000606301200DB0BDE8F08F94F830000128F6
:105010007ED1002060630BEB0801206D814205D931
:10502000606B40F0007060630120EBE7032084F8C0
:10503000300000202168C862A06B012801D04FEA2F
:105040004B2B4FF0FF3003904FEA48200490902004
:1050500005900220069000200790089003A9206880
:1050600000F081FF2068C06840F040002168C860FF
:10507000B8F1010F07D90220E0625946206800F01C
:10508000EEFD064606E00120E0625946206800F089
:1050900003FE064666B15D4821688863606B304355
:1050A0006063012084F830000020E0620120A9E75D
:1050B000DDF810A03AE02068406B00F40040E0B159
:1050C000BAF1200F19D30020019011E0206801F0FF
:1050D00082F907462F706D1C380A28706D1C380C39
:1050E00028706D1C380E28706D1C0198401C0190B2
:1050F00001980828EAD3AAF1200AFCF759FD029981
:10510000411A1698814201D2169878B93F4800E0BA
:1051100076E021688863606B40F0004060630120A6
:1051200084F830000020E06203206BE72068406BC9
:1051300000F495700028BED02068C06820F04000C0
:105140002168C8602068406B00F48070B8B1B8F185
:10515000010F14D9A06B032811D0206800F07EFE47
:10516000064666B1294821688863606B30436063F6
:10517000012084F830000020E062012042E720682E
:10518000406B00F0080068B1204821688863606BBC
:1051900040F008006063012084F830000020E062E5
:1051A00001202FE72068406B00F0020068B117482B
:1051B00021688863606B40F002006063012084F81E
:1051C00030000020E06201201CE72068406B00F006
:1051D000200068B10D4821688863606B40F02000B2
:1051E0006063012084F830000020E062012009E7BC
:1051F000074821688863012084F83000002001E717
:10520000606B40F0005060630120FBE6FF0FE01F81
:105210003A0F001810B5044604498C4201D0012110
:1052200000E000210846FCF7FFF810BD407B012498
:1052300010B5044604498C4201D0012100E0002150
:105240000846FCF717F910BD407B01242DE9F04F0B
:1052500089B00446884693461F46FCF7A9FC029095
:10526000DA464546B8F1000F07D1606B40F00060A8
:105270006063012009B0BDE8F08F94F83000012888
:105280007ED1002060630AEB0701206D814205D9C1
:10529000606B40F0007060630120EBE7032084F84E
:1052A000300000202168C862A06B012801D04FEABD
:1052B0004A2A4FF0FF300390780204909020059026
:1052C000002006900790089003A9206800F04BFE8C
:1052D0002068C06840F040002168C860012F07D9ED
:1052E0002020E0625146206800F003FE064606E0FA
:1052F0001020E0625146206800F018FE064666B1B4
:10530000614821688863606B30436063012084F8E2
:1053100030000020E0620120ACE7DDF8109043E0AF
:105320002068406B00F4804030B3B9F1200F23D3E4
:10533000002001901BE0287800906D1C28780099CF
:1053400041EA002000906D1C2878009941EA004055
:1053500000906D1C2878009941EA006000906D1C57
:105360006946206801F052F80198401C01900198AC
:105370000828E0D3A9F12009FCF71AFC029900E003
:105380007BE0411A1298814201D2129860B93E48DE
:1053900021688863606B30436063012084F83000CB
:1053A0000020E062032065E72068406B00F48D7008
:1053B0000028B5D02068C06820F040002168C8608F
:1053C0002068406B00F48070B0B1012F14D9A06B3D
:1053D000032811D0206800F041FD064666B12A4836
:1053E00021688863606B30436063012084F830007B
:1053F0000020E06201203DE72068406B00F00800DB
:1054000068B1214821688863606B40F008006063E0
:10541000012084F830000020E06201202AE72068A3
:10542000406B00F0020068B1174821688863606B28
:1054300040F002006063012084F830000020E06248
:10544000012017E72068406B00F0100068B10E489B
:1054500021688863606B40F010006063012084F86D
:1054600030000020E062012004E7084821688863DA
:10547000012084F830000020FCE6606B40F0005012
:1054800060630120F6E60000FF0FE01F3A0F0018EE
:1054900070B504462546681EB0F1807F01D3012017
:1054A0000FE0681E4FF0E02148610F214FF0FF3000
:1054B00002F016FA00204FF0E02188610720086111
:1054C000002070BD014600BF91F88400012801D181
:1054D00002207047012081F8840000BF2420C1F819
:1054E0008800086802680868006820F001000B68FE
:1054F000186022F0005200204866086802602020F0
:10550000C1F8880000BF002081F8840000BF00BF00
:10551000DFE770B504460D4600BF94F8840001280B
:1055200001D1022070BD012084F8840000BF242036
:10553000C4F88800206806682068006820F0010030
:10554000216808602068806820F060602843216836
:105550008860204601F0C6FC206806602020C4F860
:10556000880000BF002084F8840000BF00BFD9E796
:1055700070B504460D4600BF94F88400012801D19F
:10558000022070BD012084F8840000BF2420C4F8EC
:105590008800206806682068006820F00100216803
:1055A00008602068806820F0604028432168886097
:1055B000204601F097FC206806602020C4F888008F
:1055C00000BF002084F8840000BF00BFD9E710B5F9
:1055D00004460CB9012010BDA06900B100E000BF75
:1055E000D4F8880028B9002084F88400204600F010
:1055F0002BF82420C4F888002068006820F00100FF
:1056000021680860204601F0C1FD012800D1E2E7D1
:10561000A06A10B1204601F091FC2068406820F497
:105620009040216848602068806820F02A00216846
:1056300088602068006840F001002168086020460A
:1056400001F0F8FCC7E7000010B586B0044614214D
:1056500001A8FAF7AFFE23492068884240D100BF75
:105660002148006840F010001F49086008460068A3
:1056700000F01000009000BF00BF00BF1A481038B3
:10568000006840F0010018491039086008460068B9
:1056900000F00100009000BF00BF00BF0846006896
:1056A00040F0010008600846006800F0010000902A
:1056B00000BF00BF4FF40070019002200290012053
:1056C0000390032004900720059001A90748FCF7E8
:1056D00067F94FF48060019001A90448FCF760F974
:1056E00006B010BD00100140F044025800000258FE
:1056F0002DE9F84F04460E4617469946D4F888001F
:10570000202854D106B117B90120BDE8F88F002038
:105710005434E06321206063FCF74AFA8246278014
:105720006780543CA068B0F5805F04D1206910B94F
:105730000025B04602E035464FF0000820E0534611
:10574000002280212046CDF8009002F033F820B1ED
:105750002020C4F888000320D7E745B9B8F8000036
:10576000C0F308002168886208F1020803E0287885
:10577000216888626D1CB4F85600401EA4F85600DB
:10578000B4F856000028DAD15346002240212046C2
:10579000CDF8009002F00EF820B12020C4F8880067
:1057A0000320B2E72020C4F888000020ADE70220E3
:1057B000ABE700BFFEE7000000B587B0142102A8E8
:1057C000FAF7F8FD00BF0F48006840F040000D49AF
:1057D00008600846006800F04000019000BF00BF6C
:1057E000002280210848FCF7DDF98020029001208A
:1057F000039000200490059002A90348FCF7D0F81C
:1058000007B000BDE04402580018025870B50446C5
:1058100000250A482060002060600021A1604FF44C
:105820008041E16000212161022161612046FFF792
:1058300011FB00B10125284670BD00000070005228
:1058400000BFFEE700BFFEE7704700002DE9F04112
:1058500004460E4600275548006800F00300032860
:1058600002D10120BDE8F08150482838006820F0BE
:1058700080604E4928390860FCF79AF9054606E031
:10588000FCF796F9401B022801D90320EAE74748B4
:1058900028380068C0F3C0600028F1D100BF434839
:1058A000006820F47C30216840EA01303F490860FC
:1058B000A088401EC0F30800A168491E4FF47E4234
:1058C00002EA41210843A189491ED20102EA0141AD
:1058D0000843217C491E120202EA01610843334950
:1058E0001031086000BF3148001D006820F0C00082
:1058F000616908432D49091D08600846006820F0C9
:105900002000A16908432949091D0860084600686C
:1059100020F0100008602548143000684FF6F87138
:105920008843E16940EAC1002049143108601F48FA
:10593000001D006840F010001C49091D08602EB9C8
:105940000846006840F40020086012E0012E08D1EB
:105950001648001D006840F480101449091D0860B5
:1059600007E01248001D006840F400100F49091DAF
:1059700008600E482838006840F080600B492839DC
:105980000860FCF715F9054606E0FCF711F9401B25
:10599000022801D9032065E7044828380068C0F3CD
:1059A000C0600028F1D038465CE700002844025867
:1059B0002DE9F04104460E4600275548006800F0E6
:1059C0000300032802D10120BDE8F08150482838A7
:1059D000006820F080504E4928390860FCF7E8F84C
:1059E000054606E0FCF7E4F8401B022801D9032035
:1059F000EAE7474828380068C0F340700028F1D132
:105A000000BF4348006820F07C70218840EA0150C4
:105A10003F490860A088401EC0F30800A168491EE5
:105A20004FF47E4202EA41210843A189491ED20176
:105A300002EA01410843217C491E120202EA016187
:105A4000084333491831086000BF3148001D006821
:105A500020F44060616908432D49091D086008462B
:105A6000006820F40070A16908432949091D0860F5
:105A70000846006820F48070086025481C300068E3
:105A80004FF6F8718843E16940EAC10020491C31B2
:105A900008601F48001D006840F480701C49091D03
:105AA00008602EB90846006840F48000086012E0E3
:105AB000012E08D11648001D006840F4000014496A
:105AC000091D086007E01248001D006840F0807062
:105AD0000F49091D08600E482838006840F08050C2
