:020000040800F2
:1000000098070024AD020008673C0008E13A0008A8
:10001000653C000843080008B148000800000000E3
:100020000000000000000000000000006D3E00081D
:10003000E90B000800000000693C00086F3E000862
:10004000C7020008C7020008C7020008C70200086C
:10005000C7020008C7020008C7020008C70200085C
:10006000C7020008C7020008C702000845080008C8
:1000700051080008C7020008C7020008C7020008AC
:10008000C7020008C7020008C7020008C70200082C
:10009000C7020008C7020008C7020008C70200081C
:1000A000C7020008C7020008C7020008C70200080C
:1000B000C7020008C7020008C7020008C7020008FC
:1000C000C7020008C7020008C7020008C7020008EC
:1000D000C7020008A5480008C7020008C7020008B8
:1000E000C7020008C702000800000000C70200089D
:1000F000C7020008C7020008C7020008C7020008BC
:10010000C7020008C7020008C7020008C7020008AB
:10011000C7020008C7020008C7020008C70200089B
:10012000C7020008C7020008C7020008C70200088B
:10013000C7020008C7020008C7020008C70200087B
:1001400000000000000000000000000000000000AF
:10015000C7020008C7020008C7020008C70200085B
:10016000C7020008C7020008C7020008C70200084B
:10017000C7020008C7020008C7020008000000000C
:10018000C7020008C7020008C7020008C70200082B
:10019000C7020008C7020008C7020008C70200081B
:1001A000C7020008C7020008C7020008C70200080B
:1001B000C7020008C7020008C7020008C7020008FB
:1001C000C7020008C7020008C7020008C7020008EB
:1001D000C7020008C7020008C7020008C7020008DB
:1001E000C7020008C7020008C7020008C7020008CB
:1001F000C7020008C7020008C7020008C7020008BB
:10020000C7020008C7020008C7020008C7020008AA
:10021000C7020008C7020008C7020008C70200089A
:10022000C7020008C7020008C7020008000000005B
:10023000C7020008C702000800000000C70200084B
:10024000C7020008C7020008C7020008C70200086A
:10025000C7020008C7020008C7020008C70200085A
:10026000C7020008C7020008C7020008C70200084A
:10027000C7020008C7020008C7020008000000000B
:10028000C7020008C7020008C702000800000000FB
:1002900000000000C7020008DFF80CD000F050FAA0
:1002A00000480047D94800089807002406488047BE
:1002B00006480047FEE7FEE7FEE7FEE7FEE7FEE74B
:1002C000FEE7FEE7FEE7FEE7753F0008990200083B
:1002D0002DE9F05F0546002092469B46884606467B
:1002E000814640241BE0284641464746224600F00E
:1002F0005EF853465A46C01A914110D3114618462B
:10030000224600F045F82D1A67EB01084F462246B9
:100310000120002100F03CF817EB00094E41201E9F
:10032000A4F10104DFDC484631462A464346BDE8D5
:10033000F09FD2B201E000F8012B491EFBD27047BA
:100340000022F6E710B513460A4604461946FFF7A1
:10035000F0FF204610BD421C10F8011B0029FBD104
:10036000801A704730B50B46014600202022012438
:1003700009E021FA02F59D4205D303FA02F5491B73
:1003800004FA02F52844151EA2F10102F1DC30BD89
:10039000202A04DB203A00FA02F100207047914045
:1003A000C2F1200320FA03F3194390407047202A3A
:1003B00004DB203A21FA02F00021704721FA02F30F
:1003C000D040C2F1200291400843194670472DE900
:1003D000FE4F804681EA0300C00F0C46009021F0DA
:1003E000004123F00045B8EB0200A94105D2404688
:1003F000214690461C460B46024623F0004010431F
:1004000047D0270DC7F30A00C3F30A510290401AE0
:10041000019040286BDAC3F3130040F4801B00986E
:10042000924620B10023D2EB030A63EB0B0B019839
:100430005946C0F140025046FFF7AAFF06460D4656
:1004400050465946019A00F08DF910EB08006141C1
:10045000002487EA115284EAE7731A4340D0009AD5
:1004600062B3019A012A4FEA075215DC001B61EBC7
:1004700002014FF0004202EA0752CDE90042001C9F
:1004800041F5801132462B4600F08DF903B0BDE8EE
:10049000F08F40462146F9E7001B61EB0201001C8A
:1004A00041F5801300185B412018A2F5001747EBB7
:1004B000030140EAD570B6196D4111E06D084FEAAD
:1004C000360645EAC0754FEA0752001B61EB020190
:1004D000001C41F5801149084FEA300000195141D4
:1004E00032462B4603B0BDE8F04F00F04DB90098FE
:1004F000012240000023D0EB020263EBE07300987E
:1005000021464FEAE074B8EB000061EB0401E9E733
:1005100083F000435BE781F0004158E72DE9FE4F8F
:1005200081EA030404F0004421F0004100944FF0FC
:10053000000B23F0004350EA01045ED052EA0304AA
:100540005BD0C3F30A54C1F30A552C44A4F2F3342C
:100550000194A0FB0254C1F3130141F48011C3F3D1
:10056000130343F4801301FB024400FB034E840A8F
:10057000970A44EA815447EA8357A4FB0768029527
:100580008D0A05FB07854FEA932C04FB0C542705C5
:10059000029D4FEA065847EA1637B5EB08056EEBA1
:1005A000070C870E920E47EA811742EA8312A7FBD7
:1005B0000201B6EB0B0164EB00042B0D43EA0C3394
:1005C0005E1844EB1C50DA465146E7FB0201C5F3C6
:1005D00013044FEA0B3343EA14534FEA0432019CED
:1005E00043EA0603A4F10C040294009CCDE900B494
:1005F00000F0D9F803B0BDE8F08F00200146F9E71C
:100600002DE9F04D81EA030404F0004B21F0004590
:1006100014464FF0000A23F0004150EA050220D0B2
:1006200054EA01021DD0C5F30A570246C5F313036D
:10063000C1F31300C1F30A5640F4801543F480134C
:10064000A7EB0608101BD64608F2FD3873EB050031
:1006500002D308F1010801E092185B41B8F1000FE4
:1006600003DA00200146BDE8F08D00204FF4801130
:10067000064684460EE0171B73EB050705D3121BD5
:1006800063EB050306434CEA010C49084FEA3000CE
:1006900092185B4150EA0107EDD152EA030012D0F3
:1006A00082EA040083EA0501084305D0101BAB4130
:1006B00006D20122002306E000224FF0004302E0B0
:1006C0006FF0010253101AEB06004CEB085110EBCF
:1006D0000A0041EB0B01BDE8F04D00F055B8C1F345
:1006E0000A52C1F3130140F2FF3341F480119A42E0
:1006F00002DA00200146704740F233439A42A2F2E8
:10070000334202DC5242FFF752BEFFF741BE000007
:1007100030B5041E71F1000404DB4FF00044404288
:1007200064EB0101141E73F1000405DB1C464FF05D
:100730000043524263EB0403994208BF904230BD2C
:10074000064C074D06E0E06840F0010394E807001E
:1007500098471034AC42F6D3FFF7A2FD6C52000864
:100760008C520008202A06DBCB17203A41FA02F00F
:1007700043EAE07306E041FA02F3D040C2F12002FE
:10078000914008431946704710B5141E73F10004D8
:1007900008DA401C41F1000192185B411A4301D173
:1007A00020F0010010BD2DE9F04D92469B4611B19D
:1007B000B1FA81F202E0B0FA80F220329046FFF7FF
:1007C000E7FD04460F4640EA0A0041EA0B015346A2
:1007D0005A46084313D0114653EA010019D0C8F114
:1007E00040025046FFF7E3FD05460E465046594687
:1007F0004246FFF7CDFD084305D0012004E0204626
:100800003946BDE8F08D0020054346EAE0762C43EA
:1008100037430A986305E40AA0EB08000022FD0AAA
:1008200044EA47540A3002D500200146E9E70105B1
:1008300010196941DDE9084500196941BDE8F04D2D
:10084000A2E7FEE7014800F059BC00BF10020024F7
:10085000014800F053BC00BF880200240168CA4A66
:10086000914223D0C94A91421CBFC94A91421DD02E
:10087000C84A91421CBFC84A914217D0C74A914208
:100880001CBFC74A914211D0C64A91421CBFC64AFA
:1008900091420BD0C54A91421CBFC54A914205D036
:1008A000C44A91421CBFC44A91421AD180B56FF02C
:1008B0000F02DFF848C052FA81F21823B2FBF3F3BB
:1008C00040F2FF3E21EA0E015F2A03F007031CF805
:1008D0000330C36588BF0431BDE8804081650846A8
:1008E0007047B64A9142E1D0B64A9142DED0B44A4E
:1008F0009142DBD021F0FF01F0E700BF5452000825
:100900000268B1498A421F491CBFB04B9A4205D0C8
:10091000AF4B9A421CBFAF4B9A4213D1D3B2A3F153
:1009200008021423B2FBF3F301F1800201EB83010F
:1009300003F01F0301664FF0010C0CFA03F1C0E94C
:1009400019217047A44B9A42E8D0A64B9A42E5D0B1
:10095000A24B9A42E2D0A1F55B7CD3B26245DED0D5
:10096000A3F110011823B1FBF3F1084B03F1AA0C1A
:100970009A420B4688BF0833624528BF0B4602499E
:10098000D2E700BF00580258000802400F0402409E
:1009900001790139072988BF704702688A4B9A425A
:1009A0001CBF8A4B9A4205D0894B9A421CBF894B87
:1009B0009A420BD18A000E4B4FF0010C1A4440337F
:1009C000C2660CFA01F1C0E91C317047824B9A42B1
:1009D000F0D0844B9A42EDD0804B9A42EAD0804BC3
:1009E0009A424FEA8102E6D0004BE5E70009024057
:1009F00000590258F0B5D0F800C0634CA445D0F8B7
:100A000058E03BD0614DAC451CBF614DAC4535D085
:100A1000604DAC451CBF604DAC452FD05F4DAC4523
:100A20001CBF5F4DAC4529D05E4DAC451CBF5E4D33
:100A3000AC4523D05D4DAC451CBF5D4DAC451DD0D4
:100A40005C4DAC451CBF5C4DAC4517D05B4DAC4517
:100A50001CBF5B4DAC4511D05A4DAC451CBF5A4D27
:100A6000AC450BD0594DAC451CBF594DAC4505D0DC
:100A7000584DAC451CBF584DAC456DD1C66ED0E944
:100A80001957002E6F6002D0D0E91C566E60A44545
:100A900029D03E4CA4451CBF3D4CA44523D03D4C21
:100AA000A4451CBF3C4CA4451DD03C4CA4451CBFD8
:100AB0003B4CA44517D03B4CA4451CBF3A4CA44525
:100AC00011D03A4CA4451CBF394CA4450BD0394C2D
:100AD000A4451CBF384CA44505D0384CA4451CBFC8
:100AE000374CA4451CD1C46D3F2504F01F04806819
:100AF00005FA04F4CEF80840DCF8007027F48027EB
:100B0000CCF800704028CCF8043004D1CCF8082090
:100B1000CCF80C10F0BDCCF80810CCF80C20F0BDCF
:100B2000FE4CA4451CBFF74CA4450BD0F64CA44585
:100B30001CBFF64CA44505D0F54CA4451CBFF54C94
:100B4000A44516D1C46D012504F01F04806805FA80
:100B500004F4CEF80440D5E7EF4DAC453FF48EAF3A
:100B6000EE4DAC453FF48AAFED4DAC453FF486AF5A
:100B7000D5E7E94CA445E5D0E94CA445E2D0E04CEA
:100B8000A445B0D0CBE700BF1000024028000240CF
:100B900040000240580002407000024088000240BD
:100BA000A0000240B80002401004024028040240A5
:100BB000400402405804024070040240880402408D
:100BC000A0040240B8040240085402581C540258C1
:100BD0003054025844540258585402586C54025825
:100BE00094540258805402587047EFF3108072B644
:100BF000FEE70000F8B5044601F010F9002C00F003
:100C0000AA80054694F83500022840F0A68027689F
:100C1000AC4EB74238463CD0AB488742384638D015
:100C2000AA488742384634D0A9488742384630D04F
:100C3000A848874238462CD0A7488742384628D053
:100C4000A6488742384624D0A5488742384620D057
:100C5000A448874238461CD0A3488742384618D05B
:100C6000A2488742384614D0A1488742384610D05F
:100C7000A048874238460CD09F488742384608D063
:100C80009E488742384604D09D48874240F0E9801C
:100C90009B48016821F01E0207F1140102606FF009
:100CA00080000A68B74200EA020008603CD0FC48B5
:100CB00087421CBFFB48874236D0FB4887421CBF97
:100CC000FA48874230D0FA4887421CBFF948874229
:100CD0002AD0F94887421CBFF848874224D0F848F8
:100CE00087421CBFF74887421ED0F74887421CBF87
:100CF000F648874218D0F64887421CBFF64887421C
:100D000012D0F44887421CBFF44887420CD0F44804
:100D100087421CBFF348874206D0F34887421CBF76
:100D2000F248874240F0B680206E016821F480715D
:100D30000160386820F0010038603868C00710D0C2
:100D400001F06CF8401B0628F7D3202060650320D3
:100D500084F8350003E0012081E0802060650120F7
:100D60007AE02068B0421CBFCD4988421DD0CD49F1
:100D700088421CBFCC49884217D0CC4988421CBF4E
:100D8000CB49884211D0CB4988421CBFCA4988420E
:100D90000BD0CA4988421CBFC949884205D0C949FD
:100DA00088421CBFC84988425FD1A16DE26D3F23D4
:100DB00002F01F0203FA02F28A60B0423BD0B84947
:100DC00088421CBFB749884235D0B74988421CBF0A
:100DD000B64988422FD0B64988421CBFB5498842DF
:100DE00029D0B54988421CBFB449884223D0B449B0
:100DF00088421CBFB34988421DD0B34988421CBFFA
:100E0000B249884217D0B24988421CBFB2498842D1
:100E100011D0B04988421CBFB04988420BD0B049BC
:100E200088421CBFAF49884205D0AF4988421CBFE9
:100E3000AE4988423BD1E06ED4E9191200284A60DD
:100E400006D0016821F480710160D4E91C01416081
:100E5000012084F835000020002184F8341001B00E
:100E6000F0BD6FF00E0039461BE7984988429CD0D0
:100E70009949884299D09649884296D095498842A6
:100E8000A16D93D0E26D012302F01F0203FA02F27A
:100E90004A6092E7964887423FF446AF95488742BA
:100EA0003FF442AF944887423FF43EAF41E7904958
:100EB0008842C0D08F498842BDD08F498842BAD07D
:100EC000C6E700BF10000240280002404000024078
:100ED000580002407000024088000240A00002401A
:100EE000B8000240100402402804024040040240BE
:100EF000580402407004024088040240A0040240EA
:100F0000B8040240085402581C5402583054025885
:100F100044540258585402586C540258945402587D
:100F20008054025810B5002844D090F8351002299A
:100F30003ED10168594A914223D0594B99421CBF76
:100F4000584B99421DD0584B99421CBF574B994260
:100F500017D0574B99421CBF564B994211D0564B54
:100F600099421CBF554B99420BD0554B99421CBF1F
:100F7000544B994205D0544B99421CBF534B994254
:100F80003CD10423914280F835300BD04448814253
:100F90001CBF4448814205D0434881421CBF43489E
:100FA00081420AD1086820F001000860002102E0B7
:100FB000802141650121084610BD3D488142F1D0A4
:100FC0003C488142EED03C488142EBD03B488142D4
:100FD000E8D03B4881421CBF3A488142E2D03A48BF
:100FE00081421CBF39488142DCD039488142D9D086
:100FF00038488142D6D038488142D3E7344B9942B1
:10100000BFD0344B9942BCD0334B9942B9D00A6817
:1010100022F00E020A60314A91420A6822F001026F
:101020000A600BD02E4A91421CBF2E4A914205D035
:101030002D4A91421CBF2D4A914225D1D0E916C2BA
:10104000D0E9183E196802F01F0221F480710124D2
:10105000196004FA02F1CCF80410816ECEF8041085
:10106000C16E31B10A6822F480720A60D0E91C12A4
:101070004A60012180F835100021026D002A80F8B5
:10108000341098D0904791E7194A9142D6D0194A26
:101090009142D3D0184A9142D0D0EAE710000240E2
:1010A0002800024040000240580002407000024008
:1010B00088000240A0000240B80002401004024034
:1010C00028040240400402405804024070040240D8
:1010D00088040240B8040240A004024008540258A8
:1010E0001C54025830540258445402585854025860
:1010F0006C54025894540258805402582DE9FC4113
:101100000021C64F01910446DFF8C41D0068A56D9B
:10111000B842D1F800802E6829682AD0C04A90428F
:101120001CBFC04A904224D0BF4A90421CBFBF4A55
:1011300090421ED0BE4A90421CBFBE4A904218D078
:10114000BD4A90421CBFBD4A904212D0BC4A904258
:101150001CBFBC4A90420CD0BB4A90421CBFBB4A49
:10116000904206D0BA4A90421CBFBA4A904240F020
:10117000A181E16D082201F01F018A40324236D080
:10118000BC46B8424FF0040324D0A54FB8421CBF60
:10119000A44FB8421ED0A44FB8421CBFA34FB842C0
:1011A00018D0A34FB8421CBFA24FB84212D0A24FD2
:1011B000B8421CBFA14FB8420CD0A14FB8421CBFCF
:1011C000A04FB84206D0A04FB8421CBF9F4FB842B4
:1011D00040F0988107681F42674608D0036823F0F3
:1011E00004030360AA60626D42F00102626501229D
:1011F0008A4032422ED0B84224D0894B98421CBF3C
:10120000884B98421ED0884B98421CBF874B98420F
:1012100018D0874B98421CBF864B984212D0864B01
:1012200098421CBF854B98420CD0854B98421CBFFE
:10123000844B984206D0844B98421CBF834B984203
:1012400040F06D8143691B0604D5AA60626D42F0CF
:101250000202626504228A4032422ED0B84224D073
:101260006F4B98421CBF6F4B98421ED06E4B9842FA
:101270001CBF6E4B984218D06D4B98421CBF6D4BF3
:10128000984212D06C4B98421CBF6C4B98420CD0C9
:101290006B4B98421CBF6B4B984206D06A4B9842EE
:1012A0001CBF6A4B984240F0488103689B0704D5F5
:1012B000AA60626D42F004026265102202FA01F136
:1012C00031423FD0B8424FF0080224D0D24B98426E
:1012D0001CBFD24B98421ED0D14B98421CBFD14B61
:1012E000984218D0D04B98421CBFD04B984212D095
:1012F000CF4B98421CBFCF4B98420CD0CE4B98425C
:101300001CBFCE4B984206D0CD4B98421CBFCD4B54
:10131000984240F020810368134213D0A96001680D
:101320004903016806D4C90506D4016821F0080103
:10133000016001E0080301D4216C00E0A16C09B157
:1013400020468847E06D00F01F01202000FA01F2DE
:10135000324200F0858020681023B84224D0AE4E7F
:10136000B0421CBFAD4EB0421ED0AD4EB0421CBF0D
:10137000AC4EB04218D0AC4EB0421CBFAB4EB042E7
:1013800012D0AB4EB0421CBFAA4EB0420CD0AA4EF7
:10139000B0421CBFA94EB04206D0A94EB0421CBFFD
:1013A000A84EB04240F0E48007681F4258D0AA60BF
:1013B00094F83520042A02681BD122F0160202603C
:1013C000426922F080024261226C0AB9A26C1AB111
:1013D000026822F0080202603F208840A8600120D5
:1013E00084F835000020216D002984F834005DD197
:1013F0005EE0510301680CD4C9052DD4016821F0C9
:1014000010010160012084F83500002084F83400C8
:1014100022E0080320D4616C1FE000BF10000240EE
:101420002800024040000240580002407000024084
:1014300088000240A0000240B800024010040240B0
:101440002804024040040240580402407004024054
:1014500088040240A0040240E16B09B1204688479D
:10146000606D28B3606DC0071ED04FF41650B8FBF6
:10147000F0F0042184F8351021680A6822F0010296
:101480000A60019A01328242019202D80A68D207A8
:10149000F7D10868C0074FF0030008BF012084F8A7
:1014A0003500002084F83400E16C09B120468847FB
:1014B000BDE8FC81664A90421CBF664A90420CD04F
:1014C000654A90421CBF654A904206D0644A9042E9
:1014D0001CBF644A904240F091800268E36D570758
:1014E00003F01F0351D504279F4017EA01064CD093
:1014F00011046F6060D4910662D4016821F0040188
:1015000001605DE0504FB8423FF464AE4F4FB842C7
:101510003FF460AE544FB84218BF08235AE64A4B16
:1015200098423FF48FAE494B98423FF48BAE4E4BFE
:1015300098423FF487AE02688CE6434B98423FF4F2
:10154000B4AE424B98423FF4B0AE474B98423FF4A2
:10155000ACAE0268B1E63C4B98423FF4DCAE3B4B8C
:1015600098423FF4D8AE404B984218BF0422D2E6CE
:10157000354EB0423FF418AF344EB0423FF414AF92
:10158000394EB04218BF02230EE797071AD502273B
:101590009F4017EA010615D011046F6028D4910608
:1015A0002AD4016821F00A010160012084F8350085
:1015B000002084F834001FE0D00301D4A16C74E74C
:1015C000216C72E712077FF573AF08229A40114031
:1015D0003FF46EAF0168012221F00E01016002FAB2
:1015E00003F068600020626584F83520E16CFBE65A
:1015F000D00301D4616C58E7E16B56E7F04A9042A2
:101600003FF46BAFEF4A90423FF467AFEE49884238
:101610003FF4AFAD4CE700BF28000240400002405D
:10162000580002407000024088000240A0000240C2
:10163000B800024010040240280402404004024066
:10164000580402407004024088040240A004024092
:1016500094540258085402581C54025830540258EA
:101660004454025858540258B8040240F8B504468D
:1016700000F0D4FB002C7BD005462068C14FB84257
:101680002AD0C14988421CBFC049884224D0C049E1
:1016900088421CBFBF4988421ED0BF4988421CBF38
:1016A000BE49884218D0BE4988421CBFBD49884205
:1016B00012D0BD4988421CBFBC4988420CD0BC49ED
:1016C00088421CBFBB49884206D0BB4988421CBF28
:1016D000BA49884240F0F280022184F83510002196
:1016E00084F83410016821F00101016005E000F088
:1016F00095FB401B052836D820680168C907F6D13C
:101700000168B24A1140D4E9022311432269194306
:1017100063691143A2691943E36941EA0205616AF9
:101720002B43256A042943EA050303D1D4E90B5668
:101730002B433343A64D2E68B6F1005F1CD365687A
:10174000292D19D32F2D15D3A5F13F06042E11D322
:10175000472D11D3492D0DD3A5F14F06032E98BF68
:1017600043F4801308E020206065032084F83500EE
:101770000120A1E043F4801303600429436923F0AE
:10178000070341EA030127D1D4E90A53002B41EAB8
:10179000050121D0B2F5005F06D08AB9022D12D022
:1017A000012D07D07DB117E0032D15D8DFE805F036
:1017B0000E0B0E02A3F1C072B2FA82F2520904E0DB
:1017C000032D03D308D1C3F300622AB14020606522
:1017D000012084F835006FE041612046FFF73EF8B4
:1017E000E16D3F2201F01F0102FA01F181602068E2
:1017F000B8423BD0644988421CBF6449884235D016
:10180000634988421CBF634988422FD0624988429D
:101810001CBF6249884229D0614988421CBF614986
:10182000884223D0604988421CBF604988421DD04D
:101830005F4988421CBF5F49884217D05E49884291
:101840001CBFF949884211D0F84988421CBFF849A9
:1018500088420BD0F74988421CBFF749884205D01F
:10186000F64988421CBFF64988427ED12046FFF7E0
:1018700047F8A068802802D10020606000E060681E
:10188000C2B2216E0138D4E9193707280A605F60B7
:1018900009D82046FFF77CF804F16C0207CA002340
:1018A00003604A6003E00020C4E91B006067002079
:1018B0000121606584F8351001B0F0BDE24988422D
:1018C0001CBFDB4988420BD0DA4988421CBFDA4989
:1018D000884205D0D94988421CBFD949884238D1AD
:1018E000022184F83510002184F834100168A268C0
:1018F0006FF31011A2F18003B3FA83F35B099B032A
:10190000402AE26808BF102341EAD2012269194344
:10191000636941EAD201A26941EAD301E36941EA7C
:10192000D201226A41EAD30141EA121140F80819B2
:101930001421C0B2B0FBF1F08000E0652046FEF754
:101940008DFFE16D012201F01F0102FA01F14160FA
:101950004DE7BC498842C3D0BC498842C0D0B34996
:1019600088423FF4B9AE4020FEE6B64988423FF4D3
:101970007DAFB54988423FF479AFB44988423FF41E
:1019800075AF94E71000024028000240400002407A
:10199000580002407000024088000240A00002404F
:1019A000B8000240100402402804024040040240F3
:1019B000580402407004024088040240A00402401F
:1019C0006C54025880540258B80402403F8010FE04
:1019D0000010005CB0B5002800F0E780054690F8E4
:1019E0003400012801D10220B0BD012085F8340067
:1019F00095F83500012840F0D280022085F83500A6
:101A0000002068652868046824F001040460284602
:101A1000FEF7F0FF28687649884202463CD0754AB6
:101A20009042024638D0744A9042024634D0734AFB
:101A30009042024630D0724A904202462CD0714AFF
:101A40009042024628D0704A9042024624D06F4A03
:101A50009042024620D06E4A904202461CD06D4A07
:101A60009042024618D06C4A9042024614D06B4A0B
:101A70009042024610D06A4A904202460CD0694A0F
:101A80009042024608D0684A9042024604D0674A13
:101A9000904240F08C80654A12680B2363F3440245
:101AA00002602A6C1AB1026842F0080202608842A1
:101AB0003BD0504A90421CBF4F4A904235D04F4ACB
:101AC00090421CBF4E4A90422FD04E4A90421CBFBB
:101AD0004D4A904229D04D4A90421CBF4C4A9042F8
:101AE00023D04C4A90421CBF4B4A90421DD04B4AD7
:101AF00090421CBF4A4A904217D04A4A90421CBFAB
:101B0000494A904211D0494A90421CBF484A9042EB
:101B10000BD0484A90421CBF474A904205D0474AE2
:101B200090421CBF464A904257D12A6E1368DB038D
:101B300003D5136843F480731360EA6E1AB1136817
:101B400043F480731360884223D02A4988421CBF23
:101B5000294988421DD0294988421CBF284988420A
:101B600017D0284988421CBF2749884211D02749ED
:101B700088421CBF264988420BD0264988421CBF98
:101B80002549884205D0254988421CBF24498842FE
:101B90001AD1016841F0010101600020B0BD4FF48D
:101BA00000606865002085F834000120B0BD02683F
:101BB000052363F3430202602A6C002A3FF477AFE7
:101BC000026842F0040271E716498842E1D01749E1
:101BD0008842DED014498842DBE71A4A9042A4D0FA
:101BE000194A9042A1D0194A90429ED0D1E700BF35
:101BF000100002402800024040000240580002400D
:101C00007000024088000240A0000240B80002407C
:101C100010040240280402404004024058040240DC
:101C20007004024088040240A0040240B80402404C
:101C3000085402581C540258305402584454025854
:101C4000585402586C540258945402588054025804
:101C5000B0B5044600F0E2F89C49621C09780546DC
:101C600018BF0C4400F0DAF8401BA042FAD3B0BD14
:101C70002DE9FC4F5E4A0A275E4C02444FEAB2232C
:101C8000A04208BF0927092B38BF4FEAB2274FF0FF
:101C9000000C009701274FF0000E00269EE007FA87
:101CA00006F912EA090B00F094804A6802F0030872
:101CB000A8F1010ABAF1010F13D80324856804FAC8
:101CC0000EF325EA0303CD6805FA0EF52B43836076
:101CD0004368C2F3001523EA0903B5402B43436070
:101CE00004E0B8F1030F4FF003041FD0C36804FAF7
:101CF0000EF5AB438D6805FA0EF52B43B8F1020FD4
:101D0000C36013D16FF0030202EA560202440CF0E2
:101D10001C03D2F820800F259D4028EA05080D6994
:101D200005FA03F343EA080313624A68036804FAF6
:101D30000EF5AB4302F0030505FA0EF52B4312F442
:101D4000403F036045D06A4A13462B4C12680F256A
:101D500042F002021A601A6802F00202019226F0B2
:101D60000302019B0CF00C0352F804809D40009F7D
:101D700028EA050507FA03F32B4313514FF0B04847
:101D8000D8F800204B6842EA0B05DF0258BF22EA70
:101D90000B05164A1446C8F800509F02126842EA22
:101DA0000B0558BF22EA0B059F0325604FF0010782
:101DB000D4F8802042EA0B0558BF22EA0B05DB036A
:101DC000C4F88050E26F42EA0B0558BF22EA0B05C7
:101DD000E56701360EF1020E0CF1040C0A6832FAC6
:101DE00006F47FF45CAFBDE8FC8F00BF0400005830
:101DF0000000FEA7002402580804005800690840AB
:101E000018BF01207047002A08BF0904816170478C
:101E100001480068000C70470010005C054800682D
:101E2000704700BF2948007802490A6810440860DA
:101E3000704700BF9403002480B5032000F088F8A9
:101E400000F0F0FF0F490A68C2F303220968624BF1
:101E500001F00F019A5C595C02F01F02D0400A4A5F
:101E600001F01F0120FA01F11160194908600020FA
:101E700000F00CF808B1012080BD00F02BF8002024
:101E800080BD00BF184402580C00002470B50F4EEE
:101E90003178C1B104464FF47A70B0FBF1F00C49CF
:101EA0000968B1FBF0F001F0CDFA0F2C4FF00105FD
:101EB0000AD848B94FF0FF3000222146002500F033
:101EC00027F8746000E00125284670BD000000245A
:101ED0000800002481B00648016841F00201016059
:101EE000006800F002000090009801B0704700BF49
:101EF000F4440258002808DB00F01F01012202FA16
:101F000001F1024A400942F82010704700E100E068
:101F100080B5154B1B68C3F3022C8CF0070EBEF185
:101F2000040F28BF4FF0040EBCF103034FF0FF3C39
:101F300038BF00230CFA0EFE21EA0E0199400CFA7C
:101F400003F39A431143BDE8804002F0B3BC00BFE5
:101F500005490A684FF6FF031A4060F30A22034856
:101F600010430860704700BF0CED00E00000FA0568
:101F7000B0B5104D29684907296805D401F007015B
:101F8000081A18BF0120B0BD21F0070108432860DE
:101F9000FFF744FF044655F8080C800407D4FFF708
:101FA0003DFF001BB0F57A7FF5D90120B0BD0020C0
:101FB000B0BD00BF0C48025880B500F0F3FE0549E3
:101FC000054A0968C1F30211515C01F01F01C840C4
:101FD00080BD00BF204402582C52000810B53C4C74
:101FE000A36AA26AC2F3053CE26AC2F30012E16B83
:101FF000C1F3CC01BCF1000F11FB02F100EE101A8D
:10200000B8EE400A0AD003F00303022B0AD063B9EA
:10201000216889060CD49FED311A13E00021C0E934
:10202000001153E09FED2C1A0CE09FED2A1A09E0F5
:1020300021682B4AC1F3C10122FA01F101EE101A05
:10204000B8EE411A02EE10CA9FED263AB8EE422AC7
:10205000A16B6FF35F2181EE021A02EE101AB8EE47
:10206000422AA16BC1F3462100EE032AB7EE000A13
:1020700003EE101A32EE002AB8EE433A21EE021AAD
:1020800033EE002A81EE022ABCEEC22A80ED002A3D
:10209000A16BC1F3064102EE101AB8EE422A32EEED
:1020A000002A81EE022ABCEEC22A80ED012AA16B31
:1020B000C1F3066102EE101AB8EE422A32EE000AAF
:1020C00081EE000ABCEEC00A10EE101A816010BD4D
:1020D000004402580024744A20BCBE4B0024744CB7
:1020E0000090D0030000003910B53C4CA36AA26AEE
:1020F000C2F3055CE26AC2F30022616CC1F3CC0159
:10210000BCF1000F11FB02F100EE101AB8EE400A0C
:102110000AD003F00303022B0AD063B921688906B1
:102120000CD49FED311A13E00021C0E9001153E0F7
:102130009FED2C1A0CE09FED2A1A09E021682B4A2A
:10214000C1F3C10122FA01F101EE101AB8EE411AF1
:1021500002EE10CA9FED263AB8EE422A216C6FF3C8
:102160005F2181EE021A02EE101AB8EE422A216CAB
:10217000C1F3462100EE032AB7EE000A03EE101A5F
:1021800032EE002AB8EE433A21EE021A33EE002A6C
:1021900081EE022ABCEEC22A80ED002A216CC1F336
:1021A000064102EE101AB8EE422A32EE002A81EE03
:1021B000022ABCEEC22A80ED012A216CC1F306611D
:1021C00002EE101AB8EE422A32EE000A81EE000A40
:1021D000BCEEC00A10EE101A816010BD0044025817
:1021E0000024744A20BCBE4B0024744C0090D003E1
:1021F000000000392DE9F0470446C078B04F0007D1
:1022000022D5A06E4FEA3051032908D8DFE801F04B
:1022100002090F17F96941F40031F9610FE0012655
:1022200013E004F10800022101F020FD04E004F1B4
:102230002800022101F09AFD064630B9A06E396CE3
:1022400021F440110843386400266078BA46C0077C
:1022500001D135462AE0A06D04280BD83546DFE8C9
:1022600000F0030C12181800F869354640F40030ED
:10227000F8610EE00125012719E004F108000021B2
:1022800001F0F4FC04E004F12800002101F06EFDEF
:102290000546002D2F460AD1DAF84000002520F02F
:1022A0000700A16D08435246CAF8400037466078DF
:1022B00080072DD5E06D4FEAB01004280CD8DFE878
:1022C00000F0030E141A1A00DAF81C00514640F40C
:1022D0000030CAF81C000EE00125012619E004F1C7
:1022E0000800002101F0C2FC04E004F128000021F4
:1022F00001F03CFD0546002D2E460AD1DAF84000DB
:10230000002520F4E070E16D08435246CAF8400011
:102310003E466078400702D4B04657462CE0D4F8D9
:10232000A80057464FEA7050042809D8DFE800F0AB
:10233000030C12181800F86940F40030F8610FE03F
:1023400001254FF0010817E004F10800002101F019
:102350008DFC04E004F12800002101F007FD054692
:10236000002DA84608D1B86C002520F46000D4F8F0
:10237000A8100843B046B864607800072CD5D4F89C
:10238000AC004FEA3060042809D8DFE800F0030B06
:1023900011171700F86940F40030F8610EE00125CC
:1023A00001271AE004F10800002101F05FFC04E0BD
:1023B00004F12800002101F0D9FC0546002D2F462C
:1023C0000BD1DAF84800002520F0E060D4F8AC101A
:1023D00008435246CAF848004746E078800726D5A9
:1023E000E06C4FEA301003280BD8DFE800F013024E
:1023F0000D13DAF81C00514640F40030CAF81C00F6
:1024000008E00125012613E004F10800022101F093
:102410002DFC0546002D2E460AD1DAF83C00002599
:1024200020F03000E16C08435246CAF83C003E46BA
:102430006078C0062DD5206E4FEA303004280CD8C5
:10244000DFE800F0030E141A1A00DAF81C005146F7
:1024500040F40030CAF81C000EE00125012719E005
:1024600004F10800002101F001FC04E004F128005F
:10247000002101F07BFC0546002D2F460AD1DAF839
:102480004000002520F4E040216E08435246CAF87F
:10249000400037466078800627D5606E4FEA3040AE
:1024A00005280AD8DFE800F014030E14141404F110
:1024B0000800012101F0DAFB09E00125012615E001
:1024C0001044025804F12800012101F04FFC054698
:1024D000002D2E460AD1DAF84000002520F4E02035
:1024E000616E08435246CAF840003E466078400696
:1024F00027D5D4F8B0004FEA307005280AD8DFE8B5
:1025000000F012030C12121204F10800012101F074
:10251000ADFB07E00125012714E004F128000121AB
:1025200001F024FC0546002D2F460BD1DAF84800B7
:10253000002520F0E040D4F8B01008435246CAF815
:10254000480037466078000622D5206F98B1B0F178
:10255000005F0AD0B0F1805F2ED1DAF81C0051463E
:1025600040F40030CAF81C0005E004F10800012125
:1025700001F07CFB0546002D2E460AD1DAF840001A
:10258000002520F04050216F08435246CAF8400011
:102590003E46E078C00702D1B046574624E0A06C22
:1025A000574603280BD8DFE800F014020E14F86930
:1025B00040F40030F8610CE001250126E9E701252F
:1025C0004FF0010810E004F10800022101F04EFB79
:1025D0000546002DA84607D1F86B002520F0030022
:1025E000A16C0843B046F863A078400601D4474682
:1025F00017E0D7F8F00340F48070C7F8F003FFF756
:102600000DFC0646D7F8F003C00507D4FFF706FC1B
:10261000801B6428F6D90325032702E0002D2F46EE
:1026200012D02078C00750D0E06F4FEAF0000528A4
:1026300035D8DFE800F03D03373D3D3D04F10800AB
:10264000012101F013FB32E0DAF860105346D4F8B0
:10265000B400414011F4407F0BD0196E1A6E21F482
:10266000407142F480321A661A6E22F480321A6681
:102670001966B0F5807F40F07282FFF7CFFB064607
:1026800041F2883903250327DAF86000800700F15A
:102690006382FFF7C3FB801B4845F5D9C1E70125DD
:1026A000012613E004F12800012101F05FFB05463B
:1026B000002D2E460AD1DAF84400002520F038001B
:1026C000E16F08435246CAF844003E46207880072E
:1026D00023D5A06F05280AD8DFE800F012030C12FA
:1026E000121204F10800012101F0C0FA07E00125EF
:1026F000012713E004F12800012101F037FB054612
:10270000002D2F460AD1DAF84400002520F00700FA
:10271000A16F08435246CAF8440037462078400764
:1027200025D5D4F8940005280AD8DFE800F0120374
:102730000C12121204F10800012101F097FA07E0CF
:102740000125012614E004F12800012101F00EFB0F
:102750000546002D2E460BD1DAF84800002520F062
:102760000700D4F8941008435246CAF848003E4681
:102770002078800627D5D4F890004FEA30700528DD
:102780000AD8DFE800F012030C12121204F108005C
:10279000002101F06BFA07E00125012714E004F1A4
:1027A0002800022101F0E2FA0546002D2F460BD148
:1027B000DAF84400002520F0E040D4F890100843F7
:1027C0005246CAF8440037462078400627D5D4F848
:1027D0009C004FEAB02005280AD8DFE800F0120379
:1027E0000C12121204F10800002101F03FFA07E078
:1027F0000125012614E004F12800022101F0B6FAB7
:102800000546002D2E460BD1DAF84800002520F4AD
:10281000E050D4F89C1008435246CAF848003E469F
:102820002078000627D5D4F8A0004FEA703005289C
:102830000AD8DFE800F012030C12121204F10800AB
:10284000002101F013FA07E00125012714E004F14B
:102850002800022101F08AFA0546002D2F460BD1EF
:10286000DAF84800002520F46040D4F8A0100843AE
:102870005246CAF8480037462068010717D5D4F8F1
:102880008410B1F5805F0AD104F12800022101F023
:102890006DFA0028206818BF0127D4F88410DAF8F0
:1028A0004420534622F440521143CAF84410C10652
:1028B00017D5D4F89810B1F5807F0AD104F128001B
:1028C000022101F053FA0028206818BF0127D4F82C
:1028D0009810DAF84820534622F440721143CAF89F
:1028E0004810000322D5D4F8A400B0F5003F0FD063
:1028F000B0F5803F06D088BB04F10800002101F04C
:10290000B5F904E004F12800022101F02FFA054690
:10291000002D2E460BD1DAF84800002520F4403077
:10292000D4F8A41008435246CAF848003E46A0789E
:1029300040072AD5D4F88800B0F5401F17D0B0F56D
:10294000001F0ED0B0F5801F40F00181DAF81C00A6
:10295000514640F40030CAF81C0008E00125012669
:10296000E5E704F12800012101F000FA0546002DF9
:102970002F460BD1DAF84400002520F44010D4F89B
:10298000881008435246CAF844003746A078C0076A
:1029900001D13E4622E0206DB0F5803F08D0D8B985
:1029A000DAF81C00514640F40030CAF81C0005E07B
:1029B00004F10800022101F059F90546002D2E46C8
:1029C0000CD1DAF83C00002520F48030216D08435A
:1029D0005246CAF83C00DCE7012501262168880040
:1029E00001D4606809E004F12800022101F0BEF979
:1029F000002818BF0126D4E900108A031BD5D4F89B
:102A000080206FF0010303EB3223022B0BD34FEA3C
:102A1000322343B1012B40F09D80DAF81C3043F49F
:102A20000033CAF81C303DB9DAF8443023F440735F
:102A30001A43CAF844203546CA0207D5DAF84020BE
:102A400022F00042636F1A43CAF84020CA0008D53A
:102A5000DAF8002022F48042D4F8B8301A43CAF8D9
:102A600000208A0207D5DAF8402022F08072E36E57
:102A70001A43CAF840204A000CD5DAF8002022F4A4
:102A80000042CAF80020D4F8BC20DAF800301A431B
:102A9000CAF80020B1F1FF3F07DCDAF83C2022F051
:102AA0004052636D1A43CAF83C20090208D5DAF88F
:102AB000441021F44001D4F88C201143CAF844108A
:102AC000C10708D004F10800002101F0CFF8002868
:102AD00018BF05466068810708D504F10800012188
:102AE00001F0C4F8002818BF05466068410708D502
:102AF00004F10800022101F0B9F8002818BF0546CA
:102B00006068010708D504F12800002101F02EF9C2
:102B1000002818BF05466068C10608D504F12800E2
:102B2000012101F023F9002818BF054660688006DE
:102B300003D44DB10120BDE8F08704F12800022143
:102B400001F014F92843F5D10020BDE8F0870125F4
:102B500001271BE701256FE75346D4F8B40000F4C2
:102B600040711A68B1F5407F22F47C5103D1064AC6
:102B700002EA1012114319606FF31F30196E00251D
:102B80000843186633E500BFCFFFFF002DE9F84387
:102B9000002800F0FE800446804B186800F00F000B
:102BA000884688420BD2186820F00F0040EA0800DF
:102BB0001860186800F00F00404540F0EA80206877
:102BC000CF4F41070AD52169BA6902F070029142DC
:102BD00004D9BA6922F070021143B96101070AD51C
:102BE0006169FA6902F07002914204D9FA6922F02F
:102BF00070021143F961C1060AD5A169FA6902F4AC
:102C0000E062914204D9FA6922F4E0621143F96169
:102C100081060AD5E1693A6A02F07002914204D94C
:102C20003A6A22F070021143396281070AD5E168DD
:102C3000BA6902F00F02914204D9BA6922F00F0278
:102C40001143B961C10736D0B86920F47061D4E985
:102C5000010211430328B96105D0022807D1396860
:102C600089030DD495E03968890109D491E00128E0
:102C7000396802D1C90503D48BE0490740F1898046
:102C80003969994621F0070108433861FFF7C6F812
:102C9000064641F28835386900F038006168B0EBCB
:102CA000C10F06D0FFF7BAF8801BA842F3D9032062
:102CB00070E020684B4681070AD5E168BA6902F0E6
:102CC0000F02914204D2BA6922F00F021143B96196
:102CD000196801F00F0141450AD9196821F00F0167
:102CE00041EA08011960196801F00F01414550D10E
:102CF00041070AD52169BA6902F07002914204D2F3
:102D0000BA6922F070021143B96101070AD56169FD
:102D1000FA6902F07002914204D2FA6922F070025C
:102D20001143F961C1060AD5A169FA6902F4E062AA
:102D3000914204D2FA6922F4E0621143F9618006FB
:102D40000AD5E069396A01F07001884204D2396A13
:102D500021F070010843386200F064F8B969C1F3EA
:102D600003212F4A515CBB6903F00F03D25C01F0D1
:102D70001F0120FA01F102F01F00184A21FA00F0A9
:102D80001060174A064800681160BDE8F843FFF775
:102D90007DB8012001B0BDE8F08300BF00200052E3
:102DA0000400002480B500F03DF80B490A68C2F326
:102DB000032209681A4B01F00F019A5C595C02F07A
:102DC0001F0220FA02F201F01F00044922FA00F06B
:102DD000086003490A6080BD184402580C000024B2
:102DE0000800002480B5FFF7DDFF0C490C4A096894
:102DF000C1F30211515C01F01F01C84080BD00BF4A
:102E000080B5FFF7CFFF0549054A0968C1F30221E4
:102E1000515C01F01F01C84080BD00BF1C44025836
:102E20002C52000836490869C0F3C20003280CD0B0
:102E3000022828D048BB08688006374858BF70472A
:102E40000968C1F3C101C84070478A6A886AC0F343
:102E5000051CCB6A486B03F00103C0F3CC00BCF146
:102E6000000F10FB03F000EE100AB8EE400A0ED07F
:102E700002F00302022A0CD072B9086880060ED450
:102E80009FED241A15E0204870471E487047002027
:102E900070479FED1F1A0CE09FED1C1A09E00868AF
:102EA0001D4AC0F3C10022FA00F001EE100AB8EE8C
:102EB000411A02EE10CA9FED193AB8EE422A086B89
:102EC0006FF35F2081EE021A02EE100AB8EE422A7A
:102ED000086BC0F3462000EE032AB7EE000A01306B
:102EE00032EE000A21EE000A01EE100AB8EE411A95
:102EF00080EE010ABCEEC00A10EE100A704700BF57
:102F00000044025800093D0040787D010024744AC5
:102F100020BCBE4B0024744C0090D003000000394C
:102F2000F8B5002800F0B48104460078D74EC007F9
:102F300021D12078800740F1B180306910F038014C
:102F4000B06A3CD0182908BF5FEA807037D0E068CB
:102F5000002831685CD021F0190108433060FEF789
:102F60005DFF05463068400743D4FEF757FF401B1E
:102F70000228F7D9A0E1306900F03801B06A1029C1
:102F800005D018290AD100F00300022806D13068C4
:102F90008003CED560680028CBD179E16068002835
:102FA00047D0B0F5803F06D0B0F5A02F30685ED195
:102FB00040F480203060306840F480305DE030685C
:102FC0004007E06802D5002800F06281316821F0F6
:102FD000190108433060FEF721FF054630684007BD
:102FE00007D4FEF71BFF401B02284FF00300F5D962
:102FF00063E1FEF70DFF41F20301884230D82069FA
:103000007168402821F47C3145D141F4003044E01E
:1030100021F001003060FEF701FF054630684007EF
:103020003CD5FEF7FBFE401B02284FF00300F5D90C
:1030300043E1306820F480303060306820F4802034
:103040003060FEF7EBFE0546306880037FF571AF18
:10305000FEF7E4FE401B64284FF00300F4D92CE196
:10306000706820F0FE40216940EA016015E020F41C
:1030700080303060306820F480203060FEF7CEFE73
:103080000546306880033FF554AFFEF7C7FE401B8E
:103090006428F6D910E141EA003070602078C0065B
:1030A00053D5306900F03801B06A082905D01829D5
:1030B0000BD100F00300012807D13068C00519D5F5
:1030C000E069802840F0E48014E0E069002830687E
:1030D00027D040F080003060FEF7A0FE0546306843
:1030E000C00507D4FEF79AFE401B02284FF00300EC
:1030F000F5D9E2E0FEF78CFE41F20301884208D8E0
:10310000206A7168202821F0F8411BD141F08040ED
:103110001AE0F06820F07C50216A40EA0160F0601B
:1031200013E020F080003060FEF778FE054630683E
:10313000C0050AD5FEF772FE401B02284FF00300BF
:10314000F5D9BAE041EA806070602078000723D5A5
:1031500060690028706F0ED040F001007067FEF7C4
:103160005DFE0546706F800716D4FEF757FE401BC4
:103170000228F7D9A0E020F001007067FEF74EFEAC
:103180000546706F800707D5FEF748FE401B0228F2
:103190004FF00300F5D990E02078800623D5A06990
:1031A000002830680ED040F480503060FEF736FEC4
:1031B00005463068800416D4FEF730FE401B022816
:1031C000F7D979E020F480503060FEF727FE0546FD
:1031D0003068800407D5FEF721FE401B02284FF01F
:1031E0000300F5D969E02078400753D4656A002DC3
:1031F00000F00D81306900F0380018286ED1B16AF6
:10320000012D306B44D001F00302A36A9A423FD1F2
:10321000C1F30511E26A91423AD10146226B6FF384
:103220005F21013A914233D1C0F34621626B013AEA
:1032300091422DD1C0F30641A26B013A914227D1B0
:10324000C0F30660E16B0139884221D1706BC0F395
:10325000CC00A16C814200F0DA80F06A20F001001D
:10326000F062FEF7DBFD0546FEF7D8FDA842FBD075
:10327000706B4FF6F8718843A16C40EAC10070632F
:10328000F06A40F00100F062C1E000BF0044025863
:10329000012012E0D6F8000440F48070C6F8000463
:1032A000FEF7BCFD0546D6F80004C00507D4FEF7BE
:1032B000B5FD401B6428F6D9032001B0F0BDA0681D
:1032C00060B3012806D00528306F40F0A28040F09E
:1032D00004003067306F40F00100A0E0306820F05B
:1032E00080703060FEF79AFD022D05460AD13068E5
:1032F00080012CD5FEF792FD401B02284FF0030001
:10330000F5D9DAE73068800140F18180FEF786FD6B
:10331000401B02284FF00300F4D9CEE7306F20F0B5
:1033200001003067306F20F004003067FEF776FD53
:10333000054641F28837306F80077FF557AFFEF7BB
:103340006DFD401BB8424FF00300F4D9B5E7B06AF9
:1033500040F2F3318843A16A226B0843511E626B2D
:103360004FF47E4303EB4222E36A6FF35F2192B294
:1033700040EA0310B0625018A16B4FF4FE0202EB5A
:10338000014101F4FE010844E16B4FF0FE4202EB03
:10339000016101F0FE41084430634FF6F871F06AB4
:1033A00020F00100F062706B8843A16C40EAC1001C
:1033B0007063F06A20F00C00216C0843F062F06A40
:1033C00020F00200616C0843F062F06A40F4803043
:1033D000F062F06A40F40030F062F06A40F480205D
:1033E000F062F06A40F00100F062306840F08070F6
:1033F0003060FEF713FD04463068800107D4FEF705
:103400000DFD001B02284FF00300F5D955E7002001
:1034100053E720F001003067306F20F00400306780
:10342000FEF7FCFC054641F28837306F80073FF518
:10343000DDAEFEF7F3FC401BB8424FF00300F4D9B9
:103440003BE70000411E0020B0EB116F01D00120CE
:103450007047044A5160F021034B197007219060B6
:103460001160704710E000E023ED00E090F8841058
:10347000012901D1022112E02421C0F8881002683C
:103480001368116823F0005321F00101116000213D
:10349000416613602022C0F8882080F88410084616
:1034A000704710B50446D0F88C00202806D10029BA
:1034B0004FF0010018BF002A02D110BD022010BD3C
:1034C0000120E06600202067204601F04FF9002827
:1034D000F3D1E06E01280FD120681021016200E0D5
:1034E000206850E8000F216840F0100041E8000219
:1034F000002AF5D1002010BD012010BD0A498842E4
:1035000018BF704710B5094C4FF40071204600F009
:1035100017FB00F0E7FA04484FF400722146FFF76A
:10352000C0FFBDE8104070470003002410000024D5
:103530007047B0B5044690F88400012801D10220FC
:10354000B0BD012084F884002420C4F888002068DD
:103550000568026822F001020260826822F060625F
:1035600011438160204600F05FFD20680560202047
:10357000C4F88800002084F88400B0BDB0B50446CB
:1035800090F88400012801D10220B0BD012084F808
:1035900084002420C4F8880020680568026822F0AE
:1035A00001020260826822F060421143816020467D
:1035B00000F03AFD206805602020C4F88800002053
:1035C00084F88400B0BD70477047704770B50446FA
:1035D0000068C26940F60F05034601682A4253F8A5
:1035E00008CF4AD0BC4D0CEA050EBC4D0D4015EB82
:1035F0000E054CD0D50718BF11F4807507D00125F2
:103600000562D4F8905045F00105C4F89050950734
:103610000CF0010508D53DB102260662D4F8906091
:1036200046F00406C4F89060560708D53DB104255D
:103630000562D4F8905045F00205C4F89050150783
:103640000CD501F020055EEA050607D008260662C3
:10365000D4F8906046F00806C4F89060160567D567
:1036600011F0806664D04FF400660662254655F876
:10367000900F40F0200028605CE0930607D501F031
:1036800020030CF080555B1901D0616FE9E001EA7D
:103690000203E56EDE063CD5012D3AD11021016210
:1036A0008168490600F18480B4F85C10B4F85E20AB
:1036B000B4F85E30002B00F0E480891A0A0401D1CE
:1036C000DFE0206850E8000F226820F4907042E8A4
:1036D0000003002BF5D18348226852E8022F2368AB
:1036E000024043E80226002EF6D12020C4F88C00C8
:1036F0000020E0666067206850E8000F226820F034
:10370000100042E80003002BF5D189B202202067A7
:1037100099E0D60240F19C801CF4800600F098806D
:103720004FF4801101622046BDE87040FFF74CBFA6
:1037300004F190052868002800F0A38090060CD5BD
:1037400001F020000CF08051401806D0616F21B1CB
:1037500020468847206800F108032868196800F0AF
:10376000280001F04001401800F08580204600F05C
:10377000E9FD20688168490601D477E0206850E8B7
:10378000020F216820F0400041E80202002AF5D132
:10379000D4F88000002869D051490165FDF7C2FBCB
:1037A00000286ED0D4F88000016DBDE87040084755
:1037B000D4F8802011684B689DB2002D61D0B4F818
:1037C0005C108D425DD2A4F85E30D269B2F5807F84
:1037D00001D132E0206850E8000F216820F48070A9
:1037E00041E80002002AF5D1206850E8020F216864
:1037F00020F0010041E80202002AF5D1206850E8DB
:10380000020F216820F0400041E80202002AF5D1B1
:103810002020C4F88C000020E066206850E8000FEB
:10382000216820F0100041E80002002AF5D1D4F808
:103830008000FDF7DFF9B4F85C1002202067B4F8CF
:103840005E00081A81B22046BDE87040FFF756BE00
:10385000160617D501F080060CF40005761911D074
:10386000A16F71B12046BDE8704008472046BDE811
:103870007040FFF7AABE2046FFF7A7FE0020C4F85D
:10388000900070BD5B060AD410021BD511F0804079
:1038900018D02046BDE87040FFF795BE206850E87C
:1038A000000F216820F0400041E80002002AF5D115
:1038B0002020C4F888000020A0672046BDE87040A2
:1038C00000F00CB9D001DCD5B1F1FF3FD9DC2046C6
:1038D000BDE87040FFF72CBE01000010200100047D
:1038E000F9410008FEFFFFEF10B5E0B10446D0F843
:1038F000880028B9002084F88400204600F028F8C9
:103900002420C4F888002068A16A0268002922F0F7
:103910000102026002D0204600F0B0FB204600F019
:1039200057FD012801D1012010BD2068416821F414
:1039300090414160816821F02A018160016841F075
:10394000010101602046BDE8104000F0FBBB000013
:103950002DE9F041B8B0044633A81421FCF7F0FC7F
:1039600002A8C021FCF7ECFC2068BD49884263D165
:1039700001200026029002A803962196FEF73AFC49
:1039800008B1FDF732F99B4801692D4F41F0100154
:103990000161016901F0100101910199016841F093
:1039A0000101016033A9006800F001000190019855
:1039B0004FF4C06033900220CDE9340607203696DC
:1039C00037902048FEF754F91F4D2920B846C5E925
:1039D00000704FF48067AE6005F114001421C5E952
:1039E0000367FCF7ADFC2846FDF740FE08B1FDF784
:1039F000FCF8C4F8805008F11800AC632A21134D7C
:103A0000286040206960002105F1080283C205F1A9
:103A100014001421FCF794FC2846FDF727FE08B19A
:103A2000FDF7E3F82520E5670521AC630022FEF7EA
:103A30006FFA2520FEF75EFA38B0BDE8F08100BFCE
:103A400010000240000002581002002488020024E6
:103A500070477047B0B50446D0F88800202825D1BB
:103A600011B3134602B3002521652120A4F8543078
:103A7000A4F85630C4F89050C4F88800E06FB8B18C
:103A8000DFF84CC0DFF84CE0134AC0E90FCEC26447
:103A9000226828320565FDF79DFF48B11020C4F863
:103AA00090002020C4F888000120B0BD0220B0BDE5
:103AB00020684021016200E0206850E8020F216880
:103AC00040F0800041E80202002AF5D10020B0BD9C
:103AD000FF4200083D430008094200087047704754
:103AE000FEE7000010B58021434C2046FEF786F922
:103AF000C0F10100C2B280212046BDE81040FEF7AF
:103B000082B900BF83B010B5ADF5017D0DF5037C22
:103B100001ACACE80E0083AB024600934FF4007199
:103B2000204600F0F9FE2046FCF715FC81B2204645
:103B300000F006F80DF5017DBDE8104003B07047B8
:103B4000464A0B46014610461A46FFF783BF00BFA0
:103B500042484FF400720149FFF7A3BC1000002453
:103B6000E0B50E480168002241F001010160052125
:103B7000006800F00100019001980B20FEF7C8F9E1
:103B80000B20FEF7B7F90C2005210022FEF7C0F943
:103B90000C20BDE88C40FEF7ADB900BFD8440258F8
:103BA00070B586B000251348134C059500220168B6
:103BB000802641F080010160016801F080010091E0
:103BC0000099016841F0010101608021006800F066
:103BD0000100009000982046FEF715F9012001969B
:103BE000CDE9020501A904952046FEF741F806B08B
:103BF00070BD00BFE0440258001C025810B5174CBD
:103C000017484FF4E13120600020C4E901100C2175
:103C1000E060C4E9040104F118001421FCF790FBF2
:103C20002046FFF761FE08B1FCF7DFFF0B480021DB
:103C3000FFF7A4FC08B1FCF7D8FF08480021FFF704
:103C400078FC08B1FCF7D1FF0448FFF70FFC18B16E
:103C5000BDE81040FCF7C9BF10BD00BF0003002441
:103C600000100140FEE7FEE770470000F8B5E64FA0
:103C7000BA6A02F00302032A01D1012074E005466A
:103C8000386820F080600C463860FEF7C7F80646BA
:103C90003868000105D5FEF7C1F8801B0228F7D966
:103CA0005FE0B86A4FF47E43696820F47C30AA680C
:103CB000013903EB42222B686FF35F2192B240EA95
:103CC00003301144EA684FF4FE03B86203EB02428A
:103CD00002F4FE02881829694FF0FE4202EB0161EE
:103CE00001F0FE410844B863002CF86A20F0C000DF
:103CF000696940EA0100F862F86A20F02000A969C9
:103D000040EA0100F8624FF6F871F86A20F01000FE
:103D1000F862F86B20EA0100E96940EAC100F86343
:103D2000F86A40F01000F86205D0012CF86A06D15C
:103D300040F4801005E0F86A40F4002001E040F40F
:103D40000010F862386840F080603860FEF766F86E
:103D500004463868000106D4FEF760F8001B03280B
:103D6000F7D3032000E0002001B0F0BDF8B5A64F66
:103D7000BA6A02F00302032A01D1012074E0054669
:103D8000386820F080500C463860FEF747F8064649
:103D90003868800005D5FEF741F8801B0228F7D966
:103DA0005FE0B86A4FF47E43696820F07C70AA68CF
:103DB000013903EB42222B686FF35F2192B240EA94
:103DC00003501144EA684FF4FE03B86203EB024269
:103DD00002F4FE02881829694FF0FE4202EB0161ED
:103DE00001F0FE4108443864002CF86A20F4406079
:103DF000696940EA0100F862F86A20F40070A96974
:103E000040EA0100F8624FF6F871F86A20F4807019
:103E1000F862786C20EA0100E96940EAC100786440
:103E2000F86A40F48070F86205D0012CF86A06D177
:103E300040F4000005E0F86A40F4800001E040F042
:103E40008070F862386840F080503860FDF7E6FF17
:103E500004463868800006D4FDF7E0FF001B032805
:103E6000F7D3032000E0002001B0F0BD7047FDF75C
:103E7000D9BF0000B0B59CB009A83B4C3B4D4C21CC
:103E8000FCF75EFA01A82021FCF75AFA0220FEF79F
:103E90006FF800200090286820F001002860286852
:103EA00000F001000090206840F44040206020684D
:103EB00000F440400090009820688004FCD52C4815
:103EC000215841F002012150205800F002000090DA
:103ED000009800200090206840F440402060206856
:103EE00000F440400090286840F0010028602868F5
:103EF00000F001000090009820688004FCD50120AB
:103F000009904FF480300A9002200521CDE912007B
:103F10001491C021CDE91510CDE917000824002522
:103F2000199409A8CDE91A55FEF7FAFF18B1EFF375
:103F3000108072B6FEE73F2001900320CDE9020514
:103F4000402004944FF48061CDE90500CDE90710CD
:103F500001A80421FEF71AFE18B1EFF3108072B623
:103F6000FEE71CB0B0BD00BF184802582C04005832
:103F7000DCFCFFFF23480168214A41F47001016025
:103F8000106800F00F00062804D81068072161F3BC
:103F90000300106010B51C4801681C4C41F0010181
:103FA00001600021016103682340036013681B075F
:103FB00004D51368072464F303031360144A816172
:103FC000C16101628262134AC262134A02634163A1
:103FD0008263C16302644164026822F48022026049
:103FE00001660E480068B1EB507FBDE8104002D179
:103FF00001200B49086043F2D2000A49086070476B
:104000000020005288ED00E0004402587FEDF6EAFF
:10401000000202020000FF01800201010010005CAA
:104020000881005100400052416ED9B180B501684D
:104030008A68C2F342628968490FDFF838C01CF809
:104040000130DFF834E01EF801101B01B3FBF1F181
:104050001CF802301EF802201B01B3FBF2F2BDE88F
:10406000804001E001210122A0F86A10A0F8682038
:10407000704700BF5C52000864520008816A0A075A
:1040800008D50268D0F838C0536823F4004343EAE7
:104090000C035360CA0708D00268D0F82CC05368DC
:1040A00023F4003343EA0C0353608A0708D50268FF
:1040B000D0F830C0536823F4803343EA0C035360D4
:1040C0004A0708D50268D0F834C0536823F4802327
:1040D00043EA0C035360CA0608D50268D0F83CC016
:1040E000936823F4805343EA0C0393608A0608D54F
:1040F0000268D0F840C0936823F4005343EA0C03ED
:1041000093604A0612D50268D0F844C05368BCF5E3
:10411000801F23F4801343EA0C03536006D15368D5
:1041200023F4C00C836C43EA0C035360090658BFA8
:1041300070470168C06C4A6822F40022104348604E
:1041400070470000BCB500210446C0F89010FDF790
:1041500065FE216805460A68120718D525484FF400
:1041600000110090002220462B4600F04DFB68B164
:10417000206850E8000F216820F0800041E800022C
:10418000002AF5D12020C4F8880024E021680868BE
:10419000400722D517484FF48001009000222046A6
:1041A0002B4600F031FBC0B1206850E8000F2168B9
:1041B00020F4907041E80002002AF5D1206850E810
:1041C000020F216820F0010041E80202002AF5D127
:1041D0002020C4F88C00032007E02020C4F88800C9
:1041E000C4F88C000020E0662067002184F8841069
:1041F00002B0B0BDFFFFFF01806B0021A0F85E1090
:10420000A0F85610FFF7E1B9B0B5846B2068D4F878
:104210008810D4F88C50212950F8081F0AD111F0C9
:10422000800107D00020A4F85600204600F0B8F81E
:1042300020680830222D006808D110F0400005D019
:104240000020A4F85E00204600F07CF8D4F890002E
:1042500040F01000C4F890002046BDE8B040FFF7E1
:10426000B4B9C169B1F5807F806B30D00021A0F86E
:104270005E10016851E8001F026821F4807142E875
:104280000013002BF5D1016851E8021F026821F0EC
:10429000010142E80213002BF5D1016851E8021F29
:1042A000026821F0400142E80213002BF5D12021E1
:1042B000C0F88C10C16E012909D1016851E8001FB6
:1042C000026821F0100142E80013002BF5D1002113
:1042D0000167C16E012903D1B0F85C10FFF70EB978
:1042E000FFF7B6BB806B01210167C16E012904D1C4
:1042F000B0F85C104908FFF701B9FFF7AABBC16924
:10430000B1F5807F806B01D1FFF7E8BB0021A0F8F9
:104310005610016851E8021F026821F0800142E84E
:104320000213002BF5D1016851E8001F026841F02B
:10433000400142E80013002BF5D17047806BFFF776
:10434000CEBB0000016851E8001F026821F49071A3
:1043500042E80013002BF5D110B5104C026852E86A
:10436000022F0368224043E802210029F6D1C16EE2
:104370000129BDE8104009D1016851E8001F026819
:1043800021F0100142E80013002BF5D12021C0F8E4
:104390008C100021C1664167704700BFFEFFFFEF30
:1043A000016851E8001F026821F0C00142E80013D3
:1043B000002BF5D1016851E8021F026821F40001C9
:1043C00042E80213002BF5D12021C0F88810704775
:1043D000FEB50446006804F108038D4D8B4E0ECBEC
:1043E000194363690B43E16907680B432F409D4DF7
:1043F0003B430360A842436823F4405342EA03026C
:104400004260A2691CBF236A1A4383683340964EF8
:104410001A438260B042C26A944E22F00F03626A6D
:1044200043EA0203C36228D0914B984232D0914BA9
:1044300098423CD0904B984246D0904B984200F026
:1044400050808F4B984200F05880A84200F0618065
:104450008C4B984200F069808B4B984240F07B80F7
:10446000736DB446C3F3C206052E00F275800123B6
:10447000DFE806F07367696B6D6F736DB44603F028
:104480000706052E00F268800023DFE806F0665A72
:104490005C5E6062736DB44603F00706052E00F2A1
:1044A0005B800023DFE806F0594D4F515355736D83
:1044B000B44603F00706052E00F24E800023DFE825
:1044C00006F04C4042444648736DB44603F007067C
:1044D000052E00F241800023DFE806F03F33353738
:1044E000393B736DB44603F00706052E34D800231C
:1044F000DFE806F03327292B2D2F736DB44603F028
:104500000706052E28D80023DFE806F0271B1D1F0D
:104510002123B36DB44603F00706052E1CD80223F1
:10452000DFE806F01B0F11131517736DB446C3F3C4
:10453000C206052E10D80123DFE806F00F03050799
:10454000090B042309E0082307E0102305E02023DA
:1045500003E0402301E0B4468023A8427F4810D006
:10456000B1F5004F1DD1082B4FF0010127D8DFE82E
:1045700003F0058DD5D590D5D5D59400FEF732FC46
:104580008FE0402B32D0042B33D0082B35D0102BAA
:1045900040D0202B48D0022B40F0BF80FDF70CFD0F
:1045A0002FE0082B4FF0010114D8DFE803F0059449
:1045B000B7B797B7B7B79B00FEF714FC96E0102B80
:1045C00000F0B580202B6ED0402B40F0A7804FF438
:1045D000004068E0102B00F0B580202B00F08880B0
:1045E000402B40F09B804FF4004081E04FF40040AE
:1045F0001AE06846FDF7F2FC02E06846FDF774FD3C
:104600000198002800F08780626A0DE0FFF4FF1136
:10461000F369FFCFDCF8000065468006504803D5FB
:104620002968C1F3C101C8404E4931F812106268CF
:10463000B0FBF1F002EB420188424FF001016DD373
:10464000130398426AD8010E000210EB520041F1A8
:1046500000010023FBF73CFEA0F54071424A914265
:1046600057D95AE0000C005800440040004402585A
:1046700000480040004C00400050004000780040DE
:10468000007C00400014014000100140FEF7B8FB20
:1046900007E06846FDF7A2FC02E06846FDF724FD4E
:1046A0000198C0B3626A2F4931F81210B0FBF1F0E3
:1046B00061684A0802EB4000B0FBF1F04FF6EF7280
:1046C000A0F11001914228D84FF6F071C0F34202D8
:1046D000084010441DE0FEF793FB07E06846FDF735
:1046E0007DFC02E06846FDF7FFFC019898B1626A24
:1046F0001C4931F812104FF6EF72B0FBF1F061680F
:1047000000EB5100B0FBF1F0A0F11001914204D890
:1047100080B22168C860002100E001214FF0011043
:10472000A0660020C4E91D00084603B0F0BDDCF817
:104730000000654680060A48B5D52968C1F3C10165
:10474000C840B0E7DCF80000654680060448CFD5D5
:104750002968C1F3C101C840CAE700BF00093D0094
:104760000090D0033C520008FFFC0F00B0B50025BC
:1047700081650446A0F85C20C0F890502220C4F85F
:104780008C001346D4F88000B0B10A46DFF86CC044
:10479000DFF86CE01B49C0E90FCEC1642168243109
:1047A0000565FDF717F938B11020C4F890002020F6
:1047B000C4F88C000120B0BD206948B1206850E8E1
:1047C000000F216840F4807041E80002002AF5D112
:1047D000206850E8020F216840F0010041E8020221
:1047E000002AF5D1206850E8020F216840F040000F
:1047F00041E80202002AF5D10020B0BD6342000862
:10480000E5420008094200082DE9F843DDF8209050
:10481000984616460F460446006809F10105C1692D
:104820003940C91BB1FA81F14909B14229D1002DA2
:10483000F5D0FDF7F3FAB9F1000F01464FF0030090
:1048400020D0A1EB080149451CD820680168490720
:10485000E5D5402F18BF802FE1D0C169090714D4D6
:10486000C1690905DBD54FF4006101622046FFF7FD
:1048700069FD2020C4F89000002084F88400032003
:1048800000E0002001B0BDE8F08308250562204665
:10489000FFF758FD0020C4F8905084F884000120F0
:1048A000F0E700000148FEF791BE00BF00030024BE
:1048B000FEE7000000F00F02054B1A44054BB0F173
:1048C000FF3F4FEA0111C8BFC2181170704700BF07
:1048D00014ED00E000E400E0FDF7AEFAFFF7CAFADD
:1048E000FFF75EF9FFF73CF9FFF788F9FFF730F9BA
:1048F00004A44FF47A70FDF7ABF91D212046FFF7B1
:1049000001F9F6E74920616D20256420796561721F
:1049100073206F6C640A0D007CB5044600201D46B0
:10492000164600290BD0491ECDE90041044B6A46CA
:104930002946304600F0D8F8009A002111707CBD5D
:104940001752000802E008C8121F08C1002AFAD155
:1049500070477047002001E001C1121F002AFBD1FF
:10496000704700002DE9FF5F82B00021DDE90430CF
:10497000020DDDF840B0034318D044F61050A2F207
:10498000FF3242431514119801281FD0A5EB0B00EC
:10499000401C5FEA000A4FF000064E4FDFF83891E6
:1049A000B046504615D5CAF1000413E01198012411
:1049B0004AA3012801D16FEA0B010298119AC0E9BC
:1049C0000031C0E9024206B0BDE8F09FCBF1000023
:1049D000DFE704460021404A491842EB0450CDE984
:1049E000001012E0E00707D032463B4640464946F9
:1049F000FBF794FD8046894632463B4610461946F1
:104A0000FBF78CFD06460F466410002CEAD1DDE969
:104A10000401DDE90023BAF1000F06DAFBF77EFDA1
:104A200042464B46FBF77AFD05E0FBF7E9FD4246BF
:104A30004B46FBF7E5FD04460E460022284BFBF7EC
:104A400067FE03D84FF0FF30014607E00022254BF8
:104A500020463146FBF7BBFCFBF741FE102409E082
:104A6000002C0ADB0A220023FBF732FC039B3032C6
:104A70001A55641E50EA0102F2D1641C039AC4F173
:104A800011031444119A012A03D0012208430DD1C5
:104A90000AE0084304D000204FF0110B119072E798
:104AA000A3EB0B056D1E0DE05B4504DD4FF000022E
:104AB00005F1010504E003DA4FF00002A5F101055C
:104AC000002AECD002981199C0E90231C0E90045F2
:104AD00079E70000000014400000F03F30000000C3
:104AE0000000F0430000E03F2DE9FF4F95B09B46EA
:104AF0008946064600250FE2252877D1002427465F
:104B0000F84A0121059400E0044316F8013F203BD8
:104B100001FA03F01042F7D130782A2811D06FF053
:104B20002F033078A0F13002092A16D8059A44F0F4
:104B3000020402EB820203EB42021044761C059051
:104B4000EFE759F8042B0592002A03DA504244F4A7
:104B50000054059044F00204761C30782E2816D1BB
:104B600016F8010F44F004042A280DD06FF02F022C
:104B70003078A0F13003092B09D807EB870302EB4B
:104B80004303C718761CF3E759F8047B761C30788A
:104B90006C280FD006DC4C2817D068280DD06A2866
:104BA00014D104E0742810D07A280FD10DE044F419
:104BB00000140AE044F4801401E044F440147278D4
:104BC000824202D104F58014761C761C3078662867
:104BD0000BD013DC582877D009DC002875D0452885
:104BE000F6D04628F4D047281AD19DE118E0632872
:104BF00035D0642879D0652812D195E1702873D01A
:104C000008DC6728F1D069286FD06E280DD06F2896
:104C100006D1B5E073282CD0752875D0782874D0CB
:104C20005A46179990476D1C75E1C4F3025002284B
:104C300009D003280DD0D9F8001004280DD00D603C
:104C400009F1040967E1D9F80010EA17C1E9005237
:104C5000F6E7D9F800100D80F2E70D70F0E719F8CB
:104C6000041B8DF8001000208DF80100EA46012099
:104C700003E059F804AB4FF0FF3061074FF000013B
:104C800002D40DE008F101018846B9420FDA8045EF
:104C9000F8DB1AF808100029F4D108E008F1010146
:104CA00088468142FADB1AF808100029F6D10598E7
:104CB0005B46A0EB080721463846179A00F094FAA5
:104CC000284400EB080507E04DE029E10DE01AF863
:104CD000010B5A4617999047B8F10108F7D25B4685
:104CE00021463846179A13E142E00A220092C4F3A3
:104CF00002524FF0000A022A08D059F804CB032AC6
:104D00004FEAEC710AD00DE029E02AE009F1070131
:104D100021F00702F2E802C1914609E00FFA8CFC8B
:104D20004FEAEC71042A03D14FFA8CFC4FEAEC7184
:104D3000002907DA0A460021DCF1000C61EB0201D0
:104D40002D2202E0220504D52B228DF80420012219
:104D500003E0E20701D02022F7E7904659E00A215C
:104D600002E010220DE010214FF0000A00910BE04C
:104D700010224FF0000A44F004040827009203E0D8
:104D800008224FF0000A0092C4F30252022A05D012
:104D900059F804CB0021032A08D009E009F10701E2
:104DA00021F00702F2E802C1914605E01FFA8CFCEF
:104DB000042A01D10CF0FF0C4FF00008220728D57F
:104DC000702806D0009B83F0100353EA0A0305D035
:104DD0000EE040228DF80420012208E05CEA010286
:104DE00006D030228DF804208DF80500022290466E
:104DF000009B83F0080353EA0A030AD15CEA01022C
:104E000001D1620705D530228DF804204FF001084A
:104E10007F1E582804D034A003900EA802900DE005
:104E200036A0F9E753466046009AFBF751FA8446EC
:104E30000398825C0298401E029002705CEA0100B6
:104E4000F0D1029806A9081A00F1200A600702D5DD
:104E500024F4803400E00127574502DDA7EB0A0067
:104E600000E0002000EB0A01009005984144401A40
:104E70000590E00306D45B462146179A059800F09A
:104E8000B3F90544002706E001A85A46C05D17990A
:104E900090476D1C7F1C4745F6DBE0030CD55B4655
:104EA0002146179A059800F09FF9054404E0302048
:104EB0005A46179990476D1C0099481E009000298A
:104EC000F5DC08E0029802995A460078491C0291E4
:104ED000179990476D1CBAF10001AAF1010AF1DCA3
:104EE00065E10000092801003031323334353637AE
:104EF0003839616263646566000000003031323326
:104F000034353637383941424344454600000000C5
:104F100000F058F90544761C307800287FF4ECAD99
:104F200019B02846BDE8F08F620700D4062709F1C2
:104F3000070222F0070CFCE80223E14603F00048D8
:104F40005FEA080C02D00FF2702C0DE05FEA045CFF
:104F500002D50FF2682C07E05FEAC47C02D00FF2A2
:104F6000602C01E0AFF2700C4FF0FF3823F00043EB
:104F7000CDF850C065280CD006DC452809D046285D
:104F80001DD047283DD13DE0662818D067287ED146
:104F900038E00021112F01DB112000E0781CCDE961
:104FA000000106A90EA8FFF7DDFCDDE90F010E9A4E
:104FB00003910021009207F1010A04914DE04FF0A6
:104FC00000400097CDE9011006A90EA8FFF7CAFC22
:104FD000DDE90F0203920E9B11990022DDF80CA06F
:104FE0000093049211B9791C00EB010AB7EB0A0097
:104FF00004D4C0F1FF3007F1010A0490AAEB0700C6
:10500000019044E0012F00DA01270021112F01DD7A
:10501000112000E03846CDE9000106A90EA8FFF7EF
:10502000A1FCDDE90F010E9A039100210491009289
:10503000BA4621070CD40399514500DA8A46BAF1E1
:10504000010F05DD009AAAF10101515C302908D059
:10505000B84202DA10F1040F06DA0121CDE901109D
:1050600015E0AAF10101E9E7002805DC04990144F3
:105070000491AAEB000102E0411C514500DD8A4683
:105080000499401A401C01904FF000400290200704
:1050900004D40198504501DBCDF8048000208DF840
:1050A0004F0002980DF14F07B0F1004F25D02B2093
:1050B0000E9002984FF0020800280CDA404202904D
:1050C0002D200E9007E00A210298FBF74BF93031B2
:1050D000029007F8011DB8F10001A8F10108F2DC07
:1050E00002980028EFD1791E0E980870307800F0F1
:1050F000200040F0450007F8020D12A8C01B00F187
:1051000007081498007800B1012000EB0A0101980B
:1051100001EBE07105984144401A401E0590E00300
:1051200006D45B462146179A059800F05DF80544C1
:105130001498007818B15A46179990476D1CE003EF
:1051400024D55B462146179A059800F04DF8054492
:105150001CE00498002807DBDDE90301884203DD39
:105160000098405C179901E0179930205A46904703
:10517000049805F10105401C04900198401E01901F
:1051800004D12E205A46179990476D1CBAF10001A0
:10519000AAF1010ADDDC05E017F8010B5A46179960
:1051A00090476D1CB8F10001A8F10108F4DC5B46E2
:1051B0002146179A0598ABE62D0000002B00000051
:1051C000200000002DE9F041044600251E46174648
:1051D000880404D405E039462020B0476D1C641EC5
:1051E000F9D52846BDE8F0812DE9F04104460025B7
:1051F0001E469046C80301D5302700E020278804CA
:1052000004D505E041463846B0476D1C641EF9D50B
:105210002846BDE8F0814A68002A06D00A68531C77
:105220000B6010704868401E486070470000000026
:105230000102030401020304060708090100020039
:105240000400060008000A000C00100020004000C6
:10525000800000010006101600061016010101036F
:10526000070100000804020408010101905200082F
:10527000000000241000000044490008A05200086B
:1052800010000024880700005449000800000000B6
:1052900001000000100000000090D0030090D00337
:040000050800029954
:00000001FF
